{"contracts/MerkleTree.sol":{"MerkleTree":{"abi":[{"inputs":[],"stateMutability":"nonpayable","type":"constructor"},{"inputs":[],"name":"MAX_LEAVES","outputs":[{"internalType":"uint256","name":"","type":"uint256"}],"stateMutability":"view","type":"function"},{"inputs":[],"name":"TREE_DEPTH","outputs":[{"internalType":"uint256","name":"","type":"uint256"}],"stateMutability":"view","type":"function"},{"inputs":[{"internalType":"uint256","name":"","type":"uint256"}],"name":"filledSubtrees","outputs":[{"internalType":"bytes32","name":"","type":"bytes32"}],"stateMutability":"view","type":"function"},{"inputs":[],"name":"nextLeafIndex","outputs":[{"internalType":"uint256","name":"","type":"uint256"}],"stateMutability":"view","type":"function"},{"inputs":[],"name":"root","outputs":[{"internalType":"bytes32","name":"","type":"bytes32"}],"stateMutability":"view","type":"function"},{"inputs":[{"internalType":"uint256","name":"","type":"uint256"}],"name":"zeroHashes","outputs":[{"internalType":"bytes32","name":"","type":"bytes32"}],"stateMutability":"view","type":"function"}],"evm":{"bytecode":{"linkReferences":{},"object":"608060405234801561000f575f5ffd5b505f805560015b60148111610088576100625f61002d600184611b62565b6015811061003d5761003d611b3a565b01545f61004b600185611b62565b6015811061005b5761005b611b3a565b01546100da565b5f826015811061007457610074611b3a565b01558061008081611b75565b915050610016565b505f5b601481116100ce575f81601581106100a5576100a5611b3a565b0154601582601581106100ba576100ba611b3a565b0155806100c681611b75565b91505061008b565b50601454602b55611bbf565b5f6100e583836100ee565b90505b92915050565b5f806100f861014e565b90505f60405180608001604052806101158761169660201b60201c565b81526020018581526020015f81526020015f815250905061014481835f0151846020015161169960201b60201c565b5195945050505050565b610156611ac9565b604051806040016040528060405180608001604052807f10dc6e9c006ea38b04b1e03b4bd9490c0d03f98929ca1d7fb56821fd19d3b6e781526020017f0c28145b6a44df3e0149b3d0a30b3bb599df9756d4dd9b84a86b38cfb45a740b81526020017e544b8338791518b2c7645a50392798b21f75bb60e3596170067d00141cac1581526020017f222c01175718386f2e2e82eb122789e352e105a3b8fa852613bc534433ee428b815250815260200160405180610800016040528060405180608001604052807f19b849f69450b06848da1d39bd5e4a4302bb86744edc26238b0878e269ed23e581526020017f265ddfe127dd51bd7239347b758f0a1320eb2cc7450acc1dad47f80c8dcf34d681526020017f199750ec472f1809e0f66a545e1e51624108ac845015c2aa3dfc36bab497d8aa81526020017f157ff3fe65ac7208110f06a5f74302b14d743ea25067f0ffd032f787c7f1cdf8815250815260200160405180608001604052807f2e49c43c4569dd9c5fd35ac45fca33f10b15c590692f8beefe18f4896ac9490281526020017f0e35fb89981890520d4aef2b6d6506c3cb2f0b6973c24fa82731345ffa2d1f1e81526020017f251ad47cb15c4f1105f109ae5e944f1ba9d9e7806d667ffec6fe723002e0b99681526020017f13da07dc64d428369873e97160234641f8beb56fdd05e5f3563fa39d9c22df4e815250815260200160405180608001604052807f0c009b84e650e6d23dc00c7dccef7483a553939689d350cd46e7b89055fd473881526020017f011f16b1c63a854f01992e3956f42d8b04eb650c6d535eb0203dec74befdca0681526020017f0ed69e5e383a688f209d9a561daa79612f3f78d0467ad45485df07093f36754981526020017f04dba94a7b0ce9e221acad41472b6bbe3aec507f5eb3d33f463672264c9f789b815250815260200160405180608001604052807f0a3f2637d840f3a16eb094271c9d237b6036757d4bb50bf7ce732ff1d4fa28e881526020017f259a666f129eea198f8a1c502fdb38fa39b1f075569564b6e54a485d1182323f81526020017f28bf7459c9b2f4c6d8e7d06a4ee3a47f7745d4271038e5157a32fdf7ede0d6a181526020017f0a1ca941f057037526ea200f489be8d4c37c85bbcce6a2aeec91bd6941432447815250815260200160405180608001604052807f0c6f8f958be0e93053d7fd4fc54512855535ed1539f051dcb43a26fd926361cf81526020015f81526020015f81526020015f815250815260200160405180608001604052807f123106a93cd17578d426e8128ac9d90aa9e8a00708e296e084dd57e69caaf81181526020015f81526020015f81526020015f815250815260200160405180608001604052807f26e1ba52ad9285d97dd3ab52f8e840085e8fa83ff1e8f1877b074867cd2dee7581526020015f81526020015f81526020015f815250815260200160405180608001604052807f1cb55cad7bd133de18a64c5c47b9c97cbe4d8b7bf9e095864471537e6a4ae2c581526020015f81526020015f81526020015f815250815260200160405180608001604052807f1dcd73e46acd8f8e0e2c7ce04bde7f6d2a53043d5060a41c7143f08e6e9055d081526020015f81526020015f81526020015f815250815260200160405180608001604052807f011003e32f6d9c66f5852f05474a4def0cda294a0eb4e9b9b12b9bb4512e557481526020015f81526020015f81526020015f815250815260200160405180608001604052807f2b1e809ac1d10ab29ad5f20d03a57dfebadfe5903f58bafed7c508dd2287ae8c81526020015f81526020015f81526020015f815250815260200160405180608001604052807f2539de1785b735999fb4dac35ee17ed0ef995d05ab2fc5faeaa69ae87bcec0a581526020015f81526020015f81526020015f815250815260200160405180608001604052807f0c246c5a2ef8ee0126497f222b3e0a0ef4e1c3d41c86d46e43982cb11d77951d81526020015f81526020015f81526020015f815250815260200160405180608001604052807f192089c4974f68e95408148f7c0632edbb09e6a6ad1a1c2f3f0305f5d03b527b81526020015f81526020015f81526020015f815250815260200160405180608001604052807f1eae0ad8ab68b2f06a0ee36eeb0d0c058529097d91096b756d8fdc2fb5a60d8581526020015f81526020015f81526020015f815250815260200160405180608001604052807f179190e5d0e22179e46f8282872abc88db6e2fdc0dee99e69768bd98c5d06bfb81526020015f81526020015f81526020015f815250815260200160405180608001604052807f29bb9e2c9076732576e9a81c7ac4b83214528f7db00f31bf6cafe794a9b3cd1c81526020015f81526020015f81526020015f815250815260200160405180608001604052807f225d394e42207599403efd0c2464a90d52652645882aac35b10e590e6e691e0881526020015f81526020015f81526020015f815250815260200160405180608001604052807f064760623c25c8cf753d238055b444532be13557451c087de09efd454b23fd5981526020015f81526020015f81526020015f815250815260200160405180608001604052807f10ba3a0e01df92e87f301c4b716d8a394d67f4bf42a75c10922910a78f6b5b8781526020015f81526020015f81526020015f815250815260200160405180608001604052807f0e070bf53f8451b24f9c6e96b0c2a801cb511bc0c242eb9d361b77693f21471c81526020015f81526020015f81526020015f815250815260200160405180608001604052807f1b94cd61b051b04dd39755ff93821a73ccd6cb11d2491d8aa7f921014de252fb81526020015f81526020015f81526020015f815250815260200160405180608001604052807f1d7cb39bafb8c744e148787a2e70230f9d4e917d5713bb050487b5aa7d74070b81526020015f81526020015f81526020015f815250815260200160405180608001604052807f2ec93189bd1ab4f69117d0fe980c80ff8785c2961829f701bb74ac1f303b17db81526020015f81526020015f81526020015f815250815260200160405180608001604052807f2db366bfdd36d277a692bb825b86275beac404a19ae07a9082ea46bd8351792681526020015f81526020015f81526020015f815250815260200160405180608001604052807f062100eb485db06269655cf186a68532985275428450359adc99cec6960711b881526020015f81526020015f81526020015f815250815260200160405180608001604052807f0761d33c66614aaa570e7f1e8244ca1120243f92fa59e4f900c567bf41f5a59b81526020015f81526020015f81526020015f815250815260200160405180608001604052807f20fc411a114d13992c2705aa034e3f315d78608a0f7de4ccf7a72e494855ad0d81526020015f81526020015f81526020015f815250815260200160405180608001604052807f25b5c004a4bdfcb5add9ec4e9ab219ba102c67e8b3effb5fc3a30f317250bc5a81526020015f81526020015f81526020015f815250815260200160405180608001604052807f23b1822d278ed632a494e58f6df6f5ed038b186d8474155ad87e7dff62b37f4b81526020015f81526020015f81526020015f815250815260200160405180608001604052807f22734b4c5c3f9493606c4ba9012499bf0f14d13bfcfcccaa16102a29cc2f69e081526020015f81526020015f81526020015f815250815260200160405180608001604052807f26c0c8fe09eb30b7e27a74dc33492347e5bdff409aa3610254413d3fad795ce581526020015f81526020015f81526020015f815250815260200160405180608001604052807f070dd0ccb6bd7bbae88eac03fa1fbb26196be3083a809829bbd626df348ccad981526020015f81526020015f81526020015f815250815260200160405180608001604052807f12b6595bdb329b6fb043ba78bb28c3bec2c0a6de46d8c5ad6067c4ebfd4250da81526020015f81526020015f81526020015f815250815260200160405180608001604052807f248d97d7f76283d63bec30e7a5876c11c06fca9b275c671c5e33d95bb7e8d72981526020015f81526020015f81526020015f815250815260200160405180608001604052807f1a306d439d463b0816fc6fd64cc939318b45eb759ddde4aa106d15d9bd9baaaa81526020015f81526020015f81526020015f815250815260200160405180608001604052807f28a8f8372e3c38daced7c00421cb4621f4f1b54ddc27821b0d62d3d6ec7c56cf81526020015f81526020015f81526020015f815250815260200160405180608001604052807e94975717f9a8a8bb35152f24d43294071ce320c829f388bc852183e1e2ce7e81526020015f81526020015f81526020015f815250815260200160405180608001604052807f04d5ee4c3aa78f7d80fde60d716480d3593f74d4f653ae83f4103246db2e8d6581526020015f81526020015f81526020015f815250815260200160405180608001604052807f2a6cf5e9aa03d4336349ad6fb8ed2269c7bef54b8822cc76d08495c12efde18781526020015f81526020015f81526020015f815250815260200160405180608001604052807f2304d31eaab960ba9274da43e19ddeb7f792180808fd6e43baae48d7efcba3f381526020015f81526020015f81526020015f815250815260200160405180608001604052807f03fd9ac865a4b2a6d5e7009785817249bff08a7e0726fcb4e1c11d39d199f0b081526020015f81526020015f81526020015f815250815260200160405180608001604052807eb7258ded52bbda2248404d55ee5044798afc3a209193073f7954d4d63b0b6481526020015f81526020015f81526020015f815250815260200160405180608001604052807f159f81ada0771799ec38fca2d4bf65ebb13d3a74f3298db36272c5ca65e92d9a81526020015f81526020015f81526020015f815250815260200160405180608001604052807f1ef90e67437fbc8550237a75bc28e3bb9000130ea25f0c5471e144cf4264431f81526020015f81526020015f81526020015f815250815260200160405180608001604052807f1e65f838515e5ff0196b49aa41a2d2568df739bc176b08ec95a79ed82932e30d81526020015f81526020015f81526020015f815250815260200160405180608001604052807f2b1b045def3a166cec6ce768d079ba74b18c844e570e1f826575c1068c94c33f81526020015f81526020015f81526020015f815250815260200160405180608001604052807f0832e5753ceb0ff6402543b1109229c165dc2d73bef715e3f1c6e07c168bb17381526020015f81526020015f81526020015f815250815260200160405180608001604052807f02f614e9cedfb3dc6b762ae0a37d41bab1b841c2e8b6451bc5a8e3c390b6ad1681526020015f81526020015f81526020015f815250815260200160405180608001604052807f0e2427d38bd46a60dd640b8e362cad967370ebb777bedff40f6a0be27e7ed70581526020015f81526020015f81526020015f815250815260200160405180608001604052807f0493630b7c670b6deb7c84d414e7ce79049f0ec098c3c7c50768bbe29214a53a81526020015f81526020015f81526020015f815250815260200160405180608001604052807f22ead100e8e482674decdab17066c5a26bb1515355d5461a3dc06cc85327cea981526020015f81526020015f81526020015f815250815260200160405180608001604052807f25b3e56e655b42cdaae2626ed2554d48583f1ae35626d04de5084e0b6d2a6f1681526020015f81526020015f81526020015f815250815260200160405180608001604052807f1e32752ada8836ef5837a6cde8ff13dbb599c336349e4c584b4fdc0a0cf6f9d081526020015f81526020015f81526020015f815250815260200160405180608001604052807f2fa2a871c15a387cc50f68f6f3c3455b23c00995f05078f672a9864074d412e581526020015f81526020015f81526020015f815250815260200160405180608001604052807f2f569b8a9a4424c9278e1db7311e889f54ccbf10661bab7fcd18e7c7a7d8350581526020015f81526020015f81526020015f815250815260200160405180608001604052807f044cb455110a8fdd531ade530234c518a7df93f7332ffd2144165374b246b43d81526020015f81526020015f81526020015f815250815260200160405180608001604052807f227808de93906d5d420246157f2e42b191fe8c90adfe118178ddc723a531902581526020015f81526020015f81526020015f815250815260200160405180608001604052807f02fcca2934e046bc623adead873579865d03781ae090ad4a8579d2e7a680035581526020015f81526020015f81526020015f815250815260200160405180608001604052807f0ef915f0ac120b876abccceb344a1d36bad3f3c5ab91a8ddcbec2e060d8befac81526020015f81526020015f81526020015f815250815260200160405180608001604052807f1797130f4b7a3e1777eb757bc6f287f6ab0fb85f6be63b09f3b16ef2b1405d3881526020017f0a76225dc04170ae3306c85abab59e608c7f497c20156d4d36c668555decc6e581526020017f1fffb9ec1992d66ba1e77a7b93209af6f8fa76d48acb664796174b5326a31a5c81526020017f25721c4fc15a3f2853b57c338fa538d85f8fbba6c6b9c6090611889b797b9c5f815250815260200160405180608001604052807f0c817fd42d5f7a41215e3d07ba197216adb4c3790705da95eb63b982bfcaf75a81526020017f13abe3f5239915d39f7e13c2c24970b6df8cf86ce00a22002bc15866e52b5a9681526020017f2106feea546224ea12ef7f39987a46c85c1bc3dc29bdbd7a92cd60acb4d391ce81526020017f21ca859468a746b6aaa79474a37dab49f1ca5a28c748bc7157e1b3345bb0f959815250815260200160405180608001604052807f05ccd6255c1e6f0c5cf1f0df934194c62911d14d0321662a8f1a48999e34185b81526020017f0f0e34a64b70a626e464d846674c4c8816c4fb267fe44fe6ea28678cb09490a481526020017f0558531a4e25470c6157794ca36d0e9647dbfcfe350d64838f5b1a8a2de0d4bf81526020017f09d3dca9173ed2faceea125157683d18924cadad3f655a60b72f5864961f1455815250815260200160405180608001604052807f0328cbd54e8c0913493f866ed03d218bf23f92d68aaec48617d4c722e5bd433581526020017f2bf07216e2aff0a223a487b1a7094e07e79e7bcc9798c648ee3347dd5329d34b81526020017f1daf345a58006b736499c583cb76c316d6f78ed6a6dffc82111e11a63fe412df81526020017f176563472456aaa746b694c60e1823611ef39039b2edc7ff391e6f2293d2c404815250815250815250905090565b90565b6116a1611aee565b5f60405180608001604052805f81526020015f81526020015f81526020015f81525090505f5b6004811015611706578581600481106116e2576116e2611b3a565b60200201518282600481106116f9576116f9611b3a565b60200201526001016116c7565b5061171081611802565b5f61171d60026008611b8d565b90505f5b8181101561174e576117348386836118f3565b61173d83611965565b61174683611802565b600101611721565b505f61175b603883611bac565b9050815b818110156117b65761179086826040811061177c5761177c611b3a565b602002015151855f5b6020020151906119a8565b84526117a2845f5b60200201516119c1565b84526117ae84886119ea565b60010161175f565b505f6117c460386008611bac565b9050815b818110156117f5576117db8588836118f3565b6117e485611965565b6117ed85611802565b6001016117c8565b5092979650505050505050565b5f6118158260016020020151835f611785565b90505f61182b8360036020020151846002611785565b90505f6118418460016020020151856001611785565b905061184d81836119a8565b90505f6118638560036020020151866003611785565b905061186f81856119a8565b90505f61187c84806119a8565b905061188881806119a8565b905061189481836119a8565b90505f6118a186806119a8565b90506118ad81806119a8565b90506118b981856119a8565b90505f6118c684836119a8565b90505f6118d386856119a8565b918952506020880191909152604087015260609095019490945250505050565b5f5b600481101561195f5761194083836040811061191357611913611b3a565b6020020151826004811061192957611929611b3a565b602002015185836004811061178557611785611b3a565b84826004811061195257611952611b3a565b60200201526001016118f5565b50505050565b5f5b60048110156119a45761198582826004811061179857611798611b3a565b82826004811061199757611997611b3a565b6020020152600101611967565b5050565b5f5f516020611e155f395f51905f528284089392505050565b5f806119cd8380611ab0565b90506119e3836119dd8380611ab0565b90611ab0565b9392505050565b5f805b6004811015611a2157611a17848260048110611a0b57611a0b611b3a565b602002015183906119a8565b91506001016119ed565b505f5b600481101561195f57611a64838260048110611a4257611a42611b3a565b6020020151858360048110611a5957611a59611b3a565b602002015190611ab0565b848260048110611a7657611a76611b3a565b6020020152611a918285836004811061178557611785611b3a565b848260048110611aa357611aa3611b3a565b6020020152600101611a24565b5f5f516020611e155f395f51905f528284099392505050565b6040518060400160405280611adc611aee565b8152602001611ae9611b0c565b905290565b60405180608001604052806004906020820280368337509192915050565b6040518061080001604052806040905b611b24611aee565b815260200190600190039081611b1c5790505090565b634e487b7160e01b5f52603260045260245ffd5b634e487b7160e01b5f52601160045260245ffd5b818103818111156100e8576100e8611b4e565b5f60018201611b8657611b86611b4e565b5060010190565b5f82611ba757634e487b7160e01b5f52601260045260245ffd5b500490565b808201808211156100e8576100e8611b4e565b61024980611bcc5f395ff3fe608060405234801561000f575f5ffd5b5060043610610060575f3560e01c8063082febf0146100645780630be4f4221461007e5780637ac5476714610087578063ebf0c7171461009a578063f1650536146100a3578063f178e47c146100ab575b5f5ffd5b61006c6100be565b60405190815260200160405180910390f35b61006c602a5481565b61006c6100953660046100f1565b6100cd565b61006c602b5481565b61006c601481565b61006c6100b93660046100f1565b6100e2565b6100ca60146002610201565b81565b5f81601581106100db575f80fd5b0154905081565b601581601581106100db575f80fd5b5f60208284031215610101575f5ffd5b5035919050565b634e487b7160e01b5f52601160045260245ffd5b6001815b60018411156101575780850481111561013b5761013b610108565b600184161561014957908102905b60019390931c928002610120565b935093915050565b5f8261016d575060016101fb565b8161017957505f6101fb565b816001811461018f5760028114610199576101b5565b60019150506101fb565b60ff8411156101aa576101aa610108565b50506001821b6101fb565b5060208310610133831016604e8410600b84101617156101d8575081810a6101fb565b6101e45f19848461011c565b805f19048211156101f7576101f7610108565b0290505b92915050565b5f61020c838361015f565b939250505056fea2646970667358221220398914d5622e2bec98178adc3e6d6ebe3797e55dab2de90004c38f930704dd0164736f6c634300081b003330644e72e131a029b85045b68181585d2833e84879b9709143e1f593f0000001","opcodes":"PUSH1 0x80 PUSH1 0x40 MSTORE CALLVALUE DUP1 ISZERO PUSH2 0xF JUMPI PUSH0 PUSH0 REVERT JUMPDEST POP PUSH0 DUP1 SSTORE PUSH1 0x1 JUMPDEST PUSH1 0x14 DUP2 GT PUSH2 0x88 JUMPI PUSH2 0x62 PUSH0 PUSH2 0x2D PUSH1 0x1 DUP5 PUSH2 0x1B62 JUMP JUMPDEST PUSH1 0x15 DUP2 LT PUSH2 0x3D JUMPI PUSH2 0x3D PUSH2 0x1B3A JUMP JUMPDEST ADD SLOAD PUSH0 PUSH2 0x4B PUSH1 0x1 DUP6 PUSH2 0x1B62 JUMP JUMPDEST PUSH1 0x15 DUP2 LT PUSH2 0x5B JUMPI PUSH2 0x5B PUSH2 0x1B3A JUMP JUMPDEST ADD SLOAD PUSH2 0xDA JUMP JUMPDEST PUSH0 DUP3 PUSH1 0x15 DUP2 LT PUSH2 0x74 JUMPI PUSH2 0x74 PUSH2 0x1B3A JUMP JUMPDEST ADD SSTORE DUP1 PUSH2 0x80 DUP2 PUSH2 0x1B75 JUMP JUMPDEST SWAP2 POP POP PUSH2 0x16 JUMP JUMPDEST POP PUSH0 JUMPDEST PUSH1 0x14 DUP2 GT PUSH2 0xCE JUMPI PUSH0 DUP2 PUSH1 0x15 DUP2 LT PUSH2 0xA5 JUMPI PUSH2 0xA5 PUSH2 0x1B3A JUMP JUMPDEST ADD SLOAD PUSH1 0x15 DUP3 PUSH1 0x15 DUP2 LT PUSH2 0xBA JUMPI PUSH2 0xBA PUSH2 0x1B3A JUMP JUMPDEST ADD SSTORE DUP1 PUSH2 0xC6 DUP2 PUSH2 0x1B75 JUMP JUMPDEST SWAP2 POP POP PUSH2 0x8B JUMP JUMPDEST POP PUSH1 0x14 SLOAD PUSH1 0x2B SSTORE PUSH2 0x1BBF JUMP JUMPDEST PUSH0 PUSH2 0xE5 DUP4 DUP4 PUSH2 0xEE JUMP JUMPDEST SWAP1 POP JUMPDEST SWAP3 SWAP2 POP POP JUMP JUMPDEST PUSH0 DUP1 PUSH2 0xF8 PUSH2 0x14E JUMP JUMPDEST SWAP1 POP PUSH0 PUSH1 0x40 MLOAD DUP1 PUSH1 0x80 ADD PUSH1 0x40 MSTORE DUP1 PUSH2 0x115 DUP8 PUSH2 0x1696 PUSH1 0x20 SHL PUSH1 0x20 SHR JUMP JUMPDEST DUP2 MSTORE PUSH1 0x20 ADD DUP6 DUP2 MSTORE PUSH1 0x20 ADD PUSH0 DUP2 MSTORE PUSH1 0x20 ADD PUSH0 DUP2 MSTORE POP SWAP1 POP PUSH2 0x144 DUP2 DUP4 PUSH0 ADD MLOAD DUP5 PUSH1 0x20 ADD MLOAD PUSH2 0x1699 PUSH1 0x20 SHL PUSH1 0x20 SHR JUMP JUMPDEST MLOAD SWAP6 SWAP5 POP POP POP POP POP JUMP JUMPDEST PUSH2 0x156 PUSH2 0x1AC9 JUMP JUMPDEST PUSH1 0x40 MLOAD DUP1 PUSH1 0x40 ADD PUSH1 0x40 MSTORE DUP1 PUSH1 0x40 MLOAD DUP1 PUSH1 0x80 ADD PUSH1 0x40 MSTORE DUP1 PUSH32 0x10DC6E9C006EA38B04B1E03B4BD9490C0D03F98929CA1D7FB56821FD19D3B6E7 DUP2 MSTORE PUSH1 0x20 ADD PUSH32 0xC28145B6A44DF3E0149B3D0A30B3BB599DF9756D4DD9B84A86B38CFB45A740B DUP2 MSTORE PUSH1 0x20 ADD PUSH31 0x544B8338791518B2C7645A50392798B21F75BB60E3596170067D00141CAC15 DUP2 MSTORE PUSH1 0x20 ADD PUSH32 0x222C01175718386F2E2E82EB122789E352E105A3B8FA852613BC534433EE428B DUP2 MSTORE POP DUP2 MSTORE PUSH1 0x20 ADD PUSH1 0x40 MLOAD DUP1 PUSH2 0x800 ADD PUSH1 0x40 MSTORE DUP1 PUSH1 0x40 MLOAD DUP1 PUSH1 0x80 ADD PUSH1 0x40 MSTORE DUP1 PUSH32 0x19B849F69450B06848DA1D39BD5E4A4302BB86744EDC26238B0878E269ED23E5 DUP2 MSTORE PUSH1 0x20 ADD PUSH32 0x265DDFE127DD51BD7239347B758F0A1320EB2CC7450ACC1DAD47F80C8DCF34D6 DUP2 MSTORE PUSH1 0x20 ADD PUSH32 0x199750EC472F1809E0F66A545E1E51624108AC845015C2AA3DFC36BAB497D8AA DUP2 MSTORE PUSH1 0x20 ADD PUSH32 0x157FF3FE65AC7208110F06A5F74302B14D743EA25067F0FFD032F787C7F1CDF8 DUP2 MSTORE POP DUP2 MSTORE PUSH1 0x20 ADD PUSH1 0x40 MLOAD DUP1 PUSH1 0x80 ADD PUSH1 0x40 MSTORE DUP1 PUSH32 0x2E49C43C4569DD9C5FD35AC45FCA33F10B15C590692F8BEEFE18F4896AC94902 DUP2 MSTORE PUSH1 0x20 ADD PUSH32 0xE35FB89981890520D4AEF2B6D6506C3CB2F0B6973C24FA82731345FFA2D1F1E DUP2 MSTORE PUSH1 0x20 ADD PUSH32 0x251AD47CB15C4F1105F109AE5E944F1BA9D9E7806D667FFEC6FE723002E0B996 DUP2 MSTORE PUSH1 0x20 ADD PUSH32 0x13DA07DC64D428369873E97160234641F8BEB56FDD05E5F3563FA39D9C22DF4E DUP2 MSTORE POP DUP2 MSTORE PUSH1 0x20 ADD PUSH1 0x40 MLOAD DUP1 PUSH1 0x80 ADD PUSH1 0x40 MSTORE DUP1 PUSH32 0xC009B84E650E6D23DC00C7DCCEF7483A553939689D350CD46E7B89055FD4738 DUP2 MSTORE PUSH1 0x20 ADD PUSH32 0x11F16B1C63A854F01992E3956F42D8B04EB650C6D535EB0203DEC74BEFDCA06 DUP2 MSTORE PUSH1 0x20 ADD PUSH32 0xED69E5E383A688F209D9A561DAA79612F3F78D0467AD45485DF07093F367549 DUP2 MSTORE PUSH1 0x20 ADD PUSH32 0x4DBA94A7B0CE9E221ACAD41472B6BBE3AEC507F5EB3D33F463672264C9F789B DUP2 MSTORE POP DUP2 MSTORE PUSH1 0x20 ADD PUSH1 0x40 MLOAD DUP1 PUSH1 0x80 ADD PUSH1 0x40 MSTORE DUP1 PUSH32 0xA3F2637D840F3A16EB094271C9D237B6036757D4BB50BF7CE732FF1D4FA28E8 DUP2 MSTORE PUSH1 0x20 ADD PUSH32 0x259A666F129EEA198F8A1C502FDB38FA39B1F075569564B6E54A485D1182323F DUP2 MSTORE PUSH1 0x20 ADD PUSH32 0x28BF7459C9B2F4C6D8E7D06A4EE3A47F7745D4271038E5157A32FDF7EDE0D6A1 DUP2 MSTORE PUSH1 0x20 ADD PUSH32 0xA1CA941F057037526EA200F489BE8D4C37C85BBCCE6A2AEEC91BD6941432447 DUP2 MSTORE POP DUP2 MSTORE PUSH1 0x20 ADD PUSH1 0x40 MLOAD DUP1 PUSH1 0x80 ADD PUSH1 0x40 MSTORE DUP1 PUSH32 0xC6F8F958BE0E93053D7FD4FC54512855535ED1539F051DCB43A26FD926361CF DUP2 MSTORE PUSH1 0x20 ADD PUSH0 DUP2 MSTORE PUSH1 0x20 ADD PUSH0 DUP2 MSTORE PUSH1 0x20 ADD PUSH0 DUP2 MSTORE POP DUP2 MSTORE PUSH1 0x20 ADD PUSH1 0x40 MLOAD DUP1 PUSH1 0x80 ADD PUSH1 0x40 MSTORE DUP1 PUSH32 0x123106A93CD17578D426E8128AC9D90AA9E8A00708E296E084DD57E69CAAF811 DUP2 MSTORE PUSH1 0x20 ADD PUSH0 DUP2 MSTORE PUSH1 0x20 ADD PUSH0 DUP2 MSTORE PUSH1 0x20 ADD PUSH0 DUP2 MSTORE POP DUP2 MSTORE PUSH1 0x20 ADD PUSH1 0x40 MLOAD DUP1 PUSH1 0x80 ADD PUSH1 0x40 MSTORE DUP1 PUSH32 0x26E1BA52AD9285D97DD3AB52F8E840085E8FA83FF1E8F1877B074867CD2DEE75 DUP2 MSTORE PUSH1 0x20 ADD PUSH0 DUP2 MSTORE PUSH1 0x20 ADD PUSH0 DUP2 MSTORE PUSH1 0x20 ADD PUSH0 DUP2 MSTORE POP DUP2 MSTORE PUSH1 0x20 ADD PUSH1 0x40 MLOAD DUP1 PUSH1 0x80 ADD PUSH1 0x40 MSTORE DUP1 PUSH32 0x1CB55CAD7BD133DE18A64C5C47B9C97CBE4D8B7BF9E095864471537E6A4AE2C5 DUP2 MSTORE PUSH1 0x20 ADD PUSH0 DUP2 MSTORE PUSH1 0x20 ADD PUSH0 DUP2 MSTORE PUSH1 0x20 ADD PUSH0 DUP2 MSTORE POP DUP2 MSTORE PUSH1 0x20 ADD PUSH1 0x40 MLOAD DUP1 PUSH1 0x80 ADD PUSH1 0x40 MSTORE DUP1 PUSH32 0x1DCD73E46ACD8F8E0E2C7CE04BDE7F6D2A53043D5060A41C7143F08E6E9055D0 DUP2 MSTORE PUSH1 0x20 ADD PUSH0 DUP2 MSTORE PUSH1 0x20 ADD PUSH0 DUP2 MSTORE PUSH1 0x20 ADD PUSH0 DUP2 MSTORE POP DUP2 MSTORE PUSH1 0x20 ADD PUSH1 0x40 MLOAD DUP1 PUSH1 0x80 ADD PUSH1 0x40 MSTORE DUP1 PUSH32 0x11003E32F6D9C66F5852F05474A4DEF0CDA294A0EB4E9B9B12B9BB4512E5574 DUP2 MSTORE PUSH1 0x20 ADD PUSH0 DUP2 MSTORE PUSH1 0x20 ADD PUSH0 DUP2 MSTORE PUSH1 0x20 ADD PUSH0 DUP2 MSTORE POP DUP2 MSTORE PUSH1 0x20 ADD PUSH1 0x40 MLOAD DUP1 PUSH1 0x80 ADD PUSH1 0x40 MSTORE DUP1 PUSH32 0x2B1E809AC1D10AB29AD5F20D03A57DFEBADFE5903F58BAFED7C508DD2287AE8C DUP2 MSTORE PUSH1 0x20 ADD PUSH0 DUP2 MSTORE PUSH1 0x20 ADD PUSH0 DUP2 MSTORE PUSH1 0x20 ADD PUSH0 DUP2 MSTORE POP DUP2 MSTORE PUSH1 0x20 ADD PUSH1 0x40 MLOAD DUP1 PUSH1 0x80 ADD PUSH1 0x40 MSTORE DUP1 PUSH32 0x2539DE1785B735999FB4DAC35EE17ED0EF995D05AB2FC5FAEAA69AE87BCEC0A5 DUP2 MSTORE PUSH1 0x20 ADD PUSH0 DUP2 MSTORE PUSH1 0x20 ADD PUSH0 DUP2 MSTORE PUSH1 0x20 ADD PUSH0 DUP2 MSTORE POP DUP2 MSTORE PUSH1 0x20 ADD PUSH1 0x40 MLOAD DUP1 PUSH1 0x80 ADD PUSH1 0x40 MSTORE DUP1 PUSH32 0xC246C5A2EF8EE0126497F222B3E0A0EF4E1C3D41C86D46E43982CB11D77951D DUP2 MSTORE PUSH1 0x20 ADD PUSH0 DUP2 MSTORE PUSH1 0x20 ADD PUSH0 DUP2 MSTORE PUSH1 0x20 ADD PUSH0 DUP2 MSTORE POP DUP2 MSTORE PUSH1 0x20 ADD PUSH1 0x40 MLOAD DUP1 PUSH1 0x80 ADD PUSH1 0x40 MSTORE DUP1 PUSH32 0x192089C4974F68E95408148F7C0632EDBB09E6A6AD1A1C2F3F0305F5D03B527B DUP2 MSTORE PUSH1 0x20 ADD PUSH0 DUP2 MSTORE PUSH1 0x20 ADD PUSH0 DUP2 MSTORE PUSH1 0x20 ADD PUSH0 DUP2 MSTORE POP DUP2 MSTORE PUSH1 0x20 ADD PUSH1 0x40 MLOAD DUP1 PUSH1 0x80 ADD PUSH1 0x40 MSTORE DUP1 PUSH32 0x1EAE0AD8AB68B2F06A0EE36EEB0D0C058529097D91096B756D8FDC2FB5A60D85 DUP2 MSTORE PUSH1 0x20 ADD PUSH0 DUP2 MSTORE PUSH1 0x20 ADD PUSH0 DUP2 MSTORE PUSH1 0x20 ADD PUSH0 DUP2 MSTORE POP DUP2 MSTORE PUSH1 0x20 ADD PUSH1 0x40 MLOAD DUP1 PUSH1 0x80 ADD PUSH1 0x40 MSTORE DUP1 PUSH32 0x179190E5D0E22179E46F8282872ABC88DB6E2FDC0DEE99E69768BD98C5D06BFB DUP2 MSTORE PUSH1 0x20 ADD PUSH0 DUP2 MSTORE PUSH1 0x20 ADD PUSH0 DUP2 MSTORE PUSH1 0x20 ADD PUSH0 DUP2 MSTORE POP DUP2 MSTORE PUSH1 0x20 ADD PUSH1 0x40 MLOAD DUP1 PUSH1 0x80 ADD PUSH1 0x40 MSTORE DUP1 PUSH32 0x29BB9E2C9076732576E9A81C7AC4B83214528F7DB00F31BF6CAFE794A9B3CD1C DUP2 MSTORE PUSH1 0x20 ADD PUSH0 DUP2 MSTORE PUSH1 0x20 ADD PUSH0 DUP2 MSTORE PUSH1 0x20 ADD PUSH0 DUP2 MSTORE POP DUP2 MSTORE PUSH1 0x20 ADD PUSH1 0x40 MLOAD DUP1 PUSH1 0x80 ADD PUSH1 0x40 MSTORE DUP1 PUSH32 0x225D394E42207599403EFD0C2464A90D52652645882AAC35B10E590E6E691E08 DUP2 MSTORE PUSH1 0x20 ADD PUSH0 DUP2 MSTORE PUSH1 0x20 ADD PUSH0 DUP2 MSTORE PUSH1 0x20 ADD PUSH0 DUP2 MSTORE POP DUP2 MSTORE PUSH1 0x20 ADD PUSH1 0x40 MLOAD DUP1 PUSH1 0x80 ADD PUSH1 0x40 MSTORE DUP1 PUSH32 0x64760623C25C8CF753D238055B444532BE13557451C087DE09EFD454B23FD59 DUP2 MSTORE PUSH1 0x20 ADD PUSH0 DUP2 MSTORE PUSH1 0x20 ADD PUSH0 DUP2 MSTORE PUSH1 0x20 ADD PUSH0 DUP2 MSTORE POP DUP2 MSTORE PUSH1 0x20 ADD PUSH1 0x40 MLOAD DUP1 PUSH1 0x80 ADD PUSH1 0x40 MSTORE DUP1 PUSH32 0x10BA3A0E01DF92E87F301C4B716D8A394D67F4BF42A75C10922910A78F6B5B87 DUP2 MSTORE PUSH1 0x20 ADD PUSH0 DUP2 MSTORE PUSH1 0x20 ADD PUSH0 DUP2 MSTORE PUSH1 0x20 ADD PUSH0 DUP2 MSTORE POP DUP2 MSTORE PUSH1 0x20 ADD PUSH1 0x40 MLOAD DUP1 PUSH1 0x80 ADD PUSH1 0x40 MSTORE DUP1 PUSH32 0xE070BF53F8451B24F9C6E96B0C2A801CB511BC0C242EB9D361B77693F21471C DUP2 MSTORE PUSH1 0x20 ADD PUSH0 DUP2 MSTORE PUSH1 0x20 ADD PUSH0 DUP2 MSTORE PUSH1 0x20 ADD PUSH0 DUP2 MSTORE POP DUP2 MSTORE PUSH1 0x20 ADD PUSH1 0x40 MLOAD DUP1 PUSH1 0x80 ADD PUSH1 0x40 MSTORE DUP1 PUSH32 0x1B94CD61B051B04DD39755FF93821A73CCD6CB11D2491D8AA7F921014DE252FB DUP2 MSTORE PUSH1 0x20 ADD PUSH0 DUP2 MSTORE PUSH1 0x20 ADD PUSH0 DUP2 MSTORE PUSH1 0x20 ADD PUSH0 DUP2 MSTORE POP DUP2 MSTORE PUSH1 0x20 ADD PUSH1 0x40 MLOAD DUP1 PUSH1 0x80 ADD PUSH1 0x40 MSTORE DUP1 PUSH32 0x1D7CB39BAFB8C744E148787A2E70230F9D4E917D5713BB050487B5AA7D74070B DUP2 MSTORE PUSH1 0x20 ADD PUSH0 DUP2 MSTORE PUSH1 0x20 ADD PUSH0 DUP2 MSTORE PUSH1 0x20 ADD PUSH0 DUP2 MSTORE POP DUP2 MSTORE PUSH1 0x20 ADD PUSH1 0x40 MLOAD DUP1 PUSH1 0x80 ADD PUSH1 0x40 MSTORE DUP1 PUSH32 0x2EC93189BD1AB4F69117D0FE980C80FF8785C2961829F701BB74AC1F303B17DB DUP2 MSTORE PUSH1 0x20 ADD PUSH0 DUP2 MSTORE PUSH1 0x20 ADD PUSH0 DUP2 MSTORE PUSH1 0x20 ADD PUSH0 DUP2 MSTORE POP DUP2 MSTORE PUSH1 0x20 ADD PUSH1 0x40 MLOAD DUP1 PUSH1 0x80 ADD PUSH1 0x40 MSTORE DUP1 PUSH32 0x2DB366BFDD36D277A692BB825B86275BEAC404A19AE07A9082EA46BD83517926 DUP2 MSTORE PUSH1 0x20 ADD PUSH0 DUP2 MSTORE PUSH1 0x20 ADD PUSH0 DUP2 MSTORE PUSH1 0x20 ADD PUSH0 DUP2 MSTORE POP DUP2 MSTORE PUSH1 0x20 ADD PUSH1 0x40 MLOAD DUP1 PUSH1 0x80 ADD PUSH1 0x40 MSTORE DUP1 PUSH32 0x62100EB485DB06269655CF186A68532985275428450359ADC99CEC6960711B8 DUP2 MSTORE PUSH1 0x20 ADD PUSH0 DUP2 MSTORE PUSH1 0x20 ADD PUSH0 DUP2 MSTORE PUSH1 0x20 ADD PUSH0 DUP2 MSTORE POP DUP2 MSTORE PUSH1 0x20 ADD PUSH1 0x40 MLOAD DUP1 PUSH1 0x80 ADD PUSH1 0x40 MSTORE DUP1 PUSH32 0x761D33C66614AAA570E7F1E8244CA1120243F92FA59E4F900C567BF41F5A59B DUP2 MSTORE PUSH1 0x20 ADD PUSH0 DUP2 MSTORE PUSH1 0x20 ADD PUSH0 DUP2 MSTORE PUSH1 0x20 ADD PUSH0 DUP2 MSTORE POP DUP2 MSTORE PUSH1 0x20 ADD PUSH1 0x40 MLOAD DUP1 PUSH1 0x80 ADD PUSH1 0x40 MSTORE DUP1 PUSH32 0x20FC411A114D13992C2705AA034E3F315D78608A0F7DE4CCF7A72E494855AD0D DUP2 MSTORE PUSH1 0x20 ADD PUSH0 DUP2 MSTORE PUSH1 0x20 ADD PUSH0 DUP2 MSTORE PUSH1 0x20 ADD PUSH0 DUP2 MSTORE POP DUP2 MSTORE PUSH1 0x20 ADD PUSH1 0x40 MLOAD DUP1 PUSH1 0x80 ADD PUSH1 0x40 MSTORE DUP1 PUSH32 0x25B5C004A4BDFCB5ADD9EC4E9AB219BA102C67E8B3EFFB5FC3A30F317250BC5A DUP2 MSTORE PUSH1 0x20 ADD PUSH0 DUP2 MSTORE PUSH1 0x20 ADD PUSH0 DUP2 MSTORE PUSH1 0x20 ADD PUSH0 DUP2 MSTORE POP DUP2 MSTORE PUSH1 0x20 ADD PUSH1 0x40 MLOAD DUP1 PUSH1 0x80 ADD PUSH1 0x40 MSTORE DUP1 PUSH32 0x23B1822D278ED632A494E58F6DF6F5ED038B186D8474155AD87E7DFF62B37F4B DUP2 MSTORE PUSH1 0x20 ADD PUSH0 DUP2 MSTORE PUSH1 0x20 ADD PUSH0 DUP2 MSTORE PUSH1 0x20 ADD PUSH0 DUP2 MSTORE POP DUP2 MSTORE PUSH1 0x20 ADD PUSH1 0x40 MLOAD DUP1 PUSH1 0x80 ADD PUSH1 0x40 MSTORE DUP1 PUSH32 0x22734B4C5C3F9493606C4BA9012499BF0F14D13BFCFCCCAA16102A29CC2F69E0 DUP2 MSTORE PUSH1 0x20 ADD PUSH0 DUP2 MSTORE PUSH1 0x20 ADD PUSH0 DUP2 MSTORE PUSH1 0x20 ADD PUSH0 DUP2 MSTORE POP DUP2 MSTORE PUSH1 0x20 ADD PUSH1 0x40 MLOAD DUP1 PUSH1 0x80 ADD PUSH1 0x40 MSTORE DUP1 PUSH32 0x26C0C8FE09EB30B7E27A74DC33492347E5BDFF409AA3610254413D3FAD795CE5 DUP2 MSTORE PUSH1 0x20 ADD PUSH0 DUP2 MSTORE PUSH1 0x20 ADD PUSH0 DUP2 MSTORE PUSH1 0x20 ADD PUSH0 DUP2 MSTORE POP DUP2 MSTORE PUSH1 0x20 ADD PUSH1 0x40 MLOAD DUP1 PUSH1 0x80 ADD PUSH1 0x40 MSTORE DUP1 PUSH32 0x70DD0CCB6BD7BBAE88EAC03FA1FBB26196BE3083A809829BBD626DF348CCAD9 DUP2 MSTORE PUSH1 0x20 ADD PUSH0 DUP2 MSTORE PUSH1 0x20 ADD PUSH0 DUP2 MSTORE PUSH1 0x20 ADD PUSH0 DUP2 MSTORE POP DUP2 MSTORE PUSH1 0x20 ADD PUSH1 0x40 MLOAD DUP1 PUSH1 0x80 ADD PUSH1 0x40 MSTORE DUP1 PUSH32 0x12B6595BDB329B6FB043BA78BB28C3BEC2C0A6DE46D8C5AD6067C4EBFD4250DA DUP2 MSTORE PUSH1 0x20 ADD PUSH0 DUP2 MSTORE PUSH1 0x20 ADD PUSH0 DUP2 MSTORE PUSH1 0x20 ADD PUSH0 DUP2 MSTORE POP DUP2 MSTORE PUSH1 0x20 ADD PUSH1 0x40 MLOAD DUP1 PUSH1 0x80 ADD PUSH1 0x40 MSTORE DUP1 PUSH32 0x248D97D7F76283D63BEC30E7A5876C11C06FCA9B275C671C5E33D95BB7E8D729 DUP2 MSTORE PUSH1 0x20 ADD PUSH0 DUP2 MSTORE PUSH1 0x20 ADD PUSH0 DUP2 MSTORE PUSH1 0x20 ADD PUSH0 DUP2 MSTORE POP DUP2 MSTORE PUSH1 0x20 ADD PUSH1 0x40 MLOAD DUP1 PUSH1 0x80 ADD PUSH1 0x40 MSTORE DUP1 PUSH32 0x1A306D439D463B0816FC6FD64CC939318B45EB759DDDE4AA106D15D9BD9BAAAA DUP2 MSTORE PUSH1 0x20 ADD PUSH0 DUP2 MSTORE PUSH1 0x20 ADD PUSH0 DUP2 MSTORE PUSH1 0x20 ADD PUSH0 DUP2 MSTORE POP DUP2 MSTORE PUSH1 0x20 ADD PUSH1 0x40 MLOAD DUP1 PUSH1 0x80 ADD PUSH1 0x40 MSTORE DUP1 PUSH32 0x28A8F8372E3C38DACED7C00421CB4621F4F1B54DDC27821B0D62D3D6EC7C56CF DUP2 MSTORE PUSH1 0x20 ADD PUSH0 DUP2 MSTORE PUSH1 0x20 ADD PUSH0 DUP2 MSTORE PUSH1 0x20 ADD PUSH0 DUP2 MSTORE POP DUP2 MSTORE PUSH1 0x20 ADD PUSH1 0x40 MLOAD DUP1 PUSH1 0x80 ADD PUSH1 0x40 MSTORE DUP1 PUSH31 0x94975717F9A8A8BB35152F24D43294071CE320C829F388BC852183E1E2CE7E DUP2 MSTORE PUSH1 0x20 ADD PUSH0 DUP2 MSTORE PUSH1 0x20 ADD PUSH0 DUP2 MSTORE PUSH1 0x20 ADD PUSH0 DUP2 MSTORE POP DUP2 MSTORE PUSH1 0x20 ADD PUSH1 0x40 MLOAD DUP1 PUSH1 0x80 ADD PUSH1 0x40 MSTORE DUP1 PUSH32 0x4D5EE4C3AA78F7D80FDE60D716480D3593F74D4F653AE83F4103246DB2E8D65 DUP2 MSTORE PUSH1 0x20 ADD PUSH0 DUP2 MSTORE PUSH1 0x20 ADD PUSH0 DUP2 MSTORE PUSH1 0x20 ADD PUSH0 DUP2 MSTORE POP DUP2 MSTORE PUSH1 0x20 ADD PUSH1 0x40 MLOAD DUP1 PUSH1 0x80 ADD PUSH1 0x40 MSTORE DUP1 PUSH32 0x2A6CF5E9AA03D4336349AD6FB8ED2269C7BEF54B8822CC76D08495C12EFDE187 DUP2 MSTORE PUSH1 0x20 ADD PUSH0 DUP2 MSTORE PUSH1 0x20 ADD PUSH0 DUP2 MSTORE PUSH1 0x20 ADD PUSH0 DUP2 MSTORE POP DUP2 MSTORE PUSH1 0x20 ADD PUSH1 0x40 MLOAD DUP1 PUSH1 0x80 ADD PUSH1 0x40 MSTORE DUP1 PUSH32 0x2304D31EAAB960BA9274DA43E19DDEB7F792180808FD6E43BAAE48D7EFCBA3F3 DUP2 MSTORE PUSH1 0x20 ADD PUSH0 DUP2 MSTORE PUSH1 0x20 ADD PUSH0 DUP2 MSTORE PUSH1 0x20 ADD PUSH0 DUP2 MSTORE POP DUP2 MSTORE PUSH1 0x20 ADD PUSH1 0x40 MLOAD DUP1 PUSH1 0x80 ADD PUSH1 0x40 MSTORE DUP1 PUSH32 0x3FD9AC865A4B2A6D5E7009785817249BFF08A7E0726FCB4E1C11D39D199F0B0 DUP2 MSTORE PUSH1 0x20 ADD PUSH0 DUP2 MSTORE PUSH1 0x20 ADD PUSH0 DUP2 MSTORE PUSH1 0x20 ADD PUSH0 DUP2 MSTORE POP DUP2 MSTORE PUSH1 0x20 ADD PUSH1 0x40 MLOAD DUP1 PUSH1 0x80 ADD PUSH1 0x40 MSTORE DUP1 PUSH31 0xB7258DED52BBDA2248404D55EE5044798AFC3A209193073F7954D4D63B0B64 DUP2 MSTORE PUSH1 0x20 ADD PUSH0 DUP2 MSTORE PUSH1 0x20 ADD PUSH0 DUP2 MSTORE PUSH1 0x20 ADD PUSH0 DUP2 MSTORE POP DUP2 MSTORE PUSH1 0x20 ADD PUSH1 0x40 MLOAD DUP1 PUSH1 0x80 ADD PUSH1 0x40 MSTORE DUP1 PUSH32 0x159F81ADA0771799EC38FCA2D4BF65EBB13D3A74F3298DB36272C5CA65E92D9A DUP2 MSTORE PUSH1 0x20 ADD PUSH0 DUP2 MSTORE PUSH1 0x20 ADD PUSH0 DUP2 MSTORE PUSH1 0x20 ADD PUSH0 DUP2 MSTORE POP DUP2 MSTORE PUSH1 0x20 ADD PUSH1 0x40 MLOAD DUP1 PUSH1 0x80 ADD PUSH1 0x40 MSTORE DUP1 PUSH32 0x1EF90E67437FBC8550237A75BC28E3BB9000130EA25F0C5471E144CF4264431F DUP2 MSTORE PUSH1 0x20 ADD PUSH0 DUP2 MSTORE PUSH1 0x20 ADD PUSH0 DUP2 MSTORE PUSH1 0x20 ADD PUSH0 DUP2 MSTORE POP DUP2 MSTORE PUSH1 0x20 ADD PUSH1 0x40 MLOAD DUP1 PUSH1 0x80 ADD PUSH1 0x40 MSTORE DUP1 PUSH32 0x1E65F838515E5FF0196B49AA41A2D2568DF739BC176B08EC95A79ED82932E30D DUP2 MSTORE PUSH1 0x20 ADD PUSH0 DUP2 MSTORE PUSH1 0x20 ADD PUSH0 DUP2 MSTORE PUSH1 0x20 ADD PUSH0 DUP2 MSTORE POP DUP2 MSTORE PUSH1 0x20 ADD PUSH1 0x40 MLOAD DUP1 PUSH1 0x80 ADD PUSH1 0x40 MSTORE DUP1 PUSH32 0x2B1B045DEF3A166CEC6CE768D079BA74B18C844E570E1F826575C1068C94C33F DUP2 MSTORE PUSH1 0x20 ADD PUSH0 DUP2 MSTORE PUSH1 0x20 ADD PUSH0 DUP2 MSTORE PUSH1 0x20 ADD PUSH0 DUP2 MSTORE POP DUP2 MSTORE PUSH1 0x20 ADD PUSH1 0x40 MLOAD DUP1 PUSH1 0x80 ADD PUSH1 0x40 MSTORE DUP1 PUSH32 0x832E5753CEB0FF6402543B1109229C165DC2D73BEF715E3F1C6E07C168BB173 DUP2 MSTORE PUSH1 0x20 ADD PUSH0 DUP2 MSTORE PUSH1 0x20 ADD PUSH0 DUP2 MSTORE PUSH1 0x20 ADD PUSH0 DUP2 MSTORE POP DUP2 MSTORE PUSH1 0x20 ADD PUSH1 0x40 MLOAD DUP1 PUSH1 0x80 ADD PUSH1 0x40 MSTORE DUP1 PUSH32 0x2F614E9CEDFB3DC6B762AE0A37D41BAB1B841C2E8B6451BC5A8E3C390B6AD16 DUP2 MSTORE PUSH1 0x20 ADD PUSH0 DUP2 MSTORE PUSH1 0x20 ADD PUSH0 DUP2 MSTORE PUSH1 0x20 ADD PUSH0 DUP2 MSTORE POP DUP2 MSTORE PUSH1 0x20 ADD PUSH1 0x40 MLOAD DUP1 PUSH1 0x80 ADD PUSH1 0x40 MSTORE DUP1 PUSH32 0xE2427D38BD46A60DD640B8E362CAD967370EBB777BEDFF40F6A0BE27E7ED705 DUP2 MSTORE PUSH1 0x20 ADD PUSH0 DUP2 MSTORE PUSH1 0x20 ADD PUSH0 DUP2 MSTORE PUSH1 0x20 ADD PUSH0 DUP2 MSTORE POP DUP2 MSTORE PUSH1 0x20 ADD PUSH1 0x40 MLOAD DUP1 PUSH1 0x80 ADD PUSH1 0x40 MSTORE DUP1 PUSH32 0x493630B7C670B6DEB7C84D414E7CE79049F0EC098C3C7C50768BBE29214A53A DUP2 MSTORE PUSH1 0x20 ADD PUSH0 DUP2 MSTORE PUSH1 0x20 ADD PUSH0 DUP2 MSTORE PUSH1 0x20 ADD PUSH0 DUP2 MSTORE POP DUP2 MSTORE PUSH1 0x20 ADD PUSH1 0x40 MLOAD DUP1 PUSH1 0x80 ADD PUSH1 0x40 MSTORE DUP1 PUSH32 0x22EAD100E8E482674DECDAB17066C5A26BB1515355D5461A3DC06CC85327CEA9 DUP2 MSTORE PUSH1 0x20 ADD PUSH0 DUP2 MSTORE PUSH1 0x20 ADD PUSH0 DUP2 MSTORE PUSH1 0x20 ADD PUSH0 DUP2 MSTORE POP DUP2 MSTORE PUSH1 0x20 ADD PUSH1 0x40 MLOAD DUP1 PUSH1 0x80 ADD PUSH1 0x40 MSTORE DUP1 PUSH32 0x25B3E56E655B42CDAAE2626ED2554D48583F1AE35626D04DE5084E0B6D2A6F16 DUP2 MSTORE PUSH1 0x20 ADD PUSH0 DUP2 MSTORE PUSH1 0x20 ADD PUSH0 DUP2 MSTORE PUSH1 0x20 ADD PUSH0 DUP2 MSTORE POP DUP2 MSTORE PUSH1 0x20 ADD PUSH1 0x40 MLOAD DUP1 PUSH1 0x80 ADD PUSH1 0x40 MSTORE DUP1 PUSH32 0x1E32752ADA8836EF5837A6CDE8FF13DBB599C336349E4C584B4FDC0A0CF6F9D0 DUP2 MSTORE PUSH1 0x20 ADD PUSH0 DUP2 MSTORE PUSH1 0x20 ADD PUSH0 DUP2 MSTORE PUSH1 0x20 ADD PUSH0 DUP2 MSTORE POP DUP2 MSTORE PUSH1 0x20 ADD PUSH1 0x40 MLOAD DUP1 PUSH1 0x80 ADD PUSH1 0x40 MSTORE DUP1 PUSH32 0x2FA2A871C15A387CC50F68F6F3C3455B23C00995F05078F672A9864074D412E5 DUP2 MSTORE PUSH1 0x20 ADD PUSH0 DUP2 MSTORE PUSH1 0x20 ADD PUSH0 DUP2 MSTORE PUSH1 0x20 ADD PUSH0 DUP2 MSTORE POP DUP2 MSTORE PUSH1 0x20 ADD PUSH1 0x40 MLOAD DUP1 PUSH1 0x80 ADD PUSH1 0x40 MSTORE DUP1 PUSH32 0x2F569B8A9A4424C9278E1DB7311E889F54CCBF10661BAB7FCD18E7C7A7D83505 DUP2 MSTORE PUSH1 0x20 ADD PUSH0 DUP2 MSTORE PUSH1 0x20 ADD PUSH0 DUP2 MSTORE PUSH1 0x20 ADD PUSH0 DUP2 MSTORE POP DUP2 MSTORE PUSH1 0x20 ADD PUSH1 0x40 MLOAD DUP1 PUSH1 0x80 ADD PUSH1 0x40 MSTORE DUP1 PUSH32 0x44CB455110A8FDD531ADE530234C518A7DF93F7332FFD2144165374B246B43D DUP2 MSTORE PUSH1 0x20 ADD PUSH0 DUP2 MSTORE PUSH1 0x20 ADD PUSH0 DUP2 MSTORE PUSH1 0x20 ADD PUSH0 DUP2 MSTORE POP DUP2 MSTORE PUSH1 0x20 ADD PUSH1 0x40 MLOAD DUP1 PUSH1 0x80 ADD PUSH1 0x40 MSTORE DUP1 PUSH32 0x227808DE93906D5D420246157F2E42B191FE8C90ADFE118178DDC723A5319025 DUP2 MSTORE PUSH1 0x20 ADD PUSH0 DUP2 MSTORE PUSH1 0x20 ADD PUSH0 DUP2 MSTORE PUSH1 0x20 ADD PUSH0 DUP2 MSTORE POP DUP2 MSTORE PUSH1 0x20 ADD PUSH1 0x40 MLOAD DUP1 PUSH1 0x80 ADD PUSH1 0x40 MSTORE DUP1 PUSH32 0x2FCCA2934E046BC623ADEAD873579865D03781AE090AD4A8579D2E7A6800355 DUP2 MSTORE PUSH1 0x20 ADD PUSH0 DUP2 MSTORE PUSH1 0x20 ADD PUSH0 DUP2 MSTORE PUSH1 0x20 ADD PUSH0 DUP2 MSTORE POP DUP2 MSTORE PUSH1 0x20 ADD PUSH1 0x40 MLOAD DUP1 PUSH1 0x80 ADD PUSH1 0x40 MSTORE DUP1 PUSH32 0xEF915F0AC120B876ABCCCEB344A1D36BAD3F3C5AB91A8DDCBEC2E060D8BEFAC DUP2 MSTORE PUSH1 0x20 ADD PUSH0 DUP2 MSTORE PUSH1 0x20 ADD PUSH0 DUP2 MSTORE PUSH1 0x20 ADD PUSH0 DUP2 MSTORE POP DUP2 MSTORE PUSH1 0x20 ADD PUSH1 0x40 MLOAD DUP1 PUSH1 0x80 ADD PUSH1 0x40 MSTORE DUP1 PUSH32 0x1797130F4B7A3E1777EB757BC6F287F6AB0FB85F6BE63B09F3B16EF2B1405D38 DUP2 MSTORE PUSH1 0x20 ADD PUSH32 0xA76225DC04170AE3306C85ABAB59E608C7F497C20156D4D36C668555DECC6E5 DUP2 MSTORE PUSH1 0x20 ADD PUSH32 0x1FFFB9EC1992D66BA1E77A7B93209AF6F8FA76D48ACB664796174B5326A31A5C DUP2 MSTORE PUSH1 0x20 ADD PUSH32 0x25721C4FC15A3F2853B57C338FA538D85F8FBBA6C6B9C6090611889B797B9C5F DUP2 MSTORE POP DUP2 MSTORE PUSH1 0x20 ADD PUSH1 0x40 MLOAD DUP1 PUSH1 0x80 ADD PUSH1 0x40 MSTORE DUP1 PUSH32 0xC817FD42D5F7A41215E3D07BA197216ADB4C3790705DA95EB63B982BFCAF75A DUP2 MSTORE PUSH1 0x20 ADD PUSH32 0x13ABE3F5239915D39F7E13C2C24970B6DF8CF86CE00A22002BC15866E52B5A96 DUP2 MSTORE PUSH1 0x20 ADD PUSH32 0x2106FEEA546224EA12EF7F39987A46C85C1BC3DC29BDBD7A92CD60ACB4D391CE DUP2 MSTORE PUSH1 0x20 ADD PUSH32 0x21CA859468A746B6AAA79474A37DAB49F1CA5A28C748BC7157E1B3345BB0F959 DUP2 MSTORE POP DUP2 MSTORE PUSH1 0x20 ADD PUSH1 0x40 MLOAD DUP1 PUSH1 0x80 ADD PUSH1 0x40 MSTORE DUP1 PUSH32 0x5CCD6255C1E6F0C5CF1F0DF934194C62911D14D0321662A8F1A48999E34185B DUP2 MSTORE PUSH1 0x20 ADD PUSH32 0xF0E34A64B70A626E464D846674C4C8816C4FB267FE44FE6EA28678CB09490A4 DUP2 MSTORE PUSH1 0x20 ADD PUSH32 0x558531A4E25470C6157794CA36D0E9647DBFCFE350D64838F5B1A8A2DE0D4BF DUP2 MSTORE PUSH1 0x20 ADD PUSH32 0x9D3DCA9173ED2FACEEA125157683D18924CADAD3F655A60B72F5864961F1455 DUP2 MSTORE POP DUP2 MSTORE PUSH1 0x20 ADD PUSH1 0x40 MLOAD DUP1 PUSH1 0x80 ADD PUSH1 0x40 MSTORE DUP1 PUSH32 0x328CBD54E8C0913493F866ED03D218BF23F92D68AAEC48617D4C722E5BD4335 DUP2 MSTORE PUSH1 0x20 ADD PUSH32 0x2BF07216E2AFF0A223A487B1A7094E07E79E7BCC9798C648EE3347DD5329D34B DUP2 MSTORE PUSH1 0x20 ADD PUSH32 0x1DAF345A58006B736499C583CB76C316D6F78ED6A6DFFC82111E11A63FE412DF DUP2 MSTORE PUSH1 0x20 ADD PUSH32 0x176563472456AAA746B694C60E1823611EF39039B2EDC7FF391E6F2293D2C404 DUP2 MSTORE POP DUP2 MSTORE POP DUP2 MSTORE POP SWAP1 POP SWAP1 JUMP JUMPDEST SWAP1 JUMP JUMPDEST PUSH2 0x16A1 PUSH2 0x1AEE JUMP JUMPDEST PUSH0 PUSH1 0x40 MLOAD DUP1 PUSH1 0x80 ADD PUSH1 0x40 MSTORE DUP1 PUSH0 DUP2 MSTORE PUSH1 0x20 ADD PUSH0 DUP2 MSTORE PUSH1 0x20 ADD PUSH0 DUP2 MSTORE PUSH1 0x20 ADD PUSH0 DUP2 MSTORE POP SWAP1 POP PUSH0 JUMPDEST PUSH1 0x4 DUP2 LT ISZERO PUSH2 0x1706 JUMPI DUP6 DUP2 PUSH1 0x4 DUP2 LT PUSH2 0x16E2 JUMPI PUSH2 0x16E2 PUSH2 0x1B3A JUMP JUMPDEST PUSH1 0x20 MUL ADD MLOAD DUP3 DUP3 PUSH1 0x4 DUP2 LT PUSH2 0x16F9 JUMPI PUSH2 0x16F9 PUSH2 0x1B3A JUMP JUMPDEST PUSH1 0x20 MUL ADD MSTORE PUSH1 0x1 ADD PUSH2 0x16C7 JUMP JUMPDEST POP PUSH2 0x1710 DUP2 PUSH2 0x1802 JUMP JUMPDEST PUSH0 PUSH2 0x171D PUSH1 0x2 PUSH1 0x8 PUSH2 0x1B8D JUMP JUMPDEST SWAP1 POP PUSH0 JUMPDEST DUP2 DUP2 LT ISZERO PUSH2 0x174E JUMPI PUSH2 0x1734 DUP4 DUP7 DUP4 PUSH2 0x18F3 JUMP JUMPDEST PUSH2 0x173D DUP4 PUSH2 0x1965 JUMP JUMPDEST PUSH2 0x1746 DUP4 PUSH2 0x1802 JUMP JUMPDEST PUSH1 0x1 ADD PUSH2 0x1721 JUMP JUMPDEST POP PUSH0 PUSH2 0x175B PUSH1 0x38 DUP4 PUSH2 0x1BAC JUMP JUMPDEST SWAP1 POP DUP2 JUMPDEST DUP2 DUP2 LT ISZERO PUSH2 0x17B6 JUMPI PUSH2 0x1790 DUP7 DUP3 PUSH1 0x40 DUP2 LT PUSH2 0x177C JUMPI PUSH2 0x177C PUSH2 0x1B3A JUMP JUMPDEST PUSH1 0x20 MUL ADD MLOAD MLOAD DUP6 PUSH0 JUMPDEST PUSH1 0x20 MUL ADD MLOAD SWAP1 PUSH2 0x19A8 JUMP JUMPDEST DUP5 MSTORE PUSH2 0x17A2 DUP5 PUSH0 JUMPDEST PUSH1 0x20 MUL ADD MLOAD PUSH2 0x19C1 JUMP JUMPDEST DUP5 MSTORE PUSH2 0x17AE DUP5 DUP9 PUSH2 0x19EA JUMP JUMPDEST PUSH1 0x1 ADD PUSH2 0x175F JUMP JUMPDEST POP PUSH0 PUSH2 0x17C4 PUSH1 0x38 PUSH1 0x8 PUSH2 0x1BAC JUMP JUMPDEST SWAP1 POP DUP2 JUMPDEST DUP2 DUP2 LT ISZERO PUSH2 0x17F5 JUMPI PUSH2 0x17DB DUP6 DUP9 DUP4 PUSH2 0x18F3 JUMP JUMPDEST PUSH2 0x17E4 DUP6 PUSH2 0x1965 JUMP JUMPDEST PUSH2 0x17ED DUP6 PUSH2 0x1802 JUMP JUMPDEST PUSH1 0x1 ADD PUSH2 0x17C8 JUMP JUMPDEST POP SWAP3 SWAP8 SWAP7 POP POP POP POP POP POP POP JUMP JUMPDEST PUSH0 PUSH2 0x1815 DUP3 PUSH1 0x1 PUSH1 0x20 MUL ADD MLOAD DUP4 PUSH0 PUSH2 0x1785 JUMP JUMPDEST SWAP1 POP PUSH0 PUSH2 0x182B DUP4 PUSH1 0x3 PUSH1 0x20 MUL ADD MLOAD DUP5 PUSH1 0x2 PUSH2 0x1785 JUMP JUMPDEST SWAP1 POP PUSH0 PUSH2 0x1841 DUP5 PUSH1 0x1 PUSH1 0x20 MUL ADD MLOAD DUP6 PUSH1 0x1 PUSH2 0x1785 JUMP JUMPDEST SWAP1 POP PUSH2 0x184D DUP2 DUP4 PUSH2 0x19A8 JUMP JUMPDEST SWAP1 POP PUSH0 PUSH2 0x1863 DUP6 PUSH1 0x3 PUSH1 0x20 MUL ADD MLOAD DUP7 PUSH1 0x3 PUSH2 0x1785 JUMP JUMPDEST SWAP1 POP PUSH2 0x186F DUP2 DUP6 PUSH2 0x19A8 JUMP JUMPDEST SWAP1 POP PUSH0 PUSH2 0x187C DUP5 DUP1 PUSH2 0x19A8 JUMP JUMPDEST SWAP1 POP PUSH2 0x1888 DUP2 DUP1 PUSH2 0x19A8 JUMP JUMPDEST SWAP1 POP PUSH2 0x1894 DUP2 DUP4 PUSH2 0x19A8 JUMP JUMPDEST SWAP1 POP PUSH0 PUSH2 0x18A1 DUP7 DUP1 PUSH2 0x19A8 JUMP JUMPDEST SWAP1 POP PUSH2 0x18AD DUP2 DUP1 PUSH2 0x19A8 JUMP JUMPDEST SWAP1 POP PUSH2 0x18B9 DUP2 DUP6 PUSH2 0x19A8 JUMP JUMPDEST SWAP1 POP PUSH0 PUSH2 0x18C6 DUP5 DUP4 PUSH2 0x19A8 JUMP JUMPDEST SWAP1 POP PUSH0 PUSH2 0x18D3 DUP7 DUP6 PUSH2 0x19A8 JUMP JUMPDEST SWAP2 DUP10 MSTORE POP PUSH1 0x20 DUP9 ADD SWAP2 SWAP1 SWAP2 MSTORE PUSH1 0x40 DUP8 ADD MSTORE PUSH1 0x60 SWAP1 SWAP6 ADD SWAP5 SWAP1 SWAP5 MSTORE POP POP POP POP JUMP JUMPDEST PUSH0 JUMPDEST PUSH1 0x4 DUP2 LT ISZERO PUSH2 0x195F JUMPI PUSH2 0x1940 DUP4 DUP4 PUSH1 0x40 DUP2 LT PUSH2 0x1913 JUMPI PUSH2 0x1913 PUSH2 0x1B3A JUMP JUMPDEST PUSH1 0x20 MUL ADD MLOAD DUP3 PUSH1 0x4 DUP2 LT PUSH2 0x1929 JUMPI PUSH2 0x1929 PUSH2 0x1B3A JUMP JUMPDEST PUSH1 0x20 MUL ADD MLOAD DUP6 DUP4 PUSH1 0x4 DUP2 LT PUSH2 0x1785 JUMPI PUSH2 0x1785 PUSH2 0x1B3A JUMP JUMPDEST DUP5 DUP3 PUSH1 0x4 DUP2 LT PUSH2 0x1952 JUMPI PUSH2 0x1952 PUSH2 0x1B3A JUMP JUMPDEST PUSH1 0x20 MUL ADD MSTORE PUSH1 0x1 ADD PUSH2 0x18F5 JUMP JUMPDEST POP POP POP POP JUMP JUMPDEST PUSH0 JUMPDEST PUSH1 0x4 DUP2 LT ISZERO PUSH2 0x19A4 JUMPI PUSH2 0x1985 DUP3 DUP3 PUSH1 0x4 DUP2 LT PUSH2 0x1798 JUMPI PUSH2 0x1798 PUSH2 0x1B3A JUMP JUMPDEST DUP3 DUP3 PUSH1 0x4 DUP2 LT PUSH2 0x1997 JUMPI PUSH2 0x1997 PUSH2 0x1B3A JUMP JUMPDEST PUSH1 0x20 MUL ADD MSTORE PUSH1 0x1 ADD PUSH2 0x1967 JUMP JUMPDEST POP POP JUMP JUMPDEST PUSH0 PUSH0 MLOAD PUSH1 0x20 PUSH2 0x1E15 PUSH0 CODECOPY PUSH0 MLOAD SWAP1 PUSH0 MSTORE DUP3 DUP5 ADDMOD SWAP4 SWAP3 POP POP POP JUMP JUMPDEST PUSH0 DUP1 PUSH2 0x19CD DUP4 DUP1 PUSH2 0x1AB0 JUMP JUMPDEST SWAP1 POP PUSH2 0x19E3 DUP4 PUSH2 0x19DD DUP4 DUP1 PUSH2 0x1AB0 JUMP JUMPDEST SWAP1 PUSH2 0x1AB0 JUMP JUMPDEST SWAP4 SWAP3 POP POP POP JUMP JUMPDEST PUSH0 DUP1 JUMPDEST PUSH1 0x4 DUP2 LT ISZERO PUSH2 0x1A21 JUMPI PUSH2 0x1A17 DUP5 DUP3 PUSH1 0x4 DUP2 LT PUSH2 0x1A0B JUMPI PUSH2 0x1A0B PUSH2 0x1B3A JUMP JUMPDEST PUSH1 0x20 MUL ADD MLOAD DUP4 SWAP1 PUSH2 0x19A8 JUMP JUMPDEST SWAP2 POP PUSH1 0x1 ADD PUSH2 0x19ED JUMP JUMPDEST POP PUSH0 JUMPDEST PUSH1 0x4 DUP2 LT ISZERO PUSH2 0x195F JUMPI PUSH2 0x1A64 DUP4 DUP3 PUSH1 0x4 DUP2 LT PUSH2 0x1A42 JUMPI PUSH2 0x1A42 PUSH2 0x1B3A JUMP JUMPDEST PUSH1 0x20 MUL ADD MLOAD DUP6 DUP4 PUSH1 0x4 DUP2 LT PUSH2 0x1A59 JUMPI PUSH2 0x1A59 PUSH2 0x1B3A JUMP JUMPDEST PUSH1 0x20 MUL ADD MLOAD SWAP1 PUSH2 0x1AB0 JUMP JUMPDEST DUP5 DUP3 PUSH1 0x4 DUP2 LT PUSH2 0x1A76 JUMPI PUSH2 0x1A76 PUSH2 0x1B3A JUMP JUMPDEST PUSH1 0x20 MUL ADD MSTORE PUSH2 0x1A91 DUP3 DUP6 DUP4 PUSH1 0x4 DUP2 LT PUSH2 0x1785 JUMPI PUSH2 0x1785 PUSH2 0x1B3A JUMP JUMPDEST DUP5 DUP3 PUSH1 0x4 DUP2 LT PUSH2 0x1AA3 JUMPI PUSH2 0x1AA3 PUSH2 0x1B3A JUMP JUMPDEST PUSH1 0x20 MUL ADD MSTORE PUSH1 0x1 ADD PUSH2 0x1A24 JUMP JUMPDEST PUSH0 PUSH0 MLOAD PUSH1 0x20 PUSH2 0x1E15 PUSH0 CODECOPY PUSH0 MLOAD SWAP1 PUSH0 MSTORE DUP3 DUP5 MULMOD SWAP4 SWAP3 POP POP POP JUMP JUMPDEST PUSH1 0x40 MLOAD DUP1 PUSH1 0x40 ADD PUSH1 0x40 MSTORE DUP1 PUSH2 0x1ADC PUSH2 0x1AEE JUMP JUMPDEST DUP2 MSTORE PUSH1 0x20 ADD PUSH2 0x1AE9 PUSH2 0x1B0C JUMP JUMPDEST SWAP1 MSTORE SWAP1 JUMP JUMPDEST PUSH1 0x40 MLOAD DUP1 PUSH1 0x80 ADD PUSH1 0x40 MSTORE DUP1 PUSH1 0x4 SWAP1 PUSH1 0x20 DUP3 MUL DUP1 CALLDATASIZE DUP4 CALLDATACOPY POP SWAP2 SWAP3 SWAP2 POP POP JUMP JUMPDEST PUSH1 0x40 MLOAD DUP1 PUSH2 0x800 ADD PUSH1 0x40 MSTORE DUP1 PUSH1 0x40 SWAP1 JUMPDEST PUSH2 0x1B24 PUSH2 0x1AEE JUMP JUMPDEST DUP2 MSTORE PUSH1 0x20 ADD SWAP1 PUSH1 0x1 SWAP1 SUB SWAP1 DUP2 PUSH2 0x1B1C JUMPI SWAP1 POP POP SWAP1 JUMP JUMPDEST PUSH4 0x4E487B71 PUSH1 0xE0 SHL PUSH0 MSTORE PUSH1 0x32 PUSH1 0x4 MSTORE PUSH1 0x24 PUSH0 REVERT JUMPDEST PUSH4 0x4E487B71 PUSH1 0xE0 SHL PUSH0 MSTORE PUSH1 0x11 PUSH1 0x4 MSTORE PUSH1 0x24 PUSH0 REVERT JUMPDEST DUP2 DUP2 SUB DUP2 DUP2 GT ISZERO PUSH2 0xE8 JUMPI PUSH2 0xE8 PUSH2 0x1B4E JUMP JUMPDEST PUSH0 PUSH1 0x1 DUP3 ADD PUSH2 0x1B86 JUMPI PUSH2 0x1B86 PUSH2 0x1B4E JUMP JUMPDEST POP PUSH1 0x1 ADD SWAP1 JUMP JUMPDEST PUSH0 DUP3 PUSH2 0x1BA7 JUMPI PUSH4 0x4E487B71 PUSH1 0xE0 SHL PUSH0 MSTORE PUSH1 0x12 PUSH1 0x4 MSTORE PUSH1 0x24 PUSH0 REVERT JUMPDEST POP DIV SWAP1 JUMP JUMPDEST DUP1 DUP3 ADD DUP1 DUP3 GT ISZERO PUSH2 0xE8 JUMPI PUSH2 0xE8 PUSH2 0x1B4E JUMP JUMPDEST PUSH2 0x249 DUP1 PUSH2 0x1BCC PUSH0 CODECOPY PUSH0 RETURN INVALID PUSH1 0x80 PUSH1 0x40 MSTORE CALLVALUE DUP1 ISZERO PUSH2 0xF JUMPI PUSH0 PUSH0 REVERT JUMPDEST POP PUSH1 0x4 CALLDATASIZE LT PUSH2 0x60 JUMPI PUSH0 CALLDATALOAD PUSH1 0xE0 SHR DUP1 PUSH4 0x82FEBF0 EQ PUSH2 0x64 JUMPI DUP1 PUSH4 0xBE4F422 EQ PUSH2 0x7E JUMPI DUP1 PUSH4 0x7AC54767 EQ PUSH2 0x87 JUMPI DUP1 PUSH4 0xEBF0C717 EQ PUSH2 0x9A JUMPI DUP1 PUSH4 0xF1650536 EQ PUSH2 0xA3 JUMPI DUP1 PUSH4 0xF178E47C EQ PUSH2 0xAB JUMPI JUMPDEST PUSH0 PUSH0 REVERT JUMPDEST PUSH2 0x6C PUSH2 0xBE JUMP JUMPDEST PUSH1 0x40 MLOAD SWAP1 DUP2 MSTORE PUSH1 0x20 ADD PUSH1 0x40 MLOAD DUP1 SWAP2 SUB SWAP1 RETURN JUMPDEST PUSH2 0x6C PUSH1 0x2A SLOAD DUP2 JUMP JUMPDEST PUSH2 0x6C PUSH2 0x95 CALLDATASIZE PUSH1 0x4 PUSH2 0xF1 JUMP JUMPDEST PUSH2 0xCD JUMP JUMPDEST PUSH2 0x6C PUSH1 0x2B SLOAD DUP2 JUMP JUMPDEST PUSH2 0x6C PUSH1 0x14 DUP2 JUMP JUMPDEST PUSH2 0x6C PUSH2 0xB9 CALLDATASIZE PUSH1 0x4 PUSH2 0xF1 JUMP JUMPDEST PUSH2 0xE2 JUMP JUMPDEST PUSH2 0xCA PUSH1 0x14 PUSH1 0x2 PUSH2 0x201 JUMP JUMPDEST DUP2 JUMP JUMPDEST PUSH0 DUP2 PUSH1 0x15 DUP2 LT PUSH2 0xDB JUMPI PUSH0 DUP1 REVERT JUMPDEST ADD SLOAD SWAP1 POP DUP2 JUMP JUMPDEST PUSH1 0x15 DUP2 PUSH1 0x15 DUP2 LT PUSH2 0xDB JUMPI PUSH0 DUP1 REVERT JUMPDEST PUSH0 PUSH1 0x20 DUP3 DUP5 SUB SLT ISZERO PUSH2 0x101 JUMPI PUSH0 PUSH0 REVERT JUMPDEST POP CALLDATALOAD SWAP2 SWAP1 POP JUMP JUMPDEST PUSH4 0x4E487B71 PUSH1 0xE0 SHL PUSH0 MSTORE PUSH1 0x11 PUSH1 0x4 MSTORE PUSH1 0x24 PUSH0 REVERT JUMPDEST PUSH1 0x1 DUP2 JUMPDEST PUSH1 0x1 DUP5 GT ISZERO PUSH2 0x157 JUMPI DUP1 DUP6 DIV DUP2 GT ISZERO PUSH2 0x13B JUMPI PUSH2 0x13B PUSH2 0x108 JUMP JUMPDEST PUSH1 0x1 DUP5 AND ISZERO PUSH2 0x149 JUMPI SWAP1 DUP2 MUL SWAP1 JUMPDEST PUSH1 0x1 SWAP4 SWAP1 SWAP4 SHR SWAP3 DUP1 MUL PUSH2 0x120 JUMP JUMPDEST SWAP4 POP SWAP4 SWAP2 POP POP JUMP JUMPDEST PUSH0 DUP3 PUSH2 0x16D JUMPI POP PUSH1 0x1 PUSH2 0x1FB JUMP JUMPDEST DUP2 PUSH2 0x179 JUMPI POP PUSH0 PUSH2 0x1FB JUMP JUMPDEST DUP2 PUSH1 0x1 DUP2 EQ PUSH2 0x18F JUMPI PUSH1 0x2 DUP2 EQ PUSH2 0x199 JUMPI PUSH2 0x1B5 JUMP JUMPDEST PUSH1 0x1 SWAP2 POP POP PUSH2 0x1FB JUMP JUMPDEST PUSH1 0xFF DUP5 GT ISZERO PUSH2 0x1AA JUMPI PUSH2 0x1AA PUSH2 0x108 JUMP JUMPDEST POP POP PUSH1 0x1 DUP3 SHL PUSH2 0x1FB JUMP JUMPDEST POP PUSH1 0x20 DUP4 LT PUSH2 0x133 DUP4 LT AND PUSH1 0x4E DUP5 LT PUSH1 0xB DUP5 LT AND OR ISZERO PUSH2 0x1D8 JUMPI POP DUP2 DUP2 EXP PUSH2 0x1FB JUMP JUMPDEST PUSH2 0x1E4 PUSH0 NOT DUP5 DUP5 PUSH2 0x11C JUMP JUMPDEST DUP1 PUSH0 NOT DIV DUP3 GT ISZERO PUSH2 0x1F7 JUMPI PUSH2 0x1F7 PUSH2 0x108 JUMP JUMPDEST MUL SWAP1 POP JUMPDEST SWAP3 SWAP2 POP POP JUMP JUMPDEST PUSH0 PUSH2 0x20C DUP4 DUP4 PUSH2 0x15F JUMP JUMPDEST SWAP4 SWAP3 POP POP POP JUMP INVALID LOG2 PUSH5 0x6970667358 0x22 SLT KECCAK256 CODECOPY DUP10 EQ 0xD5 PUSH3 0x2E2BEC SWAP9 OR DUP11 0xDC RETURNDATACOPY PUSH14 0x6EBE3797E55DAB2DE90004C38F93 SMOD DIV 0xDD ADD PUSH5 0x736F6C6343 STOP ADDMOD SHL STOP CALLER ADDRESS PUSH5 0x4E72E131A0 0x29 0xB8 POP GASLIMIT 0xB6 DUP2 DUP2 PC TSTORE 0x28 CALLER 0xE8 BASEFEE PUSH26 0xB9709143E1F593F0000001000000000000000000000000000000 "},"methodIdentifiers":{"MAX_LEAVES()":"082febf0","TREE_DEPTH()":"f1650536","filledSubtrees(uint256)":"f178e47c","nextLeafIndex()":"0be4f422","root()":"ebf0c717","zeroHashes(uint256)":"7ac54767"}}}}}