{"contracts/BLSGun.sol":{"BLSGun":{"abi":[{"inputs":[{"internalType":"address","name":"_verifier","type":"address"}],"stateMutability":"nonpayable","type":"constructor"},{"anonymous":false,"inputs":[{"indexed":true,"internalType":"bytes32","name":"nullifier","type":"bytes32"},{"indexed":true,"internalType":"bytes32","name":"outputCommitment","type":"bytes32"}],"name":"PrivateTransfer","type":"event"},{"anonymous":false,"inputs":[{"indexed":true,"internalType":"address","name":"sender","type":"address"},{"indexed":true,"internalType":"bytes32","name":"commitment","type":"bytes32"},{"indexed":false,"internalType":"uint256","name":"amount","type":"uint256"}],"name":"Shield","type":"event"},{"anonymous":false,"inputs":[{"indexed":true,"internalType":"bytes32","name":"nullifier","type":"bytes32"},{"indexed":true,"internalType":"address","name":"recipient","type":"address"},{"indexed":false,"internalType":"uint256","name":"amount","type":"uint256"}],"name":"Unshield","type":"event"},{"inputs":[],"name":"MAX_LEAVES","outputs":[{"internalType":"uint256","name":"","type":"uint256"}],"stateMutability":"view","type":"function"},{"inputs":[],"name":"TREE_DEPTH","outputs":[{"internalType":"uint256","name":"","type":"uint256"}],"stateMutability":"view","type":"function"},{"inputs":[{"internalType":"uint256","name":"","type":"uint256"}],"name":"filledSubtrees","outputs":[{"internalType":"bytes32","name":"","type":"bytes32"}],"stateMutability":"view","type":"function"},{"inputs":[],"name":"getCommitmentCount","outputs":[{"internalType":"uint256","name":"","type":"uint256"}],"stateMutability":"view","type":"function"},{"inputs":[],"name":"getMerkleRoot","outputs":[{"internalType":"bytes32","name":"","type":"bytes32"}],"stateMutability":"view","type":"function"},{"inputs":[{"internalType":"bytes32","name":"nullifier","type":"bytes32"}],"name":"isNullifierSpent","outputs":[{"internalType":"bool","name":"","type":"bool"}],"stateMutability":"view","type":"function"},{"inputs":[],"name":"nextLeafIndex","outputs":[{"internalType":"uint256","name":"","type":"uint256"}],"stateMutability":"view","type":"function"},{"inputs":[{"internalType":"bytes32","name":"","type":"bytes32"}],"name":"nullifiers","outputs":[{"internalType":"bool","name":"","type":"bool"}],"stateMutability":"view","type":"function"},{"inputs":[{"internalType":"bytes32","name":"nullifier","type":"bytes32"},{"internalType":"bytes32","name":"inputCommitment","type":"bytes32"},{"internalType":"bytes32","name":"outputCommitment","type":"bytes32"},{"internalType":"bytes","name":"proof","type":"bytes"}],"name":"privateTransfer","outputs":[],"stateMutability":"nonpayable","type":"function"},{"inputs":[],"name":"root","outputs":[{"internalType":"bytes32","name":"","type":"bytes32"}],"stateMutability":"view","type":"function"},{"inputs":[{"internalType":"bytes32","name":"commitment","type":"bytes32"}],"name":"shield","outputs":[],"stateMutability":"payable","type":"function"},{"inputs":[{"internalType":"bytes32","name":"nullifier","type":"bytes32"},{"internalType":"bytes32","name":"inputCommitment","type":"bytes32"},{"internalType":"address payable","name":"recipient","type":"address"},{"internalType":"uint256","name":"amount","type":"uint256"},{"internalType":"bytes","name":"proof","type":"bytes"}],"name":"unshield","outputs":[],"stateMutability":"nonpayable","type":"function"},{"inputs":[],"name":"verifier","outputs":[{"internalType":"contract IVerifier","name":"","type":"address"}],"stateMutability":"view","type":"function"},{"inputs":[{"internalType":"uint256","name":"","type":"uint256"}],"name":"zeroHashes","outputs":[{"internalType":"bytes32","name":"","type":"bytes32"}],"stateMutability":"view","type":"function"},{"stateMutability":"payable","type":"receive"}],"evm":{"bytecode":{"linkReferences":{},"object":"60a060405234801561000f575f5ffd5b5060405161441438038061441483398101604081905261002e91611b64565b5f805560015b601481116100a6576100805f61004b600184611bb2565b6015811061005b5761005b611b8a565b01545f610069600185611bb2565b6015811061007957610079611b8a565b0154610104565b5f826015811061009257610092611b8a565b01558061009e81611bc5565b915050610034565b505f5b601481116100ec575f81601581106100c3576100c3611b8a565b0154601582601581106100d8576100d8611b8a565b0155806100e481611bc5565b9150506100a9565b50601454602b556001600160a01b0316608052611c0f565b5f61010f8383610118565b90505b92915050565b5f80610122610178565b90505f604051806080016040528061013f876116c060201b60201c565b81526020018581526020015f81526020015f815250905061016e81835f015184602001516116c360201b60201c565b5195945050505050565b610180611af3565b604051806040016040528060405180608001604052807f10dc6e9c006ea38b04b1e03b4bd9490c0d03f98929ca1d7fb56821fd19d3b6e781526020017f0c28145b6a44df3e0149b3d0a30b3bb599df9756d4dd9b84a86b38cfb45a740b81526020017e544b8338791518b2c7645a50392798b21f75bb60e3596170067d00141cac1581526020017f222c01175718386f2e2e82eb122789e352e105a3b8fa852613bc534433ee428b815250815260200160405180610800016040528060405180608001604052807f19b849f69450b06848da1d39bd5e4a4302bb86744edc26238b0878e269ed23e581526020017f265ddfe127dd51bd7239347b758f0a1320eb2cc7450acc1dad47f80c8dcf34d681526020017f199750ec472f1809e0f66a545e1e51624108ac845015c2aa3dfc36bab497d8aa81526020017f157ff3fe65ac7208110f06a5f74302b14d743ea25067f0ffd032f787c7f1cdf8815250815260200160405180608001604052807f2e49c43c4569dd9c5fd35ac45fca33f10b15c590692f8beefe18f4896ac9490281526020017f0e35fb89981890520d4aef2b6d6506c3cb2f0b6973c24fa82731345ffa2d1f1e81526020017f251ad47cb15c4f1105f109ae5e944f1ba9d9e7806d667ffec6fe723002e0b99681526020017f13da07dc64d428369873e97160234641f8beb56fdd05e5f3563fa39d9c22df4e815250815260200160405180608001604052807f0c009b84e650e6d23dc00c7dccef7483a553939689d350cd46e7b89055fd473881526020017f011f16b1c63a854f01992e3956f42d8b04eb650c6d535eb0203dec74befdca0681526020017f0ed69e5e383a688f209d9a561daa79612f3f78d0467ad45485df07093f36754981526020017f04dba94a7b0ce9e221acad41472b6bbe3aec507f5eb3d33f463672264c9f789b815250815260200160405180608001604052807f0a3f2637d840f3a16eb094271c9d237b6036757d4bb50bf7ce732ff1d4fa28e881526020017f259a666f129eea198f8a1c502fdb38fa39b1f075569564b6e54a485d1182323f81526020017f28bf7459c9b2f4c6d8e7d06a4ee3a47f7745d4271038e5157a32fdf7ede0d6a181526020017f0a1ca941f057037526ea200f489be8d4c37c85bbcce6a2aeec91bd6941432447815250815260200160405180608001604052807f0c6f8f958be0e93053d7fd4fc54512855535ed1539f051dcb43a26fd926361cf81526020015f81526020015f81526020015f815250815260200160405180608001604052807f123106a93cd17578d426e8128ac9d90aa9e8a00708e296e084dd57e69caaf81181526020015f81526020015f81526020015f815250815260200160405180608001604052807f26e1ba52ad9285d97dd3ab52f8e840085e8fa83ff1e8f1877b074867cd2dee7581526020015f81526020015f81526020015f815250815260200160405180608001604052807f1cb55cad7bd133de18a64c5c47b9c97cbe4d8b7bf9e095864471537e6a4ae2c581526020015f81526020015f81526020015f815250815260200160405180608001604052807f1dcd73e46acd8f8e0e2c7ce04bde7f6d2a53043d5060a41c7143f08e6e9055d081526020015f81526020015f81526020015f815250815260200160405180608001604052807f011003e32f6d9c66f5852f05474a4def0cda294a0eb4e9b9b12b9bb4512e557481526020015f81526020015f81526020015f815250815260200160405180608001604052807f2b1e809ac1d10ab29ad5f20d03a57dfebadfe5903f58bafed7c508dd2287ae8c81526020015f81526020015f81526020015f815250815260200160405180608001604052807f2539de1785b735999fb4dac35ee17ed0ef995d05ab2fc5faeaa69ae87bcec0a581526020015f81526020015f81526020015f815250815260200160405180608001604052807f0c246c5a2ef8ee0126497f222b3e0a0ef4e1c3d41c86d46e43982cb11d77951d81526020015f81526020015f81526020015f815250815260200160405180608001604052807f192089c4974f68e95408148f7c0632edbb09e6a6ad1a1c2f3f0305f5d03b527b81526020015f81526020015f81526020015f815250815260200160405180608001604052807f1eae0ad8ab68b2f06a0ee36eeb0d0c058529097d91096b756d8fdc2fb5a60d8581526020015f81526020015f81526020015f815250815260200160405180608001604052807f179190e5d0e22179e46f8282872abc88db6e2fdc0dee99e69768bd98c5d06bfb81526020015f81526020015f81526020015f815250815260200160405180608001604052807f29bb9e2c9076732576e9a81c7ac4b83214528f7db00f31bf6cafe794a9b3cd1c81526020015f81526020015f81526020015f815250815260200160405180608001604052807f225d394e42207599403efd0c2464a90d52652645882aac35b10e590e6e691e0881526020015f81526020015f81526020015f815250815260200160405180608001604052807f064760623c25c8cf753d238055b444532be13557451c087de09efd454b23fd5981526020015f81526020015f81526020015f815250815260200160405180608001604052807f10ba3a0e01df92e87f301c4b716d8a394d67f4bf42a75c10922910a78f6b5b8781526020015f81526020015f81526020015f815250815260200160405180608001604052807f0e070bf53f8451b24f9c6e96b0c2a801cb511bc0c242eb9d361b77693f21471c81526020015f81526020015f81526020015f815250815260200160405180608001604052807f1b94cd61b051b04dd39755ff93821a73ccd6cb11d2491d8aa7f921014de252fb81526020015f81526020015f81526020015f815250815260200160405180608001604052807f1d7cb39bafb8c744e148787a2e70230f9d4e917d5713bb050487b5aa7d74070b81526020015f81526020015f81526020015f815250815260200160405180608001604052807f2ec93189bd1ab4f69117d0fe980c80ff8785c2961829f701bb74ac1f303b17db81526020015f81526020015f81526020015f815250815260200160405180608001604052807f2db366bfdd36d277a692bb825b86275beac404a19ae07a9082ea46bd8351792681526020015f81526020015f81526020015f815250815260200160405180608001604052807f062100eb485db06269655cf186a68532985275428450359adc99cec6960711b881526020015f81526020015f81526020015f815250815260200160405180608001604052807f0761d33c66614aaa570e7f1e8244ca1120243f92fa59e4f900c567bf41f5a59b81526020015f81526020015f81526020015f815250815260200160405180608001604052807f20fc411a114d13992c2705aa034e3f315d78608a0f7de4ccf7a72e494855ad0d81526020015f81526020015f81526020015f815250815260200160405180608001604052807f25b5c004a4bdfcb5add9ec4e9ab219ba102c67e8b3effb5fc3a30f317250bc5a81526020015f81526020015f81526020015f815250815260200160405180608001604052807f23b1822d278ed632a494e58f6df6f5ed038b186d8474155ad87e7dff62b37f4b81526020015f81526020015f81526020015f815250815260200160405180608001604052807f22734b4c5c3f9493606c4ba9012499bf0f14d13bfcfcccaa16102a29cc2f69e081526020015f81526020015f81526020015f815250815260200160405180608001604052807f26c0c8fe09eb30b7e27a74dc33492347e5bdff409aa3610254413d3fad795ce581526020015f81526020015f81526020015f815250815260200160405180608001604052807f070dd0ccb6bd7bbae88eac03fa1fbb26196be3083a809829bbd626df348ccad981526020015f81526020015f81526020015f815250815260200160405180608001604052807f12b6595bdb329b6fb043ba78bb28c3bec2c0a6de46d8c5ad6067c4ebfd4250da81526020015f81526020015f81526020015f815250815260200160405180608001604052807f248d97d7f76283d63bec30e7a5876c11c06fca9b275c671c5e33d95bb7e8d72981526020015f81526020015f81526020015f815250815260200160405180608001604052807f1a306d439d463b0816fc6fd64cc939318b45eb759ddde4aa106d15d9bd9baaaa81526020015f81526020015f81526020015f815250815260200160405180608001604052807f28a8f8372e3c38daced7c00421cb4621f4f1b54ddc27821b0d62d3d6ec7c56cf81526020015f81526020015f81526020015f815250815260200160405180608001604052807e94975717f9a8a8bb35152f24d43294071ce320c829f388bc852183e1e2ce7e81526020015f81526020015f81526020015f815250815260200160405180608001604052807f04d5ee4c3aa78f7d80fde60d716480d3593f74d4f653ae83f4103246db2e8d6581526020015f81526020015f81526020015f815250815260200160405180608001604052807f2a6cf5e9aa03d4336349ad6fb8ed2269c7bef54b8822cc76d08495c12efde18781526020015f81526020015f81526020015f815250815260200160405180608001604052807f2304d31eaab960ba9274da43e19ddeb7f792180808fd6e43baae48d7efcba3f381526020015f81526020015f81526020015f815250815260200160405180608001604052807f03fd9ac865a4b2a6d5e7009785817249bff08a7e0726fcb4e1c11d39d199f0b081526020015f81526020015f81526020015f815250815260200160405180608001604052807eb7258ded52bbda2248404d55ee5044798afc3a209193073f7954d4d63b0b6481526020015f81526020015f81526020015f815250815260200160405180608001604052807f159f81ada0771799ec38fca2d4bf65ebb13d3a74f3298db36272c5ca65e92d9a81526020015f81526020015f81526020015f815250815260200160405180608001604052807f1ef90e67437fbc8550237a75bc28e3bb9000130ea25f0c5471e144cf4264431f81526020015f81526020015f81526020015f815250815260200160405180608001604052807f1e65f838515e5ff0196b49aa41a2d2568df739bc176b08ec95a79ed82932e30d81526020015f81526020015f81526020015f815250815260200160405180608001604052807f2b1b045def3a166cec6ce768d079ba74b18c844e570e1f826575c1068c94c33f81526020015f81526020015f81526020015f815250815260200160405180608001604052807f0832e5753ceb0ff6402543b1109229c165dc2d73bef715e3f1c6e07c168bb17381526020015f81526020015f81526020015f815250815260200160405180608001604052807f02f614e9cedfb3dc6b762ae0a37d41bab1b841c2e8b6451bc5a8e3c390b6ad1681526020015f81526020015f81526020015f815250815260200160405180608001604052807f0e2427d38bd46a60dd640b8e362cad967370ebb777bedff40f6a0be27e7ed70581526020015f81526020015f81526020015f815250815260200160405180608001604052807f0493630b7c670b6deb7c84d414e7ce79049f0ec098c3c7c50768bbe29214a53a81526020015f81526020015f81526020015f815250815260200160405180608001604052807f22ead100e8e482674decdab17066c5a26bb1515355d5461a3dc06cc85327cea981526020015f81526020015f81526020015f815250815260200160405180608001604052807f25b3e56e655b42cdaae2626ed2554d48583f1ae35626d04de5084e0b6d2a6f1681526020015f81526020015f81526020015f815250815260200160405180608001604052807f1e32752ada8836ef5837a6cde8ff13dbb599c336349e4c584b4fdc0a0cf6f9d081526020015f81526020015f81526020015f815250815260200160405180608001604052807f2fa2a871c15a387cc50f68f6f3c3455b23c00995f05078f672a9864074d412e581526020015f81526020015f81526020015f815250815260200160405180608001604052807f2f569b8a9a4424c9278e1db7311e889f54ccbf10661bab7fcd18e7c7a7d8350581526020015f81526020015f81526020015f815250815260200160405180608001604052807f044cb455110a8fdd531ade530234c518a7df93f7332ffd2144165374b246b43d81526020015f81526020015f81526020015f815250815260200160405180608001604052807f227808de93906d5d420246157f2e42b191fe8c90adfe118178ddc723a531902581526020015f81526020015f81526020015f815250815260200160405180608001604052807f02fcca2934e046bc623adead873579865d03781ae090ad4a8579d2e7a680035581526020015f81526020015f81526020015f815250815260200160405180608001604052807f0ef915f0ac120b876abccceb344a1d36bad3f3c5ab91a8ddcbec2e060d8befac81526020015f81526020015f81526020015f815250815260200160405180608001604052807f1797130f4b7a3e1777eb757bc6f287f6ab0fb85f6be63b09f3b16ef2b1405d3881526020017f0a76225dc04170ae3306c85abab59e608c7f497c20156d4d36c668555decc6e581526020017f1fffb9ec1992d66ba1e77a7b93209af6f8fa76d48acb664796174b5326a31a5c81526020017f25721c4fc15a3f2853b57c338fa538d85f8fbba6c6b9c6090611889b797b9c5f815250815260200160405180608001604052807f0c817fd42d5f7a41215e3d07ba197216adb4c3790705da95eb63b982bfcaf75a81526020017f13abe3f5239915d39f7e13c2c24970b6df8cf86ce00a22002bc15866e52b5a9681526020017f2106feea546224ea12ef7f39987a46c85c1bc3dc29bdbd7a92cd60acb4d391ce81526020017f21ca859468a746b6aaa79474a37dab49f1ca5a28c748bc7157e1b3345bb0f959815250815260200160405180608001604052807f05ccd6255c1e6f0c5cf1f0df934194c62911d14d0321662a8f1a48999e34185b81526020017f0f0e34a64b70a626e464d846674c4c8816c4fb267fe44fe6ea28678cb09490a481526020017f0558531a4e25470c6157794ca36d0e9647dbfcfe350d64838f5b1a8a2de0d4bf81526020017f09d3dca9173ed2faceea125157683d18924cadad3f655a60b72f5864961f1455815250815260200160405180608001604052807f0328cbd54e8c0913493f866ed03d218bf23f92d68aaec48617d4c722e5bd433581526020017f2bf07216e2aff0a223a487b1a7094e07e79e7bcc9798c648ee3347dd5329d34b81526020017f1daf345a58006b736499c583cb76c316d6f78ed6a6dffc82111e11a63fe412df81526020017f176563472456aaa746b694c60e1823611ef39039b2edc7ff391e6f2293d2c404815250815250815250905090565b90565b6116cb611b18565b5f60405180608001604052805f81526020015f81526020015f81526020015f81525090505f5b60048110156117305785816004811061170c5761170c611b8a565b602002015182826004811061172357611723611b8a565b60200201526001016116f1565b5061173a8161182c565b5f61174760026008611bdd565b90505f5b818110156117785761175e83868361191d565b6117678361198f565b6117708361182c565b60010161174b565b505f611785603883611bfc565b9050815b818110156117e0576117ba8682604081106117a6576117a6611b8a565b602002015151855f5b6020020151906119d2565b84526117cc845f5b60200201516119eb565b84526117d88488611a14565b600101611789565b505f6117ee60386008611bfc565b9050815b8181101561181f5761180585888361191d565b61180e8561198f565b6118178561182c565b6001016117f2565b5092979650505050505050565b5f61183f8260016020020151835f6117af565b90505f61185583600360200201518460026117af565b90505f61186b84600160200201518560016117af565b905061187781836119d2565b90505f61188d85600360200201518660036117af565b905061189981856119d2565b90505f6118a684806119d2565b90506118b281806119d2565b90506118be81836119d2565b90505f6118cb86806119d2565b90506118d781806119d2565b90506118e381856119d2565b90505f6118f084836119d2565b90505f6118fd86856119d2565b918952506020880191909152604087015260609095019490945250505050565b5f5b60048110156119895761196a83836040811061193d5761193d611b8a565b6020020151826004811061195357611953611b8a565b60200201518583600481106117af576117af611b8a565b84826004811061197c5761197c611b8a565b602002015260010161191f565b50505050565b5f5b60048110156119ce576119af8282600481106117c2576117c2611b8a565b8282600481106119c1576119c1611b8a565b6020020152600101611991565b5050565b5f5f5160206143f45f395f51905f528284089392505050565b5f806119f78380611ada565b9050611a0d83611a078380611ada565b90611ada565b9392505050565b5f805b6004811015611a4b57611a41848260048110611a3557611a35611b8a565b602002015183906119d2565b9150600101611a17565b505f5b600481101561198957611a8e838260048110611a6c57611a6c611b8a565b6020020151858360048110611a8357611a83611b8a565b602002015190611ada565b848260048110611aa057611aa0611b8a565b6020020152611abb828583600481106117af576117af611b8a565b848260048110611acd57611acd611b8a565b6020020152600101611a4e565b5f5f5160206143f45f395f51905f528284099392505050565b6040518060400160405280611b06611b18565b8152602001611b13611b36565b905290565b60405180608001604052806004906020820280368337509192915050565b6040518061080001604052806040905b611b4e611b18565b815260200190600190039081611b465790505090565b5f60208284031215611b74575f5ffd5b81516001600160a01b0381168114611a0d575f5ffd5b634e487b7160e01b5f52603260045260245ffd5b634e487b7160e01b5f52601160045260245ffd5b8181038181111561011257610112611b9e565b5f60018201611bd657611bd6611b9e565b5060010190565b5f82611bf757634e487b7160e01b5f52601260045260245ffd5b500490565b8082018082111561011257610112611b9e565b6080516127bf611c355f395f818161018701528181610486015261073101526127bf5ff3fe6080604052600436106100dc575f3560e01c80635688881f1161007c578063d5a4e32511610057578063d5a4e32514610246578063ebf0c71714610274578063f165053614610289578063f178e47c1461029d575f5ffd5b80635688881f146101f45780637ac5476714610208578063b435890b14610227575f5ffd5b80632997e86b116100b75780632997e86b146101385780632b7ac3f31461017657806341eed011146101c157806349590657146101e0575f5ffd5b8063082febf0146100e75780630be4f4221461010e5780632612354814610123575f5ffd5b366100e357005b5f5ffd5b3480156100f2575f5ffd5b506100fb6102bc565b6040519081526020015b60405180910390f35b348015610119575f5ffd5b506100fb602a5481565b61013661013136600461245e565b6102cb565b005b348015610143575f5ffd5b5061016661015236600461245e565b602c6020525f908152604090205460ff1681565b6040519015158152602001610105565b348015610181575f5ffd5b506101a97f000000000000000000000000000000000000000000000000000000000000000081565b6040516001600160a01b039091168152602001610105565b3480156101cc575f5ffd5b506101366101db3660046124ba565b61039a565b3480156101eb575f5ffd5b50602b546100fb565b3480156101ff575f5ffd5b50602a546100fb565b348015610213575f5ffd5b506100fb61022236600461245e565b610591565b348015610232575f5ffd5b50610136610241366004612516565b6105a6565b348015610251575f5ffd5b5061016661026036600461245e565b5f908152602c602052604090205460ff1690565b34801561027f575f5ffd5b506100fb602b5481565b348015610294575f5ffd5b506100fb601481565b3480156102a8575f5ffd5b506100fb6102b736600461245e565b6108d9565b6102c860146002612686565b81565b5f34116103145760405162461bcd60e51b81526020600482015260126024820152714d757374206465706f7369742076616c756560701b60448201526064015b60405180910390fd5b806103565760405162461bcd60e51b8152602060048201526012602482015271125b9d985b1a590818dbdb5b5a5d1b595b9d60721b604482015260640161030b565b61035f816108e8565b50604051348152819033907f2ea2f16cf99095512ab31fb564c28506d8b72758cc9a4175583f8d024a16c1529060200160405180910390a350565b5f858152602c602052604090205460ff16156103ed5760405162461bcd60e51b8152602060048201526012602482015271139bdd1948185b1c9958591e481cdc195b9d60721b604482015260640161030b565b604080516003808252608082019092525f916020820160608036833701905050905085815f8151811061042257610422612691565b602002602001018181525050848160018151811061044257610442612691565b602002602001018181525050602b548160028151811061046457610464612691565b6020908102919091010152604051633a94343960e21b81526001600160a01b037f0000000000000000000000000000000000000000000000000000000000000000169063ea50d0e4906104bf908690869086906004016126a5565b6020604051808303815f875af11580156104db573d5f5f3e3d5ffd5b505050506040513d601f19601f820116820180604052508101906104ff919061271d565b61053b5760405162461bcd60e51b815260206004820152600d60248201526c24b73b30b634b210383937b7b360991b604482015260640161030b565b5f868152602c60205260409020805460ff1916600117905561055c846108e8565b50604051849087907fd2be5e1af978a60ae9cef2f81d49f263e289dcc7026ebb9ddf427cdd00e6cac9905f90a3505050505050565b5f816015811061059f575f80fd5b0154905081565b5f868152602c602052604090205460ff16156105f95760405162461bcd60e51b8152602060048201526012602482015271139bdd1948185b1c9958591e481cdc195b9d60721b604482015260640161030b565b5f83116106485760405162461bcd60e51b815260206004820152601760248201527f416d6f756e74206d75737420626520706f736974697665000000000000000000604482015260640161030b565b824710156106985760405162461bcd60e51b815260206004820152601960248201527f496e73756666696369656e7420706f6f6c2062616c616e636500000000000000604482015260640161030b565b604080516003808252608082019092525f916020820160608036833701905050905086815f815181106106cd576106cd612691565b60200260200101818152505085816001815181106106ed576106ed612691565b602002602001018181525050602b548160028151811061070f5761070f612691565b6020908102919091010152604051633a94343960e21b81526001600160a01b037f0000000000000000000000000000000000000000000000000000000000000000169063ea50d0e49061076a908690869086906004016126a5565b6020604051808303815f875af1158015610786573d5f5f3e3d5ffd5b505050506040513d601f19601f820116820180604052508101906107aa919061271d565b6107e65760405162461bcd60e51b815260206004820152600d60248201526c24b73b30b634b210383937b7b360991b604482015260640161030b565b5f878152602c6020526040808220805460ff19166001179055516001600160a01b0387169086908381818185875af1925050503d805f8114610843576040519150601f19603f3d011682016040523d82523d5f602084013e610848565b606091505b505090508061088b5760405162461bcd60e51b815260206004820152600f60248201526e151c985b9cd9995c8819985a5b1959608a1b604482015260640161030b565b856001600160a01b0316887f7a80f1d28cde7af437839071848972b2a0b0d87a198873c35f1e5c19272df944876040516108c791815260200190565b60405180910390a35050505050505050565b6015816015811061059f575f80fd5b5f6108f560146002612686565b602a541061093b5760405162461bcd60e51b815260206004820152601360248201527213595c9adb19481d1c9959481a5cc8199d5b1b606a1b604482015260640161030b565b50602a5480825f5b60148110156109cd57610957600284612750565b5f0361099757816015826015811061097157610971612691565b0155610990825f836015811061098957610989612691565b01546109e9565b91506109b8565b6109b5601582601581106109ad576109ad612691565b0154836109e9565b91505b6109c3600284612763565b9250600101610943565b50602b8190556109de836001612776565b602a55509092915050565b5f6109f483836109fd565b90505b92915050565b5f5f610a07610a4f565b90505f6040518060800160405280610a1c8790565b81526020018581526020015f81526020015f8152509050610a4581835f01518460200151611f97565b5195945050505050565b610a576123ed565b604051806040016040528060405180608001604052807f10dc6e9c006ea38b04b1e03b4bd9490c0d03f98929ca1d7fb56821fd19d3b6e781526020017f0c28145b6a44df3e0149b3d0a30b3bb599df9756d4dd9b84a86b38cfb45a740b81526020017e544b8338791518b2c7645a50392798b21f75bb60e3596170067d00141cac1581526020017f222c01175718386f2e2e82eb122789e352e105a3b8fa852613bc534433ee428b815250815260200160405180610800016040528060405180608001604052807f19b849f69450b06848da1d39bd5e4a4302bb86744edc26238b0878e269ed23e581526020017f265ddfe127dd51bd7239347b758f0a1320eb2cc7450acc1dad47f80c8dcf34d681526020017f199750ec472f1809e0f66a545e1e51624108ac845015c2aa3dfc36bab497d8aa81526020017f157ff3fe65ac7208110f06a5f74302b14d743ea25067f0ffd032f787c7f1cdf8815250815260200160405180608001604052807f2e49c43c4569dd9c5fd35ac45fca33f10b15c590692f8beefe18f4896ac9490281526020017f0e35fb89981890520d4aef2b6d6506c3cb2f0b6973c24fa82731345ffa2d1f1e81526020017f251ad47cb15c4f1105f109ae5e944f1ba9d9e7806d667ffec6fe723002e0b99681526020017f13da07dc64d428369873e97160234641f8beb56fdd05e5f3563fa39d9c22df4e815250815260200160405180608001604052807f0c009b84e650e6d23dc00c7dccef7483a553939689d350cd46e7b89055fd473881526020017f011f16b1c63a854f01992e3956f42d8b04eb650c6d535eb0203dec74befdca0681526020017f0ed69e5e383a688f209d9a561daa79612f3f78d0467ad45485df07093f36754981526020017f04dba94a7b0ce9e221acad41472b6bbe3aec507f5eb3d33f463672264c9f789b815250815260200160405180608001604052807f0a3f2637d840f3a16eb094271c9d237b6036757d4bb50bf7ce732ff1d4fa28e881526020017f259a666f129eea198f8a1c502fdb38fa39b1f075569564b6e54a485d1182323f81526020017f28bf7459c9b2f4c6d8e7d06a4ee3a47f7745d4271038e5157a32fdf7ede0d6a181526020017f0a1ca941f057037526ea200f489be8d4c37c85bbcce6a2aeec91bd6941432447815250815260200160405180608001604052807f0c6f8f958be0e93053d7fd4fc54512855535ed1539f051dcb43a26fd926361cf81526020015f81526020015f81526020015f815250815260200160405180608001604052807f123106a93cd17578d426e8128ac9d90aa9e8a00708e296e084dd57e69caaf81181526020015f81526020015f81526020015f815250815260200160405180608001604052807f26e1ba52ad9285d97dd3ab52f8e840085e8fa83ff1e8f1877b074867cd2dee7581526020015f81526020015f81526020015f815250815260200160405180608001604052807f1cb55cad7bd133de18a64c5c47b9c97cbe4d8b7bf9e095864471537e6a4ae2c581526020015f81526020015f81526020015f815250815260200160405180608001604052807f1dcd73e46acd8f8e0e2c7ce04bde7f6d2a53043d5060a41c7143f08e6e9055d081526020015f81526020015f81526020015f815250815260200160405180608001604052807f011003e32f6d9c66f5852f05474a4def0cda294a0eb4e9b9b12b9bb4512e557481526020015f81526020015f81526020015f815250815260200160405180608001604052807f2b1e809ac1d10ab29ad5f20d03a57dfebadfe5903f58bafed7c508dd2287ae8c81526020015f81526020015f81526020015f815250815260200160405180608001604052807f2539de1785b735999fb4dac35ee17ed0ef995d05ab2fc5faeaa69ae87bcec0a581526020015f81526020015f81526020015f815250815260200160405180608001604052807f0c246c5a2ef8ee0126497f222b3e0a0ef4e1c3d41c86d46e43982cb11d77951d81526020015f81526020015f81526020015f815250815260200160405180608001604052807f192089c4974f68e95408148f7c0632edbb09e6a6ad1a1c2f3f0305f5d03b527b81526020015f81526020015f81526020015f815250815260200160405180608001604052807f1eae0ad8ab68b2f06a0ee36eeb0d0c058529097d91096b756d8fdc2fb5a60d8581526020015f81526020015f81526020015f815250815260200160405180608001604052807f179190e5d0e22179e46f8282872abc88db6e2fdc0dee99e69768bd98c5d06bfb81526020015f81526020015f81526020015f815250815260200160405180608001604052807f29bb9e2c9076732576e9a81c7ac4b83214528f7db00f31bf6cafe794a9b3cd1c81526020015f81526020015f81526020015f815250815260200160405180608001604052807f225d394e42207599403efd0c2464a90d52652645882aac35b10e590e6e691e0881526020015f81526020015f81526020015f815250815260200160405180608001604052807f064760623c25c8cf753d238055b444532be13557451c087de09efd454b23fd5981526020015f81526020015f81526020015f815250815260200160405180608001604052807f10ba3a0e01df92e87f301c4b716d8a394d67f4bf42a75c10922910a78f6b5b8781526020015f81526020015f81526020015f815250815260200160405180608001604052807f0e070bf53f8451b24f9c6e96b0c2a801cb511bc0c242eb9d361b77693f21471c81526020015f81526020015f81526020015f815250815260200160405180608001604052807f1b94cd61b051b04dd39755ff93821a73ccd6cb11d2491d8aa7f921014de252fb81526020015f81526020015f81526020015f815250815260200160405180608001604052807f1d7cb39bafb8c744e148787a2e70230f9d4e917d5713bb050487b5aa7d74070b81526020015f81526020015f81526020015f815250815260200160405180608001604052807f2ec93189bd1ab4f69117d0fe980c80ff8785c2961829f701bb74ac1f303b17db81526020015f81526020015f81526020015f815250815260200160405180608001604052807f2db366bfdd36d277a692bb825b86275beac404a19ae07a9082ea46bd8351792681526020015f81526020015f81526020015f815250815260200160405180608001604052807f062100eb485db06269655cf186a68532985275428450359adc99cec6960711b881526020015f81526020015f81526020015f815250815260200160405180608001604052807f0761d33c66614aaa570e7f1e8244ca1120243f92fa59e4f900c567bf41f5a59b81526020015f81526020015f81526020015f815250815260200160405180608001604052807f20fc411a114d13992c2705aa034e3f315d78608a0f7de4ccf7a72e494855ad0d81526020015f81526020015f81526020015f815250815260200160405180608001604052807f25b5c004a4bdfcb5add9ec4e9ab219ba102c67e8b3effb5fc3a30f317250bc5a81526020015f81526020015f81526020015f815250815260200160405180608001604052807f23b1822d278ed632a494e58f6df6f5ed038b186d8474155ad87e7dff62b37f4b81526020015f81526020015f81526020015f815250815260200160405180608001604052807f22734b4c5c3f9493606c4ba9012499bf0f14d13bfcfcccaa16102a29cc2f69e081526020015f81526020015f81526020015f815250815260200160405180608001604052807f26c0c8fe09eb30b7e27a74dc33492347e5bdff409aa3610254413d3fad795ce581526020015f81526020015f81526020015f815250815260200160405180608001604052807f070dd0ccb6bd7bbae88eac03fa1fbb26196be3083a809829bbd626df348ccad981526020015f81526020015f81526020015f815250815260200160405180608001604052807f12b6595bdb329b6fb043ba78bb28c3bec2c0a6de46d8c5ad6067c4ebfd4250da81526020015f81526020015f81526020015f815250815260200160405180608001604052807f248d97d7f76283d63bec30e7a5876c11c06fca9b275c671c5e33d95bb7e8d72981526020015f81526020015f81526020015f815250815260200160405180608001604052807f1a306d439d463b0816fc6fd64cc939318b45eb759ddde4aa106d15d9bd9baaaa81526020015f81526020015f81526020015f815250815260200160405180608001604052807f28a8f8372e3c38daced7c00421cb4621f4f1b54ddc27821b0d62d3d6ec7c56cf81526020015f81526020015f81526020015f815250815260200160405180608001604052807e94975717f9a8a8bb35152f24d43294071ce320c829f388bc852183e1e2ce7e81526020015f81526020015f81526020015f815250815260200160405180608001604052807f04d5ee4c3aa78f7d80fde60d716480d3593f74d4f653ae83f4103246db2e8d6581526020015f81526020015f81526020015f815250815260200160405180608001604052807f2a6cf5e9aa03d4336349ad6fb8ed2269c7bef54b8822cc76d08495c12efde18781526020015f81526020015f81526020015f815250815260200160405180608001604052807f2304d31eaab960ba9274da43e19ddeb7f792180808fd6e43baae48d7efcba3f381526020015f81526020015f81526020015f815250815260200160405180608001604052807f03fd9ac865a4b2a6d5e7009785817249bff08a7e0726fcb4e1c11d39d199f0b081526020015f81526020015f81526020015f815250815260200160405180608001604052807eb7258ded52bbda2248404d55ee5044798afc3a209193073f7954d4d63b0b6481526020015f81526020015f81526020015f815250815260200160405180608001604052807f159f81ada0771799ec38fca2d4bf65ebb13d3a74f3298db36272c5ca65e92d9a81526020015f81526020015f81526020015f815250815260200160405180608001604052807f1ef90e67437fbc8550237a75bc28e3bb9000130ea25f0c5471e144cf4264431f81526020015f81526020015f81526020015f815250815260200160405180608001604052807f1e65f838515e5ff0196b49aa41a2d2568df739bc176b08ec95a79ed82932e30d81526020015f81526020015f81526020015f815250815260200160405180608001604052807f2b1b045def3a166cec6ce768d079ba74b18c844e570e1f826575c1068c94c33f81526020015f81526020015f81526020015f815250815260200160405180608001604052807f0832e5753ceb0ff6402543b1109229c165dc2d73bef715e3f1c6e07c168bb17381526020015f81526020015f81526020015f815250815260200160405180608001604052807f02f614e9cedfb3dc6b762ae0a37d41bab1b841c2e8b6451bc5a8e3c390b6ad1681526020015f81526020015f81526020015f815250815260200160405180608001604052807f0e2427d38bd46a60dd640b8e362cad967370ebb777bedff40f6a0be27e7ed70581526020015f81526020015f81526020015f815250815260200160405180608001604052807f0493630b7c670b6deb7c84d414e7ce79049f0ec098c3c7c50768bbe29214a53a81526020015f81526020015f81526020015f815250815260200160405180608001604052807f22ead100e8e482674decdab17066c5a26bb1515355d5461a3dc06cc85327cea981526020015f81526020015f81526020015f815250815260200160405180608001604052807f25b3e56e655b42cdaae2626ed2554d48583f1ae35626d04de5084e0b6d2a6f1681526020015f81526020015f81526020015f815250815260200160405180608001604052807f1e32752ada8836ef5837a6cde8ff13dbb599c336349e4c584b4fdc0a0cf6f9d081526020015f81526020015f81526020015f815250815260200160405180608001604052807f2fa2a871c15a387cc50f68f6f3c3455b23c00995f05078f672a9864074d412e581526020015f81526020015f81526020015f815250815260200160405180608001604052807f2f569b8a9a4424c9278e1db7311e889f54ccbf10661bab7fcd18e7c7a7d8350581526020015f81526020015f81526020015f815250815260200160405180608001604052807f044cb455110a8fdd531ade530234c518a7df93f7332ffd2144165374b246b43d81526020015f81526020015f81526020015f815250815260200160405180608001604052807f227808de93906d5d420246157f2e42b191fe8c90adfe118178ddc723a531902581526020015f81526020015f81526020015f815250815260200160405180608001604052807f02fcca2934e046bc623adead873579865d03781ae090ad4a8579d2e7a680035581526020015f81526020015f81526020015f815250815260200160405180608001604052807f0ef915f0ac120b876abccceb344a1d36bad3f3c5ab91a8ddcbec2e060d8befac81526020015f81526020015f81526020015f815250815260200160405180608001604052807f1797130f4b7a3e1777eb757bc6f287f6ab0fb85f6be63b09f3b16ef2b1405d3881526020017f0a76225dc04170ae3306c85abab59e608c7f497c20156d4d36c668555decc6e581526020017f1fffb9ec1992d66ba1e77a7b93209af6f8fa76d48acb664796174b5326a31a5c81526020017f25721c4fc15a3f2853b57c338fa538d85f8fbba6c6b9c6090611889b797b9c5f815250815260200160405180608001604052807f0c817fd42d5f7a41215e3d07ba197216adb4c3790705da95eb63b982bfcaf75a81526020017f13abe3f5239915d39f7e13c2c24970b6df8cf86ce00a22002bc15866e52b5a9681526020017f2106feea546224ea12ef7f39987a46c85c1bc3dc29bdbd7a92cd60acb4d391ce81526020017f21ca859468a746b6aaa79474a37dab49f1ca5a28c748bc7157e1b3345bb0f959815250815260200160405180608001604052807f05ccd6255c1e6f0c5cf1f0df934194c62911d14d0321662a8f1a48999e34185b81526020017f0f0e34a64b70a626e464d846674c4c8816c4fb267fe44fe6ea28678cb09490a481526020017f0558531a4e25470c6157794ca36d0e9647dbfcfe350d64838f5b1a8a2de0d4bf81526020017f09d3dca9173ed2faceea125157683d18924cadad3f655a60b72f5864961f1455815250815260200160405180608001604052807f0328cbd54e8c0913493f866ed03d218bf23f92d68aaec48617d4c722e5bd433581526020017f2bf07216e2aff0a223a487b1a7094e07e79e7bcc9798c648ee3347dd5329d34b81526020017f1daf345a58006b736499c583cb76c316d6f78ed6a6dffc82111e11a63fe412df81526020017f176563472456aaa746b694c60e1823611ef39039b2edc7ff391e6f2293d2c404815250815250815250905090565b611f9f612412565b5f60405180608001604052805f81526020015f81526020015f81526020015f81525090505f5b600481101561200457858160048110611fe057611fe0612691565b6020020151828260048110611ff757611ff7612691565b6020020152600101611fc5565b5061200e81612100565b5f61201b60026008612763565b90505f5b8181101561204c576120328386836121f1565b61203b83612263565b61204483612100565b60010161201f565b505f612059603883612776565b9050815b818110156120b45761208e86826040811061207a5761207a612691565b602002015151855f5b6020020151906122a6565b84526120a0845f5b60200201516122d2565b84526120ac84886122fb565b60010161205d565b505f6120c260386008612776565b9050815b818110156120f3576120d98588836121f1565b6120e285612263565b6120eb85612100565b6001016120c6565b5092979650505050505050565b5f6121138260016020020151835f612083565b90505f6121298360036020020151846002612083565b90505f61213f8460016020020151856001612083565b905061214b81836122a6565b90505f6121618560036020020151866003612083565b905061216d81856122a6565b90505f61217a84806122a6565b905061218681806122a6565b905061219281836122a6565b90505f61219f86806122a6565b90506121ab81806122a6565b90506121b781856122a6565b90505f6121c484836122a6565b90505f6121d186856122a6565b918952506020880191909152604087015260609095019490945250505050565b5f5b600481101561225d5761223e83836040811061221157612211612691565b6020020151826004811061222757612227612691565b602002015185836004811061208357612083612691565b84826004811061225057612250612691565b60200201526001016121f3565b50505050565b5f5b60048110156122a25761228382826004811061209657612096612691565b82826004811061229557612295612691565b6020020152600101612265565b5050565b5f7f30644e72e131a029b85045b68181585d2833e84879b9709143e1f593f00000018284089392505050565b5f806122de83806123c1565b90506122f4836122ee83806123c1565b906123c1565b9392505050565b5f805b60048110156123325761232884826004811061231c5761231c612691565b602002015183906122a6565b91506001016122fe565b505f5b600481101561225d5761237583826004811061235357612353612691565b602002015185836004811061236a5761236a612691565b6020020151906123c1565b84826004811061238757612387612691565b60200201526123a28285836004811061208357612083612691565b8482600481106123b4576123b4612691565b6020020152600101612335565b5f7f30644e72e131a029b85045b68181585d2833e84879b9709143e1f593f00000018284099392505050565b6040518060400160405280612400612412565b815260200161240d612430565b905290565b60405180608001604052806004906020820280368337509192915050565b6040518061080001604052806040905b612448612412565b8152602001906001900390816124405790505090565b5f6020828403121561246e575f5ffd5b5035919050565b5f5f83601f840112612485575f5ffd5b50813567ffffffffffffffff81111561249c575f5ffd5b6020830191508360208285010111156124b3575f5ffd5b9250929050565b5f5f5f5f5f608086880312156124ce575f5ffd5b853594506020860135935060408601359250606086013567ffffffffffffffff8111156124f9575f5ffd5b61250588828901612475565b969995985093965092949392505050565b5f5f5f5f5f5f60a0878903121561252b575f5ffd5b863595506020870135945060408701356001600160a01b038116811461254f575f5ffd5b935060608701359250608087013567ffffffffffffffff811115612571575f5ffd5b61257d89828a01612475565b979a9699509497509295939492505050565b634e487b7160e01b5f52601160045260245ffd5b6001815b60018411156125de578085048111156125c2576125c261258f565b60018416156125d057908102905b60019390931c9280026125a7565b935093915050565b5f826125f4575060016109f7565b8161260057505f6109f7565b816001811461261657600281146126205761263c565b60019150506109f7565b60ff8411156126315761263161258f565b50506001821b6109f7565b5060208310610133831016604e8410600b841016171561265f575081810a6109f7565b61266b5f1984846125a3565b805f190482111561267e5761267e61258f565b029392505050565b5f6109f483836125e6565b634e487b7160e01b5f52603260045260245ffd5b60408152826040820152828460608301375f606084830101525f601f19601f85011682016060810160608483030160208501528085518083526080840191506020870193505f92505b8083101561271157835182526020820191506020840193506001830192506126ee565b50979650505050505050565b5f6020828403121561272d575f5ffd5b815180151581146122f4575f5ffd5b634e487b7160e01b5f52601260045260245ffd5b5f8261275e5761275e61273c565b500690565b5f826127715761277161273c565b500490565b808201808211156109f7576109f761258f56fea2646970667358221220afdabbcb0359699c6ea4d0d73d94911f9bb98a5bae169342148628e6d97ebb1064736f6c634300081b003330644e72e131a029b85045b68181585d2833e84879b9709143e1f593f0000001","opcodes":"PUSH1 0xA0 PUSH1 0x40 MSTORE CALLVALUE DUP1 ISZERO PUSH2 0xF JUMPI PUSH0 PUSH0 REVERT JUMPDEST POP PUSH1 0x40 MLOAD PUSH2 0x4414 CODESIZE SUB DUP1 PUSH2 0x4414 DUP4 CODECOPY DUP2 ADD PUSH1 0x40 DUP2 SWAP1 MSTORE PUSH2 0x2E SWAP2 PUSH2 0x1B64 JUMP JUMPDEST PUSH0 DUP1 SSTORE PUSH1 0x1 JUMPDEST PUSH1 0x14 DUP2 GT PUSH2 0xA6 JUMPI PUSH2 0x80 PUSH0 PUSH2 0x4B PUSH1 0x1 DUP5 PUSH2 0x1BB2 JUMP JUMPDEST PUSH1 0x15 DUP2 LT PUSH2 0x5B JUMPI PUSH2 0x5B PUSH2 0x1B8A JUMP JUMPDEST ADD SLOAD PUSH0 PUSH2 0x69 PUSH1 0x1 DUP6 PUSH2 0x1BB2 JUMP JUMPDEST PUSH1 0x15 DUP2 LT PUSH2 0x79 JUMPI PUSH2 0x79 PUSH2 0x1B8A JUMP JUMPDEST ADD SLOAD PUSH2 0x104 JUMP JUMPDEST PUSH0 DUP3 PUSH1 0x15 DUP2 LT PUSH2 0x92 JUMPI PUSH2 0x92 PUSH2 0x1B8A JUMP JUMPDEST ADD SSTORE DUP1 PUSH2 0x9E DUP2 PUSH2 0x1BC5 JUMP JUMPDEST SWAP2 POP POP PUSH2 0x34 JUMP JUMPDEST POP PUSH0 JUMPDEST PUSH1 0x14 DUP2 GT PUSH2 0xEC JUMPI PUSH0 DUP2 PUSH1 0x15 DUP2 LT PUSH2 0xC3 JUMPI PUSH2 0xC3 PUSH2 0x1B8A JUMP JUMPDEST ADD SLOAD PUSH1 0x15 DUP3 PUSH1 0x15 DUP2 LT PUSH2 0xD8 JUMPI PUSH2 0xD8 PUSH2 0x1B8A JUMP JUMPDEST ADD SSTORE DUP1 PUSH2 0xE4 DUP2 PUSH2 0x1BC5 JUMP JUMPDEST SWAP2 POP POP PUSH2 0xA9 JUMP JUMPDEST POP PUSH1 0x14 SLOAD PUSH1 0x2B SSTORE PUSH1 0x1 PUSH1 0x1 PUSH1 0xA0 SHL SUB AND PUSH1 0x80 MSTORE PUSH2 0x1C0F JUMP JUMPDEST PUSH0 PUSH2 0x10F DUP4 DUP4 PUSH2 0x118 JUMP JUMPDEST SWAP1 POP JUMPDEST SWAP3 SWAP2 POP POP JUMP JUMPDEST PUSH0 DUP1 PUSH2 0x122 PUSH2 0x178 JUMP JUMPDEST SWAP1 POP PUSH0 PUSH1 0x40 MLOAD DUP1 PUSH1 0x80 ADD PUSH1 0x40 MSTORE DUP1 PUSH2 0x13F DUP8 PUSH2 0x16C0 PUSH1 0x20 SHL PUSH1 0x20 SHR JUMP JUMPDEST DUP2 MSTORE PUSH1 0x20 ADD DUP6 DUP2 MSTORE PUSH1 0x20 ADD PUSH0 DUP2 MSTORE PUSH1 0x20 ADD PUSH0 DUP2 MSTORE POP SWAP1 POP PUSH2 0x16E DUP2 DUP4 PUSH0 ADD MLOAD DUP5 PUSH1 0x20 ADD MLOAD PUSH2 0x16C3 PUSH1 0x20 SHL PUSH1 0x20 SHR JUMP JUMPDEST MLOAD SWAP6 SWAP5 POP POP POP POP POP JUMP JUMPDEST PUSH2 0x180 PUSH2 0x1AF3 JUMP JUMPDEST PUSH1 0x40 MLOAD DUP1 PUSH1 0x40 ADD PUSH1 0x40 MSTORE DUP1 PUSH1 0x40 MLOAD DUP1 PUSH1 0x80 ADD PUSH1 0x40 MSTORE DUP1 PUSH32 0x10DC6E9C006EA38B04B1E03B4BD9490C0D03F98929CA1D7FB56821FD19D3B6E7 DUP2 MSTORE PUSH1 0x20 ADD PUSH32 0xC28145B6A44DF3E0149B3D0A30B3BB599DF9756D4DD9B84A86B38CFB45A740B DUP2 MSTORE PUSH1 0x20 ADD PUSH31 0x544B8338791518B2C7645A50392798B21F75BB60E3596170067D00141CAC15 DUP2 MSTORE PUSH1 0x20 ADD PUSH32 0x222C01175718386F2E2E82EB122789E352E105A3B8FA852613BC534433EE428B DUP2 MSTORE POP DUP2 MSTORE PUSH1 0x20 ADD PUSH1 0x40 MLOAD DUP1 PUSH2 0x800 ADD PUSH1 0x40 MSTORE DUP1 PUSH1 0x40 MLOAD DUP1 PUSH1 0x80 ADD PUSH1 0x40 MSTORE DUP1 PUSH32 0x19B849F69450B06848DA1D39BD5E4A4302BB86744EDC26238B0878E269ED23E5 DUP2 MSTORE PUSH1 0x20 ADD PUSH32 0x265DDFE127DD51BD7239347B758F0A1320EB2CC7450ACC1DAD47F80C8DCF34D6 DUP2 MSTORE PUSH1 0x20 ADD PUSH32 0x199750EC472F1809E0F66A545E1E51624108AC845015C2AA3DFC36BAB497D8AA DUP2 MSTORE PUSH1 0x20 ADD PUSH32 0x157FF3FE65AC7208110F06A5F74302B14D743EA25067F0FFD032F787C7F1CDF8 DUP2 MSTORE POP DUP2 MSTORE PUSH1 0x20 ADD PUSH1 0x40 MLOAD DUP1 PUSH1 0x80 ADD PUSH1 0x40 MSTORE DUP1 PUSH32 0x2E49C43C4569DD9C5FD35AC45FCA33F10B15C590692F8BEEFE18F4896AC94902 DUP2 MSTORE PUSH1 0x20 ADD PUSH32 0xE35FB89981890520D4AEF2B6D6506C3CB2F0B6973C24FA82731345FFA2D1F1E DUP2 MSTORE PUSH1 0x20 ADD PUSH32 0x251AD47CB15C4F1105F109AE5E944F1BA9D9E7806D667FFEC6FE723002E0B996 DUP2 MSTORE PUSH1 0x20 ADD PUSH32 0x13DA07DC64D428369873E97160234641F8BEB56FDD05E5F3563FA39D9C22DF4E DUP2 MSTORE POP DUP2 MSTORE PUSH1 0x20 ADD PUSH1 0x40 MLOAD DUP1 PUSH1 0x80 ADD PUSH1 0x40 MSTORE DUP1 PUSH32 0xC009B84E650E6D23DC00C7DCCEF7483A553939689D350CD46E7B89055FD4738 DUP2 MSTORE PUSH1 0x20 ADD PUSH32 0x11F16B1C63A854F01992E3956F42D8B04EB650C6D535EB0203DEC74BEFDCA06 DUP2 MSTORE PUSH1 0x20 ADD PUSH32 0xED69E5E383A688F209D9A561DAA79612F3F78D0467AD45485DF07093F367549 DUP2 MSTORE PUSH1 0x20 ADD PUSH32 0x4DBA94A7B0CE9E221ACAD41472B6BBE3AEC507F5EB3D33F463672264C9F789B DUP2 MSTORE POP DUP2 MSTORE PUSH1 0x20 ADD PUSH1 0x40 MLOAD DUP1 PUSH1 0x80 ADD PUSH1 0x40 MSTORE DUP1 PUSH32 0xA3F2637D840F3A16EB094271C9D237B6036757D4BB50BF7CE732FF1D4FA28E8 DUP2 MSTORE PUSH1 0x20 ADD PUSH32 0x259A666F129EEA198F8A1C502FDB38FA39B1F075569564B6E54A485D1182323F DUP2 MSTORE PUSH1 0x20 ADD PUSH32 0x28BF7459C9B2F4C6D8E7D06A4EE3A47F7745D4271038E5157A32FDF7EDE0D6A1 DUP2 MSTORE PUSH1 0x20 ADD PUSH32 0xA1CA941F057037526EA200F489BE8D4C37C85BBCCE6A2AEEC91BD6941432447 DUP2 MSTORE POP DUP2 MSTORE PUSH1 0x20 ADD PUSH1 0x40 MLOAD DUP1 PUSH1 0x80 ADD PUSH1 0x40 MSTORE DUP1 PUSH32 0xC6F8F958BE0E93053D7FD4FC54512855535ED1539F051DCB43A26FD926361CF DUP2 MSTORE PUSH1 0x20 ADD PUSH0 DUP2 MSTORE PUSH1 0x20 ADD PUSH0 DUP2 MSTORE PUSH1 0x20 ADD PUSH0 DUP2 MSTORE POP DUP2 MSTORE PUSH1 0x20 ADD PUSH1 0x40 MLOAD DUP1 PUSH1 0x80 ADD PUSH1 0x40 MSTORE DUP1 PUSH32 0x123106A93CD17578D426E8128AC9D90AA9E8A00708E296E084DD57E69CAAF811 DUP2 MSTORE PUSH1 0x20 ADD PUSH0 DUP2 MSTORE PUSH1 0x20 ADD PUSH0 DUP2 MSTORE PUSH1 0x20 ADD PUSH0 DUP2 MSTORE POP DUP2 MSTORE PUSH1 0x20 ADD PUSH1 0x40 MLOAD DUP1 PUSH1 0x80 ADD PUSH1 0x40 MSTORE DUP1 PUSH32 0x26E1BA52AD9285D97DD3AB52F8E840085E8FA83FF1E8F1877B074867CD2DEE75 DUP2 MSTORE PUSH1 0x20 ADD PUSH0 DUP2 MSTORE PUSH1 0x20 ADD PUSH0 DUP2 MSTORE PUSH1 0x20 ADD PUSH0 DUP2 MSTORE POP DUP2 MSTORE PUSH1 0x20 ADD PUSH1 0x40 MLOAD DUP1 PUSH1 0x80 ADD PUSH1 0x40 MSTORE DUP1 PUSH32 0x1CB55CAD7BD133DE18A64C5C47B9C97CBE4D8B7BF9E095864471537E6A4AE2C5 DUP2 MSTORE PUSH1 0x20 ADD PUSH0 DUP2 MSTORE PUSH1 0x20 ADD PUSH0 DUP2 MSTORE PUSH1 0x20 ADD PUSH0 DUP2 MSTORE POP DUP2 MSTORE PUSH1 0x20 ADD PUSH1 0x40 MLOAD DUP1 PUSH1 0x80 ADD PUSH1 0x40 MSTORE DUP1 PUSH32 0x1DCD73E46ACD8F8E0E2C7CE04BDE7F6D2A53043D5060A41C7143F08E6E9055D0 DUP2 MSTORE PUSH1 0x20 ADD PUSH0 DUP2 MSTORE PUSH1 0x20 ADD PUSH0 DUP2 MSTORE PUSH1 0x20 ADD PUSH0 DUP2 MSTORE POP DUP2 MSTORE PUSH1 0x20 ADD PUSH1 0x40 MLOAD DUP1 PUSH1 0x80 ADD PUSH1 0x40 MSTORE DUP1 PUSH32 0x11003E32F6D9C66F5852F05474A4DEF0CDA294A0EB4E9B9B12B9BB4512E5574 DUP2 MSTORE PUSH1 0x20 ADD PUSH0 DUP2 MSTORE PUSH1 0x20 ADD PUSH0 DUP2 MSTORE PUSH1 0x20 ADD PUSH0 DUP2 MSTORE POP DUP2 MSTORE PUSH1 0x20 ADD PUSH1 0x40 MLOAD DUP1 PUSH1 0x80 ADD PUSH1 0x40 MSTORE DUP1 PUSH32 0x2B1E809AC1D10AB29AD5F20D03A57DFEBADFE5903F58BAFED7C508DD2287AE8C DUP2 MSTORE PUSH1 0x20 ADD PUSH0 DUP2 MSTORE PUSH1 0x20 ADD PUSH0 DUP2 MSTORE PUSH1 0x20 ADD PUSH0 DUP2 MSTORE POP DUP2 MSTORE PUSH1 0x20 ADD PUSH1 0x40 MLOAD DUP1 PUSH1 0x80 ADD PUSH1 0x40 MSTORE DUP1 PUSH32 0x2539DE1785B735999FB4DAC35EE17ED0EF995D05AB2FC5FAEAA69AE87BCEC0A5 DUP2 MSTORE PUSH1 0x20 ADD PUSH0 DUP2 MSTORE PUSH1 0x20 ADD PUSH0 DUP2 MSTORE PUSH1 0x20 ADD PUSH0 DUP2 MSTORE POP DUP2 MSTORE PUSH1 0x20 ADD PUSH1 0x40 MLOAD DUP1 PUSH1 0x80 ADD PUSH1 0x40 MSTORE DUP1 PUSH32 0xC246C5A2EF8EE0126497F222B3E0A0EF4E1C3D41C86D46E43982CB11D77951D DUP2 MSTORE PUSH1 0x20 ADD PUSH0 DUP2 MSTORE PUSH1 0x20 ADD PUSH0 DUP2 MSTORE PUSH1 0x20 ADD PUSH0 DUP2 MSTORE POP DUP2 MSTORE PUSH1 0x20 ADD PUSH1 0x40 MLOAD DUP1 PUSH1 0x80 ADD PUSH1 0x40 MSTORE DUP1 PUSH32 0x192089C4974F68E95408148F7C0632EDBB09E6A6AD1A1C2F3F0305F5D03B527B DUP2 MSTORE PUSH1 0x20 ADD PUSH0 DUP2 MSTORE PUSH1 0x20 ADD PUSH0 DUP2 MSTORE PUSH1 0x20 ADD PUSH0 DUP2 MSTORE POP DUP2 MSTORE PUSH1 0x20 ADD PUSH1 0x40 MLOAD DUP1 PUSH1 0x80 ADD PUSH1 0x40 MSTORE DUP1 PUSH32 0x1EAE0AD8AB68B2F06A0EE36EEB0D0C058529097D91096B756D8FDC2FB5A60D85 DUP2 MSTORE PUSH1 0x20 ADD PUSH0 DUP2 MSTORE PUSH1 0x20 ADD PUSH0 DUP2 MSTORE PUSH1 0x20 ADD PUSH0 DUP2 MSTORE POP DUP2 MSTORE PUSH1 0x20 ADD PUSH1 0x40 MLOAD DUP1 PUSH1 0x80 ADD PUSH1 0x40 MSTORE DUP1 PUSH32 0x179190E5D0E22179E46F8282872ABC88DB6E2FDC0DEE99E69768BD98C5D06BFB DUP2 MSTORE PUSH1 0x20 ADD PUSH0 DUP2 MSTORE PUSH1 0x20 ADD PUSH0 DUP2 MSTORE PUSH1 0x20 ADD PUSH0 DUP2 MSTORE POP DUP2 MSTORE PUSH1 0x20 ADD PUSH1 0x40 MLOAD DUP1 PUSH1 0x80 ADD PUSH1 0x40 MSTORE DUP1 PUSH32 0x29BB9E2C9076732576E9A81C7AC4B83214528F7DB00F31BF6CAFE794A9B3CD1C DUP2 MSTORE PUSH1 0x20 ADD PUSH0 DUP2 MSTORE PUSH1 0x20 ADD PUSH0 DUP2 MSTORE PUSH1 0x20 ADD PUSH0 DUP2 MSTORE POP DUP2 MSTORE PUSH1 0x20 ADD PUSH1 0x40 MLOAD DUP1 PUSH1 0x80 ADD PUSH1 0x40 MSTORE DUP1 PUSH32 0x225D394E42207599403EFD0C2464A90D52652645882AAC35B10E590E6E691E08 DUP2 MSTORE PUSH1 0x20 ADD PUSH0 DUP2 MSTORE PUSH1 0x20 ADD PUSH0 DUP2 MSTORE PUSH1 0x20 ADD PUSH0 DUP2 MSTORE POP DUP2 MSTORE PUSH1 0x20 ADD PUSH1 0x40 MLOAD DUP1 PUSH1 0x80 ADD PUSH1 0x40 MSTORE DUP1 PUSH32 0x64760623C25C8CF753D238055B444532BE13557451C087DE09EFD454B23FD59 DUP2 MSTORE PUSH1 0x20 ADD PUSH0 DUP2 MSTORE PUSH1 0x20 ADD PUSH0 DUP2 MSTORE PUSH1 0x20 ADD PUSH0 DUP2 MSTORE POP DUP2 MSTORE PUSH1 0x20 ADD PUSH1 0x40 MLOAD DUP1 PUSH1 0x80 ADD PUSH1 0x40 MSTORE DUP1 PUSH32 0x10BA3A0E01DF92E87F301C4B716D8A394D67F4BF42A75C10922910A78F6B5B87 DUP2 MSTORE PUSH1 0x20 ADD PUSH0 DUP2 MSTORE PUSH1 0x20 ADD PUSH0 DUP2 MSTORE PUSH1 0x20 ADD PUSH0 DUP2 MSTORE POP DUP2 MSTORE PUSH1 0x20 ADD PUSH1 0x40 MLOAD DUP1 PUSH1 0x80 ADD PUSH1 0x40 MSTORE DUP1 PUSH32 0xE070BF53F8451B24F9C6E96B0C2A801CB511BC0C242EB9D361B77693F21471C DUP2 MSTORE PUSH1 0x20 ADD PUSH0 DUP2 MSTORE PUSH1 0x20 ADD PUSH0 DUP2 MSTORE PUSH1 0x20 ADD PUSH0 DUP2 MSTORE POP DUP2 MSTORE PUSH1 0x20 ADD PUSH1 0x40 MLOAD DUP1 PUSH1 0x80 ADD PUSH1 0x40 MSTORE DUP1 PUSH32 0x1B94CD61B051B04DD39755FF93821A73CCD6CB11D2491D8AA7F921014DE252FB DUP2 MSTORE PUSH1 0x20 ADD PUSH0 DUP2 MSTORE PUSH1 0x20 ADD PUSH0 DUP2 MSTORE PUSH1 0x20 ADD PUSH0 DUP2 MSTORE POP DUP2 MSTORE PUSH1 0x20 ADD PUSH1 0x40 MLOAD DUP1 PUSH1 0x80 ADD PUSH1 0x40 MSTORE DUP1 PUSH32 0x1D7CB39BAFB8C744E148787A2E70230F9D4E917D5713BB050487B5AA7D74070B DUP2 MSTORE PUSH1 0x20 ADD PUSH0 DUP2 MSTORE PUSH1 0x20 ADD PUSH0 DUP2 MSTORE PUSH1 0x20 ADD PUSH0 DUP2 MSTORE POP DUP2 MSTORE PUSH1 0x20 ADD PUSH1 0x40 MLOAD DUP1 PUSH1 0x80 ADD PUSH1 0x40 MSTORE DUP1 PUSH32 0x2EC93189BD1AB4F69117D0FE980C80FF8785C2961829F701BB74AC1F303B17DB DUP2 MSTORE PUSH1 0x20 ADD PUSH0 DUP2 MSTORE PUSH1 0x20 ADD PUSH0 DUP2 MSTORE PUSH1 0x20 ADD PUSH0 DUP2 MSTORE POP DUP2 MSTORE PUSH1 0x20 ADD PUSH1 0x40 MLOAD DUP1 PUSH1 0x80 ADD PUSH1 0x40 MSTORE DUP1 PUSH32 0x2DB366BFDD36D277A692BB825B86275BEAC404A19AE07A9082EA46BD83517926 DUP2 MSTORE PUSH1 0x20 ADD PUSH0 DUP2 MSTORE PUSH1 0x20 ADD PUSH0 DUP2 MSTORE PUSH1 0x20 ADD PUSH0 DUP2 MSTORE POP DUP2 MSTORE PUSH1 0x20 ADD PUSH1 0x40 MLOAD DUP1 PUSH1 0x80 ADD PUSH1 0x40 MSTORE DUP1 PUSH32 0x62100EB485DB06269655CF186A68532985275428450359ADC99CEC6960711B8 DUP2 MSTORE PUSH1 0x20 ADD PUSH0 DUP2 MSTORE PUSH1 0x20 ADD PUSH0 DUP2 MSTORE PUSH1 0x20 ADD PUSH0 DUP2 MSTORE POP DUP2 MSTORE PUSH1 0x20 ADD PUSH1 0x40 MLOAD DUP1 PUSH1 0x80 ADD PUSH1 0x40 MSTORE DUP1 PUSH32 0x761D33C66614AAA570E7F1E8244CA1120243F92FA59E4F900C567BF41F5A59B DUP2 MSTORE PUSH1 0x20 ADD PUSH0 DUP2 MSTORE PUSH1 0x20 ADD PUSH0 DUP2 MSTORE PUSH1 0x20 ADD PUSH0 DUP2 MSTORE POP DUP2 MSTORE PUSH1 0x20 ADD PUSH1 0x40 MLOAD DUP1 PUSH1 0x80 ADD PUSH1 0x40 MSTORE DUP1 PUSH32 0x20FC411A114D13992C2705AA034E3F315D78608A0F7DE4CCF7A72E494855AD0D DUP2 MSTORE PUSH1 0x20 ADD PUSH0 DUP2 MSTORE PUSH1 0x20 ADD PUSH0 DUP2 MSTORE PUSH1 0x20 ADD PUSH0 DUP2 MSTORE POP DUP2 MSTORE PUSH1 0x20 ADD PUSH1 0x40 MLOAD DUP1 PUSH1 0x80 ADD PUSH1 0x40 MSTORE DUP1 PUSH32 0x25B5C004A4BDFCB5ADD9EC4E9AB219BA102C67E8B3EFFB5FC3A30F317250BC5A DUP2 MSTORE PUSH1 0x20 ADD PUSH0 DUP2 MSTORE PUSH1 0x20 ADD PUSH0 DUP2 MSTORE PUSH1 0x20 ADD PUSH0 DUP2 MSTORE POP DUP2 MSTORE PUSH1 0x20 ADD PUSH1 0x40 MLOAD DUP1 PUSH1 0x80 ADD PUSH1 0x40 MSTORE DUP1 PUSH32 0x23B1822D278ED632A494E58F6DF6F5ED038B186D8474155AD87E7DFF62B37F4B DUP2 MSTORE PUSH1 0x20 ADD PUSH0 DUP2 MSTORE PUSH1 0x20 ADD PUSH0 DUP2 MSTORE PUSH1 0x20 ADD PUSH0 DUP2 MSTORE POP DUP2 MSTORE PUSH1 0x20 ADD PUSH1 0x40 MLOAD DUP1 PUSH1 0x80 ADD PUSH1 0x40 MSTORE DUP1 PUSH32 0x22734B4C5C3F9493606C4BA9012499BF0F14D13BFCFCCCAA16102A29CC2F69E0 DUP2 MSTORE PUSH1 0x20 ADD PUSH0 DUP2 MSTORE PUSH1 0x20 ADD PUSH0 DUP2 MSTORE PUSH1 0x20 ADD PUSH0 DUP2 MSTORE POP DUP2 MSTORE PUSH1 0x20 ADD PUSH1 0x40 MLOAD DUP1 PUSH1 0x80 ADD PUSH1 0x40 MSTORE DUP1 PUSH32 0x26C0C8FE09EB30B7E27A74DC33492347E5BDFF409AA3610254413D3FAD795CE5 DUP2 MSTORE PUSH1 0x20 ADD PUSH0 DUP2 MSTORE PUSH1 0x20 ADD PUSH0 DUP2 MSTORE PUSH1 0x20 ADD PUSH0 DUP2 MSTORE POP DUP2 MSTORE PUSH1 0x20 ADD PUSH1 0x40 MLOAD DUP1 PUSH1 0x80 ADD PUSH1 0x40 MSTORE DUP1 PUSH32 0x70DD0CCB6BD7BBAE88EAC03FA1FBB26196BE3083A809829BBD626DF348CCAD9 DUP2 MSTORE PUSH1 0x20 ADD PUSH0 DUP2 MSTORE PUSH1 0x20 ADD PUSH0 DUP2 MSTORE PUSH1 0x20 ADD PUSH0 DUP2 MSTORE POP DUP2 MSTORE PUSH1 0x20 ADD PUSH1 0x40 MLOAD DUP1 PUSH1 0x80 ADD PUSH1 0x40 MSTORE DUP1 PUSH32 0x12B6595BDB329B6FB043BA78BB28C3BEC2C0A6DE46D8C5AD6067C4EBFD4250DA DUP2 MSTORE PUSH1 0x20 ADD PUSH0 DUP2 MSTORE PUSH1 0x20 ADD PUSH0 DUP2 MSTORE PUSH1 0x20 ADD PUSH0 DUP2 MSTORE POP DUP2 MSTORE PUSH1 0x20 ADD PUSH1 0x40 MLOAD DUP1 PUSH1 0x80 ADD PUSH1 0x40 MSTORE DUP1 PUSH32 0x248D97D7F76283D63BEC30E7A5876C11C06FCA9B275C671C5E33D95BB7E8D729 DUP2 MSTORE PUSH1 0x20 ADD PUSH0 DUP2 MSTORE PUSH1 0x20 ADD PUSH0 DUP2 MSTORE PUSH1 0x20 ADD PUSH0 DUP2 MSTORE POP DUP2 MSTORE PUSH1 0x20 ADD PUSH1 0x40 MLOAD DUP1 PUSH1 0x80 ADD PUSH1 0x40 MSTORE DUP1 PUSH32 0x1A306D439D463B0816FC6FD64CC939318B45EB759DDDE4AA106D15D9BD9BAAAA DUP2 MSTORE PUSH1 0x20 ADD PUSH0 DUP2 MSTORE PUSH1 0x20 ADD PUSH0 DUP2 MSTORE PUSH1 0x20 ADD PUSH0 DUP2 MSTORE POP DUP2 MSTORE PUSH1 0x20 ADD PUSH1 0x40 MLOAD DUP1 PUSH1 0x80 ADD PUSH1 0x40 MSTORE DUP1 PUSH32 0x28A8F8372E3C38DACED7C00421CB4621F4F1B54DDC27821B0D62D3D6EC7C56CF DUP2 MSTORE PUSH1 0x20 ADD PUSH0 DUP2 MSTORE PUSH1 0x20 ADD PUSH0 DUP2 MSTORE PUSH1 0x20 ADD PUSH0 DUP2 MSTORE POP DUP2 MSTORE PUSH1 0x20 ADD PUSH1 0x40 MLOAD DUP1 PUSH1 0x80 ADD PUSH1 0x40 MSTORE DUP1 PUSH31 0x94975717F9A8A8BB35152F24D43294071CE320C829F388BC852183E1E2CE7E DUP2 MSTORE PUSH1 0x20 ADD PUSH0 DUP2 MSTORE PUSH1 0x20 ADD PUSH0 DUP2 MSTORE PUSH1 0x20 ADD PUSH0 DUP2 MSTORE POP DUP2 MSTORE PUSH1 0x20 ADD PUSH1 0x40 MLOAD DUP1 PUSH1 0x80 ADD PUSH1 0x40 MSTORE DUP1 PUSH32 0x4D5EE4C3AA78F7D80FDE60D716480D3593F74D4F653AE83F4103246DB2E8D65 DUP2 MSTORE PUSH1 0x20 ADD PUSH0 DUP2 MSTORE PUSH1 0x20 ADD PUSH0 DUP2 MSTORE PUSH1 0x20 ADD PUSH0 DUP2 MSTORE POP DUP2 MSTORE PUSH1 0x20 ADD PUSH1 0x40 MLOAD DUP1 PUSH1 0x80 ADD PUSH1 0x40 MSTORE DUP1 PUSH32 0x2A6CF5E9AA03D4336349AD6FB8ED2269C7BEF54B8822CC76D08495C12EFDE187 DUP2 MSTORE PUSH1 0x20 ADD PUSH0 DUP2 MSTORE PUSH1 0x20 ADD PUSH0 DUP2 MSTORE PUSH1 0x20 ADD PUSH0 DUP2 MSTORE POP DUP2 MSTORE PUSH1 0x20 ADD PUSH1 0x40 MLOAD DUP1 PUSH1 0x80 ADD PUSH1 0x40 MSTORE DUP1 PUSH32 0x2304D31EAAB960BA9274DA43E19DDEB7F792180808FD6E43BAAE48D7EFCBA3F3 DUP2 MSTORE PUSH1 0x20 ADD PUSH0 DUP2 MSTORE PUSH1 0x20 ADD PUSH0 DUP2 MSTORE PUSH1 0x20 ADD PUSH0 DUP2 MSTORE POP DUP2 MSTORE PUSH1 0x20 ADD PUSH1 0x40 MLOAD DUP1 PUSH1 0x80 ADD PUSH1 0x40 MSTORE DUP1 PUSH32 0x3FD9AC865A4B2A6D5E7009785817249BFF08A7E0726FCB4E1C11D39D199F0B0 DUP2 MSTORE PUSH1 0x20 ADD PUSH0 DUP2 MSTORE PUSH1 0x20 ADD PUSH0 DUP2 MSTORE PUSH1 0x20 ADD PUSH0 DUP2 MSTORE POP DUP2 MSTORE PUSH1 0x20 ADD PUSH1 0x40 MLOAD DUP1 PUSH1 0x80 ADD PUSH1 0x40 MSTORE DUP1 PUSH31 0xB7258DED52BBDA2248404D55EE5044798AFC3A209193073F7954D4D63B0B64 DUP2 MSTORE PUSH1 0x20 ADD PUSH0 DUP2 MSTORE PUSH1 0x20 ADD PUSH0 DUP2 MSTORE PUSH1 0x20 ADD PUSH0 DUP2 MSTORE POP DUP2 MSTORE PUSH1 0x20 ADD PUSH1 0x40 MLOAD DUP1 PUSH1 0x80 ADD PUSH1 0x40 MSTORE DUP1 PUSH32 0x159F81ADA0771799EC38FCA2D4BF65EBB13D3A74F3298DB36272C5CA65E92D9A DUP2 MSTORE PUSH1 0x20 ADD PUSH0 DUP2 MSTORE PUSH1 0x20 ADD PUSH0 DUP2 MSTORE PUSH1 0x20 ADD PUSH0 DUP2 MSTORE POP DUP2 MSTORE PUSH1 0x20 ADD PUSH1 0x40 MLOAD DUP1 PUSH1 0x80 ADD PUSH1 0x40 MSTORE DUP1 PUSH32 0x1EF90E67437FBC8550237A75BC28E3BB9000130EA25F0C5471E144CF4264431F DUP2 MSTORE PUSH1 0x20 ADD PUSH0 DUP2 MSTORE PUSH1 0x20 ADD PUSH0 DUP2 MSTORE PUSH1 0x20 ADD PUSH0 DUP2 MSTORE POP DUP2 MSTORE PUSH1 0x20 ADD PUSH1 0x40 MLOAD DUP1 PUSH1 0x80 ADD PUSH1 0x40 MSTORE DUP1 PUSH32 0x1E65F838515E5FF0196B49AA41A2D2568DF739BC176B08EC95A79ED82932E30D DUP2 MSTORE PUSH1 0x20 ADD PUSH0 DUP2 MSTORE PUSH1 0x20 ADD PUSH0 DUP2 MSTORE PUSH1 0x20 ADD PUSH0 DUP2 MSTORE POP DUP2 MSTORE PUSH1 0x20 ADD PUSH1 0x40 MLOAD DUP1 PUSH1 0x80 ADD PUSH1 0x40 MSTORE DUP1 PUSH32 0x2B1B045DEF3A166CEC6CE768D079BA74B18C844E570E1F826575C1068C94C33F DUP2 MSTORE PUSH1 0x20 ADD PUSH0 DUP2 MSTORE PUSH1 0x20 ADD PUSH0 DUP2 MSTORE PUSH1 0x20 ADD PUSH0 DUP2 MSTORE POP DUP2 MSTORE PUSH1 0x20 ADD PUSH1 0x40 MLOAD DUP1 PUSH1 0x80 ADD PUSH1 0x40 MSTORE DUP1 PUSH32 0x832E5753CEB0FF6402543B1109229C165DC2D73BEF715E3F1C6E07C168BB173 DUP2 MSTORE PUSH1 0x20 ADD PUSH0 DUP2 MSTORE PUSH1 0x20 ADD PUSH0 DUP2 MSTORE PUSH1 0x20 ADD PUSH0 DUP2 MSTORE POP DUP2 MSTORE PUSH1 0x20 ADD PUSH1 0x40 MLOAD DUP1 PUSH1 0x80 ADD PUSH1 0x40 MSTORE DUP1 PUSH32 0x2F614E9CEDFB3DC6B762AE0A37D41BAB1B841C2E8B6451BC5A8E3C390B6AD16 DUP2 MSTORE PUSH1 0x20 ADD PUSH0 DUP2 MSTORE PUSH1 0x20 ADD PUSH0 DUP2 MSTORE PUSH1 0x20 ADD PUSH0 DUP2 MSTORE POP DUP2 MSTORE PUSH1 0x20 ADD PUSH1 0x40 MLOAD DUP1 PUSH1 0x80 ADD PUSH1 0x40 MSTORE DUP1 PUSH32 0xE2427D38BD46A60DD640B8E362CAD967370EBB777BEDFF40F6A0BE27E7ED705 DUP2 MSTORE PUSH1 0x20 ADD PUSH0 DUP2 MSTORE PUSH1 0x20 ADD PUSH0 DUP2 MSTORE PUSH1 0x20 ADD PUSH0 DUP2 MSTORE POP DUP2 MSTORE PUSH1 0x20 ADD PUSH1 0x40 MLOAD DUP1 PUSH1 0x80 ADD PUSH1 0x40 MSTORE DUP1 PUSH32 0x493630B7C670B6DEB7C84D414E7CE79049F0EC098C3C7C50768BBE29214A53A DUP2 MSTORE PUSH1 0x20 ADD PUSH0 DUP2 MSTORE PUSH1 0x20 ADD PUSH0 DUP2 MSTORE PUSH1 0x20 ADD PUSH0 DUP2 MSTORE POP DUP2 MSTORE PUSH1 0x20 ADD PUSH1 0x40 MLOAD DUP1 PUSH1 0x80 ADD PUSH1 0x40 MSTORE DUP1 PUSH32 0x22EAD100E8E482674DECDAB17066C5A26BB1515355D5461A3DC06CC85327CEA9 DUP2 MSTORE PUSH1 0x20 ADD PUSH0 DUP2 MSTORE PUSH1 0x20 ADD PUSH0 DUP2 MSTORE PUSH1 0x20 ADD PUSH0 DUP2 MSTORE POP DUP2 MSTORE PUSH1 0x20 ADD PUSH1 0x40 MLOAD DUP1 PUSH1 0x80 ADD PUSH1 0x40 MSTORE DUP1 PUSH32 0x25B3E56E655B42CDAAE2626ED2554D48583F1AE35626D04DE5084E0B6D2A6F16 DUP2 MSTORE PUSH1 0x20 ADD PUSH0 DUP2 MSTORE PUSH1 0x20 ADD PUSH0 DUP2 MSTORE PUSH1 0x20 ADD PUSH0 DUP2 MSTORE POP DUP2 MSTORE PUSH1 0x20 ADD PUSH1 0x40 MLOAD DUP1 PUSH1 0x80 ADD PUSH1 0x40 MSTORE DUP1 PUSH32 0x1E32752ADA8836EF5837A6CDE8FF13DBB599C336349E4C584B4FDC0A0CF6F9D0 DUP2 MSTORE PUSH1 0x20 ADD PUSH0 DUP2 MSTORE PUSH1 0x20 ADD PUSH0 DUP2 MSTORE PUSH1 0x20 ADD PUSH0 DUP2 MSTORE POP DUP2 MSTORE PUSH1 0x20 ADD PUSH1 0x40 MLOAD DUP1 PUSH1 0x80 ADD PUSH1 0x40 MSTORE DUP1 PUSH32 0x2FA2A871C15A387CC50F68F6F3C3455B23C00995F05078F672A9864074D412E5 DUP2 MSTORE PUSH1 0x20 ADD PUSH0 DUP2 MSTORE PUSH1 0x20 ADD PUSH0 DUP2 MSTORE PUSH1 0x20 ADD PUSH0 DUP2 MSTORE POP DUP2 MSTORE PUSH1 0x20 ADD PUSH1 0x40 MLOAD DUP1 PUSH1 0x80 ADD PUSH1 0x40 MSTORE DUP1 PUSH32 0x2F569B8A9A4424C9278E1DB7311E889F54CCBF10661BAB7FCD18E7C7A7D83505 DUP2 MSTORE PUSH1 0x20 ADD PUSH0 DUP2 MSTORE PUSH1 0x20 ADD PUSH0 DUP2 MSTORE PUSH1 0x20 ADD PUSH0 DUP2 MSTORE POP DUP2 MSTORE PUSH1 0x20 ADD PUSH1 0x40 MLOAD DUP1 PUSH1 0x80 ADD PUSH1 0x40 MSTORE DUP1 PUSH32 0x44CB455110A8FDD531ADE530234C518A7DF93F7332FFD2144165374B246B43D DUP2 MSTORE PUSH1 0x20 ADD PUSH0 DUP2 MSTORE PUSH1 0x20 ADD PUSH0 DUP2 MSTORE PUSH1 0x20 ADD PUSH0 DUP2 MSTORE POP DUP2 MSTORE PUSH1 0x20 ADD PUSH1 0x40 MLOAD DUP1 PUSH1 0x80 ADD PUSH1 0x40 MSTORE DUP1 PUSH32 0x227808DE93906D5D420246157F2E42B191FE8C90ADFE118178DDC723A5319025 DUP2 MSTORE PUSH1 0x20 ADD PUSH0 DUP2 MSTORE PUSH1 0x20 ADD PUSH0 DUP2 MSTORE PUSH1 0x20 ADD PUSH0 DUP2 MSTORE POP DUP2 MSTORE PUSH1 0x20 ADD PUSH1 0x40 MLOAD DUP1 PUSH1 0x80 ADD PUSH1 0x40 MSTORE DUP1 PUSH32 0x2FCCA2934E046BC623ADEAD873579865D03781AE090AD4A8579D2E7A6800355 DUP2 MSTORE PUSH1 0x20 ADD PUSH0 DUP2 MSTORE PUSH1 0x20 ADD PUSH0 DUP2 MSTORE PUSH1 0x20 ADD PUSH0 DUP2 MSTORE POP DUP2 MSTORE PUSH1 0x20 ADD PUSH1 0x40 MLOAD DUP1 PUSH1 0x80 ADD PUSH1 0x40 MSTORE DUP1 PUSH32 0xEF915F0AC120B876ABCCCEB344A1D36BAD3F3C5AB91A8DDCBEC2E060D8BEFAC DUP2 MSTORE PUSH1 0x20 ADD PUSH0 DUP2 MSTORE PUSH1 0x20 ADD PUSH0 DUP2 MSTORE PUSH1 0x20 ADD PUSH0 DUP2 MSTORE POP DUP2 MSTORE PUSH1 0x20 ADD PUSH1 0x40 MLOAD DUP1 PUSH1 0x80 ADD PUSH1 0x40 MSTORE DUP1 PUSH32 0x1797130F4B7A3E1777EB757BC6F287F6AB0FB85F6BE63B09F3B16EF2B1405D38 DUP2 MSTORE PUSH1 0x20 ADD PUSH32 0xA76225DC04170AE3306C85ABAB59E608C7F497C20156D4D36C668555DECC6E5 DUP2 MSTORE PUSH1 0x20 ADD PUSH32 0x1FFFB9EC1992D66BA1E77A7B93209AF6F8FA76D48ACB664796174B5326A31A5C DUP2 MSTORE PUSH1 0x20 ADD PUSH32 0x25721C4FC15A3F2853B57C338FA538D85F8FBBA6C6B9C6090611889B797B9C5F DUP2 MSTORE POP DUP2 MSTORE PUSH1 0x20 ADD PUSH1 0x40 MLOAD DUP1 PUSH1 0x80 ADD PUSH1 0x40 MSTORE DUP1 PUSH32 0xC817FD42D5F7A41215E3D07BA197216ADB4C3790705DA95EB63B982BFCAF75A DUP2 MSTORE PUSH1 0x20 ADD PUSH32 0x13ABE3F5239915D39F7E13C2C24970B6DF8CF86CE00A22002BC15866E52B5A96 DUP2 MSTORE PUSH1 0x20 ADD PUSH32 0x2106FEEA546224EA12EF7F39987A46C85C1BC3DC29BDBD7A92CD60ACB4D391CE DUP2 MSTORE PUSH1 0x20 ADD PUSH32 0x21CA859468A746B6AAA79474A37DAB49F1CA5A28C748BC7157E1B3345BB0F959 DUP2 MSTORE POP DUP2 MSTORE PUSH1 0x20 ADD PUSH1 0x40 MLOAD DUP1 PUSH1 0x80 ADD PUSH1 0x40 MSTORE DUP1 PUSH32 0x5CCD6255C1E6F0C5CF1F0DF934194C62911D14D0321662A8F1A48999E34185B DUP2 MSTORE PUSH1 0x20 ADD PUSH32 0xF0E34A64B70A626E464D846674C4C8816C4FB267FE44FE6EA28678CB09490A4 DUP2 MSTORE PUSH1 0x20 ADD PUSH32 0x558531A4E25470C6157794CA36D0E9647DBFCFE350D64838F5B1A8A2DE0D4BF DUP2 MSTORE PUSH1 0x20 ADD PUSH32 0x9D3DCA9173ED2FACEEA125157683D18924CADAD3F655A60B72F5864961F1455 DUP2 MSTORE POP DUP2 MSTORE PUSH1 0x20 ADD PUSH1 0x40 MLOAD DUP1 PUSH1 0x80 ADD PUSH1 0x40 MSTORE DUP1 PUSH32 0x328CBD54E8C0913493F866ED03D218BF23F92D68AAEC48617D4C722E5BD4335 DUP2 MSTORE PUSH1 0x20 ADD PUSH32 0x2BF07216E2AFF0A223A487B1A7094E07E79E7BCC9798C648EE3347DD5329D34B DUP2 MSTORE PUSH1 0x20 ADD PUSH32 0x1DAF345A58006B736499C583CB76C316D6F78ED6A6DFFC82111E11A63FE412DF DUP2 MSTORE PUSH1 0x20 ADD PUSH32 0x176563472456AAA746B694C60E1823611EF39039B2EDC7FF391E6F2293D2C404 DUP2 MSTORE POP DUP2 MSTORE POP DUP2 MSTORE POP SWAP1 POP SWAP1 JUMP JUMPDEST SWAP1 JUMP JUMPDEST PUSH2 0x16CB PUSH2 0x1B18 JUMP JUMPDEST PUSH0 PUSH1 0x40 MLOAD DUP1 PUSH1 0x80 ADD PUSH1 0x40 MSTORE DUP1 PUSH0 DUP2 MSTORE PUSH1 0x20 ADD PUSH0 DUP2 MSTORE PUSH1 0x20 ADD PUSH0 DUP2 MSTORE PUSH1 0x20 ADD PUSH0 DUP2 MSTORE POP SWAP1 POP PUSH0 JUMPDEST PUSH1 0x4 DUP2 LT ISZERO PUSH2 0x1730 JUMPI DUP6 DUP2 PUSH1 0x4 DUP2 LT PUSH2 0x170C JUMPI PUSH2 0x170C PUSH2 0x1B8A JUMP JUMPDEST PUSH1 0x20 MUL ADD MLOAD DUP3 DUP3 PUSH1 0x4 DUP2 LT PUSH2 0x1723 JUMPI PUSH2 0x1723 PUSH2 0x1B8A JUMP JUMPDEST PUSH1 0x20 MUL ADD MSTORE PUSH1 0x1 ADD PUSH2 0x16F1 JUMP JUMPDEST POP PUSH2 0x173A DUP2 PUSH2 0x182C JUMP JUMPDEST PUSH0 PUSH2 0x1747 PUSH1 0x2 PUSH1 0x8 PUSH2 0x1BDD JUMP JUMPDEST SWAP1 POP PUSH0 JUMPDEST DUP2 DUP2 LT ISZERO PUSH2 0x1778 JUMPI PUSH2 0x175E DUP4 DUP7 DUP4 PUSH2 0x191D JUMP JUMPDEST PUSH2 0x1767 DUP4 PUSH2 0x198F JUMP JUMPDEST PUSH2 0x1770 DUP4 PUSH2 0x182C JUMP JUMPDEST PUSH1 0x1 ADD PUSH2 0x174B JUMP JUMPDEST POP PUSH0 PUSH2 0x1785 PUSH1 0x38 DUP4 PUSH2 0x1BFC JUMP JUMPDEST SWAP1 POP DUP2 JUMPDEST DUP2 DUP2 LT ISZERO PUSH2 0x17E0 JUMPI PUSH2 0x17BA DUP7 DUP3 PUSH1 0x40 DUP2 LT PUSH2 0x17A6 JUMPI PUSH2 0x17A6 PUSH2 0x1B8A JUMP JUMPDEST PUSH1 0x20 MUL ADD MLOAD MLOAD DUP6 PUSH0 JUMPDEST PUSH1 0x20 MUL ADD MLOAD SWAP1 PUSH2 0x19D2 JUMP JUMPDEST DUP5 MSTORE PUSH2 0x17CC DUP5 PUSH0 JUMPDEST PUSH1 0x20 MUL ADD MLOAD PUSH2 0x19EB JUMP JUMPDEST DUP5 MSTORE PUSH2 0x17D8 DUP5 DUP9 PUSH2 0x1A14 JUMP JUMPDEST PUSH1 0x1 ADD PUSH2 0x1789 JUMP JUMPDEST POP PUSH0 PUSH2 0x17EE PUSH1 0x38 PUSH1 0x8 PUSH2 0x1BFC JUMP JUMPDEST SWAP1 POP DUP2 JUMPDEST DUP2 DUP2 LT ISZERO PUSH2 0x181F JUMPI PUSH2 0x1805 DUP6 DUP9 DUP4 PUSH2 0x191D JUMP JUMPDEST PUSH2 0x180E DUP6 PUSH2 0x198F JUMP JUMPDEST PUSH2 0x1817 DUP6 PUSH2 0x182C JUMP JUMPDEST PUSH1 0x1 ADD PUSH2 0x17F2 JUMP JUMPDEST POP SWAP3 SWAP8 SWAP7 POP POP POP POP POP POP POP JUMP JUMPDEST PUSH0 PUSH2 0x183F DUP3 PUSH1 0x1 PUSH1 0x20 MUL ADD MLOAD DUP4 PUSH0 PUSH2 0x17AF JUMP JUMPDEST SWAP1 POP PUSH0 PUSH2 0x1855 DUP4 PUSH1 0x3 PUSH1 0x20 MUL ADD MLOAD DUP5 PUSH1 0x2 PUSH2 0x17AF JUMP JUMPDEST SWAP1 POP PUSH0 PUSH2 0x186B DUP5 PUSH1 0x1 PUSH1 0x20 MUL ADD MLOAD DUP6 PUSH1 0x1 PUSH2 0x17AF JUMP JUMPDEST SWAP1 POP PUSH2 0x1877 DUP2 DUP4 PUSH2 0x19D2 JUMP JUMPDEST SWAP1 POP PUSH0 PUSH2 0x188D DUP6 PUSH1 0x3 PUSH1 0x20 MUL ADD MLOAD DUP7 PUSH1 0x3 PUSH2 0x17AF JUMP JUMPDEST SWAP1 POP PUSH2 0x1899 DUP2 DUP6 PUSH2 0x19D2 JUMP JUMPDEST SWAP1 POP PUSH0 PUSH2 0x18A6 DUP5 DUP1 PUSH2 0x19D2 JUMP JUMPDEST SWAP1 POP PUSH2 0x18B2 DUP2 DUP1 PUSH2 0x19D2 JUMP JUMPDEST SWAP1 POP PUSH2 0x18BE DUP2 DUP4 PUSH2 0x19D2 JUMP JUMPDEST SWAP1 POP PUSH0 PUSH2 0x18CB DUP7 DUP1 PUSH2 0x19D2 JUMP JUMPDEST SWAP1 POP PUSH2 0x18D7 DUP2 DUP1 PUSH2 0x19D2 JUMP JUMPDEST SWAP1 POP PUSH2 0x18E3 DUP2 DUP6 PUSH2 0x19D2 JUMP JUMPDEST SWAP1 POP PUSH0 PUSH2 0x18F0 DUP5 DUP4 PUSH2 0x19D2 JUMP JUMPDEST SWAP1 POP PUSH0 PUSH2 0x18FD DUP7 DUP6 PUSH2 0x19D2 JUMP JUMPDEST SWAP2 DUP10 MSTORE POP PUSH1 0x20 DUP9 ADD SWAP2 SWAP1 SWAP2 MSTORE PUSH1 0x40 DUP8 ADD MSTORE PUSH1 0x60 SWAP1 SWAP6 ADD SWAP5 SWAP1 SWAP5 MSTORE POP POP POP POP JUMP JUMPDEST PUSH0 JUMPDEST PUSH1 0x4 DUP2 LT ISZERO PUSH2 0x1989 JUMPI PUSH2 0x196A DUP4 DUP4 PUSH1 0x40 DUP2 LT PUSH2 0x193D JUMPI PUSH2 0x193D PUSH2 0x1B8A JUMP JUMPDEST PUSH1 0x20 MUL ADD MLOAD DUP3 PUSH1 0x4 DUP2 LT PUSH2 0x1953 JUMPI PUSH2 0x1953 PUSH2 0x1B8A JUMP JUMPDEST PUSH1 0x20 MUL ADD MLOAD DUP6 DUP4 PUSH1 0x4 DUP2 LT PUSH2 0x17AF JUMPI PUSH2 0x17AF PUSH2 0x1B8A JUMP JUMPDEST DUP5 DUP3 PUSH1 0x4 DUP2 LT PUSH2 0x197C JUMPI PUSH2 0x197C PUSH2 0x1B8A JUMP JUMPDEST PUSH1 0x20 MUL ADD MSTORE PUSH1 0x1 ADD PUSH2 0x191F JUMP JUMPDEST POP POP POP POP JUMP JUMPDEST PUSH0 JUMPDEST PUSH1 0x4 DUP2 LT ISZERO PUSH2 0x19CE JUMPI PUSH2 0x19AF DUP3 DUP3 PUSH1 0x4 DUP2 LT PUSH2 0x17C2 JUMPI PUSH2 0x17C2 PUSH2 0x1B8A JUMP JUMPDEST DUP3 DUP3 PUSH1 0x4 DUP2 LT PUSH2 0x19C1 JUMPI PUSH2 0x19C1 PUSH2 0x1B8A JUMP JUMPDEST PUSH1 0x20 MUL ADD MSTORE PUSH1 0x1 ADD PUSH2 0x1991 JUMP JUMPDEST POP POP JUMP JUMPDEST PUSH0 PUSH0 MLOAD PUSH1 0x20 PUSH2 0x43F4 PUSH0 CODECOPY PUSH0 MLOAD SWAP1 PUSH0 MSTORE DUP3 DUP5 ADDMOD SWAP4 SWAP3 POP POP POP JUMP JUMPDEST PUSH0 DUP1 PUSH2 0x19F7 DUP4 DUP1 PUSH2 0x1ADA JUMP JUMPDEST SWAP1 POP PUSH2 0x1A0D DUP4 PUSH2 0x1A07 DUP4 DUP1 PUSH2 0x1ADA JUMP JUMPDEST SWAP1 PUSH2 0x1ADA JUMP JUMPDEST SWAP4 SWAP3 POP POP POP JUMP JUMPDEST PUSH0 DUP1 JUMPDEST PUSH1 0x4 DUP2 LT ISZERO PUSH2 0x1A4B JUMPI PUSH2 0x1A41 DUP5 DUP3 PUSH1 0x4 DUP2 LT PUSH2 0x1A35 JUMPI PUSH2 0x1A35 PUSH2 0x1B8A JUMP JUMPDEST PUSH1 0x20 MUL ADD MLOAD DUP4 SWAP1 PUSH2 0x19D2 JUMP JUMPDEST SWAP2 POP PUSH1 0x1 ADD PUSH2 0x1A17 JUMP JUMPDEST POP PUSH0 JUMPDEST PUSH1 0x4 DUP2 LT ISZERO PUSH2 0x1989 JUMPI PUSH2 0x1A8E DUP4 DUP3 PUSH1 0x4 DUP2 LT PUSH2 0x1A6C JUMPI PUSH2 0x1A6C PUSH2 0x1B8A JUMP JUMPDEST PUSH1 0x20 MUL ADD MLOAD DUP6 DUP4 PUSH1 0x4 DUP2 LT PUSH2 0x1A83 JUMPI PUSH2 0x1A83 PUSH2 0x1B8A JUMP JUMPDEST PUSH1 0x20 MUL ADD MLOAD SWAP1 PUSH2 0x1ADA JUMP JUMPDEST DUP5 DUP3 PUSH1 0x4 DUP2 LT PUSH2 0x1AA0 JUMPI PUSH2 0x1AA0 PUSH2 0x1B8A JUMP JUMPDEST PUSH1 0x20 MUL ADD MSTORE PUSH2 0x1ABB DUP3 DUP6 DUP4 PUSH1 0x4 DUP2 LT PUSH2 0x17AF JUMPI PUSH2 0x17AF PUSH2 0x1B8A JUMP JUMPDEST DUP5 DUP3 PUSH1 0x4 DUP2 LT PUSH2 0x1ACD JUMPI PUSH2 0x1ACD PUSH2 0x1B8A JUMP JUMPDEST PUSH1 0x20 MUL ADD MSTORE PUSH1 0x1 ADD PUSH2 0x1A4E JUMP JUMPDEST PUSH0 PUSH0 MLOAD PUSH1 0x20 PUSH2 0x43F4 PUSH0 CODECOPY PUSH0 MLOAD SWAP1 PUSH0 MSTORE DUP3 DUP5 MULMOD SWAP4 SWAP3 POP POP POP JUMP JUMPDEST PUSH1 0x40 MLOAD DUP1 PUSH1 0x40 ADD PUSH1 0x40 MSTORE DUP1 PUSH2 0x1B06 PUSH2 0x1B18 JUMP JUMPDEST DUP2 MSTORE PUSH1 0x20 ADD PUSH2 0x1B13 PUSH2 0x1B36 JUMP JUMPDEST SWAP1 MSTORE SWAP1 JUMP JUMPDEST PUSH1 0x40 MLOAD DUP1 PUSH1 0x80 ADD PUSH1 0x40 MSTORE DUP1 PUSH1 0x4 SWAP1 PUSH1 0x20 DUP3 MUL DUP1 CALLDATASIZE DUP4 CALLDATACOPY POP SWAP2 SWAP3 SWAP2 POP POP JUMP JUMPDEST PUSH1 0x40 MLOAD DUP1 PUSH2 0x800 ADD PUSH1 0x40 MSTORE DUP1 PUSH1 0x40 SWAP1 JUMPDEST PUSH2 0x1B4E PUSH2 0x1B18 JUMP JUMPDEST DUP2 MSTORE PUSH1 0x20 ADD SWAP1 PUSH1 0x1 SWAP1 SUB SWAP1 DUP2 PUSH2 0x1B46 JUMPI SWAP1 POP POP SWAP1 JUMP JUMPDEST PUSH0 PUSH1 0x20 DUP3 DUP5 SUB SLT ISZERO PUSH2 0x1B74 JUMPI PUSH0 PUSH0 REVERT JUMPDEST DUP2 MLOAD PUSH1 0x1 PUSH1 0x1 PUSH1 0xA0 SHL SUB DUP2 AND DUP2 EQ PUSH2 0x1A0D JUMPI PUSH0 PUSH0 REVERT JUMPDEST PUSH4 0x4E487B71 PUSH1 0xE0 SHL PUSH0 MSTORE PUSH1 0x32 PUSH1 0x4 MSTORE PUSH1 0x24 PUSH0 REVERT JUMPDEST PUSH4 0x4E487B71 PUSH1 0xE0 SHL PUSH0 MSTORE PUSH1 0x11 PUSH1 0x4 MSTORE PUSH1 0x24 PUSH0 REVERT JUMPDEST DUP2 DUP2 SUB DUP2 DUP2 GT ISZERO PUSH2 0x112 JUMPI PUSH2 0x112 PUSH2 0x1B9E JUMP JUMPDEST PUSH0 PUSH1 0x1 DUP3 ADD PUSH2 0x1BD6 JUMPI PUSH2 0x1BD6 PUSH2 0x1B9E JUMP JUMPDEST POP PUSH1 0x1 ADD SWAP1 JUMP JUMPDEST PUSH0 DUP3 PUSH2 0x1BF7 JUMPI PUSH4 0x4E487B71 PUSH1 0xE0 SHL PUSH0 MSTORE PUSH1 0x12 PUSH1 0x4 MSTORE PUSH1 0x24 PUSH0 REVERT JUMPDEST POP DIV SWAP1 JUMP JUMPDEST DUP1 DUP3 ADD DUP1 DUP3 GT ISZERO PUSH2 0x112 JUMPI PUSH2 0x112 PUSH2 0x1B9E JUMP JUMPDEST PUSH1 0x80 MLOAD PUSH2 0x27BF PUSH2 0x1C35 PUSH0 CODECOPY PUSH0 DUP2 DUP2 PUSH2 0x187 ADD MSTORE DUP2 DUP2 PUSH2 0x486 ADD MSTORE PUSH2 0x731 ADD MSTORE PUSH2 0x27BF PUSH0 RETURN INVALID PUSH1 0x80 PUSH1 0x40 MSTORE PUSH1 0x4 CALLDATASIZE LT PUSH2 0xDC JUMPI PUSH0 CALLDATALOAD PUSH1 0xE0 SHR DUP1 PUSH4 0x5688881F GT PUSH2 0x7C JUMPI DUP1 PUSH4 0xD5A4E325 GT PUSH2 0x57 JUMPI DUP1 PUSH4 0xD5A4E325 EQ PUSH2 0x246 JUMPI DUP1 PUSH4 0xEBF0C717 EQ PUSH2 0x274 JUMPI DUP1 PUSH4 0xF1650536 EQ PUSH2 0x289 JUMPI DUP1 PUSH4 0xF178E47C EQ PUSH2 0x29D JUMPI PUSH0 PUSH0 REVERT JUMPDEST DUP1 PUSH4 0x5688881F EQ PUSH2 0x1F4 JUMPI DUP1 PUSH4 0x7AC54767 EQ PUSH2 0x208 JUMPI DUP1 PUSH4 0xB435890B EQ PUSH2 0x227 JUMPI PUSH0 PUSH0 REVERT JUMPDEST DUP1 PUSH4 0x2997E86B GT PUSH2 0xB7 JUMPI DUP1 PUSH4 0x2997E86B EQ PUSH2 0x138 JUMPI DUP1 PUSH4 0x2B7AC3F3 EQ PUSH2 0x176 JUMPI DUP1 PUSH4 0x41EED011 EQ PUSH2 0x1C1 JUMPI DUP1 PUSH4 0x49590657 EQ PUSH2 0x1E0 JUMPI PUSH0 PUSH0 REVERT JUMPDEST DUP1 PUSH4 0x82FEBF0 EQ PUSH2 0xE7 JUMPI DUP1 PUSH4 0xBE4F422 EQ PUSH2 0x10E JUMPI DUP1 PUSH4 0x26123548 EQ PUSH2 0x123 JUMPI PUSH0 PUSH0 REVERT JUMPDEST CALLDATASIZE PUSH2 0xE3 JUMPI STOP JUMPDEST PUSH0 PUSH0 REVERT JUMPDEST CALLVALUE DUP1 ISZERO PUSH2 0xF2 JUMPI PUSH0 PUSH0 REVERT JUMPDEST POP PUSH2 0xFB PUSH2 0x2BC JUMP JUMPDEST PUSH1 0x40 MLOAD SWAP1 DUP2 MSTORE PUSH1 0x20 ADD JUMPDEST PUSH1 0x40 MLOAD DUP1 SWAP2 SUB SWAP1 RETURN JUMPDEST CALLVALUE DUP1 ISZERO PUSH2 0x119 JUMPI PUSH0 PUSH0 REVERT JUMPDEST POP PUSH2 0xFB PUSH1 0x2A SLOAD DUP2 JUMP JUMPDEST PUSH2 0x136 PUSH2 0x131 CALLDATASIZE PUSH1 0x4 PUSH2 0x245E JUMP JUMPDEST PUSH2 0x2CB JUMP JUMPDEST STOP JUMPDEST CALLVALUE DUP1 ISZERO PUSH2 0x143 JUMPI PUSH0 PUSH0 REVERT JUMPDEST POP PUSH2 0x166 PUSH2 0x152 CALLDATASIZE PUSH1 0x4 PUSH2 0x245E JUMP JUMPDEST PUSH1 0x2C PUSH1 0x20 MSTORE PUSH0 SWAP1 DUP2 MSTORE PUSH1 0x40 SWAP1 KECCAK256 SLOAD PUSH1 0xFF AND DUP2 JUMP JUMPDEST PUSH1 0x40 MLOAD SWAP1 ISZERO ISZERO DUP2 MSTORE PUSH1 0x20 ADD PUSH2 0x105 JUMP JUMPDEST CALLVALUE DUP1 ISZERO PUSH2 0x181 JUMPI PUSH0 PUSH0 REVERT JUMPDEST POP PUSH2 0x1A9 PUSH32 0x0 DUP2 JUMP JUMPDEST PUSH1 0x40 MLOAD PUSH1 0x1 PUSH1 0x1 PUSH1 0xA0 SHL SUB SWAP1 SWAP2 AND DUP2 MSTORE PUSH1 0x20 ADD PUSH2 0x105 JUMP JUMPDEST CALLVALUE DUP1 ISZERO PUSH2 0x1CC JUMPI PUSH0 PUSH0 REVERT JUMPDEST POP PUSH2 0x136 PUSH2 0x1DB CALLDATASIZE PUSH1 0x4 PUSH2 0x24BA JUMP JUMPDEST PUSH2 0x39A JUMP JUMPDEST CALLVALUE DUP1 ISZERO PUSH2 0x1EB JUMPI PUSH0 PUSH0 REVERT JUMPDEST POP PUSH1 0x2B SLOAD PUSH2 0xFB JUMP JUMPDEST CALLVALUE DUP1 ISZERO PUSH2 0x1FF JUMPI PUSH0 PUSH0 REVERT JUMPDEST POP PUSH1 0x2A SLOAD PUSH2 0xFB JUMP JUMPDEST CALLVALUE DUP1 ISZERO PUSH2 0x213 JUMPI PUSH0 PUSH0 REVERT JUMPDEST POP PUSH2 0xFB PUSH2 0x222 CALLDATASIZE PUSH1 0x4 PUSH2 0x245E JUMP JUMPDEST PUSH2 0x591 JUMP JUMPDEST CALLVALUE DUP1 ISZERO PUSH2 0x232 JUMPI PUSH0 PUSH0 REVERT JUMPDEST POP PUSH2 0x136 PUSH2 0x241 CALLDATASIZE PUSH1 0x4 PUSH2 0x2516 JUMP JUMPDEST PUSH2 0x5A6 JUMP JUMPDEST CALLVALUE DUP1 ISZERO PUSH2 0x251 JUMPI PUSH0 PUSH0 REVERT JUMPDEST POP PUSH2 0x166 PUSH2 0x260 CALLDATASIZE PUSH1 0x4 PUSH2 0x245E JUMP JUMPDEST PUSH0 SWAP1 DUP2 MSTORE PUSH1 0x2C PUSH1 0x20 MSTORE PUSH1 0x40 SWAP1 KECCAK256 SLOAD PUSH1 0xFF AND SWAP1 JUMP JUMPDEST CALLVALUE DUP1 ISZERO PUSH2 0x27F JUMPI PUSH0 PUSH0 REVERT JUMPDEST POP PUSH2 0xFB PUSH1 0x2B SLOAD DUP2 JUMP JUMPDEST CALLVALUE DUP1 ISZERO PUSH2 0x294 JUMPI PUSH0 PUSH0 REVERT JUMPDEST POP PUSH2 0xFB PUSH1 0x14 DUP2 JUMP JUMPDEST CALLVALUE DUP1 ISZERO PUSH2 0x2A8 JUMPI PUSH0 PUSH0 REVERT JUMPDEST POP PUSH2 0xFB PUSH2 0x2B7 CALLDATASIZE PUSH1 0x4 PUSH2 0x245E JUMP JUMPDEST PUSH2 0x8D9 JUMP JUMPDEST PUSH2 0x2C8 PUSH1 0x14 PUSH1 0x2 PUSH2 0x2686 JUMP JUMPDEST DUP2 JUMP JUMPDEST PUSH0 CALLVALUE GT PUSH2 0x314 JUMPI PUSH1 0x40 MLOAD PUSH3 0x461BCD PUSH1 0xE5 SHL DUP2 MSTORE PUSH1 0x20 PUSH1 0x4 DUP3 ADD MSTORE PUSH1 0x12 PUSH1 0x24 DUP3 ADD MSTORE PUSH18 0x4D757374206465706F7369742076616C7565 PUSH1 0x70 SHL PUSH1 0x44 DUP3 ADD MSTORE PUSH1 0x64 ADD JUMPDEST PUSH1 0x40 MLOAD DUP1 SWAP2 SUB SWAP1 REVERT JUMPDEST DUP1 PUSH2 0x356 JUMPI PUSH1 0x40 MLOAD PUSH3 0x461BCD PUSH1 0xE5 SHL DUP2 MSTORE PUSH1 0x20 PUSH1 0x4 DUP3 ADD MSTORE PUSH1 0x12 PUSH1 0x24 DUP3 ADD MSTORE PUSH18 0x125B9D985B1A590818DBDB5B5A5D1B595B9D PUSH1 0x72 SHL PUSH1 0x44 DUP3 ADD MSTORE PUSH1 0x64 ADD PUSH2 0x30B JUMP JUMPDEST PUSH2 0x35F DUP2 PUSH2 0x8E8 JUMP JUMPDEST POP PUSH1 0x40 MLOAD CALLVALUE DUP2 MSTORE DUP2 SWAP1 CALLER SWAP1 PUSH32 0x2EA2F16CF99095512AB31FB564C28506D8B72758CC9A4175583F8D024A16C152 SWAP1 PUSH1 0x20 ADD PUSH1 0x40 MLOAD DUP1 SWAP2 SUB SWAP1 LOG3 POP JUMP JUMPDEST PUSH0 DUP6 DUP2 MSTORE PUSH1 0x2C PUSH1 0x20 MSTORE PUSH1 0x40 SWAP1 KECCAK256 SLOAD PUSH1 0xFF AND ISZERO PUSH2 0x3ED JUMPI PUSH1 0x40 MLOAD PUSH3 0x461BCD PUSH1 0xE5 SHL DUP2 MSTORE PUSH1 0x20 PUSH1 0x4 DUP3 ADD MSTORE PUSH1 0x12 PUSH1 0x24 DUP3 ADD MSTORE PUSH18 0x139BDD1948185B1C9958591E481CDC195B9D PUSH1 0x72 SHL PUSH1 0x44 DUP3 ADD MSTORE PUSH1 0x64 ADD PUSH2 0x30B JUMP JUMPDEST PUSH1 0x40 DUP1 MLOAD PUSH1 0x3 DUP1 DUP3 MSTORE PUSH1 0x80 DUP3 ADD SWAP1 SWAP3 MSTORE PUSH0 SWAP2 PUSH1 0x20 DUP3 ADD PUSH1 0x60 DUP1 CALLDATASIZE DUP4 CALLDATACOPY ADD SWAP1 POP POP SWAP1 POP DUP6 DUP2 PUSH0 DUP2 MLOAD DUP2 LT PUSH2 0x422 JUMPI PUSH2 0x422 PUSH2 0x2691 JUMP JUMPDEST PUSH1 0x20 MUL PUSH1 0x20 ADD ADD DUP2 DUP2 MSTORE POP POP DUP5 DUP2 PUSH1 0x1 DUP2 MLOAD DUP2 LT PUSH2 0x442 JUMPI PUSH2 0x442 PUSH2 0x2691 JUMP JUMPDEST PUSH1 0x20 MUL PUSH1 0x20 ADD ADD DUP2 DUP2 MSTORE POP POP PUSH1 0x2B SLOAD DUP2 PUSH1 0x2 DUP2 MLOAD DUP2 LT PUSH2 0x464 JUMPI PUSH2 0x464 PUSH2 0x2691 JUMP JUMPDEST PUSH1 0x20 SWAP1 DUP2 MUL SWAP2 SWAP1 SWAP2 ADD ADD MSTORE PUSH1 0x40 MLOAD PUSH4 0x3A943439 PUSH1 0xE2 SHL DUP2 MSTORE PUSH1 0x1 PUSH1 0x1 PUSH1 0xA0 SHL SUB PUSH32 0x0 AND SWAP1 PUSH4 0xEA50D0E4 SWAP1 PUSH2 0x4BF SWAP1 DUP7 SWAP1 DUP7 SWAP1 DUP7 SWAP1 PUSH1 0x4 ADD PUSH2 0x26A5 JUMP JUMPDEST PUSH1 0x20 PUSH1 0x40 MLOAD DUP1 DUP4 SUB DUP2 PUSH0 DUP8 GAS CALL ISZERO DUP1 ISZERO PUSH2 0x4DB JUMPI RETURNDATASIZE PUSH0 PUSH0 RETURNDATACOPY RETURNDATASIZE PUSH0 REVERT JUMPDEST POP POP POP POP PUSH1 0x40 MLOAD RETURNDATASIZE PUSH1 0x1F NOT PUSH1 0x1F DUP3 ADD AND DUP3 ADD DUP1 PUSH1 0x40 MSTORE POP DUP2 ADD SWAP1 PUSH2 0x4FF SWAP2 SWAP1 PUSH2 0x271D JUMP JUMPDEST PUSH2 0x53B JUMPI PUSH1 0x40 MLOAD PUSH3 0x461BCD PUSH1 0xE5 SHL DUP2 MSTORE PUSH1 0x20 PUSH1 0x4 DUP3 ADD MSTORE PUSH1 0xD PUSH1 0x24 DUP3 ADD MSTORE PUSH13 0x24B73B30B634B210383937B7B3 PUSH1 0x99 SHL PUSH1 0x44 DUP3 ADD MSTORE PUSH1 0x64 ADD PUSH2 0x30B JUMP JUMPDEST PUSH0 DUP7 DUP2 MSTORE PUSH1 0x2C PUSH1 0x20 MSTORE PUSH1 0x40 SWAP1 KECCAK256 DUP1 SLOAD PUSH1 0xFF NOT AND PUSH1 0x1 OR SWAP1 SSTORE PUSH2 0x55C DUP5 PUSH2 0x8E8 JUMP JUMPDEST POP PUSH1 0x40 MLOAD DUP5 SWAP1 DUP8 SWAP1 PUSH32 0xD2BE5E1AF978A60AE9CEF2F81D49F263E289DCC7026EBB9DDF427CDD00E6CAC9 SWAP1 PUSH0 SWAP1 LOG3 POP POP POP POP POP POP JUMP JUMPDEST PUSH0 DUP2 PUSH1 0x15 DUP2 LT PUSH2 0x59F JUMPI PUSH0 DUP1 REVERT JUMPDEST ADD SLOAD SWAP1 POP DUP2 JUMP JUMPDEST PUSH0 DUP7 DUP2 MSTORE PUSH1 0x2C PUSH1 0x20 MSTORE PUSH1 0x40 SWAP1 KECCAK256 SLOAD PUSH1 0xFF AND ISZERO PUSH2 0x5F9 JUMPI PUSH1 0x40 MLOAD PUSH3 0x461BCD PUSH1 0xE5 SHL DUP2 MSTORE PUSH1 0x20 PUSH1 0x4 DUP3 ADD MSTORE PUSH1 0x12 PUSH1 0x24 DUP3 ADD MSTORE PUSH18 0x139BDD1948185B1C9958591E481CDC195B9D PUSH1 0x72 SHL PUSH1 0x44 DUP3 ADD MSTORE PUSH1 0x64 ADD PUSH2 0x30B JUMP JUMPDEST PUSH0 DUP4 GT PUSH2 0x648 JUMPI PUSH1 0x40 MLOAD PUSH3 0x461BCD PUSH1 0xE5 SHL DUP2 MSTORE PUSH1 0x20 PUSH1 0x4 DUP3 ADD MSTORE PUSH1 0x17 PUSH1 0x24 DUP3 ADD MSTORE PUSH32 0x416D6F756E74206D75737420626520706F736974697665000000000000000000 PUSH1 0x44 DUP3 ADD MSTORE PUSH1 0x64 ADD PUSH2 0x30B JUMP JUMPDEST DUP3 SELFBALANCE LT ISZERO PUSH2 0x698 JUMPI PUSH1 0x40 MLOAD PUSH3 0x461BCD PUSH1 0xE5 SHL DUP2 MSTORE PUSH1 0x20 PUSH1 0x4 DUP3 ADD MSTORE PUSH1 0x19 PUSH1 0x24 DUP3 ADD MSTORE PUSH32 0x496E73756666696369656E7420706F6F6C2062616C616E636500000000000000 PUSH1 0x44 DUP3 ADD MSTORE PUSH1 0x64 ADD PUSH2 0x30B JUMP JUMPDEST PUSH1 0x40 DUP1 MLOAD PUSH1 0x3 DUP1 DUP3 MSTORE PUSH1 0x80 DUP3 ADD SWAP1 SWAP3 MSTORE PUSH0 SWAP2 PUSH1 0x20 DUP3 ADD PUSH1 0x60 DUP1 CALLDATASIZE DUP4 CALLDATACOPY ADD SWAP1 POP POP SWAP1 POP DUP7 DUP2 PUSH0 DUP2 MLOAD DUP2 LT PUSH2 0x6CD JUMPI PUSH2 0x6CD PUSH2 0x2691 JUMP JUMPDEST PUSH1 0x20 MUL PUSH1 0x20 ADD ADD DUP2 DUP2 MSTORE POP POP DUP6 DUP2 PUSH1 0x1 DUP2 MLOAD DUP2 LT PUSH2 0x6ED JUMPI PUSH2 0x6ED PUSH2 0x2691 JUMP JUMPDEST PUSH1 0x20 MUL PUSH1 0x20 ADD ADD DUP2 DUP2 MSTORE POP POP PUSH1 0x2B SLOAD DUP2 PUSH1 0x2 DUP2 MLOAD DUP2 LT PUSH2 0x70F JUMPI PUSH2 0x70F PUSH2 0x2691 JUMP JUMPDEST PUSH1 0x20 SWAP1 DUP2 MUL SWAP2 SWAP1 SWAP2 ADD ADD MSTORE PUSH1 0x40 MLOAD PUSH4 0x3A943439 PUSH1 0xE2 SHL DUP2 MSTORE PUSH1 0x1 PUSH1 0x1 PUSH1 0xA0 SHL SUB PUSH32 0x0 AND SWAP1 PUSH4 0xEA50D0E4 SWAP1 PUSH2 0x76A SWAP1 DUP7 SWAP1 DUP7 SWAP1 DUP7 SWAP1 PUSH1 0x4 ADD PUSH2 0x26A5 JUMP JUMPDEST PUSH1 0x20 PUSH1 0x40 MLOAD DUP1 DUP4 SUB DUP2 PUSH0 DUP8 GAS CALL ISZERO DUP1 ISZERO PUSH2 0x786 JUMPI RETURNDATASIZE PUSH0 PUSH0 RETURNDATACOPY RETURNDATASIZE PUSH0 REVERT JUMPDEST POP POP POP POP PUSH1 0x40 MLOAD RETURNDATASIZE PUSH1 0x1F NOT PUSH1 0x1F DUP3 ADD AND DUP3 ADD DUP1 PUSH1 0x40 MSTORE POP DUP2 ADD SWAP1 PUSH2 0x7AA SWAP2 SWAP1 PUSH2 0x271D JUMP JUMPDEST PUSH2 0x7E6 JUMPI PUSH1 0x40 MLOAD PUSH3 0x461BCD PUSH1 0xE5 SHL DUP2 MSTORE PUSH1 0x20 PUSH1 0x4 DUP3 ADD MSTORE PUSH1 0xD PUSH1 0x24 DUP3 ADD MSTORE PUSH13 0x24B73B30B634B210383937B7B3 PUSH1 0x99 SHL PUSH1 0x44 DUP3 ADD MSTORE PUSH1 0x64 ADD PUSH2 0x30B JUMP JUMPDEST PUSH0 DUP8 DUP2 MSTORE PUSH1 0x2C PUSH1 0x20 MSTORE PUSH1 0x40 DUP1 DUP3 KECCAK256 DUP1 SLOAD PUSH1 0xFF NOT AND PUSH1 0x1 OR SWAP1 SSTORE MLOAD PUSH1 0x1 PUSH1 0x1 PUSH1 0xA0 SHL SUB DUP8 AND SWAP1 DUP7 SWAP1 DUP4 DUP2 DUP2 DUP2 DUP6 DUP8 GAS CALL SWAP3 POP POP POP RETURNDATASIZE DUP1 PUSH0 DUP2 EQ PUSH2 0x843 JUMPI PUSH1 0x40 MLOAD SWAP2 POP PUSH1 0x1F NOT PUSH1 0x3F RETURNDATASIZE ADD AND DUP3 ADD PUSH1 0x40 MSTORE RETURNDATASIZE DUP3 MSTORE RETURNDATASIZE PUSH0 PUSH1 0x20 DUP5 ADD RETURNDATACOPY PUSH2 0x848 JUMP JUMPDEST PUSH1 0x60 SWAP2 POP JUMPDEST POP POP SWAP1 POP DUP1 PUSH2 0x88B JUMPI PUSH1 0x40 MLOAD PUSH3 0x461BCD PUSH1 0xE5 SHL DUP2 MSTORE PUSH1 0x20 PUSH1 0x4 DUP3 ADD MSTORE PUSH1 0xF PUSH1 0x24 DUP3 ADD MSTORE PUSH15 0x151C985B9CD9995C8819985A5B1959 PUSH1 0x8A SHL PUSH1 0x44 DUP3 ADD MSTORE PUSH1 0x64 ADD PUSH2 0x30B JUMP JUMPDEST DUP6 PUSH1 0x1 PUSH1 0x1 PUSH1 0xA0 SHL SUB AND DUP9 PUSH32 0x7A80F1D28CDE7AF437839071848972B2A0B0D87A198873C35F1E5C19272DF944 DUP8 PUSH1 0x40 MLOAD PUSH2 0x8C7 SWAP2 DUP2 MSTORE PUSH1 0x20 ADD SWAP1 JUMP JUMPDEST PUSH1 0x40 MLOAD DUP1 SWAP2 SUB SWAP1 LOG3 POP POP POP POP POP POP POP POP JUMP JUMPDEST PUSH1 0x15 DUP2 PUSH1 0x15 DUP2 LT PUSH2 0x59F JUMPI PUSH0 DUP1 REVERT JUMPDEST PUSH0 PUSH2 0x8F5 PUSH1 0x14 PUSH1 0x2 PUSH2 0x2686 JUMP JUMPDEST PUSH1 0x2A SLOAD LT PUSH2 0x93B JUMPI PUSH1 0x40 MLOAD PUSH3 0x461BCD PUSH1 0xE5 SHL DUP2 MSTORE PUSH1 0x20 PUSH1 0x4 DUP3 ADD MSTORE PUSH1 0x13 PUSH1 0x24 DUP3 ADD MSTORE PUSH19 0x13595C9ADB19481D1C9959481A5CC8199D5B1B PUSH1 0x6A SHL PUSH1 0x44 DUP3 ADD MSTORE PUSH1 0x64 ADD PUSH2 0x30B JUMP JUMPDEST POP PUSH1 0x2A SLOAD DUP1 DUP3 PUSH0 JUMPDEST PUSH1 0x14 DUP2 LT ISZERO PUSH2 0x9CD JUMPI PUSH2 0x957 PUSH1 0x2 DUP5 PUSH2 0x2750 JUMP JUMPDEST PUSH0 SUB PUSH2 0x997 JUMPI DUP2 PUSH1 0x15 DUP3 PUSH1 0x15 DUP2 LT PUSH2 0x971 JUMPI PUSH2 0x971 PUSH2 0x2691 JUMP JUMPDEST ADD SSTORE PUSH2 0x990 DUP3 PUSH0 DUP4 PUSH1 0x15 DUP2 LT PUSH2 0x989 JUMPI PUSH2 0x989 PUSH2 0x2691 JUMP JUMPDEST ADD SLOAD PUSH2 0x9E9 JUMP JUMPDEST SWAP2 POP PUSH2 0x9B8 JUMP JUMPDEST PUSH2 0x9B5 PUSH1 0x15 DUP3 PUSH1 0x15 DUP2 LT PUSH2 0x9AD JUMPI PUSH2 0x9AD PUSH2 0x2691 JUMP JUMPDEST ADD SLOAD DUP4 PUSH2 0x9E9 JUMP JUMPDEST SWAP2 POP JUMPDEST PUSH2 0x9C3 PUSH1 0x2 DUP5 PUSH2 0x2763 JUMP JUMPDEST SWAP3 POP PUSH1 0x1 ADD PUSH2 0x943 JUMP JUMPDEST POP PUSH1 0x2B DUP2 SWAP1 SSTORE PUSH2 0x9DE DUP4 PUSH1 0x1 PUSH2 0x2776 JUMP JUMPDEST PUSH1 0x2A SSTORE POP SWAP1 SWAP3 SWAP2 POP POP JUMP JUMPDEST PUSH0 PUSH2 0x9F4 DUP4 DUP4 PUSH2 0x9FD JUMP JUMPDEST SWAP1 POP JUMPDEST SWAP3 SWAP2 POP POP JUMP JUMPDEST PUSH0 PUSH0 PUSH2 0xA07 PUSH2 0xA4F JUMP JUMPDEST SWAP1 POP PUSH0 PUSH1 0x40 MLOAD DUP1 PUSH1 0x80 ADD PUSH1 0x40 MSTORE DUP1 PUSH2 0xA1C DUP8 SWAP1 JUMP JUMPDEST DUP2 MSTORE PUSH1 0x20 ADD DUP6 DUP2 MSTORE PUSH1 0x20 ADD PUSH0 DUP2 MSTORE PUSH1 0x20 ADD PUSH0 DUP2 MSTORE POP SWAP1 POP PUSH2 0xA45 DUP2 DUP4 PUSH0 ADD MLOAD DUP5 PUSH1 0x20 ADD MLOAD PUSH2 0x1F97 JUMP JUMPDEST MLOAD SWAP6 SWAP5 POP POP POP POP POP JUMP JUMPDEST PUSH2 0xA57 PUSH2 0x23ED JUMP JUMPDEST PUSH1 0x40 MLOAD DUP1 PUSH1 0x40 ADD PUSH1 0x40 MSTORE DUP1 PUSH1 0x40 MLOAD DUP1 PUSH1 0x80 ADD PUSH1 0x40 MSTORE DUP1 PUSH32 0x10DC6E9C006EA38B04B1E03B4BD9490C0D03F98929CA1D7FB56821FD19D3B6E7 DUP2 MSTORE PUSH1 0x20 ADD PUSH32 0xC28145B6A44DF3E0149B3D0A30B3BB599DF9756D4DD9B84A86B38CFB45A740B DUP2 MSTORE PUSH1 0x20 ADD PUSH31 0x544B8338791518B2C7645A50392798B21F75BB60E3596170067D00141CAC15 DUP2 MSTORE PUSH1 0x20 ADD PUSH32 0x222C01175718386F2E2E82EB122789E352E105A3B8FA852613BC534433EE428B DUP2 MSTORE POP DUP2 MSTORE PUSH1 0x20 ADD PUSH1 0x40 MLOAD DUP1 PUSH2 0x800 ADD PUSH1 0x40 MSTORE DUP1 PUSH1 0x40 MLOAD DUP1 PUSH1 0x80 ADD PUSH1 0x40 MSTORE DUP1 PUSH32 0x19B849F69450B06848DA1D39BD5E4A4302BB86744EDC26238B0878E269ED23E5 DUP2 MSTORE PUSH1 0x20 ADD PUSH32 0x265DDFE127DD51BD7239347B758F0A1320EB2CC7450ACC1DAD47F80C8DCF34D6 DUP2 MSTORE PUSH1 0x20 ADD PUSH32 0x199750EC472F1809E0F66A545E1E51624108AC845015C2AA3DFC36BAB497D8AA DUP2 MSTORE PUSH1 0x20 ADD PUSH32 0x157FF3FE65AC7208110F06A5F74302B14D743EA25067F0FFD032F787C7F1CDF8 DUP2 MSTORE POP DUP2 MSTORE PUSH1 0x20 ADD PUSH1 0x40 MLOAD DUP1 PUSH1 0x80 ADD PUSH1 0x40 MSTORE DUP1 PUSH32 0x2E49C43C4569DD9C5FD35AC45FCA33F10B15C590692F8BEEFE18F4896AC94902 DUP2 MSTORE PUSH1 0x20 ADD PUSH32 0xE35FB89981890520D4AEF2B6D6506C3CB2F0B6973C24FA82731345FFA2D1F1E DUP2 MSTORE PUSH1 0x20 ADD PUSH32 0x251AD47CB15C4F1105F109AE5E944F1BA9D9E7806D667FFEC6FE723002E0B996 DUP2 MSTORE PUSH1 0x20 ADD PUSH32 0x13DA07DC64D428369873E97160234641F8BEB56FDD05E5F3563FA39D9C22DF4E DUP2 MSTORE POP DUP2 MSTORE PUSH1 0x20 ADD PUSH1 0x40 MLOAD DUP1 PUSH1 0x80 ADD PUSH1 0x40 MSTORE DUP1 PUSH32 0xC009B84E650E6D23DC00C7DCCEF7483A553939689D350CD46E7B89055FD4738 DUP2 MSTORE PUSH1 0x20 ADD PUSH32 0x11F16B1C63A854F01992E3956F42D8B04EB650C6D535EB0203DEC74BEFDCA06 DUP2 MSTORE PUSH1 0x20 ADD PUSH32 0xED69E5E383A688F209D9A561DAA79612F3F78D0467AD45485DF07093F367549 DUP2 MSTORE PUSH1 0x20 ADD PUSH32 0x4DBA94A7B0CE9E221ACAD41472B6BBE3AEC507F5EB3D33F463672264C9F789B DUP2 MSTORE POP DUP2 MSTORE PUSH1 0x20 ADD PUSH1 0x40 MLOAD DUP1 PUSH1 0x80 ADD PUSH1 0x40 MSTORE DUP1 PUSH32 0xA3F2637D840F3A16EB094271C9D237B6036757D4BB50BF7CE732FF1D4FA28E8 DUP2 MSTORE PUSH1 0x20 ADD PUSH32 0x259A666F129EEA198F8A1C502FDB38FA39B1F075569564B6E54A485D1182323F DUP2 MSTORE PUSH1 0x20 ADD PUSH32 0x28BF7459C9B2F4C6D8E7D06A4EE3A47F7745D4271038E5157A32FDF7EDE0D6A1 DUP2 MSTORE PUSH1 0x20 ADD PUSH32 0xA1CA941F057037526EA200F489BE8D4C37C85BBCCE6A2AEEC91BD6941432447 DUP2 MSTORE POP DUP2 MSTORE PUSH1 0x20 ADD PUSH1 0x40 MLOAD DUP1 PUSH1 0x80 ADD PUSH1 0x40 MSTORE DUP1 PUSH32 0xC6F8F958BE0E93053D7FD4FC54512855535ED1539F051DCB43A26FD926361CF DUP2 MSTORE PUSH1 0x20 ADD PUSH0 DUP2 MSTORE PUSH1 0x20 ADD PUSH0 DUP2 MSTORE PUSH1 0x20 ADD PUSH0 DUP2 MSTORE POP DUP2 MSTORE PUSH1 0x20 ADD PUSH1 0x40 MLOAD DUP1 PUSH1 0x80 ADD PUSH1 0x40 MSTORE DUP1 PUSH32 0x123106A93CD17578D426E8128AC9D90AA9E8A00708E296E084DD57E69CAAF811 DUP2 MSTORE PUSH1 0x20 ADD PUSH0 DUP2 MSTORE PUSH1 0x20 ADD PUSH0 DUP2 MSTORE PUSH1 0x20 ADD PUSH0 DUP2 MSTORE POP DUP2 MSTORE PUSH1 0x20 ADD PUSH1 0x40 MLOAD DUP1 PUSH1 0x80 ADD PUSH1 0x40 MSTORE DUP1 PUSH32 0x26E1BA52AD9285D97DD3AB52F8E840085E8FA83FF1E8F1877B074867CD2DEE75 DUP2 MSTORE PUSH1 0x20 ADD PUSH0 DUP2 MSTORE PUSH1 0x20 ADD PUSH0 DUP2 MSTORE PUSH1 0x20 ADD PUSH0 DUP2 MSTORE POP DUP2 MSTORE PUSH1 0x20 ADD PUSH1 0x40 MLOAD DUP1 PUSH1 0x80 ADD PUSH1 0x40 MSTORE DUP1 PUSH32 0x1CB55CAD7BD133DE18A64C5C47B9C97CBE4D8B7BF9E095864471537E6A4AE2C5 DUP2 MSTORE PUSH1 0x20 ADD PUSH0 DUP2 MSTORE PUSH1 0x20 ADD PUSH0 DUP2 MSTORE PUSH1 0x20 ADD PUSH0 DUP2 MSTORE POP DUP2 MSTORE PUSH1 0x20 ADD PUSH1 0x40 MLOAD DUP1 PUSH1 0x80 ADD PUSH1 0x40 MSTORE DUP1 PUSH32 0x1DCD73E46ACD8F8E0E2C7CE04BDE7F6D2A53043D5060A41C7143F08E6E9055D0 DUP2 MSTORE PUSH1 0x20 ADD PUSH0 DUP2 MSTORE PUSH1 0x20 ADD PUSH0 DUP2 MSTORE PUSH1 0x20 ADD PUSH0 DUP2 MSTORE POP DUP2 MSTORE PUSH1 0x20 ADD PUSH1 0x40 MLOAD DUP1 PUSH1 0x80 ADD PUSH1 0x40 MSTORE DUP1 PUSH32 0x11003E32F6D9C66F5852F05474A4DEF0CDA294A0EB4E9B9B12B9BB4512E5574 DUP2 MSTORE PUSH1 0x20 ADD PUSH0 DUP2 MSTORE PUSH1 0x20 ADD PUSH0 DUP2 MSTORE PUSH1 0x20 ADD PUSH0 DUP2 MSTORE POP DUP2 MSTORE PUSH1 0x20 ADD PUSH1 0x40 MLOAD DUP1 PUSH1 0x80 ADD PUSH1 0x40 MSTORE DUP1 PUSH32 0x2B1E809AC1D10AB29AD5F20D03A57DFEBADFE5903F58BAFED7C508DD2287AE8C DUP2 MSTORE PUSH1 0x20 ADD PUSH0 DUP2 MSTORE PUSH1 0x20 ADD PUSH0 DUP2 MSTORE PUSH1 0x20 ADD PUSH0 DUP2 MSTORE POP DUP2 MSTORE PUSH1 0x20 ADD PUSH1 0x40 MLOAD DUP1 PUSH1 0x80 ADD PUSH1 0x40 MSTORE DUP1 PUSH32 0x2539DE1785B735999FB4DAC35EE17ED0EF995D05AB2FC5FAEAA69AE87BCEC0A5 DUP2 MSTORE PUSH1 0x20 ADD PUSH0 DUP2 MSTORE PUSH1 0x20 ADD PUSH0 DUP2 MSTORE PUSH1 0x20 ADD PUSH0 DUP2 MSTORE POP DUP2 MSTORE PUSH1 0x20 ADD PUSH1 0x40 MLOAD DUP1 PUSH1 0x80 ADD PUSH1 0x40 MSTORE DUP1 PUSH32 0xC246C5A2EF8EE0126497F222B3E0A0EF4E1C3D41C86D46E43982CB11D77951D DUP2 MSTORE PUSH1 0x20 ADD PUSH0 DUP2 MSTORE PUSH1 0x20 ADD PUSH0 DUP2 MSTORE PUSH1 0x20 ADD PUSH0 DUP2 MSTORE POP DUP2 MSTORE PUSH1 0x20 ADD PUSH1 0x40 MLOAD DUP1 PUSH1 0x80 ADD PUSH1 0x40 MSTORE DUP1 PUSH32 0x192089C4974F68E95408148F7C0632EDBB09E6A6AD1A1C2F3F0305F5D03B527B DUP2 MSTORE PUSH1 0x20 ADD PUSH0 DUP2 MSTORE PUSH1 0x20 ADD PUSH0 DUP2 MSTORE PUSH1 0x20 ADD PUSH0 DUP2 MSTORE POP DUP2 MSTORE PUSH1 0x20 ADD PUSH1 0x40 MLOAD DUP1 PUSH1 0x80 ADD PUSH1 0x40 MSTORE DUP1 PUSH32 0x1EAE0AD8AB68B2F06A0EE36EEB0D0C058529097D91096B756D8FDC2FB5A60D85 DUP2 MSTORE PUSH1 0x20 ADD PUSH0 DUP2 MSTORE PUSH1 0x20 ADD PUSH0 DUP2 MSTORE PUSH1 0x20 ADD PUSH0 DUP2 MSTORE POP DUP2 MSTORE PUSH1 0x20 ADD PUSH1 0x40 MLOAD DUP1 PUSH1 0x80 ADD PUSH1 0x40 MSTORE DUP1 PUSH32 0x179190E5D0E22179E46F8282872ABC88DB6E2FDC0DEE99E69768BD98C5D06BFB DUP2 MSTORE PUSH1 0x20 ADD PUSH0 DUP2 MSTORE PUSH1 0x20 ADD PUSH0 DUP2 MSTORE PUSH1 0x20 ADD PUSH0 DUP2 MSTORE POP DUP2 MSTORE PUSH1 0x20 ADD PUSH1 0x40 MLOAD DUP1 PUSH1 0x80 ADD PUSH1 0x40 MSTORE DUP1 PUSH32 0x29BB9E2C9076732576E9A81C7AC4B83214528F7DB00F31BF6CAFE794A9B3CD1C DUP2 MSTORE PUSH1 0x20 ADD PUSH0 DUP2 MSTORE PUSH1 0x20 ADD PUSH0 DUP2 MSTORE PUSH1 0x20 ADD PUSH0 DUP2 MSTORE POP DUP2 MSTORE PUSH1 0x20 ADD PUSH1 0x40 MLOAD DUP1 PUSH1 0x80 ADD PUSH1 0x40 MSTORE DUP1 PUSH32 0x225D394E42207599403EFD0C2464A90D52652645882AAC35B10E590E6E691E08 DUP2 MSTORE PUSH1 0x20 ADD PUSH0 DUP2 MSTORE PUSH1 0x20 ADD PUSH0 DUP2 MSTORE PUSH1 0x20 ADD PUSH0 DUP2 MSTORE POP DUP2 MSTORE PUSH1 0x20 ADD PUSH1 0x40 MLOAD DUP1 PUSH1 0x80 ADD PUSH1 0x40 MSTORE DUP1 PUSH32 0x64760623C25C8CF753D238055B444532BE13557451C087DE09EFD454B23FD59 DUP2 MSTORE PUSH1 0x20 ADD PUSH0 DUP2 MSTORE PUSH1 0x20 ADD PUSH0 DUP2 MSTORE PUSH1 0x20 ADD PUSH0 DUP2 MSTORE POP DUP2 MSTORE PUSH1 0x20 ADD PUSH1 0x40 MLOAD DUP1 PUSH1 0x80 ADD PUSH1 0x40 MSTORE DUP1 PUSH32 0x10BA3A0E01DF92E87F301C4B716D8A394D67F4BF42A75C10922910A78F6B5B87 DUP2 MSTORE PUSH1 0x20 ADD PUSH0 DUP2 MSTORE PUSH1 0x20 ADD PUSH0 DUP2 MSTORE PUSH1 0x20 ADD PUSH0 DUP2 MSTORE POP DUP2 MSTORE PUSH1 0x20 ADD PUSH1 0x40 MLOAD DUP1 PUSH1 0x80 ADD PUSH1 0x40 MSTORE DUP1 PUSH32 0xE070BF53F8451B24F9C6E96B0C2A801CB511BC0C242EB9D361B77693F21471C DUP2 MSTORE PUSH1 0x20 ADD PUSH0 DUP2 MSTORE PUSH1 0x20 ADD PUSH0 DUP2 MSTORE PUSH1 0x20 ADD PUSH0 DUP2 MSTORE POP DUP2 MSTORE PUSH1 0x20 ADD PUSH1 0x40 MLOAD DUP1 PUSH1 0x80 ADD PUSH1 0x40 MSTORE DUP1 PUSH32 0x1B94CD61B051B04DD39755FF93821A73CCD6CB11D2491D8AA7F921014DE252FB DUP2 MSTORE PUSH1 0x20 ADD PUSH0 DUP2 MSTORE PUSH1 0x20 ADD PUSH0 DUP2 MSTORE PUSH1 0x20 ADD PUSH0 DUP2 MSTORE POP DUP2 MSTORE PUSH1 0x20 ADD PUSH1 0x40 MLOAD DUP1 PUSH1 0x80 ADD PUSH1 0x40 MSTORE DUP1 PUSH32 0x1D7CB39BAFB8C744E148787A2E70230F9D4E917D5713BB050487B5AA7D74070B DUP2 MSTORE PUSH1 0x20 ADD PUSH0 DUP2 MSTORE PUSH1 0x20 ADD PUSH0 DUP2 MSTORE PUSH1 0x20 ADD PUSH0 DUP2 MSTORE POP DUP2 MSTORE PUSH1 0x20 ADD PUSH1 0x40 MLOAD DUP1 PUSH1 0x80 ADD PUSH1 0x40 MSTORE DUP1 PUSH32 0x2EC93189BD1AB4F69117D0FE980C80FF8785C2961829F701BB74AC1F303B17DB DUP2 MSTORE PUSH1 0x20 ADD PUSH0 DUP2 MSTORE PUSH1 0x20 ADD PUSH0 DUP2 MSTORE PUSH1 0x20 ADD PUSH0 DUP2 MSTORE POP DUP2 MSTORE PUSH1 0x20 ADD PUSH1 0x40 MLOAD DUP1 PUSH1 0x80 ADD PUSH1 0x40 MSTORE DUP1 PUSH32 0x2DB366BFDD36D277A692BB825B86275BEAC404A19AE07A9082EA46BD83517926 DUP2 MSTORE PUSH1 0x20 ADD PUSH0 DUP2 MSTORE PUSH1 0x20 ADD PUSH0 DUP2 MSTORE PUSH1 0x20 ADD PUSH0 DUP2 MSTORE POP DUP2 MSTORE PUSH1 0x20 ADD PUSH1 0x40 MLOAD DUP1 PUSH1 0x80 ADD PUSH1 0x40 MSTORE DUP1 PUSH32 0x62100EB485DB06269655CF186A68532985275428450359ADC99CEC6960711B8 DUP2 MSTORE PUSH1 0x20 ADD PUSH0 DUP2 MSTORE PUSH1 0x20 ADD PUSH0 DUP2 MSTORE PUSH1 0x20 ADD PUSH0 DUP2 MSTORE POP DUP2 MSTORE PUSH1 0x20 ADD PUSH1 0x40 MLOAD DUP1 PUSH1 0x80 ADD PUSH1 0x40 MSTORE DUP1 PUSH32 0x761D33C66614AAA570E7F1E8244CA1120243F92FA59E4F900C567BF41F5A59B DUP2 MSTORE PUSH1 0x20 ADD PUSH0 DUP2 MSTORE PUSH1 0x20 ADD PUSH0 DUP2 MSTORE PUSH1 0x20 ADD PUSH0 DUP2 MSTORE POP DUP2 MSTORE PUSH1 0x20 ADD PUSH1 0x40 MLOAD DUP1 PUSH1 0x80 ADD PUSH1 0x40 MSTORE DUP1 PUSH32 0x20FC411A114D13992C2705AA034E3F315D78608A0F7DE4CCF7A72E494855AD0D DUP2 MSTORE PUSH1 0x20 ADD PUSH0 DUP2 MSTORE PUSH1 0x20 ADD PUSH0 DUP2 MSTORE PUSH1 0x20 ADD PUSH0 DUP2 MSTORE POP DUP2 MSTORE PUSH1 0x20 ADD PUSH1 0x40 MLOAD DUP1 PUSH1 0x80 ADD PUSH1 0x40 MSTORE DUP1 PUSH32 0x25B5C004A4BDFCB5ADD9EC4E9AB219BA102C67E8B3EFFB5FC3A30F317250BC5A DUP2 MSTORE PUSH1 0x20 ADD PUSH0 DUP2 MSTORE PUSH1 0x20 ADD PUSH0 DUP2 MSTORE PUSH1 0x20 ADD PUSH0 DUP2 MSTORE POP DUP2 MSTORE PUSH1 0x20 ADD PUSH1 0x40 MLOAD DUP1 PUSH1 0x80 ADD PUSH1 0x40 MSTORE DUP1 PUSH32 0x23B1822D278ED632A494E58F6DF6F5ED038B186D8474155AD87E7DFF62B37F4B DUP2 MSTORE PUSH1 0x20 ADD PUSH0 DUP2 MSTORE PUSH1 0x20 ADD PUSH0 DUP2 MSTORE PUSH1 0x20 ADD PUSH0 DUP2 MSTORE POP DUP2 MSTORE PUSH1 0x20 ADD PUSH1 0x40 MLOAD DUP1 PUSH1 0x80 ADD PUSH1 0x40 MSTORE DUP1 PUSH32 0x22734B4C5C3F9493606C4BA9012499BF0F14D13BFCFCCCAA16102A29CC2F69E0 DUP2 MSTORE PUSH1 0x20 ADD PUSH0 DUP2 MSTORE PUSH1 0x20 ADD PUSH0 DUP2 MSTORE PUSH1 0x20 ADD PUSH0 DUP2 MSTORE POP DUP2 MSTORE PUSH1 0x20 ADD PUSH1 0x40 MLOAD DUP1 PUSH1 0x80 ADD PUSH1 0x40 MSTORE DUP1 PUSH32 0x26C0C8FE09EB30B7E27A74DC33492347E5BDFF409AA3610254413D3FAD795CE5 DUP2 MSTORE PUSH1 0x20 ADD PUSH0 DUP2 MSTORE PUSH1 0x20 ADD PUSH0 DUP2 MSTORE PUSH1 0x20 ADD PUSH0 DUP2 MSTORE POP DUP2 MSTORE PUSH1 0x20 ADD PUSH1 0x40 MLOAD DUP1 PUSH1 0x80 ADD PUSH1 0x40 MSTORE DUP1 PUSH32 0x70DD0CCB6BD7BBAE88EAC03FA1FBB26196BE3083A809829BBD626DF348CCAD9 DUP2 MSTORE PUSH1 0x20 ADD PUSH0 DUP2 MSTORE PUSH1 0x20 ADD PUSH0 DUP2 MSTORE PUSH1 0x20 ADD PUSH0 DUP2 MSTORE POP DUP2 MSTORE PUSH1 0x20 ADD PUSH1 0x40 MLOAD DUP1 PUSH1 0x80 ADD PUSH1 0x40 MSTORE DUP1 PUSH32 0x12B6595BDB329B6FB043BA78BB28C3BEC2C0A6DE46D8C5AD6067C4EBFD4250DA DUP2 MSTORE PUSH1 0x20 ADD PUSH0 DUP2 MSTORE PUSH1 0x20 ADD PUSH0 DUP2 MSTORE PUSH1 0x20 ADD PUSH0 DUP2 MSTORE POP DUP2 MSTORE PUSH1 0x20 ADD PUSH1 0x40 MLOAD DUP1 PUSH1 0x80 ADD PUSH1 0x40 MSTORE DUP1 PUSH32 0x248D97D7F76283D63BEC30E7A5876C11C06FCA9B275C671C5E33D95BB7E8D729 DUP2 MSTORE PUSH1 0x20 ADD PUSH0 DUP2 MSTORE PUSH1 0x20 ADD PUSH0 DUP2 MSTORE PUSH1 0x20 ADD PUSH0 DUP2 MSTORE POP DUP2 MSTORE PUSH1 0x20 ADD PUSH1 0x40 MLOAD DUP1 PUSH1 0x80 ADD PUSH1 0x40 MSTORE DUP1 PUSH32 0x1A306D439D463B0816FC6FD64CC939318B45EB759DDDE4AA106D15D9BD9BAAAA DUP2 MSTORE PUSH1 0x20 ADD PUSH0 DUP2 MSTORE PUSH1 0x20 ADD PUSH0 DUP2 MSTORE PUSH1 0x20 ADD PUSH0 DUP2 MSTORE POP DUP2 MSTORE PUSH1 0x20 ADD PUSH1 0x40 MLOAD DUP1 PUSH1 0x80 ADD PUSH1 0x40 MSTORE DUP1 PUSH32 0x28A8F8372E3C38DACED7C00421CB4621F4F1B54DDC27821B0D62D3D6EC7C56CF DUP2 MSTORE PUSH1 0x20 ADD PUSH0 DUP2 MSTORE PUSH1 0x20 ADD PUSH0 DUP2 MSTORE PUSH1 0x20 ADD PUSH0 DUP2 MSTORE POP DUP2 MSTORE PUSH1 0x20 ADD PUSH1 0x40 MLOAD DUP1 PUSH1 0x80 ADD PUSH1 0x40 MSTORE DUP1 PUSH31 0x94975717F9A8A8BB35152F24D43294071CE320C829F388BC852183E1E2CE7E DUP2 MSTORE PUSH1 0x20 ADD PUSH0 DUP2 MSTORE PUSH1 0x20 ADD PUSH0 DUP2 MSTORE PUSH1 0x20 ADD PUSH0 DUP2 MSTORE POP DUP2 MSTORE PUSH1 0x20 ADD PUSH1 0x40 MLOAD DUP1 PUSH1 0x80 ADD PUSH1 0x40 MSTORE DUP1 PUSH32 0x4D5EE4C3AA78F7D80FDE60D716480D3593F74D4F653AE83F4103246DB2E8D65 DUP2 MSTORE PUSH1 0x20 ADD PUSH0 DUP2 MSTORE PUSH1 0x20 ADD PUSH0 DUP2 MSTORE PUSH1 0x20 ADD PUSH0 DUP2 MSTORE POP DUP2 MSTORE PUSH1 0x20 ADD PUSH1 0x40 MLOAD DUP1 PUSH1 0x80 ADD PUSH1 0x40 MSTORE DUP1 PUSH32 0x2A6CF5E9AA03D4336349AD6FB8ED2269C7BEF54B8822CC76D08495C12EFDE187 DUP2 MSTORE PUSH1 0x20 ADD PUSH0 DUP2 MSTORE PUSH1 0x20 ADD PUSH0 DUP2 MSTORE PUSH1 0x20 ADD PUSH0 DUP2 MSTORE POP DUP2 MSTORE PUSH1 0x20 ADD PUSH1 0x40 MLOAD DUP1 PUSH1 0x80 ADD PUSH1 0x40 MSTORE DUP1 PUSH32 0x2304D31EAAB960BA9274DA43E19DDEB7F792180808FD6E43BAAE48D7EFCBA3F3 DUP2 MSTORE PUSH1 0x20 ADD PUSH0 DUP2 MSTORE PUSH1 0x20 ADD PUSH0 DUP2 MSTORE PUSH1 0x20 ADD PUSH0 DUP2 MSTORE POP DUP2 MSTORE PUSH1 0x20 ADD PUSH1 0x40 MLOAD DUP1 PUSH1 0x80 ADD PUSH1 0x40 MSTORE DUP1 PUSH32 0x3FD9AC865A4B2A6D5E7009785817249BFF08A7E0726FCB4E1C11D39D199F0B0 DUP2 MSTORE PUSH1 0x20 ADD PUSH0 DUP2 MSTORE PUSH1 0x20 ADD PUSH0 DUP2 MSTORE PUSH1 0x20 ADD PUSH0 DUP2 MSTORE POP DUP2 MSTORE PUSH1 0x20 ADD PUSH1 0x40 MLOAD DUP1 PUSH1 0x80 ADD PUSH1 0x40 MSTORE DUP1 PUSH31 0xB7258DED52BBDA2248404D55EE5044798AFC3A209193073F7954D4D63B0B64 DUP2 MSTORE PUSH1 0x20 ADD PUSH0 DUP2 MSTORE PUSH1 0x20 ADD PUSH0 DUP2 MSTORE PUSH1 0x20 ADD PUSH0 DUP2 MSTORE POP DUP2 MSTORE PUSH1 0x20 ADD PUSH1 0x40 MLOAD DUP1 PUSH1 0x80 ADD PUSH1 0x40 MSTORE DUP1 PUSH32 0x159F81ADA0771799EC38FCA2D4BF65EBB13D3A74F3298DB36272C5CA65E92D9A DUP2 MSTORE PUSH1 0x20 ADD PUSH0 DUP2 MSTORE PUSH1 0x20 ADD PUSH0 DUP2 MSTORE PUSH1 0x20 ADD PUSH0 DUP2 MSTORE POP DUP2 MSTORE PUSH1 0x20 ADD PUSH1 0x40 MLOAD DUP1 PUSH1 0x80 ADD PUSH1 0x40 MSTORE DUP1 PUSH32 0x1EF90E67437FBC8550237A75BC28E3BB9000130EA25F0C5471E144CF4264431F DUP2 MSTORE PUSH1 0x20 ADD PUSH0 DUP2 MSTORE PUSH1 0x20 ADD PUSH0 DUP2 MSTORE PUSH1 0x20 ADD PUSH0 DUP2 MSTORE POP DUP2 MSTORE PUSH1 0x20 ADD PUSH1 0x40 MLOAD DUP1 PUSH1 0x80 ADD PUSH1 0x40 MSTORE DUP1 PUSH32 0x1E65F838515E5FF0196B49AA41A2D2568DF739BC176B08EC95A79ED82932E30D DUP2 MSTORE PUSH1 0x20 ADD PUSH0 DUP2 MSTORE PUSH1 0x20 ADD PUSH0 DUP2 MSTORE PUSH1 0x20 ADD PUSH0 DUP2 MSTORE POP DUP2 MSTORE PUSH1 0x20 ADD PUSH1 0x40 MLOAD DUP1 PUSH1 0x80 ADD PUSH1 0x40 MSTORE DUP1 PUSH32 0x2B1B045DEF3A166CEC6CE768D079BA74B18C844E570E1F826575C1068C94C33F DUP2 MSTORE PUSH1 0x20 ADD PUSH0 DUP2 MSTORE PUSH1 0x20 ADD PUSH0 DUP2 MSTORE PUSH1 0x20 ADD PUSH0 DUP2 MSTORE POP DUP2 MSTORE PUSH1 0x20 ADD PUSH1 0x40 MLOAD DUP1 PUSH1 0x80 ADD PUSH1 0x40 MSTORE DUP1 PUSH32 0x832E5753CEB0FF6402543B1109229C165DC2D73BEF715E3F1C6E07C168BB173 DUP2 MSTORE PUSH1 0x20 ADD PUSH0 DUP2 MSTORE PUSH1 0x20 ADD PUSH0 DUP2 MSTORE PUSH1 0x20 ADD PUSH0 DUP2 MSTORE POP DUP2 MSTORE PUSH1 0x20 ADD PUSH1 0x40 MLOAD DUP1 PUSH1 0x80 ADD PUSH1 0x40 MSTORE DUP1 PUSH32 0x2F614E9CEDFB3DC6B762AE0A37D41BAB1B841C2E8B6451BC5A8E3C390B6AD16 DUP2 MSTORE PUSH1 0x20 ADD PUSH0 DUP2 MSTORE PUSH1 0x20 ADD PUSH0 DUP2 MSTORE PUSH1 0x20 ADD PUSH0 DUP2 MSTORE POP DUP2 MSTORE PUSH1 0x20 ADD PUSH1 0x40 MLOAD DUP1 PUSH1 0x80 ADD PUSH1 0x40 MSTORE DUP1 PUSH32 0xE2427D38BD46A60DD640B8E362CAD967370EBB777BEDFF40F6A0BE27E7ED705 DUP2 MSTORE PUSH1 0x20 ADD PUSH0 DUP2 MSTORE PUSH1 0x20 ADD PUSH0 DUP2 MSTORE PUSH1 0x20 ADD PUSH0 DUP2 MSTORE POP DUP2 MSTORE PUSH1 0x20 ADD PUSH1 0x40 MLOAD DUP1 PUSH1 0x80 ADD PUSH1 0x40 MSTORE DUP1 PUSH32 0x493630B7C670B6DEB7C84D414E7CE79049F0EC098C3C7C50768BBE29214A53A DUP2 MSTORE PUSH1 0x20 ADD PUSH0 DUP2 MSTORE PUSH1 0x20 ADD PUSH0 DUP2 MSTORE PUSH1 0x20 ADD PUSH0 DUP2 MSTORE POP DUP2 MSTORE PUSH1 0x20 ADD PUSH1 0x40 MLOAD DUP1 PUSH1 0x80 ADD PUSH1 0x40 MSTORE DUP1 PUSH32 0x22EAD100E8E482674DECDAB17066C5A26BB1515355D5461A3DC06CC85327CEA9 DUP2 MSTORE PUSH1 0x20 ADD PUSH0 DUP2 MSTORE PUSH1 0x20 ADD PUSH0 DUP2 MSTORE PUSH1 0x20 ADD PUSH0 DUP2 MSTORE POP DUP2 MSTORE PUSH1 0x20 ADD PUSH1 0x40 MLOAD DUP1 PUSH1 0x80 ADD PUSH1 0x40 MSTORE DUP1 PUSH32 0x25B3E56E655B42CDAAE2626ED2554D48583F1AE35626D04DE5084E0B6D2A6F16 DUP2 MSTORE PUSH1 0x20 ADD PUSH0 DUP2 MSTORE PUSH1 0x20 ADD PUSH0 DUP2 MSTORE PUSH1 0x20 ADD PUSH0 DUP2 MSTORE POP DUP2 MSTORE PUSH1 0x20 ADD PUSH1 0x40 MLOAD DUP1 PUSH1 0x80 ADD PUSH1 0x40 MSTORE DUP1 PUSH32 0x1E32752ADA8836EF5837A6CDE8FF13DBB599C336349E4C584B4FDC0A0CF6F9D0 DUP2 MSTORE PUSH1 0x20 ADD PUSH0 DUP2 MSTORE PUSH1 0x20 ADD PUSH0 DUP2 MSTORE PUSH1 0x20 ADD PUSH0 DUP2 MSTORE POP DUP2 MSTORE PUSH1 0x20 ADD PUSH1 0x40 MLOAD DUP1 PUSH1 0x80 ADD PUSH1 0x40 MSTORE DUP1 PUSH32 0x2FA2A871C15A387CC50F68F6F3C3455B23C00995F05078F672A9864074D412E5 DUP2 MSTORE PUSH1 0x20 ADD PUSH0 DUP2 MSTORE PUSH1 0x20 ADD PUSH0 DUP2 MSTORE PUSH1 0x20 ADD PUSH0 DUP2 MSTORE POP DUP2 MSTORE PUSH1 0x20 ADD PUSH1 0x40 MLOAD DUP1 PUSH1 0x80 ADD PUSH1 0x40 MSTORE DUP1 PUSH32 0x2F569B8A9A4424C9278E1DB7311E889F54CCBF10661BAB7FCD18E7C7A7D83505 DUP2 MSTORE PUSH1 0x20 ADD PUSH0 DUP2 MSTORE PUSH1 0x20 ADD PUSH0 DUP2 MSTORE PUSH1 0x20 ADD PUSH0 DUP2 MSTORE POP DUP2 MSTORE PUSH1 0x20 ADD PUSH1 0x40 MLOAD DUP1 PUSH1 0x80 ADD PUSH1 0x40 MSTORE DUP1 PUSH32 0x44CB455110A8FDD531ADE530234C518A7DF93F7332FFD2144165374B246B43D DUP2 MSTORE PUSH1 0x20 ADD PUSH0 DUP2 MSTORE PUSH1 0x20 ADD PUSH0 DUP2 MSTORE PUSH1 0x20 ADD PUSH0 DUP2 MSTORE POP DUP2 MSTORE PUSH1 0x20 ADD PUSH1 0x40 MLOAD DUP1 PUSH1 0x80 ADD PUSH1 0x40 MSTORE DUP1 PUSH32 0x227808DE93906D5D420246157F2E42B191FE8C90ADFE118178DDC723A5319025 DUP2 MSTORE PUSH1 0x20 ADD PUSH0 DUP2 MSTORE PUSH1 0x20 ADD PUSH0 DUP2 MSTORE PUSH1 0x20 ADD PUSH0 DUP2 MSTORE POP DUP2 MSTORE PUSH1 0x20 ADD PUSH1 0x40 MLOAD DUP1 PUSH1 0x80 ADD PUSH1 0x40 MSTORE DUP1 PUSH32 0x2FCCA2934E046BC623ADEAD873579865D03781AE090AD4A8579D2E7A6800355 DUP2 MSTORE PUSH1 0x20 ADD PUSH0 DUP2 MSTORE PUSH1 0x20 ADD PUSH0 DUP2 MSTORE PUSH1 0x20 ADD PUSH0 DUP2 MSTORE POP DUP2 MSTORE PUSH1 0x20 ADD PUSH1 0x40 MLOAD DUP1 PUSH1 0x80 ADD PUSH1 0x40 MSTORE DUP1 PUSH32 0xEF915F0AC120B876ABCCCEB344A1D36BAD3F3C5AB91A8DDCBEC2E060D8BEFAC DUP2 MSTORE PUSH1 0x20 ADD PUSH0 DUP2 MSTORE PUSH1 0x20 ADD PUSH0 DUP2 MSTORE PUSH1 0x20 ADD PUSH0 DUP2 MSTORE POP DUP2 MSTORE PUSH1 0x20 ADD PUSH1 0x40 MLOAD DUP1 PUSH1 0x80 ADD PUSH1 0x40 MSTORE DUP1 PUSH32 0x1797130F4B7A3E1777EB757BC6F287F6AB0FB85F6BE63B09F3B16EF2B1405D38 DUP2 MSTORE PUSH1 0x20 ADD PUSH32 0xA76225DC04170AE3306C85ABAB59E608C7F497C20156D4D36C668555DECC6E5 DUP2 MSTORE PUSH1 0x20 ADD PUSH32 0x1FFFB9EC1992D66BA1E77A7B93209AF6F8FA76D48ACB664796174B5326A31A5C DUP2 MSTORE PUSH1 0x20 ADD PUSH32 0x25721C4FC15A3F2853B57C338FA538D85F8FBBA6C6B9C6090611889B797B9C5F DUP2 MSTORE POP DUP2 MSTORE PUSH1 0x20 ADD PUSH1 0x40 MLOAD DUP1 PUSH1 0x80 ADD PUSH1 0x40 MSTORE DUP1 PUSH32 0xC817FD42D5F7A41215E3D07BA197216ADB4C3790705DA95EB63B982BFCAF75A DUP2 MSTORE PUSH1 0x20 ADD PUSH32 0x13ABE3F5239915D39F7E13C2C24970B6DF8CF86CE00A22002BC15866E52B5A96 DUP2 MSTORE PUSH1 0x20 ADD PUSH32 0x2106FEEA546224EA12EF7F39987A46C85C1BC3DC29BDBD7A92CD60ACB4D391CE DUP2 MSTORE PUSH1 0x20 ADD PUSH32 0x21CA859468A746B6AAA79474A37DAB49F1CA5A28C748BC7157E1B3345BB0F959 DUP2 MSTORE POP DUP2 MSTORE PUSH1 0x20 ADD PUSH1 0x40 MLOAD DUP1 PUSH1 0x80 ADD PUSH1 0x40 MSTORE DUP1 PUSH32 0x5CCD6255C1E6F0C5CF1F0DF934194C62911D14D0321662A8F1A48999E34185B DUP2 MSTORE PUSH1 0x20 ADD PUSH32 0xF0E34A64B70A626E464D846674C4C8816C4FB267FE44FE6EA28678CB09490A4 DUP2 MSTORE PUSH1 0x20 ADD PUSH32 0x558531A4E25470C6157794CA36D0E9647DBFCFE350D64838F5B1A8A2DE0D4BF DUP2 MSTORE PUSH1 0x20 ADD PUSH32 0x9D3DCA9173ED2FACEEA125157683D18924CADAD3F655A60B72F5864961F1455 DUP2 MSTORE POP DUP2 MSTORE PUSH1 0x20 ADD PUSH1 0x40 MLOAD DUP1 PUSH1 0x80 ADD PUSH1 0x40 MSTORE DUP1 PUSH32 0x328CBD54E8C0913493F866ED03D218BF23F92D68AAEC48617D4C722E5BD4335 DUP2 MSTORE PUSH1 0x20 ADD PUSH32 0x2BF07216E2AFF0A223A487B1A7094E07E79E7BCC9798C648EE3347DD5329D34B DUP2 MSTORE PUSH1 0x20 ADD PUSH32 0x1DAF345A58006B736499C583CB76C316D6F78ED6A6DFFC82111E11A63FE412DF DUP2 MSTORE PUSH1 0x20 ADD PUSH32 0x176563472456AAA746B694C60E1823611EF39039B2EDC7FF391E6F2293D2C404 DUP2 MSTORE POP DUP2 MSTORE POP DUP2 MSTORE POP SWAP1 POP SWAP1 JUMP JUMPDEST PUSH2 0x1F9F PUSH2 0x2412 JUMP JUMPDEST PUSH0 PUSH1 0x40 MLOAD DUP1 PUSH1 0x80 ADD PUSH1 0x40 MSTORE DUP1 PUSH0 DUP2 MSTORE PUSH1 0x20 ADD PUSH0 DUP2 MSTORE PUSH1 0x20 ADD PUSH0 DUP2 MSTORE PUSH1 0x20 ADD PUSH0 DUP2 MSTORE POP SWAP1 POP PUSH0 JUMPDEST PUSH1 0x4 DUP2 LT ISZERO PUSH2 0x2004 JUMPI DUP6 DUP2 PUSH1 0x4 DUP2 LT PUSH2 0x1FE0 JUMPI PUSH2 0x1FE0 PUSH2 0x2691 JUMP JUMPDEST PUSH1 0x20 MUL ADD MLOAD DUP3 DUP3 PUSH1 0x4 DUP2 LT PUSH2 0x1FF7 JUMPI PUSH2 0x1FF7 PUSH2 0x2691 JUMP JUMPDEST PUSH1 0x20 MUL ADD MSTORE PUSH1 0x1 ADD PUSH2 0x1FC5 JUMP JUMPDEST POP PUSH2 0x200E DUP2 PUSH2 0x2100 JUMP JUMPDEST PUSH0 PUSH2 0x201B PUSH1 0x2 PUSH1 0x8 PUSH2 0x2763 JUMP JUMPDEST SWAP1 POP PUSH0 JUMPDEST DUP2 DUP2 LT ISZERO PUSH2 0x204C JUMPI PUSH2 0x2032 DUP4 DUP7 DUP4 PUSH2 0x21F1 JUMP JUMPDEST PUSH2 0x203B DUP4 PUSH2 0x2263 JUMP JUMPDEST PUSH2 0x2044 DUP4 PUSH2 0x2100 JUMP JUMPDEST PUSH1 0x1 ADD PUSH2 0x201F JUMP JUMPDEST POP PUSH0 PUSH2 0x2059 PUSH1 0x38 DUP4 PUSH2 0x2776 JUMP JUMPDEST SWAP1 POP DUP2 JUMPDEST DUP2 DUP2 LT ISZERO PUSH2 0x20B4 JUMPI PUSH2 0x208E DUP7 DUP3 PUSH1 0x40 DUP2 LT PUSH2 0x207A JUMPI PUSH2 0x207A PUSH2 0x2691 JUMP JUMPDEST PUSH1 0x20 MUL ADD MLOAD MLOAD DUP6 PUSH0 JUMPDEST PUSH1 0x20 MUL ADD MLOAD SWAP1 PUSH2 0x22A6 JUMP JUMPDEST DUP5 MSTORE PUSH2 0x20A0 DUP5 PUSH0 JUMPDEST PUSH1 0x20 MUL ADD MLOAD PUSH2 0x22D2 JUMP JUMPDEST DUP5 MSTORE PUSH2 0x20AC DUP5 DUP9 PUSH2 0x22FB JUMP JUMPDEST PUSH1 0x1 ADD PUSH2 0x205D JUMP JUMPDEST POP PUSH0 PUSH2 0x20C2 PUSH1 0x38 PUSH1 0x8 PUSH2 0x2776 JUMP JUMPDEST SWAP1 POP DUP2 JUMPDEST DUP2 DUP2 LT ISZERO PUSH2 0x20F3 JUMPI PUSH2 0x20D9 DUP6 DUP9 DUP4 PUSH2 0x21F1 JUMP JUMPDEST PUSH2 0x20E2 DUP6 PUSH2 0x2263 JUMP JUMPDEST PUSH2 0x20EB DUP6 PUSH2 0x2100 JUMP JUMPDEST PUSH1 0x1 ADD PUSH2 0x20C6 JUMP JUMPDEST POP SWAP3 SWAP8 SWAP7 POP POP POP POP POP POP POP JUMP JUMPDEST PUSH0 PUSH2 0x2113 DUP3 PUSH1 0x1 PUSH1 0x20 MUL ADD MLOAD DUP4 PUSH0 PUSH2 0x2083 JUMP JUMPDEST SWAP1 POP PUSH0 PUSH2 0x2129 DUP4 PUSH1 0x3 PUSH1 0x20 MUL ADD MLOAD DUP5 PUSH1 0x2 PUSH2 0x2083 JUMP JUMPDEST SWAP1 POP PUSH0 PUSH2 0x213F DUP5 PUSH1 0x1 PUSH1 0x20 MUL ADD MLOAD DUP6 PUSH1 0x1 PUSH2 0x2083 JUMP JUMPDEST SWAP1 POP PUSH2 0x214B DUP2 DUP4 PUSH2 0x22A6 JUMP JUMPDEST SWAP1 POP PUSH0 PUSH2 0x2161 DUP6 PUSH1 0x3 PUSH1 0x20 MUL ADD MLOAD DUP7 PUSH1 0x3 PUSH2 0x2083 JUMP JUMPDEST SWAP1 POP PUSH2 0x216D DUP2 DUP6 PUSH2 0x22A6 JUMP JUMPDEST SWAP1 POP PUSH0 PUSH2 0x217A DUP5 DUP1 PUSH2 0x22A6 JUMP JUMPDEST SWAP1 POP PUSH2 0x2186 DUP2 DUP1 PUSH2 0x22A6 JUMP JUMPDEST SWAP1 POP PUSH2 0x2192 DUP2 DUP4 PUSH2 0x22A6 JUMP JUMPDEST SWAP1 POP PUSH0 PUSH2 0x219F DUP7 DUP1 PUSH2 0x22A6 JUMP JUMPDEST SWAP1 POP PUSH2 0x21AB DUP2 DUP1 PUSH2 0x22A6 JUMP JUMPDEST SWAP1 POP PUSH2 0x21B7 DUP2 DUP6 PUSH2 0x22A6 JUMP JUMPDEST SWAP1 POP PUSH0 PUSH2 0x21C4 DUP5 DUP4 PUSH2 0x22A6 JUMP JUMPDEST SWAP1 POP PUSH0 PUSH2 0x21D1 DUP7 DUP6 PUSH2 0x22A6 JUMP JUMPDEST SWAP2 DUP10 MSTORE POP PUSH1 0x20 DUP9 ADD SWAP2 SWAP1 SWAP2 MSTORE PUSH1 0x40 DUP8 ADD MSTORE PUSH1 0x60 SWAP1 SWAP6 ADD SWAP5 SWAP1 SWAP5 MSTORE POP POP POP POP JUMP JUMPDEST PUSH0 JUMPDEST PUSH1 0x4 DUP2 LT ISZERO PUSH2 0x225D JUMPI PUSH2 0x223E DUP4 DUP4 PUSH1 0x40 DUP2 LT PUSH2 0x2211 JUMPI PUSH2 0x2211 PUSH2 0x2691 JUMP JUMPDEST PUSH1 0x20 MUL ADD MLOAD DUP3 PUSH1 0x4 DUP2 LT PUSH2 0x2227 JUMPI PUSH2 0x2227 PUSH2 0x2691 JUMP JUMPDEST PUSH1 0x20 MUL ADD MLOAD DUP6 DUP4 PUSH1 0x4 DUP2 LT PUSH2 0x2083 JUMPI PUSH2 0x2083 PUSH2 0x2691 JUMP JUMPDEST DUP5 DUP3 PUSH1 0x4 DUP2 LT PUSH2 0x2250 JUMPI PUSH2 0x2250 PUSH2 0x2691 JUMP JUMPDEST PUSH1 0x20 MUL ADD MSTORE PUSH1 0x1 ADD PUSH2 0x21F3 JUMP JUMPDEST POP POP POP POP JUMP JUMPDEST PUSH0 JUMPDEST PUSH1 0x4 DUP2 LT ISZERO PUSH2 0x22A2 JUMPI PUSH2 0x2283 DUP3 DUP3 PUSH1 0x4 DUP2 LT PUSH2 0x2096 JUMPI PUSH2 0x2096 PUSH2 0x2691 JUMP JUMPDEST DUP3 DUP3 PUSH1 0x4 DUP2 LT PUSH2 0x2295 JUMPI PUSH2 0x2295 PUSH2 0x2691 JUMP JUMPDEST PUSH1 0x20 MUL ADD MSTORE PUSH1 0x1 ADD PUSH2 0x2265 JUMP JUMPDEST POP POP JUMP JUMPDEST PUSH0 PUSH32 0x30644E72E131A029B85045B68181585D2833E84879B9709143E1F593F0000001 DUP3 DUP5 ADDMOD SWAP4 SWAP3 POP POP POP JUMP JUMPDEST PUSH0 DUP1 PUSH2 0x22DE DUP4 DUP1 PUSH2 0x23C1 JUMP JUMPDEST SWAP1 POP PUSH2 0x22F4 DUP4 PUSH2 0x22EE DUP4 DUP1 PUSH2 0x23C1 JUMP JUMPDEST SWAP1 PUSH2 0x23C1 JUMP JUMPDEST SWAP4 SWAP3 POP POP POP JUMP JUMPDEST PUSH0 DUP1 JUMPDEST PUSH1 0x4 DUP2 LT ISZERO PUSH2 0x2332 JUMPI PUSH2 0x2328 DUP5 DUP3 PUSH1 0x4 DUP2 LT PUSH2 0x231C JUMPI PUSH2 0x231C PUSH2 0x2691 JUMP JUMPDEST PUSH1 0x20 MUL ADD MLOAD DUP4 SWAP1 PUSH2 0x22A6 JUMP JUMPDEST SWAP2 POP PUSH1 0x1 ADD PUSH2 0x22FE JUMP JUMPDEST POP PUSH0 JUMPDEST PUSH1 0x4 DUP2 LT ISZERO PUSH2 0x225D JUMPI PUSH2 0x2375 DUP4 DUP3 PUSH1 0x4 DUP2 LT PUSH2 0x2353 JUMPI PUSH2 0x2353 PUSH2 0x2691 JUMP JUMPDEST PUSH1 0x20 MUL ADD MLOAD DUP6 DUP4 PUSH1 0x4 DUP2 LT PUSH2 0x236A JUMPI PUSH2 0x236A PUSH2 0x2691 JUMP JUMPDEST PUSH1 0x20 MUL ADD MLOAD SWAP1 PUSH2 0x23C1 JUMP JUMPDEST DUP5 DUP3 PUSH1 0x4 DUP2 LT PUSH2 0x2387 JUMPI PUSH2 0x2387 PUSH2 0x2691 JUMP JUMPDEST PUSH1 0x20 MUL ADD MSTORE PUSH2 0x23A2 DUP3 DUP6 DUP4 PUSH1 0x4 DUP2 LT PUSH2 0x2083 JUMPI PUSH2 0x2083 PUSH2 0x2691 JUMP JUMPDEST DUP5 DUP3 PUSH1 0x4 DUP2 LT PUSH2 0x23B4 JUMPI PUSH2 0x23B4 PUSH2 0x2691 JUMP JUMPDEST PUSH1 0x20 MUL ADD MSTORE PUSH1 0x1 ADD PUSH2 0x2335 JUMP JUMPDEST PUSH0 PUSH32 0x30644E72E131A029B85045B68181585D2833E84879B9709143E1F593F0000001 DUP3 DUP5 MULMOD SWAP4 SWAP3 POP POP POP JUMP JUMPDEST PUSH1 0x40 MLOAD DUP1 PUSH1 0x40 ADD PUSH1 0x40 MSTORE DUP1 PUSH2 0x2400 PUSH2 0x2412 JUMP JUMPDEST DUP2 MSTORE PUSH1 0x20 ADD PUSH2 0x240D PUSH2 0x2430 JUMP JUMPDEST SWAP1 MSTORE SWAP1 JUMP JUMPDEST PUSH1 0x40 MLOAD DUP1 PUSH1 0x80 ADD PUSH1 0x40 MSTORE DUP1 PUSH1 0x4 SWAP1 PUSH1 0x20 DUP3 MUL DUP1 CALLDATASIZE DUP4 CALLDATACOPY POP SWAP2 SWAP3 SWAP2 POP POP JUMP JUMPDEST PUSH1 0x40 MLOAD DUP1 PUSH2 0x800 ADD PUSH1 0x40 MSTORE DUP1 PUSH1 0x40 SWAP1 JUMPDEST PUSH2 0x2448 PUSH2 0x2412 JUMP JUMPDEST DUP2 MSTORE PUSH1 0x20 ADD SWAP1 PUSH1 0x1 SWAP1 SUB SWAP1 DUP2 PUSH2 0x2440 JUMPI SWAP1 POP POP SWAP1 JUMP JUMPDEST PUSH0 PUSH1 0x20 DUP3 DUP5 SUB SLT ISZERO PUSH2 0x246E JUMPI PUSH0 PUSH0 REVERT JUMPDEST POP CALLDATALOAD SWAP2 SWAP1 POP JUMP JUMPDEST PUSH0 PUSH0 DUP4 PUSH1 0x1F DUP5 ADD SLT PUSH2 0x2485 JUMPI PUSH0 PUSH0 REVERT JUMPDEST POP DUP2 CALLDATALOAD PUSH8 0xFFFFFFFFFFFFFFFF DUP2 GT ISZERO PUSH2 0x249C JUMPI PUSH0 PUSH0 REVERT JUMPDEST PUSH1 0x20 DUP4 ADD SWAP2 POP DUP4 PUSH1 0x20 DUP3 DUP6 ADD ADD GT ISZERO PUSH2 0x24B3 JUMPI PUSH0 PUSH0 REVERT JUMPDEST SWAP3 POP SWAP3 SWAP1 POP JUMP JUMPDEST PUSH0 PUSH0 PUSH0 PUSH0 PUSH0 PUSH1 0x80 DUP7 DUP9 SUB SLT ISZERO PUSH2 0x24CE JUMPI PUSH0 PUSH0 REVERT JUMPDEST DUP6 CALLDATALOAD SWAP5 POP PUSH1 0x20 DUP7 ADD CALLDATALOAD SWAP4 POP PUSH1 0x40 DUP7 ADD CALLDATALOAD SWAP3 POP PUSH1 0x60 DUP7 ADD CALLDATALOAD PUSH8 0xFFFFFFFFFFFFFFFF DUP2 GT ISZERO PUSH2 0x24F9 JUMPI PUSH0 PUSH0 REVERT JUMPDEST PUSH2 0x2505 DUP9 DUP3 DUP10 ADD PUSH2 0x2475 JUMP JUMPDEST SWAP7 SWAP10 SWAP6 SWAP9 POP SWAP4 SWAP7 POP SWAP3 SWAP5 SWAP4 SWAP3 POP POP POP JUMP JUMPDEST PUSH0 PUSH0 PUSH0 PUSH0 PUSH0 PUSH0 PUSH1 0xA0 DUP8 DUP10 SUB SLT ISZERO PUSH2 0x252B JUMPI PUSH0 PUSH0 REVERT JUMPDEST DUP7 CALLDATALOAD SWAP6 POP PUSH1 0x20 DUP8 ADD CALLDATALOAD SWAP5 POP PUSH1 0x40 DUP8 ADD CALLDATALOAD PUSH1 0x1 PUSH1 0x1 PUSH1 0xA0 SHL SUB DUP2 AND DUP2 EQ PUSH2 0x254F JUMPI PUSH0 PUSH0 REVERT JUMPDEST SWAP4 POP PUSH1 0x60 DUP8 ADD CALLDATALOAD SWAP3 POP PUSH1 0x80 DUP8 ADD CALLDATALOAD PUSH8 0xFFFFFFFFFFFFFFFF DUP2 GT ISZERO PUSH2 0x2571 JUMPI PUSH0 PUSH0 REVERT JUMPDEST PUSH2 0x257D DUP10 DUP3 DUP11 ADD PUSH2 0x2475 JUMP JUMPDEST SWAP8 SWAP11 SWAP7 SWAP10 POP SWAP5 SWAP8 POP SWAP3 SWAP6 SWAP4 SWAP5 SWAP3 POP POP POP JUMP JUMPDEST PUSH4 0x4E487B71 PUSH1 0xE0 SHL PUSH0 MSTORE PUSH1 0x11 PUSH1 0x4 MSTORE PUSH1 0x24 PUSH0 REVERT JUMPDEST PUSH1 0x1 DUP2 JUMPDEST PUSH1 0x1 DUP5 GT ISZERO PUSH2 0x25DE JUMPI DUP1 DUP6 DIV DUP2 GT ISZERO PUSH2 0x25C2 JUMPI PUSH2 0x25C2 PUSH2 0x258F JUMP JUMPDEST PUSH1 0x1 DUP5 AND ISZERO PUSH2 0x25D0 JUMPI SWAP1 DUP2 MUL SWAP1 JUMPDEST PUSH1 0x1 SWAP4 SWAP1 SWAP4 SHR SWAP3 DUP1 MUL PUSH2 0x25A7 JUMP JUMPDEST SWAP4 POP SWAP4 SWAP2 POP POP JUMP JUMPDEST PUSH0 DUP3 PUSH2 0x25F4 JUMPI POP PUSH1 0x1 PUSH2 0x9F7 JUMP JUMPDEST DUP2 PUSH2 0x2600 JUMPI POP PUSH0 PUSH2 0x9F7 JUMP JUMPDEST DUP2 PUSH1 0x1 DUP2 EQ PUSH2 0x2616 JUMPI PUSH1 0x2 DUP2 EQ PUSH2 0x2620 JUMPI PUSH2 0x263C JUMP JUMPDEST PUSH1 0x1 SWAP2 POP POP PUSH2 0x9F7 JUMP JUMPDEST PUSH1 0xFF DUP5 GT ISZERO PUSH2 0x2631 JUMPI PUSH2 0x2631 PUSH2 0x258F JUMP JUMPDEST POP POP PUSH1 0x1 DUP3 SHL PUSH2 0x9F7 JUMP JUMPDEST POP PUSH1 0x20 DUP4 LT PUSH2 0x133 DUP4 LT AND PUSH1 0x4E DUP5 LT PUSH1 0xB DUP5 LT AND OR ISZERO PUSH2 0x265F JUMPI POP DUP2 DUP2 EXP PUSH2 0x9F7 JUMP JUMPDEST PUSH2 0x266B PUSH0 NOT DUP5 DUP5 PUSH2 0x25A3 JUMP JUMPDEST DUP1 PUSH0 NOT DIV DUP3 GT ISZERO PUSH2 0x267E JUMPI PUSH2 0x267E PUSH2 0x258F JUMP JUMPDEST MUL SWAP4 SWAP3 POP POP POP JUMP JUMPDEST PUSH0 PUSH2 0x9F4 DUP4 DUP4 PUSH2 0x25E6 JUMP JUMPDEST PUSH4 0x4E487B71 PUSH1 0xE0 SHL PUSH0 MSTORE PUSH1 0x32 PUSH1 0x4 MSTORE PUSH1 0x24 PUSH0 REVERT JUMPDEST PUSH1 0x40 DUP2 MSTORE DUP3 PUSH1 0x40 DUP3 ADD MSTORE DUP3 DUP5 PUSH1 0x60 DUP4 ADD CALLDATACOPY PUSH0 PUSH1 0x60 DUP5 DUP4 ADD ADD MSTORE PUSH0 PUSH1 0x1F NOT PUSH1 0x1F DUP6 ADD AND DUP3 ADD PUSH1 0x60 DUP2 ADD PUSH1 0x60 DUP5 DUP4 SUB ADD PUSH1 0x20 DUP6 ADD MSTORE DUP1 DUP6 MLOAD DUP1 DUP4 MSTORE PUSH1 0x80 DUP5 ADD SWAP2 POP PUSH1 0x20 DUP8 ADD SWAP4 POP PUSH0 SWAP3 POP JUMPDEST DUP1 DUP4 LT ISZERO PUSH2 0x2711 JUMPI DUP4 MLOAD DUP3 MSTORE PUSH1 0x20 DUP3 ADD SWAP2 POP PUSH1 0x20 DUP5 ADD SWAP4 POP PUSH1 0x1 DUP4 ADD SWAP3 POP PUSH2 0x26EE JUMP JUMPDEST POP SWAP8 SWAP7 POP POP POP POP POP POP POP JUMP JUMPDEST PUSH0 PUSH1 0x20 DUP3 DUP5 SUB SLT ISZERO PUSH2 0x272D JUMPI PUSH0 PUSH0 REVERT JUMPDEST DUP2 MLOAD DUP1 ISZERO ISZERO DUP2 EQ PUSH2 0x22F4 JUMPI PUSH0 PUSH0 REVERT JUMPDEST PUSH4 0x4E487B71 PUSH1 0xE0 SHL PUSH0 MSTORE PUSH1 0x12 PUSH1 0x4 MSTORE PUSH1 0x24 PUSH0 REVERT JUMPDEST PUSH0 DUP3 PUSH2 0x275E JUMPI PUSH2 0x275E PUSH2 0x273C JUMP JUMPDEST POP MOD SWAP1 JUMP JUMPDEST PUSH0 DUP3 PUSH2 0x2771 JUMPI PUSH2 0x2771 PUSH2 0x273C JUMP JUMPDEST POP DIV SWAP1 JUMP JUMPDEST DUP1 DUP3 ADD DUP1 DUP3 GT ISZERO PUSH2 0x9F7 JUMPI PUSH2 0x9F7 PUSH2 0x258F JUMP INVALID LOG2 PUSH5 0x6970667358 0x22 SLT KECCAK256 0xAF 0xDA 0xBB 0xCB SUB MSIZE PUSH10 0x9C6EA4D0D73D94911F9B 0xB9 DUP11 JUMPDEST 0xAE AND SWAP4 TIMESTAMP EQ DUP7 0x28 0xE6 0xD9 PUSH31 0xBB1064736F6C634300081B003330644E72E131A029B85045B68181585D2833 0xE8 BASEFEE PUSH26 0xB9709143E1F593F0000001000000000000000000000000000000 "},"methodIdentifiers":{"MAX_LEAVES()":"082febf0","TREE_DEPTH()":"f1650536","filledSubtrees(uint256)":"f178e47c","getCommitmentCount()":"5688881f","getMerkleRoot()":"49590657","isNullifierSpent(bytes32)":"d5a4e325","nextLeafIndex()":"0be4f422","nullifiers(bytes32)":"2997e86b","privateTransfer(bytes32,bytes32,bytes32,bytes)":"41eed011","root()":"ebf0c717","shield(bytes32)":"26123548","unshield(bytes32,bytes32,address,uint256,bytes)":"b435890b","verifier()":"2b7ac3f3","zeroHashes(uint256)":"7ac54767"}}}}}