{"contracts/Verifier.sol":{"ZKTranscriptLib":{"abi":[{"inputs":[{"components":[{"internalType":"Fr[16]","name":"pairingPointObject","type":"uint256[16]"},{"components":[{"internalType":"uint256","name":"x","type":"uint256"},{"internalType":"uint256","name":"y","type":"uint256"}],"internalType":"struct Honk.G1Point","name":"geminiMaskingPoly","type":"tuple"},{"components":[{"internalType":"uint256","name":"x","type":"uint256"},{"internalType":"uint256","name":"y","type":"uint256"}],"internalType":"struct Honk.G1Point","name":"w1","type":"tuple"},{"components":[{"internalType":"uint256","name":"x","type":"uint256"},{"internalType":"uint256","name":"y","type":"uint256"}],"internalType":"struct Honk.G1Point","name":"w2","type":"tuple"},{"components":[{"internalType":"uint256","name":"x","type":"uint256"},{"internalType":"uint256","name":"y","type":"uint256"}],"internalType":"struct Honk.G1Point","name":"w3","type":"tuple"},{"components":[{"internalType":"uint256","name":"x","type":"uint256"},{"internalType":"uint256","name":"y","type":"uint256"}],"internalType":"struct Honk.G1Point","name":"w4","type":"tuple"},{"components":[{"internalType":"uint256","name":"x","type":"uint256"},{"internalType":"uint256","name":"y","type":"uint256"}],"internalType":"struct Honk.G1Point","name":"lookupReadCounts","type":"tuple"},{"components":[{"internalType":"uint256","name":"x","type":"uint256"},{"internalType":"uint256","name":"y","type":"uint256"}],"internalType":"struct Honk.G1Point","name":"lookupReadTags","type":"tuple"},{"components":[{"internalType":"uint256","name":"x","type":"uint256"},{"internalType":"uint256","name":"y","type":"uint256"}],"internalType":"struct Honk.G1Point","name":"lookupInverses","type":"tuple"},{"components":[{"internalType":"uint256","name":"x","type":"uint256"},{"internalType":"uint256","name":"y","type":"uint256"}],"internalType":"struct Honk.G1Point","name":"zPerm","type":"tuple"},{"components":[{"internalType":"uint256","name":"x","type":"uint256"},{"internalType":"uint256","name":"y","type":"uint256"}],"internalType":"struct Honk.G1Point[3]","name":"libraCommitments","type":"tuple[3]"},{"internalType":"Fr","name":"libraSum","type":"uint256"},{"internalType":"Fr[9][28]","name":"sumcheckUnivariates","type":"uint256[9][28]"},{"internalType":"Fr","name":"libraEvaluation","type":"uint256"},{"internalType":"Fr[42]","name":"sumcheckEvaluations","type":"uint256[42]"},{"components":[{"internalType":"uint256","name":"x","type":"uint256"},{"internalType":"uint256","name":"y","type":"uint256"}],"internalType":"struct Honk.G1Point[27]","name":"geminiFoldComms","type":"tuple[27]"},{"internalType":"Fr[28]","name":"geminiAEvaluations","type":"uint256[28]"},{"internalType":"Fr[4]","name":"libraPolyEvals","type":"uint256[4]"},{"components":[{"internalType":"uint256","name":"x","type":"uint256"},{"internalType":"uint256","name":"y","type":"uint256"}],"internalType":"struct Honk.G1Point","name":"shplonkQ","type":"tuple"},{"components":[{"internalType":"uint256","name":"x","type":"uint256"},{"internalType":"uint256","name":"y","type":"uint256"}],"internalType":"struct Honk.G1Point","name":"kzgQuotient","type":"tuple"}],"internalType":"struct Honk.ZKProof","name":"proof","type":"tuple"},{"internalType":"bytes32[]","name":"publicInputs","type":"bytes32[]"},{"internalType":"uint256","name":"vkHash","type":"uint256"},{"internalType":"uint256","name":"publicInputsSize","type":"uint256"},{"internalType":"uint256","name":"logN","type":"uint256"}],"name":"generateTranscript","outputs":[{"components":[{"components":[{"internalType":"Fr","name":"eta","type":"uint256"},{"internalType":"Fr","name":"etaTwo","type":"uint256"},{"internalType":"Fr","name":"etaThree","type":"uint256"},{"internalType":"Fr","name":"beta","type":"uint256"},{"internalType":"Fr","name":"gamma","type":"uint256"},{"internalType":"Fr","name":"publicInputsDelta","type":"uint256"}],"internalType":"struct Honk.RelationParameters","name":"relationParameters","type":"tuple"},{"internalType":"Fr[27]","name":"alphas","type":"uint256[27]"},{"internalType":"Fr[28]","name":"gateChallenges","type":"uint256[28]"},{"internalType":"Fr","name":"libraChallenge","type":"uint256"},{"internalType":"Fr[28]","name":"sumCheckUChallenges","type":"uint256[28]"},{"internalType":"Fr","name":"rho","type":"uint256"},{"internalType":"Fr","name":"geminiR","type":"uint256"},{"internalType":"Fr","name":"shplonkNu","type":"uint256"},{"internalType":"Fr","name":"shplonkZ","type":"uint256"},{"internalType":"Fr","name":"publicInputsDelta","type":"uint256"}],"internalType":"struct ZKTranscript","name":"t","type":"tuple"}],"stateMutability":"pure","type":"function"}],"evm":{"bytecode":{"linkReferences":{},"object":"611757610034600b8282823980515f1a607314602857634e487b7160e01b5f525f60045260245ffd5b305f52607381538281f3fe7300000000000000000000000000000000000000003014608060405260043610610034575f3560e01c8063995bf45714610038575b5f5ffd5b61004b61004636600461124e565b610061565b6040516100589190611485565b60405180910390f35b610069610db1565b5f610078888888888886610128565b908352905061008781896101a7565b6020840191909152905061009b81846102b8565b604084019190915290506100af8189610361565b606084019190915290506100c48882856103c2565b608084019190915290506100d88882610491565b60a084019190915290506100ed888285610617565b60c0840191909152905061010288828561078a565b60e08401919091529050610116888261090d565b50610100830152509695505050505050565b61015b6040518060c001604052805f81526020015f81526020015f81526020015f81526020015f81526020015f81525090565b5f610169888888888861094a565b6040860191909152602085019190915290835292506101888389610cb9565b6080850191909152606084019190915291989197509095505050505050565b6101af610e41565b5f6101b8610e60565b84815261010084018051516020808401919091529051810151604080840191909152610120860180515160608501525182015160808401525161023d916102019184910161155a565b604051602081830303815290604052805190602001207f30644e72e131a029b85045b68181585d2833e84879b9709143e1f593f0000001900690565b91505f61024983610d41565b50808552905060015b61025e6001601c6115a1565b8110156102ae5761028f856102746001846115a1565b601b811061028457610284611546565b602002015183610d83565b8582601b81106102a1576102a1611546565b6020020152600101610252565b5050509250929050565b6102c0610e7e565b5f6102d78460405160200161020191815260200190565b93506102e284610d41565b50825260015b838110156103595761033a836102ff6001846115a1565b601c811061030f5761030f611546565b6020020151846103206001856115a1565b601c811061033057610330611546565b6020020151610d83565b8382601c811061034c5761034c611546565b60200201526001016102e8565b509093915050565b5f5f61036b610e9d565b8481526101408401805151516020808401919091529051518101516040808401919091526101608601516060840152516103ab91610201918491016115b4565b91506103b682610d41565b50959194509092505050565b6103ca610e7e565b5f805b83811015610487576103dd610ebb565b8581525f5b60098110156104465787610180015183601c811061040257610402611546565b6020020151816009811061041857610418611546565b6020020151826104298360016115e7565b600a811061043957610439611546565b60200201526001016103e2565b5061045b8160405160200161020191906115fa565b955061046686610d41565b508483601c811061047957610479611546565b6020020152506001016103cd565b5090949293505050565b5f5f61049b610eda565b83815260015b6104ad600160296115e7565b8111610502576101c08601516104c46001836115a1565b602a81106104d4576104d4611546565b60200201518282603081106104eb576104eb611546565b6020020152806104fa8161162e565b9150506104a1565b856101a0015182826030811061051a5761051a611546565b602002015261052a6001826115e7565b610140870151602001515190915082826030811061054a5761054a611546565b602002015261014086015160016020020151602001518282600161056e91906115e7565b6030811061057e5761057e611546565b602002015261058e6002826115e7565b61014087015160400151519091508282603081106105ae576105ae611546565b60200201526101408601516002602002015160200151828260016105d291906115e7565b603081106105e2576105e2611546565b6020020181815250506105ff826040516020016102019190611646565b925061060a83610d41565b5096929550919350505050565b5f80806106256001856115a1565b61063090600261167a565b61063b9060016115e7565b67ffffffffffffffff81111561065357610653610f35565b60405190808252806020026020018201604052801561067c578160200160208202803683370190505b50905084815f8151811061069257610692611546565b60209081029190910101525f5b6106aa6001866115a1565b81101561075d57866101e0015181601b81106106c8576106c8611546565b602002015151826106da83600261167a565b6106e59060016115e7565b815181106106f5576106f5611546565b602002602001018181525050866101e0015181601b811061071857610718611546565b6020020151602001518282600261072f919061167a565b61073a9060026115e7565b8151811061074a5761074a611546565b602090810291909101015260010161069f565b50610772816040516020016102019190611691565b915061077d82610d41565b5096919550909350505050565b5f80806107988460016115e7565b6107a39060046115e7565b67ffffffffffffffff8111156107bb576107bb610f35565b6040519080825280602002602001820160405280156107e4578160200160208202803683370190505b50905084815f815181106107fa576107fa611546565b602090810291909101015260015b848111610864576102008701516108206001836115a1565b601c811061083057610830611546565b602002015182828151811061084757610847611546565b60209081029190910101528061085c8161162e565b915050610808565b505f806108728660016115e7565b90505b6108808660046115e7565b81116108df57876102200151826004811061089d5761089d611546565b60200201518382815181106108b4576108b4611546565b6020908102919091010152816108c98161162e565b92505080806108d79061162e565b915050610875565b506108f4826040516020016102019190611691565b92506108ff83610d41565b509792965091945050505050565b5f5f610917610ef9565b83815261024085018051516020808401919091529051810151604080840191909152516103ab91610201918491016116bb565b5f8080808061095a8660016115e7565b6109659060086115e7565b67ffffffffffffffff81111561097d5761097d610f35565b6040519080825280602002602001820160405280156109a6578160200160208202803683370190505b509050865f1b815f815181106109be576109be611546565b60209081029190910101525f5b6109d66010886115a1565b811015610a27578989828181106109ef576109ef611546565b9050602002013582826001610a0491906115e7565b81518110610a1457610a14611546565b60209081029190910101526001016109cb565b505f5b6010811015610a98578a51610a52908260108110610a4a57610a4a611546565b602002015190565b82826010610a618b60016115e7565b610a6b91906115a1565b610a7591906115e7565b81518110610a8557610a85611546565b6020908102919091010152600101610a2a565b5060208a01515181610aab8860016115e7565b81518110610abb57610abb611546565b6020908102919091018101919091528a810151015181610adc8860016115e7565b610ae79060016115e7565b81518110610af757610af7611546565b602090810291909101015260408a01515181610b148860016115e7565b610b1f9060026115e7565b81518110610b2f57610b2f611546565b60209081029190910181019190915260408b0151015181610b518860016115e7565b610b5c9060036115e7565b81518110610b6c57610b6c611546565b602090810291909101015260608a01515181610b898860016115e7565b610b949060046115e7565b81518110610ba457610ba4611546565b60209081029190910181019190915260608b0151015181610bc68860016115e7565b610bd19060056115e7565b81518110610be157610be1611546565b602090810291909101015260808a01515181610bfe8860016115e7565b610c099060066115e7565b81518110610c1957610c19611546565b60209081029190910181019190915260808b0151015181610c3b8860016115e7565b610c469060076115e7565b81518110610c5657610c56611546565b602002602001018181525050610c76816040516020016102019190611691565b9150610c8182610d41565b6040805160208101869052929750909550610c9c9101610201565b9150610ca782610d41565b50809350505095509550955095915050565b5f5f5f610cc4610f17565b85815260c0858101805151602080850191909152905181015160408085019190915260e08801805151606086015251820151608085015260a08089018051519186019190915251820151928401929092529051610d2791610201918491016116ee565b9150610d3282610d41565b90979096509194509092505050565b7f30644e72e131a029b85045b68181585d2833e84879b9709143e1f593f00000016f7fffffffffffffffffffffffffffffff821681900692607f9290921c0690565b5f7f30644e72e131a029b85045b68181585d2833e84879b9709143e1f593f000000182840990505b92915050565b604051806101400160405280610df06040518060c001604052805f81526020015f81526020015f81526020015f81526020015f81526020015f81525090565b8152602001610dfd610e41565b8152602001610e0a610e7e565b81526020015f8152602001610e1d610e7e565b81526020015f81526020015f81526020015f81526020015f81526020015f81525090565b604051806103600160405280601b906020820280368337509192915050565b6040518060a001604052806005906020820280368337509192915050565b604051806103800160405280601c906020820280368337509192915050565b60405180608001604052806004906020820280368337509192915050565b604051806101400160405280600a906020820280368337509192915050565b6040518061060001604052806030906020820280368337509192915050565b60405180606001604052806003906020820280368337509192915050565b6040518060e001604052806007906020820280368337509192915050565b634e487b7160e01b5f52604160045260245ffd5b604051610280810167ffffffffffffffff81118282101715610f6d57610f6d610f35565b60405290565b604051601f8201601f1916810167ffffffffffffffff81118282101715610f9c57610f9c610f35565b604052919050565b5f82601f830112610fb3575f5ffd5b5f610200610fc081610f73565b915083018185821115610fd1575f5ffd5b845b82811015610feb578035825260209182019101610fd3565b509195945050505050565b5f60408284031215611006575f5ffd5b6040805190810167ffffffffffffffff8111828210171561102957611029610f35565b604052823581526020928301359281019290925250919050565b5f82601f830112611052575f5ffd5b5f61105d6060610f73565b90508060c0840185811115611070575f5ffd5b845b81811015610feb576110848782610ff6565b8352602090920191604001611072565b5f82601f8301126110a3575f5ffd5b6103806110af81610f73565b905080611f808401858111156110c3575f5ffd5b845b818110156111275786601f8201126110db575f5ffd5b5f6101206110e881610f73565b9150820181898211156110f9575f5ffd5b835b828110156111135780358252602091820191016110fb565b5050508452602090930192610120016110c5565b509095945050505050565b5f82601f830112611141575f5ffd5b5f610540610fc081610f73565b5f82601f83011261115d575f5ffd5b5f61036061116a81610f73565b915050806106c084018581111561117f575f5ffd5b845b81811015610feb576111938782610ff6565b8352602090920191604001611181565b5f82601f8301126111b2575f5ffd5b5f610380610fc081610f73565b5f82601f8301126111ce575f5ffd5b5f6111d96080610f73565b90508060808401858111156111ec575f5ffd5b845b81811015610feb5780358352602092830192016111ee565b5f5f83601f840112611216575f5ffd5b50813567ffffffffffffffff81111561122d575f5ffd5b6020830191508360208260051b8501011115611247575f5ffd5b9250929050565b5f5f5f5f5f5f8688036135c0811215611265575f5ffd5b613540811215611273575f5ffd5b5061127c610f49565b6112868989610fa4565b8152611296896102008a01610ff6565b60208201526112a9896102408a01610ff6565b60408201526112bc896102808a01610ff6565b60608201526112cf896102c08a01610ff6565b60808201526112e2896103008a01610ff6565b60a08201526112f5896103408a01610ff6565b60c0820152611308896103808a01610ff6565b60e082015261131b896103c08a01610ff6565b61010082015261132f896104008a01610ff6565b610120820152611343896104408a01611043565b610140820152610500880135610160820152611363896105208a01611094565b6101808201526124a08801356101a0820152611383896124c08a01611132565b6101c082015261139789612a008a0161114e565b6101e08201526113ab896130c08a016111a3565b6102008201526113bf896134408a016111bf565b6102208201526113d3896134c08a01610ff6565b6102408201526113e7896135008a01610ff6565b610260820152955061354087013567ffffffffffffffff811115611409575f5ffd5b61141589828a01611206565b979a90995096976135608101359761358082013597506135a09091013595509350505050565b805f5b601b81101561145d57815184526020938401939091019060010161143e565b50505050565b805f5b601c81101561145d578151845260209384019390910190600101611466565b8151805182526020808201519083015260408082015190830152606080820151908301526080808201519083015260a09081015190820152610be0810160208301516114d460c084018261143b565b5060408301516114e8610420840182611463565b5060608301516107a083015260808301516115076107c0840182611463565b5060a0830151610b4083015260c0830151610b6083015260e0830151610b80830152610100830151610ba083015261012090920151610bc09091015290565b634e487b7160e01b5f52603260045260245ffd5b5f8183825b600581101561157e57815183526020928301929091019060010161155f565b50505060a08201905092915050565b634e487b7160e01b5f52601160045260245ffd5b81810381811115610dab57610dab61158d565b5f8183825b60048110156115d85781518352602092830192909101906001016115b9565b50505060808201905092915050565b80820180821115610dab57610dab61158d565b5f8183825b600a81101561161e5781518352602092830192909101906001016115ff565b5050506101408201905092915050565b5f6001820161163f5761163f61158d565b5060010190565b5f8183825b603081101561166a57815183526020928301929091019060010161164b565b5050506106008201905092915050565b8082028115828204841417610dab57610dab61158d565b81515f90829060208501835b82811015610feb57815184526020938401939091019060010161169d565b5f8183825b60038110156116df5781518352602092830192909101906001016116c0565b50505060608201905092915050565b5f8183825b60078110156117125781518352602092830192909101906001016116f3565b50505060e0820190509291505056fea26469706673582212202654ac4d9364f3e0fccc72728409887187993a4aa8076e320302843b099e5c3e64736f6c634300081b0033","opcodes":"PUSH2 0x1757 PUSH2 0x34 PUSH1 0xB DUP3 DUP3 DUP3 CODECOPY DUP1 MLOAD PUSH0 BYTE PUSH1 0x73 EQ PUSH1 0x28 JUMPI PUSH4 0x4E487B71 PUSH1 0xE0 SHL PUSH0 MSTORE PUSH0 PUSH1 0x4 MSTORE PUSH1 0x24 PUSH0 REVERT JUMPDEST ADDRESS PUSH0 MSTORE PUSH1 0x73 DUP2 MSTORE8 DUP3 DUP2 RETURN INVALID PUSH20 0x0 ADDRESS EQ PUSH1 0x80 PUSH1 0x40 MSTORE PUSH1 0x4 CALLDATASIZE LT PUSH2 0x34 JUMPI PUSH0 CALLDATALOAD PUSH1 0xE0 SHR DUP1 PUSH4 0x995BF457 EQ PUSH2 0x38 JUMPI JUMPDEST PUSH0 PUSH0 REVERT JUMPDEST PUSH2 0x4B PUSH2 0x46 CALLDATASIZE PUSH1 0x4 PUSH2 0x124E JUMP JUMPDEST PUSH2 0x61 JUMP JUMPDEST PUSH1 0x40 MLOAD PUSH2 0x58 SWAP2 SWAP1 PUSH2 0x1485 JUMP JUMPDEST PUSH1 0x40 MLOAD DUP1 SWAP2 SUB SWAP1 RETURN JUMPDEST PUSH2 0x69 PUSH2 0xDB1 JUMP JUMPDEST PUSH0 PUSH2 0x78 DUP9 DUP9 DUP9 DUP9 DUP9 DUP7 PUSH2 0x128 JUMP JUMPDEST SWAP1 DUP4 MSTORE SWAP1 POP PUSH2 0x87 DUP2 DUP10 PUSH2 0x1A7 JUMP JUMPDEST PUSH1 0x20 DUP5 ADD SWAP2 SWAP1 SWAP2 MSTORE SWAP1 POP PUSH2 0x9B DUP2 DUP5 PUSH2 0x2B8 JUMP JUMPDEST PUSH1 0x40 DUP5 ADD SWAP2 SWAP1 SWAP2 MSTORE SWAP1 POP PUSH2 0xAF DUP2 DUP10 PUSH2 0x361 JUMP JUMPDEST PUSH1 0x60 DUP5 ADD SWAP2 SWAP1 SWAP2 MSTORE SWAP1 POP PUSH2 0xC4 DUP9 DUP3 DUP6 PUSH2 0x3C2 JUMP JUMPDEST PUSH1 0x80 DUP5 ADD SWAP2 SWAP1 SWAP2 MSTORE SWAP1 POP PUSH2 0xD8 DUP9 DUP3 PUSH2 0x491 JUMP JUMPDEST PUSH1 0xA0 DUP5 ADD SWAP2 SWAP1 SWAP2 MSTORE SWAP1 POP PUSH2 0xED DUP9 DUP3 DUP6 PUSH2 0x617 JUMP JUMPDEST PUSH1 0xC0 DUP5 ADD SWAP2 SWAP1 SWAP2 MSTORE SWAP1 POP PUSH2 0x102 DUP9 DUP3 DUP6 PUSH2 0x78A JUMP JUMPDEST PUSH1 0xE0 DUP5 ADD SWAP2 SWAP1 SWAP2 MSTORE SWAP1 POP PUSH2 0x116 DUP9 DUP3 PUSH2 0x90D JUMP JUMPDEST POP PUSH2 0x100 DUP4 ADD MSTORE POP SWAP7 SWAP6 POP POP POP POP POP POP JUMP JUMPDEST PUSH2 0x15B PUSH1 0x40 MLOAD DUP1 PUSH1 0xC0 ADD PUSH1 0x40 MSTORE DUP1 PUSH0 DUP2 MSTORE PUSH1 0x20 ADD PUSH0 DUP2 MSTORE PUSH1 0x20 ADD PUSH0 DUP2 MSTORE PUSH1 0x20 ADD PUSH0 DUP2 MSTORE PUSH1 0x20 ADD PUSH0 DUP2 MSTORE PUSH1 0x20 ADD PUSH0 DUP2 MSTORE POP SWAP1 JUMP JUMPDEST PUSH0 PUSH2 0x169 DUP9 DUP9 DUP9 DUP9 DUP9 PUSH2 0x94A JUMP JUMPDEST PUSH1 0x40 DUP7 ADD SWAP2 SWAP1 SWAP2 MSTORE PUSH1 0x20 DUP6 ADD SWAP2 SWAP1 SWAP2 MSTORE SWAP1 DUP4 MSTORE SWAP3 POP PUSH2 0x188 DUP4 DUP10 PUSH2 0xCB9 JUMP JUMPDEST PUSH1 0x80 DUP6 ADD SWAP2 SWAP1 SWAP2 MSTORE PUSH1 0x60 DUP5 ADD SWAP2 SWAP1 SWAP2 MSTORE SWAP2 SWAP9 SWAP2 SWAP8 POP SWAP1 SWAP6 POP POP POP POP POP POP JUMP JUMPDEST PUSH2 0x1AF PUSH2 0xE41 JUMP JUMPDEST PUSH0 PUSH2 0x1B8 PUSH2 0xE60 JUMP JUMPDEST DUP5 DUP2 MSTORE PUSH2 0x100 DUP5 ADD DUP1 MLOAD MLOAD PUSH1 0x20 DUP1 DUP5 ADD SWAP2 SWAP1 SWAP2 MSTORE SWAP1 MLOAD DUP2 ADD MLOAD PUSH1 0x40 DUP1 DUP5 ADD SWAP2 SWAP1 SWAP2 MSTORE PUSH2 0x120 DUP7 ADD DUP1 MLOAD MLOAD PUSH1 0x60 DUP6 ADD MSTORE MLOAD DUP3 ADD MLOAD PUSH1 0x80 DUP5 ADD MSTORE MLOAD PUSH2 0x23D SWAP2 PUSH2 0x201 SWAP2 DUP5 SWAP2 ADD PUSH2 0x155A JUMP JUMPDEST PUSH1 0x40 MLOAD PUSH1 0x20 DUP2 DUP4 SUB SUB DUP2 MSTORE SWAP1 PUSH1 0x40 MSTORE DUP1 MLOAD SWAP1 PUSH1 0x20 ADD KECCAK256 PUSH32 0x30644E72E131A029B85045B68181585D2833E84879B9709143E1F593F0000001 SWAP1 MOD SWAP1 JUMP JUMPDEST SWAP2 POP PUSH0 PUSH2 0x249 DUP4 PUSH2 0xD41 JUMP JUMPDEST POP DUP1 DUP6 MSTORE SWAP1 POP PUSH1 0x1 JUMPDEST PUSH2 0x25E PUSH1 0x1 PUSH1 0x1C PUSH2 0x15A1 JUMP JUMPDEST DUP2 LT ISZERO PUSH2 0x2AE JUMPI PUSH2 0x28F DUP6 PUSH2 0x274 PUSH1 0x1 DUP5 PUSH2 0x15A1 JUMP JUMPDEST PUSH1 0x1B DUP2 LT PUSH2 0x284 JUMPI PUSH2 0x284 PUSH2 0x1546 JUMP JUMPDEST PUSH1 0x20 MUL ADD MLOAD DUP4 PUSH2 0xD83 JUMP JUMPDEST DUP6 DUP3 PUSH1 0x1B DUP2 LT PUSH2 0x2A1 JUMPI PUSH2 0x2A1 PUSH2 0x1546 JUMP JUMPDEST PUSH1 0x20 MUL ADD MSTORE PUSH1 0x1 ADD PUSH2 0x252 JUMP JUMPDEST POP POP POP SWAP3 POP SWAP3 SWAP1 POP JUMP JUMPDEST PUSH2 0x2C0 PUSH2 0xE7E JUMP JUMPDEST PUSH0 PUSH2 0x2D7 DUP5 PUSH1 0x40 MLOAD PUSH1 0x20 ADD PUSH2 0x201 SWAP2 DUP2 MSTORE PUSH1 0x20 ADD SWAP1 JUMP JUMPDEST SWAP4 POP PUSH2 0x2E2 DUP5 PUSH2 0xD41 JUMP JUMPDEST POP DUP3 MSTORE PUSH1 0x1 JUMPDEST DUP4 DUP2 LT ISZERO PUSH2 0x359 JUMPI PUSH2 0x33A DUP4 PUSH2 0x2FF PUSH1 0x1 DUP5 PUSH2 0x15A1 JUMP JUMPDEST PUSH1 0x1C DUP2 LT PUSH2 0x30F JUMPI PUSH2 0x30F PUSH2 0x1546 JUMP JUMPDEST PUSH1 0x20 MUL ADD MLOAD DUP5 PUSH2 0x320 PUSH1 0x1 DUP6 PUSH2 0x15A1 JUMP JUMPDEST PUSH1 0x1C DUP2 LT PUSH2 0x330 JUMPI PUSH2 0x330 PUSH2 0x1546 JUMP JUMPDEST PUSH1 0x20 MUL ADD MLOAD PUSH2 0xD83 JUMP JUMPDEST DUP4 DUP3 PUSH1 0x1C DUP2 LT PUSH2 0x34C JUMPI PUSH2 0x34C PUSH2 0x1546 JUMP JUMPDEST PUSH1 0x20 MUL ADD MSTORE PUSH1 0x1 ADD PUSH2 0x2E8 JUMP JUMPDEST POP SWAP1 SWAP4 SWAP2 POP POP JUMP JUMPDEST PUSH0 PUSH0 PUSH2 0x36B PUSH2 0xE9D JUMP JUMPDEST DUP5 DUP2 MSTORE PUSH2 0x140 DUP5 ADD DUP1 MLOAD MLOAD MLOAD PUSH1 0x20 DUP1 DUP5 ADD SWAP2 SWAP1 SWAP2 MSTORE SWAP1 MLOAD MLOAD DUP2 ADD MLOAD PUSH1 0x40 DUP1 DUP5 ADD SWAP2 SWAP1 SWAP2 MSTORE PUSH2 0x160 DUP7 ADD MLOAD PUSH1 0x60 DUP5 ADD MSTORE MLOAD PUSH2 0x3AB SWAP2 PUSH2 0x201 SWAP2 DUP5 SWAP2 ADD PUSH2 0x15B4 JUMP JUMPDEST SWAP2 POP PUSH2 0x3B6 DUP3 PUSH2 0xD41 JUMP JUMPDEST POP SWAP6 SWAP2 SWAP5 POP SWAP1 SWAP3 POP POP POP JUMP JUMPDEST PUSH2 0x3CA PUSH2 0xE7E JUMP JUMPDEST PUSH0 DUP1 JUMPDEST DUP4 DUP2 LT ISZERO PUSH2 0x487 JUMPI PUSH2 0x3DD PUSH2 0xEBB JUMP JUMPDEST DUP6 DUP2 MSTORE PUSH0 JUMPDEST PUSH1 0x9 DUP2 LT ISZERO PUSH2 0x446 JUMPI DUP8 PUSH2 0x180 ADD MLOAD DUP4 PUSH1 0x1C DUP2 LT PUSH2 0x402 JUMPI PUSH2 0x402 PUSH2 0x1546 JUMP JUMPDEST PUSH1 0x20 MUL ADD MLOAD DUP2 PUSH1 0x9 DUP2 LT PUSH2 0x418 JUMPI PUSH2 0x418 PUSH2 0x1546 JUMP JUMPDEST PUSH1 0x20 MUL ADD MLOAD DUP3 PUSH2 0x429 DUP4 PUSH1 0x1 PUSH2 0x15E7 JUMP JUMPDEST PUSH1 0xA DUP2 LT PUSH2 0x439 JUMPI PUSH2 0x439 PUSH2 0x1546 JUMP JUMPDEST PUSH1 0x20 MUL ADD MSTORE PUSH1 0x1 ADD PUSH2 0x3E2 JUMP JUMPDEST POP PUSH2 0x45B DUP2 PUSH1 0x40 MLOAD PUSH1 0x20 ADD PUSH2 0x201 SWAP2 SWAP1 PUSH2 0x15FA JUMP JUMPDEST SWAP6 POP PUSH2 0x466 DUP7 PUSH2 0xD41 JUMP JUMPDEST POP DUP5 DUP4 PUSH1 0x1C DUP2 LT PUSH2 0x479 JUMPI PUSH2 0x479 PUSH2 0x1546 JUMP JUMPDEST PUSH1 0x20 MUL ADD MSTORE POP PUSH1 0x1 ADD PUSH2 0x3CD JUMP JUMPDEST POP SWAP1 SWAP5 SWAP3 SWAP4 POP POP POP JUMP JUMPDEST PUSH0 PUSH0 PUSH2 0x49B PUSH2 0xEDA JUMP JUMPDEST DUP4 DUP2 MSTORE PUSH1 0x1 JUMPDEST PUSH2 0x4AD PUSH1 0x1 PUSH1 0x29 PUSH2 0x15E7 JUMP JUMPDEST DUP2 GT PUSH2 0x502 JUMPI PUSH2 0x1C0 DUP7 ADD MLOAD PUSH2 0x4C4 PUSH1 0x1 DUP4 PUSH2 0x15A1 JUMP JUMPDEST PUSH1 0x2A DUP2 LT PUSH2 0x4D4 JUMPI PUSH2 0x4D4 PUSH2 0x1546 JUMP JUMPDEST PUSH1 0x20 MUL ADD MLOAD DUP3 DUP3 PUSH1 0x30 DUP2 LT PUSH2 0x4EB JUMPI PUSH2 0x4EB PUSH2 0x1546 JUMP JUMPDEST PUSH1 0x20 MUL ADD MSTORE DUP1 PUSH2 0x4FA DUP2 PUSH2 0x162E JUMP JUMPDEST SWAP2 POP POP PUSH2 0x4A1 JUMP JUMPDEST DUP6 PUSH2 0x1A0 ADD MLOAD DUP3 DUP3 PUSH1 0x30 DUP2 LT PUSH2 0x51A JUMPI PUSH2 0x51A PUSH2 0x1546 JUMP JUMPDEST PUSH1 0x20 MUL ADD MSTORE PUSH2 0x52A PUSH1 0x1 DUP3 PUSH2 0x15E7 JUMP JUMPDEST PUSH2 0x140 DUP8 ADD MLOAD PUSH1 0x20 ADD MLOAD MLOAD SWAP1 SWAP2 POP DUP3 DUP3 PUSH1 0x30 DUP2 LT PUSH2 0x54A JUMPI PUSH2 0x54A PUSH2 0x1546 JUMP JUMPDEST PUSH1 0x20 MUL ADD MSTORE PUSH2 0x140 DUP7 ADD MLOAD PUSH1 0x1 PUSH1 0x20 MUL ADD MLOAD PUSH1 0x20 ADD MLOAD DUP3 DUP3 PUSH1 0x1 PUSH2 0x56E SWAP2 SWAP1 PUSH2 0x15E7 JUMP JUMPDEST PUSH1 0x30 DUP2 LT PUSH2 0x57E JUMPI PUSH2 0x57E PUSH2 0x1546 JUMP JUMPDEST PUSH1 0x20 MUL ADD MSTORE PUSH2 0x58E PUSH1 0x2 DUP3 PUSH2 0x15E7 JUMP JUMPDEST PUSH2 0x140 DUP8 ADD MLOAD PUSH1 0x40 ADD MLOAD MLOAD SWAP1 SWAP2 POP DUP3 DUP3 PUSH1 0x30 DUP2 LT PUSH2 0x5AE JUMPI PUSH2 0x5AE PUSH2 0x1546 JUMP JUMPDEST PUSH1 0x20 MUL ADD MSTORE PUSH2 0x140 DUP7 ADD MLOAD PUSH1 0x2 PUSH1 0x20 MUL ADD MLOAD PUSH1 0x20 ADD MLOAD DUP3 DUP3 PUSH1 0x1 PUSH2 0x5D2 SWAP2 SWAP1 PUSH2 0x15E7 JUMP JUMPDEST PUSH1 0x30 DUP2 LT PUSH2 0x5E2 JUMPI PUSH2 0x5E2 PUSH2 0x1546 JUMP JUMPDEST PUSH1 0x20 MUL ADD DUP2 DUP2 MSTORE POP POP PUSH2 0x5FF DUP3 PUSH1 0x40 MLOAD PUSH1 0x20 ADD PUSH2 0x201 SWAP2 SWAP1 PUSH2 0x1646 JUMP JUMPDEST SWAP3 POP PUSH2 0x60A DUP4 PUSH2 0xD41 JUMP JUMPDEST POP SWAP7 SWAP3 SWAP6 POP SWAP2 SWAP4 POP POP POP POP JUMP JUMPDEST PUSH0 DUP1 DUP1 PUSH2 0x625 PUSH1 0x1 DUP6 PUSH2 0x15A1 JUMP JUMPDEST PUSH2 0x630 SWAP1 PUSH1 0x2 PUSH2 0x167A JUMP JUMPDEST PUSH2 0x63B SWAP1 PUSH1 0x1 PUSH2 0x15E7 JUMP JUMPDEST PUSH8 0xFFFFFFFFFFFFFFFF DUP2 GT ISZERO PUSH2 0x653 JUMPI PUSH2 0x653 PUSH2 0xF35 JUMP JUMPDEST PUSH1 0x40 MLOAD SWAP1 DUP1 DUP3 MSTORE DUP1 PUSH1 0x20 MUL PUSH1 0x20 ADD DUP3 ADD PUSH1 0x40 MSTORE DUP1 ISZERO PUSH2 0x67C JUMPI DUP2 PUSH1 0x20 ADD PUSH1 0x20 DUP3 MUL DUP1 CALLDATASIZE DUP4 CALLDATACOPY ADD SWAP1 POP JUMPDEST POP SWAP1 POP DUP5 DUP2 PUSH0 DUP2 MLOAD DUP2 LT PUSH2 0x692 JUMPI PUSH2 0x692 PUSH2 0x1546 JUMP JUMPDEST PUSH1 0x20 SWAP1 DUP2 MUL SWAP2 SWAP1 SWAP2 ADD ADD MSTORE PUSH0 JUMPDEST PUSH2 0x6AA PUSH1 0x1 DUP7 PUSH2 0x15A1 JUMP JUMPDEST DUP2 LT ISZERO PUSH2 0x75D JUMPI DUP7 PUSH2 0x1E0 ADD MLOAD DUP2 PUSH1 0x1B DUP2 LT PUSH2 0x6C8 JUMPI PUSH2 0x6C8 PUSH2 0x1546 JUMP JUMPDEST PUSH1 0x20 MUL ADD MLOAD MLOAD DUP3 PUSH2 0x6DA DUP4 PUSH1 0x2 PUSH2 0x167A JUMP JUMPDEST PUSH2 0x6E5 SWAP1 PUSH1 0x1 PUSH2 0x15E7 JUMP JUMPDEST DUP2 MLOAD DUP2 LT PUSH2 0x6F5 JUMPI PUSH2 0x6F5 PUSH2 0x1546 JUMP JUMPDEST PUSH1 0x20 MUL PUSH1 0x20 ADD ADD DUP2 DUP2 MSTORE POP POP DUP7 PUSH2 0x1E0 ADD MLOAD DUP2 PUSH1 0x1B DUP2 LT PUSH2 0x718 JUMPI PUSH2 0x718 PUSH2 0x1546 JUMP JUMPDEST PUSH1 0x20 MUL ADD MLOAD PUSH1 0x20 ADD MLOAD DUP3 DUP3 PUSH1 0x2 PUSH2 0x72F SWAP2 SWAP1 PUSH2 0x167A JUMP JUMPDEST PUSH2 0x73A SWAP1 PUSH1 0x2 PUSH2 0x15E7 JUMP JUMPDEST DUP2 MLOAD DUP2 LT PUSH2 0x74A JUMPI PUSH2 0x74A PUSH2 0x1546 JUMP JUMPDEST PUSH1 0x20 SWAP1 DUP2 MUL SWAP2 SWAP1 SWAP2 ADD ADD MSTORE PUSH1 0x1 ADD PUSH2 0x69F JUMP JUMPDEST POP PUSH2 0x772 DUP2 PUSH1 0x40 MLOAD PUSH1 0x20 ADD PUSH2 0x201 SWAP2 SWAP1 PUSH2 0x1691 JUMP JUMPDEST SWAP2 POP PUSH2 0x77D DUP3 PUSH2 0xD41 JUMP JUMPDEST POP SWAP7 SWAP2 SWAP6 POP SWAP1 SWAP4 POP POP POP POP JUMP JUMPDEST PUSH0 DUP1 DUP1 PUSH2 0x798 DUP5 PUSH1 0x1 PUSH2 0x15E7 JUMP JUMPDEST PUSH2 0x7A3 SWAP1 PUSH1 0x4 PUSH2 0x15E7 JUMP JUMPDEST PUSH8 0xFFFFFFFFFFFFFFFF DUP2 GT ISZERO PUSH2 0x7BB JUMPI PUSH2 0x7BB PUSH2 0xF35 JUMP JUMPDEST PUSH1 0x40 MLOAD SWAP1 DUP1 DUP3 MSTORE DUP1 PUSH1 0x20 MUL PUSH1 0x20 ADD DUP3 ADD PUSH1 0x40 MSTORE DUP1 ISZERO PUSH2 0x7E4 JUMPI DUP2 PUSH1 0x20 ADD PUSH1 0x20 DUP3 MUL DUP1 CALLDATASIZE DUP4 CALLDATACOPY ADD SWAP1 POP JUMPDEST POP SWAP1 POP DUP5 DUP2 PUSH0 DUP2 MLOAD DUP2 LT PUSH2 0x7FA JUMPI PUSH2 0x7FA PUSH2 0x1546 JUMP JUMPDEST PUSH1 0x20 SWAP1 DUP2 MUL SWAP2 SWAP1 SWAP2 ADD ADD MSTORE PUSH1 0x1 JUMPDEST DUP5 DUP2 GT PUSH2 0x864 JUMPI PUSH2 0x200 DUP8 ADD MLOAD PUSH2 0x820 PUSH1 0x1 DUP4 PUSH2 0x15A1 JUMP JUMPDEST PUSH1 0x1C DUP2 LT PUSH2 0x830 JUMPI PUSH2 0x830 PUSH2 0x1546 JUMP JUMPDEST PUSH1 0x20 MUL ADD MLOAD DUP3 DUP3 DUP2 MLOAD DUP2 LT PUSH2 0x847 JUMPI PUSH2 0x847 PUSH2 0x1546 JUMP JUMPDEST PUSH1 0x20 SWAP1 DUP2 MUL SWAP2 SWAP1 SWAP2 ADD ADD MSTORE DUP1 PUSH2 0x85C DUP2 PUSH2 0x162E JUMP JUMPDEST SWAP2 POP POP PUSH2 0x808 JUMP JUMPDEST POP PUSH0 DUP1 PUSH2 0x872 DUP7 PUSH1 0x1 PUSH2 0x15E7 JUMP JUMPDEST SWAP1 POP JUMPDEST PUSH2 0x880 DUP7 PUSH1 0x4 PUSH2 0x15E7 JUMP JUMPDEST DUP2 GT PUSH2 0x8DF JUMPI DUP8 PUSH2 0x220 ADD MLOAD DUP3 PUSH1 0x4 DUP2 LT PUSH2 0x89D JUMPI PUSH2 0x89D PUSH2 0x1546 JUMP JUMPDEST PUSH1 0x20 MUL ADD MLOAD DUP4 DUP3 DUP2 MLOAD DUP2 LT PUSH2 0x8B4 JUMPI PUSH2 0x8B4 PUSH2 0x1546 JUMP JUMPDEST PUSH1 0x20 SWAP1 DUP2 MUL SWAP2 SWAP1 SWAP2 ADD ADD MSTORE DUP2 PUSH2 0x8C9 DUP2 PUSH2 0x162E JUMP JUMPDEST SWAP3 POP POP DUP1 DUP1 PUSH2 0x8D7 SWAP1 PUSH2 0x162E JUMP JUMPDEST SWAP2 POP POP PUSH2 0x875 JUMP JUMPDEST POP PUSH2 0x8F4 DUP3 PUSH1 0x40 MLOAD PUSH1 0x20 ADD PUSH2 0x201 SWAP2 SWAP1 PUSH2 0x1691 JUMP JUMPDEST SWAP3 POP PUSH2 0x8FF DUP4 PUSH2 0xD41 JUMP JUMPDEST POP SWAP8 SWAP3 SWAP7 POP SWAP2 SWAP5 POP POP POP POP POP JUMP JUMPDEST PUSH0 PUSH0 PUSH2 0x917 PUSH2 0xEF9 JUMP JUMPDEST DUP4 DUP2 MSTORE PUSH2 0x240 DUP6 ADD DUP1 MLOAD MLOAD PUSH1 0x20 DUP1 DUP5 ADD SWAP2 SWAP1 SWAP2 MSTORE SWAP1 MLOAD DUP2 ADD MLOAD PUSH1 0x40 DUP1 DUP5 ADD SWAP2 SWAP1 SWAP2 MSTORE MLOAD PUSH2 0x3AB SWAP2 PUSH2 0x201 SWAP2 DUP5 SWAP2 ADD PUSH2 0x16BB JUMP JUMPDEST PUSH0 DUP1 DUP1 DUP1 DUP1 PUSH2 0x95A DUP7 PUSH1 0x1 PUSH2 0x15E7 JUMP JUMPDEST PUSH2 0x965 SWAP1 PUSH1 0x8 PUSH2 0x15E7 JUMP JUMPDEST PUSH8 0xFFFFFFFFFFFFFFFF DUP2 GT ISZERO PUSH2 0x97D JUMPI PUSH2 0x97D PUSH2 0xF35 JUMP JUMPDEST PUSH1 0x40 MLOAD SWAP1 DUP1 DUP3 MSTORE DUP1 PUSH1 0x20 MUL PUSH1 0x20 ADD DUP3 ADD PUSH1 0x40 MSTORE DUP1 ISZERO PUSH2 0x9A6 JUMPI DUP2 PUSH1 0x20 ADD PUSH1 0x20 DUP3 MUL DUP1 CALLDATASIZE DUP4 CALLDATACOPY ADD SWAP1 POP JUMPDEST POP SWAP1 POP DUP7 PUSH0 SHL DUP2 PUSH0 DUP2 MLOAD DUP2 LT PUSH2 0x9BE JUMPI PUSH2 0x9BE PUSH2 0x1546 JUMP JUMPDEST PUSH1 0x20 SWAP1 DUP2 MUL SWAP2 SWAP1 SWAP2 ADD ADD MSTORE PUSH0 JUMPDEST PUSH2 0x9D6 PUSH1 0x10 DUP9 PUSH2 0x15A1 JUMP JUMPDEST DUP2 LT ISZERO PUSH2 0xA27 JUMPI DUP10 DUP10 DUP3 DUP2 DUP2 LT PUSH2 0x9EF JUMPI PUSH2 0x9EF PUSH2 0x1546 JUMP JUMPDEST SWAP1 POP PUSH1 0x20 MUL ADD CALLDATALOAD DUP3 DUP3 PUSH1 0x1 PUSH2 0xA04 SWAP2 SWAP1 PUSH2 0x15E7 JUMP JUMPDEST DUP2 MLOAD DUP2 LT PUSH2 0xA14 JUMPI PUSH2 0xA14 PUSH2 0x1546 JUMP JUMPDEST PUSH1 0x20 SWAP1 DUP2 MUL SWAP2 SWAP1 SWAP2 ADD ADD MSTORE PUSH1 0x1 ADD PUSH2 0x9CB JUMP JUMPDEST POP PUSH0 JUMPDEST PUSH1 0x10 DUP2 LT ISZERO PUSH2 0xA98 JUMPI DUP11 MLOAD PUSH2 0xA52 SWAP1 DUP3 PUSH1 0x10 DUP2 LT PUSH2 0xA4A JUMPI PUSH2 0xA4A PUSH2 0x1546 JUMP JUMPDEST PUSH1 0x20 MUL ADD MLOAD SWAP1 JUMP JUMPDEST DUP3 DUP3 PUSH1 0x10 PUSH2 0xA61 DUP12 PUSH1 0x1 PUSH2 0x15E7 JUMP JUMPDEST PUSH2 0xA6B SWAP2 SWAP1 PUSH2 0x15A1 JUMP JUMPDEST PUSH2 0xA75 SWAP2 SWAP1 PUSH2 0x15E7 JUMP JUMPDEST DUP2 MLOAD DUP2 LT PUSH2 0xA85 JUMPI PUSH2 0xA85 PUSH2 0x1546 JUMP JUMPDEST PUSH1 0x20 SWAP1 DUP2 MUL SWAP2 SWAP1 SWAP2 ADD ADD MSTORE PUSH1 0x1 ADD PUSH2 0xA2A JUMP JUMPDEST POP PUSH1 0x20 DUP11 ADD MLOAD MLOAD DUP2 PUSH2 0xAAB DUP9 PUSH1 0x1 PUSH2 0x15E7 JUMP JUMPDEST DUP2 MLOAD DUP2 LT PUSH2 0xABB JUMPI PUSH2 0xABB PUSH2 0x1546 JUMP JUMPDEST PUSH1 0x20 SWAP1 DUP2 MUL SWAP2 SWAP1 SWAP2 ADD DUP2 ADD SWAP2 SWAP1 SWAP2 MSTORE DUP11 DUP2 ADD MLOAD ADD MLOAD DUP2 PUSH2 0xADC DUP9 PUSH1 0x1 PUSH2 0x15E7 JUMP JUMPDEST PUSH2 0xAE7 SWAP1 PUSH1 0x1 PUSH2 0x15E7 JUMP JUMPDEST DUP2 MLOAD DUP2 LT PUSH2 0xAF7 JUMPI PUSH2 0xAF7 PUSH2 0x1546 JUMP JUMPDEST PUSH1 0x20 SWAP1 DUP2 MUL SWAP2 SWAP1 SWAP2 ADD ADD MSTORE PUSH1 0x40 DUP11 ADD MLOAD MLOAD DUP2 PUSH2 0xB14 DUP9 PUSH1 0x1 PUSH2 0x15E7 JUMP JUMPDEST PUSH2 0xB1F SWAP1 PUSH1 0x2 PUSH2 0x15E7 JUMP JUMPDEST DUP2 MLOAD DUP2 LT PUSH2 0xB2F JUMPI PUSH2 0xB2F PUSH2 0x1546 JUMP JUMPDEST PUSH1 0x20 SWAP1 DUP2 MUL SWAP2 SWAP1 SWAP2 ADD DUP2 ADD SWAP2 SWAP1 SWAP2 MSTORE PUSH1 0x40 DUP12 ADD MLOAD ADD MLOAD DUP2 PUSH2 0xB51 DUP9 PUSH1 0x1 PUSH2 0x15E7 JUMP JUMPDEST PUSH2 0xB5C SWAP1 PUSH1 0x3 PUSH2 0x15E7 JUMP JUMPDEST DUP2 MLOAD DUP2 LT PUSH2 0xB6C JUMPI PUSH2 0xB6C PUSH2 0x1546 JUMP JUMPDEST PUSH1 0x20 SWAP1 DUP2 MUL SWAP2 SWAP1 SWAP2 ADD ADD MSTORE PUSH1 0x60 DUP11 ADD MLOAD MLOAD DUP2 PUSH2 0xB89 DUP9 PUSH1 0x1 PUSH2 0x15E7 JUMP JUMPDEST PUSH2 0xB94 SWAP1 PUSH1 0x4 PUSH2 0x15E7 JUMP JUMPDEST DUP2 MLOAD DUP2 LT PUSH2 0xBA4 JUMPI PUSH2 0xBA4 PUSH2 0x1546 JUMP JUMPDEST PUSH1 0x20 SWAP1 DUP2 MUL SWAP2 SWAP1 SWAP2 ADD DUP2 ADD SWAP2 SWAP1 SWAP2 MSTORE PUSH1 0x60 DUP12 ADD MLOAD ADD MLOAD DUP2 PUSH2 0xBC6 DUP9 PUSH1 0x1 PUSH2 0x15E7 JUMP JUMPDEST PUSH2 0xBD1 SWAP1 PUSH1 0x5 PUSH2 0x15E7 JUMP JUMPDEST DUP2 MLOAD DUP2 LT PUSH2 0xBE1 JUMPI PUSH2 0xBE1 PUSH2 0x1546 JUMP JUMPDEST PUSH1 0x20 SWAP1 DUP2 MUL SWAP2 SWAP1 SWAP2 ADD ADD MSTORE PUSH1 0x80 DUP11 ADD MLOAD MLOAD DUP2 PUSH2 0xBFE DUP9 PUSH1 0x1 PUSH2 0x15E7 JUMP JUMPDEST PUSH2 0xC09 SWAP1 PUSH1 0x6 PUSH2 0x15E7 JUMP JUMPDEST DUP2 MLOAD DUP2 LT PUSH2 0xC19 JUMPI PUSH2 0xC19 PUSH2 0x1546 JUMP JUMPDEST PUSH1 0x20 SWAP1 DUP2 MUL SWAP2 SWAP1 SWAP2 ADD DUP2 ADD SWAP2 SWAP1 SWAP2 MSTORE PUSH1 0x80 DUP12 ADD MLOAD ADD MLOAD DUP2 PUSH2 0xC3B DUP9 PUSH1 0x1 PUSH2 0x15E7 JUMP JUMPDEST PUSH2 0xC46 SWAP1 PUSH1 0x7 PUSH2 0x15E7 JUMP JUMPDEST DUP2 MLOAD DUP2 LT PUSH2 0xC56 JUMPI PUSH2 0xC56 PUSH2 0x1546 JUMP JUMPDEST PUSH1 0x20 MUL PUSH1 0x20 ADD ADD DUP2 DUP2 MSTORE POP POP PUSH2 0xC76 DUP2 PUSH1 0x40 MLOAD PUSH1 0x20 ADD PUSH2 0x201 SWAP2 SWAP1 PUSH2 0x1691 JUMP JUMPDEST SWAP2 POP PUSH2 0xC81 DUP3 PUSH2 0xD41 JUMP JUMPDEST PUSH1 0x40 DUP1 MLOAD PUSH1 0x20 DUP2 ADD DUP7 SWAP1 MSTORE SWAP3 SWAP8 POP SWAP1 SWAP6 POP PUSH2 0xC9C SWAP2 ADD PUSH2 0x201 JUMP JUMPDEST SWAP2 POP PUSH2 0xCA7 DUP3 PUSH2 0xD41 JUMP JUMPDEST POP DUP1 SWAP4 POP POP POP SWAP6 POP SWAP6 POP SWAP6 POP SWAP6 SWAP2 POP POP JUMP JUMPDEST PUSH0 PUSH0 PUSH0 PUSH2 0xCC4 PUSH2 0xF17 JUMP JUMPDEST DUP6 DUP2 MSTORE PUSH1 0xC0 DUP6 DUP2 ADD DUP1 MLOAD MLOAD PUSH1 0x20 DUP1 DUP6 ADD SWAP2 SWAP1 SWAP2 MSTORE SWAP1 MLOAD DUP2 ADD MLOAD PUSH1 0x40 DUP1 DUP6 ADD SWAP2 SWAP1 SWAP2 MSTORE PUSH1 0xE0 DUP9 ADD DUP1 MLOAD MLOAD PUSH1 0x60 DUP7 ADD MSTORE MLOAD DUP3 ADD MLOAD PUSH1 0x80 DUP6 ADD MSTORE PUSH1 0xA0 DUP1 DUP10 ADD DUP1 MLOAD MLOAD SWAP2 DUP7 ADD SWAP2 SWAP1 SWAP2 MSTORE MLOAD DUP3 ADD MLOAD SWAP3 DUP5 ADD SWAP3 SWAP1 SWAP3 MSTORE SWAP1 MLOAD PUSH2 0xD27 SWAP2 PUSH2 0x201 SWAP2 DUP5 SWAP2 ADD PUSH2 0x16EE JUMP JUMPDEST SWAP2 POP PUSH2 0xD32 DUP3 PUSH2 0xD41 JUMP JUMPDEST SWAP1 SWAP8 SWAP1 SWAP7 POP SWAP2 SWAP5 POP SWAP1 SWAP3 POP POP POP JUMP JUMPDEST PUSH32 0x30644E72E131A029B85045B68181585D2833E84879B9709143E1F593F0000001 PUSH16 0x7FFFFFFFFFFFFFFFFFFFFFFFFFFFFFFF DUP3 AND DUP2 SWAP1 MOD SWAP3 PUSH1 0x7F SWAP3 SWAP1 SWAP3 SHR MOD SWAP1 JUMP JUMPDEST PUSH0 PUSH32 0x30644E72E131A029B85045B68181585D2833E84879B9709143E1F593F0000001 DUP3 DUP5 MULMOD SWAP1 POP JUMPDEST SWAP3 SWAP2 POP POP JUMP JUMPDEST PUSH1 0x40 MLOAD DUP1 PUSH2 0x140 ADD PUSH1 0x40 MSTORE DUP1 PUSH2 0xDF0 PUSH1 0x40 MLOAD DUP1 PUSH1 0xC0 ADD PUSH1 0x40 MSTORE DUP1 PUSH0 DUP2 MSTORE PUSH1 0x20 ADD PUSH0 DUP2 MSTORE PUSH1 0x20 ADD PUSH0 DUP2 MSTORE PUSH1 0x20 ADD PUSH0 DUP2 MSTORE PUSH1 0x20 ADD PUSH0 DUP2 MSTORE PUSH1 0x20 ADD PUSH0 DUP2 MSTORE POP SWAP1 JUMP JUMPDEST DUP2 MSTORE PUSH1 0x20 ADD PUSH2 0xDFD PUSH2 0xE41 JUMP JUMPDEST DUP2 MSTORE PUSH1 0x20 ADD PUSH2 0xE0A PUSH2 0xE7E JUMP JUMPDEST DUP2 MSTORE PUSH1 0x20 ADD PUSH0 DUP2 MSTORE PUSH1 0x20 ADD PUSH2 0xE1D PUSH2 0xE7E JUMP JUMPDEST DUP2 MSTORE PUSH1 0x20 ADD PUSH0 DUP2 MSTORE PUSH1 0x20 ADD PUSH0 DUP2 MSTORE PUSH1 0x20 ADD PUSH0 DUP2 MSTORE PUSH1 0x20 ADD PUSH0 DUP2 MSTORE PUSH1 0x20 ADD PUSH0 DUP2 MSTORE POP SWAP1 JUMP JUMPDEST PUSH1 0x40 MLOAD DUP1 PUSH2 0x360 ADD PUSH1 0x40 MSTORE DUP1 PUSH1 0x1B SWAP1 PUSH1 0x20 DUP3 MUL DUP1 CALLDATASIZE DUP4 CALLDATACOPY POP SWAP2 SWAP3 SWAP2 POP POP JUMP JUMPDEST PUSH1 0x40 MLOAD DUP1 PUSH1 0xA0 ADD PUSH1 0x40 MSTORE DUP1 PUSH1 0x5 SWAP1 PUSH1 0x20 DUP3 MUL DUP1 CALLDATASIZE DUP4 CALLDATACOPY POP SWAP2 SWAP3 SWAP2 POP POP JUMP JUMPDEST PUSH1 0x40 MLOAD DUP1 PUSH2 0x380 ADD PUSH1 0x40 MSTORE DUP1 PUSH1 0x1C SWAP1 PUSH1 0x20 DUP3 MUL DUP1 CALLDATASIZE DUP4 CALLDATACOPY POP SWAP2 SWAP3 SWAP2 POP POP JUMP JUMPDEST PUSH1 0x40 MLOAD DUP1 PUSH1 0x80 ADD PUSH1 0x40 MSTORE DUP1 PUSH1 0x4 SWAP1 PUSH1 0x20 DUP3 MUL DUP1 CALLDATASIZE DUP4 CALLDATACOPY POP SWAP2 SWAP3 SWAP2 POP POP JUMP JUMPDEST PUSH1 0x40 MLOAD DUP1 PUSH2 0x140 ADD PUSH1 0x40 MSTORE DUP1 PUSH1 0xA SWAP1 PUSH1 0x20 DUP3 MUL DUP1 CALLDATASIZE DUP4 CALLDATACOPY POP SWAP2 SWAP3 SWAP2 POP POP JUMP JUMPDEST PUSH1 0x40 MLOAD DUP1 PUSH2 0x600 ADD PUSH1 0x40 MSTORE DUP1 PUSH1 0x30 SWAP1 PUSH1 0x20 DUP3 MUL DUP1 CALLDATASIZE DUP4 CALLDATACOPY POP SWAP2 SWAP3 SWAP2 POP POP JUMP JUMPDEST PUSH1 0x40 MLOAD DUP1 PUSH1 0x60 ADD PUSH1 0x40 MSTORE DUP1 PUSH1 0x3 SWAP1 PUSH1 0x20 DUP3 MUL DUP1 CALLDATASIZE DUP4 CALLDATACOPY POP SWAP2 SWAP3 SWAP2 POP POP JUMP JUMPDEST PUSH1 0x40 MLOAD DUP1 PUSH1 0xE0 ADD PUSH1 0x40 MSTORE DUP1 PUSH1 0x7 SWAP1 PUSH1 0x20 DUP3 MUL DUP1 CALLDATASIZE DUP4 CALLDATACOPY POP SWAP2 SWAP3 SWAP2 POP POP JUMP JUMPDEST PUSH4 0x4E487B71 PUSH1 0xE0 SHL PUSH0 MSTORE PUSH1 0x41 PUSH1 0x4 MSTORE PUSH1 0x24 PUSH0 REVERT JUMPDEST PUSH1 0x40 MLOAD PUSH2 0x280 DUP2 ADD PUSH8 0xFFFFFFFFFFFFFFFF DUP2 GT DUP3 DUP3 LT OR ISZERO PUSH2 0xF6D JUMPI PUSH2 0xF6D PUSH2 0xF35 JUMP JUMPDEST PUSH1 0x40 MSTORE SWAP1 JUMP JUMPDEST PUSH1 0x40 MLOAD PUSH1 0x1F DUP3 ADD PUSH1 0x1F NOT AND DUP2 ADD PUSH8 0xFFFFFFFFFFFFFFFF DUP2 GT DUP3 DUP3 LT OR ISZERO PUSH2 0xF9C JUMPI PUSH2 0xF9C PUSH2 0xF35 JUMP JUMPDEST PUSH1 0x40 MSTORE SWAP2 SWAP1 POP JUMP JUMPDEST PUSH0 DUP3 PUSH1 0x1F DUP4 ADD SLT PUSH2 0xFB3 JUMPI PUSH0 PUSH0 REVERT JUMPDEST PUSH0 PUSH2 0x200 PUSH2 0xFC0 DUP2 PUSH2 0xF73 JUMP JUMPDEST SWAP2 POP DUP4 ADD DUP2 DUP6 DUP3 GT ISZERO PUSH2 0xFD1 JUMPI PUSH0 PUSH0 REVERT JUMPDEST DUP5 JUMPDEST DUP3 DUP2 LT ISZERO PUSH2 0xFEB JUMPI DUP1 CALLDATALOAD DUP3 MSTORE PUSH1 0x20 SWAP2 DUP3 ADD SWAP2 ADD PUSH2 0xFD3 JUMP JUMPDEST POP SWAP2 SWAP6 SWAP5 POP POP POP POP POP JUMP JUMPDEST PUSH0 PUSH1 0x40 DUP3 DUP5 SUB SLT ISZERO PUSH2 0x1006 JUMPI PUSH0 PUSH0 REVERT JUMPDEST PUSH1 0x40 DUP1 MLOAD SWAP1 DUP2 ADD PUSH8 0xFFFFFFFFFFFFFFFF DUP2 GT DUP3 DUP3 LT OR ISZERO PUSH2 0x1029 JUMPI PUSH2 0x1029 PUSH2 0xF35 JUMP JUMPDEST PUSH1 0x40 MSTORE DUP3 CALLDATALOAD DUP2 MSTORE PUSH1 0x20 SWAP3 DUP4 ADD CALLDATALOAD SWAP3 DUP2 ADD SWAP3 SWAP1 SWAP3 MSTORE POP SWAP2 SWAP1 POP JUMP JUMPDEST PUSH0 DUP3 PUSH1 0x1F DUP4 ADD SLT PUSH2 0x1052 JUMPI PUSH0 PUSH0 REVERT JUMPDEST PUSH0 PUSH2 0x105D PUSH1 0x60 PUSH2 0xF73 JUMP JUMPDEST SWAP1 POP DUP1 PUSH1 0xC0 DUP5 ADD DUP6 DUP2 GT ISZERO PUSH2 0x1070 JUMPI PUSH0 PUSH0 REVERT JUMPDEST DUP5 JUMPDEST DUP2 DUP2 LT ISZERO PUSH2 0xFEB JUMPI PUSH2 0x1084 DUP8 DUP3 PUSH2 0xFF6 JUMP JUMPDEST DUP4 MSTORE PUSH1 0x20 SWAP1 SWAP3 ADD SWAP2 PUSH1 0x40 ADD PUSH2 0x1072 JUMP JUMPDEST PUSH0 DUP3 PUSH1 0x1F DUP4 ADD SLT PUSH2 0x10A3 JUMPI PUSH0 PUSH0 REVERT JUMPDEST PUSH2 0x380 PUSH2 0x10AF DUP2 PUSH2 0xF73 JUMP JUMPDEST SWAP1 POP DUP1 PUSH2 0x1F80 DUP5 ADD DUP6 DUP2 GT ISZERO PUSH2 0x10C3 JUMPI PUSH0 PUSH0 REVERT JUMPDEST DUP5 JUMPDEST DUP2 DUP2 LT ISZERO PUSH2 0x1127 JUMPI DUP7 PUSH1 0x1F DUP3 ADD SLT PUSH2 0x10DB JUMPI PUSH0 PUSH0 REVERT JUMPDEST PUSH0 PUSH2 0x120 PUSH2 0x10E8 DUP2 PUSH2 0xF73 JUMP JUMPDEST SWAP2 POP DUP3 ADD DUP2 DUP10 DUP3 GT ISZERO PUSH2 0x10F9 JUMPI PUSH0 PUSH0 REVERT JUMPDEST DUP4 JUMPDEST DUP3 DUP2 LT ISZERO PUSH2 0x1113 JUMPI DUP1 CALLDATALOAD DUP3 MSTORE PUSH1 0x20 SWAP2 DUP3 ADD SWAP2 ADD PUSH2 0x10FB JUMP JUMPDEST POP POP POP DUP5 MSTORE PUSH1 0x20 SWAP1 SWAP4 ADD SWAP3 PUSH2 0x120 ADD PUSH2 0x10C5 JUMP JUMPDEST POP SWAP1 SWAP6 SWAP5 POP POP POP POP POP JUMP JUMPDEST PUSH0 DUP3 PUSH1 0x1F DUP4 ADD SLT PUSH2 0x1141 JUMPI PUSH0 PUSH0 REVERT JUMPDEST PUSH0 PUSH2 0x540 PUSH2 0xFC0 DUP2 PUSH2 0xF73 JUMP JUMPDEST PUSH0 DUP3 PUSH1 0x1F DUP4 ADD SLT PUSH2 0x115D JUMPI PUSH0 PUSH0 REVERT JUMPDEST PUSH0 PUSH2 0x360 PUSH2 0x116A DUP2 PUSH2 0xF73 JUMP JUMPDEST SWAP2 POP POP DUP1 PUSH2 0x6C0 DUP5 ADD DUP6 DUP2 GT ISZERO PUSH2 0x117F JUMPI PUSH0 PUSH0 REVERT JUMPDEST DUP5 JUMPDEST DUP2 DUP2 LT ISZERO PUSH2 0xFEB JUMPI PUSH2 0x1193 DUP8 DUP3 PUSH2 0xFF6 JUMP JUMPDEST DUP4 MSTORE PUSH1 0x20 SWAP1 SWAP3 ADD SWAP2 PUSH1 0x40 ADD PUSH2 0x1181 JUMP JUMPDEST PUSH0 DUP3 PUSH1 0x1F DUP4 ADD SLT PUSH2 0x11B2 JUMPI PUSH0 PUSH0 REVERT JUMPDEST PUSH0 PUSH2 0x380 PUSH2 0xFC0 DUP2 PUSH2 0xF73 JUMP JUMPDEST PUSH0 DUP3 PUSH1 0x1F DUP4 ADD SLT PUSH2 0x11CE JUMPI PUSH0 PUSH0 REVERT JUMPDEST PUSH0 PUSH2 0x11D9 PUSH1 0x80 PUSH2 0xF73 JUMP JUMPDEST SWAP1 POP DUP1 PUSH1 0x80 DUP5 ADD DUP6 DUP2 GT ISZERO PUSH2 0x11EC JUMPI PUSH0 PUSH0 REVERT JUMPDEST DUP5 JUMPDEST DUP2 DUP2 LT ISZERO PUSH2 0xFEB JUMPI DUP1 CALLDATALOAD DUP4 MSTORE PUSH1 0x20 SWAP3 DUP4 ADD SWAP3 ADD PUSH2 0x11EE JUMP JUMPDEST PUSH0 PUSH0 DUP4 PUSH1 0x1F DUP5 ADD SLT PUSH2 0x1216 JUMPI PUSH0 PUSH0 REVERT JUMPDEST POP DUP2 CALLDATALOAD PUSH8 0xFFFFFFFFFFFFFFFF DUP2 GT ISZERO PUSH2 0x122D JUMPI PUSH0 PUSH0 REVERT JUMPDEST PUSH1 0x20 DUP4 ADD SWAP2 POP DUP4 PUSH1 0x20 DUP3 PUSH1 0x5 SHL DUP6 ADD ADD GT ISZERO PUSH2 0x1247 JUMPI PUSH0 PUSH0 REVERT JUMPDEST SWAP3 POP SWAP3 SWAP1 POP JUMP JUMPDEST PUSH0 PUSH0 PUSH0 PUSH0 PUSH0 PUSH0 DUP7 DUP9 SUB PUSH2 0x35C0 DUP2 SLT ISZERO PUSH2 0x1265 JUMPI PUSH0 PUSH0 REVERT JUMPDEST PUSH2 0x3540 DUP2 SLT ISZERO PUSH2 0x1273 JUMPI PUSH0 PUSH0 REVERT JUMPDEST POP PUSH2 0x127C PUSH2 0xF49 JUMP JUMPDEST PUSH2 0x1286 DUP10 DUP10 PUSH2 0xFA4 JUMP JUMPDEST DUP2 MSTORE PUSH2 0x1296 DUP10 PUSH2 0x200 DUP11 ADD PUSH2 0xFF6 JUMP JUMPDEST PUSH1 0x20 DUP3 ADD MSTORE PUSH2 0x12A9 DUP10 PUSH2 0x240 DUP11 ADD PUSH2 0xFF6 JUMP JUMPDEST PUSH1 0x40 DUP3 ADD MSTORE PUSH2 0x12BC DUP10 PUSH2 0x280 DUP11 ADD PUSH2 0xFF6 JUMP JUMPDEST PUSH1 0x60 DUP3 ADD MSTORE PUSH2 0x12CF DUP10 PUSH2 0x2C0 DUP11 ADD PUSH2 0xFF6 JUMP JUMPDEST PUSH1 0x80 DUP3 ADD MSTORE PUSH2 0x12E2 DUP10 PUSH2 0x300 DUP11 ADD PUSH2 0xFF6 JUMP JUMPDEST PUSH1 0xA0 DUP3 ADD MSTORE PUSH2 0x12F5 DUP10 PUSH2 0x340 DUP11 ADD PUSH2 0xFF6 JUMP JUMPDEST PUSH1 0xC0 DUP3 ADD MSTORE PUSH2 0x1308 DUP10 PUSH2 0x380 DUP11 ADD PUSH2 0xFF6 JUMP JUMPDEST PUSH1 0xE0 DUP3 ADD MSTORE PUSH2 0x131B DUP10 PUSH2 0x3C0 DUP11 ADD PUSH2 0xFF6 JUMP JUMPDEST PUSH2 0x100 DUP3 ADD MSTORE PUSH2 0x132F DUP10 PUSH2 0x400 DUP11 ADD PUSH2 0xFF6 JUMP JUMPDEST PUSH2 0x120 DUP3 ADD MSTORE PUSH2 0x1343 DUP10 PUSH2 0x440 DUP11 ADD PUSH2 0x1043 JUMP JUMPDEST PUSH2 0x140 DUP3 ADD MSTORE PUSH2 0x500 DUP9 ADD CALLDATALOAD PUSH2 0x160 DUP3 ADD MSTORE PUSH2 0x1363 DUP10 PUSH2 0x520 DUP11 ADD PUSH2 0x1094 JUMP JUMPDEST PUSH2 0x180 DUP3 ADD MSTORE PUSH2 0x24A0 DUP9 ADD CALLDATALOAD PUSH2 0x1A0 DUP3 ADD MSTORE PUSH2 0x1383 DUP10 PUSH2 0x24C0 DUP11 ADD PUSH2 0x1132 JUMP JUMPDEST PUSH2 0x1C0 DUP3 ADD MSTORE PUSH2 0x1397 DUP10 PUSH2 0x2A00 DUP11 ADD PUSH2 0x114E JUMP JUMPDEST PUSH2 0x1E0 DUP3 ADD MSTORE PUSH2 0x13AB DUP10 PUSH2 0x30C0 DUP11 ADD PUSH2 0x11A3 JUMP JUMPDEST PUSH2 0x200 DUP3 ADD MSTORE PUSH2 0x13BF DUP10 PUSH2 0x3440 DUP11 ADD PUSH2 0x11BF JUMP JUMPDEST PUSH2 0x220 DUP3 ADD MSTORE PUSH2 0x13D3 DUP10 PUSH2 0x34C0 DUP11 ADD PUSH2 0xFF6 JUMP JUMPDEST PUSH2 0x240 DUP3 ADD MSTORE PUSH2 0x13E7 DUP10 PUSH2 0x3500 DUP11 ADD PUSH2 0xFF6 JUMP JUMPDEST PUSH2 0x260 DUP3 ADD MSTORE SWAP6 POP PUSH2 0x3540 DUP8 ADD CALLDATALOAD PUSH8 0xFFFFFFFFFFFFFFFF DUP2 GT ISZERO PUSH2 0x1409 JUMPI PUSH0 PUSH0 REVERT JUMPDEST PUSH2 0x1415 DUP10 DUP3 DUP11 ADD PUSH2 0x1206 JUMP JUMPDEST SWAP8 SWAP11 SWAP1 SWAP10 POP SWAP7 SWAP8 PUSH2 0x3560 DUP2 ADD CALLDATALOAD SWAP8 PUSH2 0x3580 DUP3 ADD CALLDATALOAD SWAP8 POP PUSH2 0x35A0 SWAP1 SWAP2 ADD CALLDATALOAD SWAP6 POP SWAP4 POP POP POP POP JUMP JUMPDEST DUP1 PUSH0 JUMPDEST PUSH1 0x1B DUP2 LT ISZERO PUSH2 0x145D JUMPI DUP2 MLOAD DUP5 MSTORE PUSH1 0x20 SWAP4 DUP5 ADD SWAP4 SWAP1 SWAP2 ADD SWAP1 PUSH1 0x1 ADD PUSH2 0x143E JUMP JUMPDEST POP POP POP POP JUMP JUMPDEST DUP1 PUSH0 JUMPDEST PUSH1 0x1C DUP2 LT ISZERO PUSH2 0x145D JUMPI DUP2 MLOAD DUP5 MSTORE PUSH1 0x20 SWAP4 DUP5 ADD SWAP4 SWAP1 SWAP2 ADD SWAP1 PUSH1 0x1 ADD PUSH2 0x1466 JUMP JUMPDEST DUP2 MLOAD DUP1 MLOAD DUP3 MSTORE PUSH1 0x20 DUP1 DUP3 ADD MLOAD SWAP1 DUP4 ADD MSTORE PUSH1 0x40 DUP1 DUP3 ADD MLOAD SWAP1 DUP4 ADD MSTORE PUSH1 0x60 DUP1 DUP3 ADD MLOAD SWAP1 DUP4 ADD MSTORE PUSH1 0x80 DUP1 DUP3 ADD MLOAD SWAP1 DUP4 ADD MSTORE PUSH1 0xA0 SWAP1 DUP2 ADD MLOAD SWAP1 DUP3 ADD MSTORE PUSH2 0xBE0 DUP2 ADD PUSH1 0x20 DUP4 ADD MLOAD PUSH2 0x14D4 PUSH1 0xC0 DUP5 ADD DUP3 PUSH2 0x143B JUMP JUMPDEST POP PUSH1 0x40 DUP4 ADD MLOAD PUSH2 0x14E8 PUSH2 0x420 DUP5 ADD DUP3 PUSH2 0x1463 JUMP JUMPDEST POP PUSH1 0x60 DUP4 ADD MLOAD PUSH2 0x7A0 DUP4 ADD MSTORE PUSH1 0x80 DUP4 ADD MLOAD PUSH2 0x1507 PUSH2 0x7C0 DUP5 ADD DUP3 PUSH2 0x1463 JUMP JUMPDEST POP PUSH1 0xA0 DUP4 ADD MLOAD PUSH2 0xB40 DUP4 ADD MSTORE PUSH1 0xC0 DUP4 ADD MLOAD PUSH2 0xB60 DUP4 ADD MSTORE PUSH1 0xE0 DUP4 ADD MLOAD PUSH2 0xB80 DUP4 ADD MSTORE PUSH2 0x100 DUP4 ADD MLOAD PUSH2 0xBA0 DUP4 ADD MSTORE PUSH2 0x120 SWAP1 SWAP3 ADD MLOAD PUSH2 0xBC0 SWAP1 SWAP2 ADD MSTORE SWAP1 JUMP JUMPDEST PUSH4 0x4E487B71 PUSH1 0xE0 SHL PUSH0 MSTORE PUSH1 0x32 PUSH1 0x4 MSTORE PUSH1 0x24 PUSH0 REVERT JUMPDEST PUSH0 DUP2 DUP4 DUP3 JUMPDEST PUSH1 0x5 DUP2 LT ISZERO PUSH2 0x157E JUMPI DUP2 MLOAD DUP4 MSTORE PUSH1 0x20 SWAP3 DUP4 ADD SWAP3 SWAP1 SWAP2 ADD SWAP1 PUSH1 0x1 ADD PUSH2 0x155F JUMP JUMPDEST POP POP POP PUSH1 0xA0 DUP3 ADD SWAP1 POP SWAP3 SWAP2 POP POP JUMP JUMPDEST PUSH4 0x4E487B71 PUSH1 0xE0 SHL PUSH0 MSTORE PUSH1 0x11 PUSH1 0x4 MSTORE PUSH1 0x24 PUSH0 REVERT JUMPDEST DUP2 DUP2 SUB DUP2 DUP2 GT ISZERO PUSH2 0xDAB JUMPI PUSH2 0xDAB PUSH2 0x158D JUMP JUMPDEST PUSH0 DUP2 DUP4 DUP3 JUMPDEST PUSH1 0x4 DUP2 LT ISZERO PUSH2 0x15D8 JUMPI DUP2 MLOAD DUP4 MSTORE PUSH1 0x20 SWAP3 DUP4 ADD SWAP3 SWAP1 SWAP2 ADD SWAP1 PUSH1 0x1 ADD PUSH2 0x15B9 JUMP JUMPDEST POP POP POP PUSH1 0x80 DUP3 ADD SWAP1 POP SWAP3 SWAP2 POP POP JUMP JUMPDEST DUP1 DUP3 ADD DUP1 DUP3 GT ISZERO PUSH2 0xDAB JUMPI PUSH2 0xDAB PUSH2 0x158D JUMP JUMPDEST PUSH0 DUP2 DUP4 DUP3 JUMPDEST PUSH1 0xA DUP2 LT ISZERO PUSH2 0x161E JUMPI DUP2 MLOAD DUP4 MSTORE PUSH1 0x20 SWAP3 DUP4 ADD SWAP3 SWAP1 SWAP2 ADD SWAP1 PUSH1 0x1 ADD PUSH2 0x15FF JUMP JUMPDEST POP POP POP PUSH2 0x140 DUP3 ADD SWAP1 POP SWAP3 SWAP2 POP POP JUMP JUMPDEST PUSH0 PUSH1 0x1 DUP3 ADD PUSH2 0x163F JUMPI PUSH2 0x163F PUSH2 0x158D JUMP JUMPDEST POP PUSH1 0x1 ADD SWAP1 JUMP JUMPDEST PUSH0 DUP2 DUP4 DUP3 JUMPDEST PUSH1 0x30 DUP2 LT ISZERO PUSH2 0x166A JUMPI DUP2 MLOAD DUP4 MSTORE PUSH1 0x20 SWAP3 DUP4 ADD SWAP3 SWAP1 SWAP2 ADD SWAP1 PUSH1 0x1 ADD PUSH2 0x164B JUMP JUMPDEST POP POP POP PUSH2 0x600 DUP3 ADD SWAP1 POP SWAP3 SWAP2 POP POP JUMP JUMPDEST DUP1 DUP3 MUL DUP2 ISZERO DUP3 DUP3 DIV DUP5 EQ OR PUSH2 0xDAB JUMPI PUSH2 0xDAB PUSH2 0x158D JUMP JUMPDEST DUP2 MLOAD PUSH0 SWAP1 DUP3 SWAP1 PUSH1 0x20 DUP6 ADD DUP4 JUMPDEST DUP3 DUP2 LT ISZERO PUSH2 0xFEB JUMPI DUP2 MLOAD DUP5 MSTORE PUSH1 0x20 SWAP4 DUP5 ADD SWAP4 SWAP1 SWAP2 ADD SWAP1 PUSH1 0x1 ADD PUSH2 0x169D JUMP JUMPDEST PUSH0 DUP2 DUP4 DUP3 JUMPDEST PUSH1 0x3 DUP2 LT ISZERO PUSH2 0x16DF JUMPI DUP2 MLOAD DUP4 MSTORE PUSH1 0x20 SWAP3 DUP4 ADD SWAP3 SWAP1 SWAP2 ADD SWAP1 PUSH1 0x1 ADD PUSH2 0x16C0 JUMP JUMPDEST POP POP POP PUSH1 0x60 DUP3 ADD SWAP1 POP SWAP3 SWAP2 POP POP JUMP JUMPDEST PUSH0 DUP2 DUP4 DUP3 JUMPDEST PUSH1 0x7 DUP2 LT ISZERO PUSH2 0x1712 JUMPI DUP2 MLOAD DUP4 MSTORE PUSH1 0x20 SWAP3 DUP4 ADD SWAP3 SWAP1 SWAP2 ADD SWAP1 PUSH1 0x1 ADD PUSH2 0x16F3 JUMP JUMPDEST POP POP POP PUSH1 0xE0 DUP3 ADD SWAP1 POP SWAP3 SWAP2 POP POP JUMP INVALID LOG2 PUSH5 0x6970667358 0x22 SLT KECCAK256 0x26 SLOAD 0xAC 0x4D SWAP4 PUSH5 0xF3E0FCCC72 PUSH19 0x8409887187993A4AA8076E320302843B099E5C RETURNDATACOPY PUSH5 0x736F6C6343 STOP ADDMOD SHL STOP CALLER "},"methodIdentifiers":{"generateTranscript(Honk.ZKProof,bytes32[],uint256,uint256,uint256)":"995bf457"}}}}}