{"contracts/MerkleTree.sol":{"MerkleTree":{"abi":[{"inputs":[],"stateMutability":"nonpayable","type":"constructor"},{"inputs":[],"name":"MAX_LEAVES","outputs":[{"internalType":"uint256","name":"","type":"uint256"}],"stateMutability":"view","type":"function"},{"inputs":[],"name":"TREE_DEPTH","outputs":[{"internalType":"uint256","name":"","type":"uint256"}],"stateMutability":"view","type":"function"},{"inputs":[{"internalType":"uint256","name":"","type":"uint256"}],"name":"filledSubtrees","outputs":[{"internalType":"bytes32","name":"","type":"bytes32"}],"stateMutability":"view","type":"function"},{"inputs":[],"name":"nextLeafIndex","outputs":[{"internalType":"uint256","name":"","type":"uint256"}],"stateMutability":"view","type":"function"},{"inputs":[],"name":"root","outputs":[{"internalType":"bytes32","name":"","type":"bytes32"}],"stateMutability":"view","type":"function"},{"inputs":[{"internalType":"uint256","name":"","type":"uint256"}],"name":"zeroHashes","outputs":[{"internalType":"bytes32","name":"","type":"bytes32"}],"stateMutability":"view","type":"function"}],"evm":{"bytecode":{"linkReferences":{},"object":"608060405234801561000f575f5ffd5b505f805560015b60148111610088576100625f61002d600184610131565b6015811061003d5761003d610109565b01545f61004b600185610131565b6015811061005b5761005b610109565b01546100da565b5f826015811061007457610074610109565b01558061008081610144565b915050610016565b505f5b601481116100ce575f81601581106100a5576100a5610109565b0154601582601581106100ba576100ba610109565b0155806100c681610144565b91505061008b565b50601454602b5561015c565b604080516020808201859052818301849052825180830384018152606090920190925280519101205b92915050565b634e487b7160e01b5f52603260045260245ffd5b634e487b7160e01b5f52601160045260245ffd5b818103818111156101035761010361011d565b5f600182016101555761015561011d565b5060010190565b610249806101695f395ff3fe608060405234801561000f575f5ffd5b5060043610610060575f3560e01c8063082febf0146100645780630be4f4221461007e5780637ac5476714610087578063ebf0c7171461009a578063f1650536146100a3578063f178e47c146100ab575b5f5ffd5b61006c6100be565b60405190815260200160405180910390f35b61006c602a5481565b61006c6100953660046100f1565b6100cd565b61006c602b5481565b61006c601481565b61006c6100b93660046100f1565b6100e2565b6100ca60146002610201565b81565b5f81601581106100db575f80fd5b0154905081565b601581601581106100db575f80fd5b5f60208284031215610101575f5ffd5b5035919050565b634e487b7160e01b5f52601160045260245ffd5b6001815b60018411156101575780850481111561013b5761013b610108565b600184161561014957908102905b60019390931c928002610120565b935093915050565b5f8261016d575060016101fb565b8161017957505f6101fb565b816001811461018f5760028114610199576101b5565b60019150506101fb565b60ff8411156101aa576101aa610108565b50506001821b6101fb565b5060208310610133831016604e8410600b84101617156101d8575081810a6101fb565b6101e45f19848461011c565b805f19048211156101f7576101f7610108565b0290505b92915050565b5f61020c838361015f565b939250505056fea26469706673582212204907c713cc7e9c67da1d643e9580833c097a26f2d5afb0e0f7b170ce0ace86a764736f6c634300081b0033","opcodes":"PUSH1 0x80 PUSH1 0x40 MSTORE CALLVALUE DUP1 ISZERO PUSH2 0xF JUMPI PUSH0 PUSH0 REVERT JUMPDEST POP PUSH0 DUP1 SSTORE PUSH1 0x1 JUMPDEST PUSH1 0x14 DUP2 GT PUSH2 0x88 JUMPI PUSH2 0x62 PUSH0 PUSH2 0x2D PUSH1 0x1 DUP5 PUSH2 0x131 JUMP JUMPDEST PUSH1 0x15 DUP2 LT PUSH2 0x3D JUMPI PUSH2 0x3D PUSH2 0x109 JUMP JUMPDEST ADD SLOAD PUSH0 PUSH2 0x4B PUSH1 0x1 DUP6 PUSH2 0x131 JUMP JUMPDEST PUSH1 0x15 DUP2 LT PUSH2 0x5B JUMPI PUSH2 0x5B PUSH2 0x109 JUMP JUMPDEST ADD SLOAD PUSH2 0xDA JUMP JUMPDEST PUSH0 DUP3 PUSH1 0x15 DUP2 LT PUSH2 0x74 JUMPI PUSH2 0x74 PUSH2 0x109 JUMP JUMPDEST ADD SSTORE DUP1 PUSH2 0x80 DUP2 PUSH2 0x144 JUMP JUMPDEST SWAP2 POP POP PUSH2 0x16 JUMP JUMPDEST POP PUSH0 JUMPDEST PUSH1 0x14 DUP2 GT PUSH2 0xCE JUMPI PUSH0 DUP2 PUSH1 0x15 DUP2 LT PUSH2 0xA5 JUMPI PUSH2 0xA5 PUSH2 0x109 JUMP JUMPDEST ADD SLOAD PUSH1 0x15 DUP3 PUSH1 0x15 DUP2 LT PUSH2 0xBA JUMPI PUSH2 0xBA PUSH2 0x109 JUMP JUMPDEST ADD SSTORE DUP1 PUSH2 0xC6 DUP2 PUSH2 0x144 JUMP JUMPDEST SWAP2 POP POP PUSH2 0x8B JUMP JUMPDEST POP PUSH1 0x14 SLOAD PUSH1 0x2B SSTORE PUSH2 0x15C JUMP JUMPDEST PUSH1 0x40 DUP1 MLOAD PUSH1 0x20 DUP1 DUP3 ADD DUP6 SWAP1 MSTORE DUP2 DUP4 ADD DUP5 SWAP1 MSTORE DUP3 MLOAD DUP1 DUP4 SUB DUP5 ADD DUP2 MSTORE PUSH1 0x60 SWAP1 SWAP3 ADD SWAP1 SWAP3 MSTORE DUP1 MLOAD SWAP2 ADD KECCAK256 JUMPDEST SWAP3 SWAP2 POP POP JUMP JUMPDEST PUSH4 0x4E487B71 PUSH1 0xE0 SHL PUSH0 MSTORE PUSH1 0x32 PUSH1 0x4 MSTORE PUSH1 0x24 PUSH0 REVERT JUMPDEST PUSH4 0x4E487B71 PUSH1 0xE0 SHL PUSH0 MSTORE PUSH1 0x11 PUSH1 0x4 MSTORE PUSH1 0x24 PUSH0 REVERT JUMPDEST DUP2 DUP2 SUB DUP2 DUP2 GT ISZERO PUSH2 0x103 JUMPI PUSH2 0x103 PUSH2 0x11D JUMP JUMPDEST PUSH0 PUSH1 0x1 DUP3 ADD PUSH2 0x155 JUMPI PUSH2 0x155 PUSH2 0x11D JUMP JUMPDEST POP PUSH1 0x1 ADD SWAP1 JUMP JUMPDEST PUSH2 0x249 DUP1 PUSH2 0x169 PUSH0 CODECOPY PUSH0 RETURN INVALID PUSH1 0x80 PUSH1 0x40 MSTORE CALLVALUE DUP1 ISZERO PUSH2 0xF JUMPI PUSH0 PUSH0 REVERT JUMPDEST POP PUSH1 0x4 CALLDATASIZE LT PUSH2 0x60 JUMPI PUSH0 CALLDATALOAD PUSH1 0xE0 SHR DUP1 PUSH4 0x82FEBF0 EQ PUSH2 0x64 JUMPI DUP1 PUSH4 0xBE4F422 EQ PUSH2 0x7E JUMPI DUP1 PUSH4 0x7AC54767 EQ PUSH2 0x87 JUMPI DUP1 PUSH4 0xEBF0C717 EQ PUSH2 0x9A JUMPI DUP1 PUSH4 0xF1650536 EQ PUSH2 0xA3 JUMPI DUP1 PUSH4 0xF178E47C EQ PUSH2 0xAB JUMPI JUMPDEST PUSH0 PUSH0 REVERT JUMPDEST PUSH2 0x6C PUSH2 0xBE JUMP JUMPDEST PUSH1 0x40 MLOAD SWAP1 DUP2 MSTORE PUSH1 0x20 ADD PUSH1 0x40 MLOAD DUP1 SWAP2 SUB SWAP1 RETURN JUMPDEST PUSH2 0x6C PUSH1 0x2A SLOAD DUP2 JUMP JUMPDEST PUSH2 0x6C PUSH2 0x95 CALLDATASIZE PUSH1 0x4 PUSH2 0xF1 JUMP JUMPDEST PUSH2 0xCD JUMP JUMPDEST PUSH2 0x6C PUSH1 0x2B SLOAD DUP2 JUMP JUMPDEST PUSH2 0x6C PUSH1 0x14 DUP2 JUMP JUMPDEST PUSH2 0x6C PUSH2 0xB9 CALLDATASIZE PUSH1 0x4 PUSH2 0xF1 JUMP JUMPDEST PUSH2 0xE2 JUMP JUMPDEST PUSH2 0xCA PUSH1 0x14 PUSH1 0x2 PUSH2 0x201 JUMP JUMPDEST DUP2 JUMP JUMPDEST PUSH0 DUP2 PUSH1 0x15 DUP2 LT PUSH2 0xDB JUMPI PUSH0 DUP1 REVERT JUMPDEST ADD SLOAD SWAP1 POP DUP2 JUMP JUMPDEST PUSH1 0x15 DUP2 PUSH1 0x15 DUP2 LT PUSH2 0xDB JUMPI PUSH0 DUP1 REVERT JUMPDEST PUSH0 PUSH1 0x20 DUP3 DUP5 SUB SLT ISZERO PUSH2 0x101 JUMPI PUSH0 PUSH0 REVERT JUMPDEST POP CALLDATALOAD SWAP2 SWAP1 POP JUMP JUMPDEST PUSH4 0x4E487B71 PUSH1 0xE0 SHL PUSH0 MSTORE PUSH1 0x11 PUSH1 0x4 MSTORE PUSH1 0x24 PUSH0 REVERT JUMPDEST PUSH1 0x1 DUP2 JUMPDEST PUSH1 0x1 DUP5 GT ISZERO PUSH2 0x157 JUMPI DUP1 DUP6 DIV DUP2 GT ISZERO PUSH2 0x13B JUMPI PUSH2 0x13B PUSH2 0x108 JUMP JUMPDEST PUSH1 0x1 DUP5 AND ISZERO PUSH2 0x149 JUMPI SWAP1 DUP2 MUL SWAP1 JUMPDEST PUSH1 0x1 SWAP4 SWAP1 SWAP4 SHR SWAP3 DUP1 MUL PUSH2 0x120 JUMP JUMPDEST SWAP4 POP SWAP4 SWAP2 POP POP JUMP JUMPDEST PUSH0 DUP3 PUSH2 0x16D JUMPI POP PUSH1 0x1 PUSH2 0x1FB JUMP JUMPDEST DUP2 PUSH2 0x179 JUMPI POP PUSH0 PUSH2 0x1FB JUMP JUMPDEST DUP2 PUSH1 0x1 DUP2 EQ PUSH2 0x18F JUMPI PUSH1 0x2 DUP2 EQ PUSH2 0x199 JUMPI PUSH2 0x1B5 JUMP JUMPDEST PUSH1 0x1 SWAP2 POP POP PUSH2 0x1FB JUMP JUMPDEST PUSH1 0xFF DUP5 GT ISZERO PUSH2 0x1AA JUMPI PUSH2 0x1AA PUSH2 0x108 JUMP JUMPDEST POP POP PUSH1 0x1 DUP3 SHL PUSH2 0x1FB JUMP JUMPDEST POP PUSH1 0x20 DUP4 LT PUSH2 0x133 DUP4 LT AND PUSH1 0x4E DUP5 LT PUSH1 0xB DUP5 LT AND OR ISZERO PUSH2 0x1D8 JUMPI POP DUP2 DUP2 EXP PUSH2 0x1FB JUMP JUMPDEST PUSH2 0x1E4 PUSH0 NOT DUP5 DUP5 PUSH2 0x11C JUMP JUMPDEST DUP1 PUSH0 NOT DIV DUP3 GT ISZERO PUSH2 0x1F7 JUMPI PUSH2 0x1F7 PUSH2 0x108 JUMP JUMPDEST MUL SWAP1 POP JUMPDEST SWAP3 SWAP2 POP POP JUMP JUMPDEST PUSH0 PUSH2 0x20C DUP4 DUP4 PUSH2 0x15F JUMP JUMPDEST SWAP4 SWAP3 POP POP POP JUMP INVALID LOG2 PUSH5 0x6970667358 0x22 SLT KECCAK256 BLOBHASH SMOD 0xC7 SGT 0xCC PUSH31 0x9C67DA1D643E9580833C097A26F2D5AFB0E0F7B170CE0ACE86A764736F6C63 NUMBER STOP ADDMOD SHL STOP CALLER "},"methodIdentifiers":{"MAX_LEAVES()":"082febf0","TREE_DEPTH()":"f1650536","filledSubtrees(uint256)":"f178e47c","nextLeafIndex()":"0be4f422","root()":"ebf0c717","zeroHashes(uint256)":"7ac54767"}}}}}