{"contracts/BLSGun.sol":{"BLSGun":{"abi":[{"inputs":[{"internalType":"address","name":"_verifier","type":"address"}],"stateMutability":"nonpayable","type":"constructor"},{"anonymous":false,"inputs":[{"indexed":true,"internalType":"bytes32","name":"nullifier","type":"bytes32"},{"indexed":true,"internalType":"bytes32","name":"outputCommitment","type":"bytes32"}],"name":"PrivateTransfer","type":"event"},{"anonymous":false,"inputs":[{"indexed":true,"internalType":"address","name":"sender","type":"address"},{"indexed":true,"internalType":"bytes32","name":"commitment","type":"bytes32"},{"indexed":false,"internalType":"uint256","name":"amount","type":"uint256"}],"name":"Shield","type":"event"},{"anonymous":false,"inputs":[{"indexed":true,"internalType":"bytes32","name":"nullifier","type":"bytes32"},{"indexed":true,"internalType":"address","name":"recipient","type":"address"},{"indexed":false,"internalType":"uint256","name":"amount","type":"uint256"}],"name":"Unshield","type":"event"},{"inputs":[],"name":"MAX_LEAVES","outputs":[{"internalType":"uint256","name":"","type":"uint256"}],"stateMutability":"view","type":"function"},{"inputs":[],"name":"TREE_DEPTH","outputs":[{"internalType":"uint256","name":"","type":"uint256"}],"stateMutability":"view","type":"function"},{"inputs":[{"internalType":"uint256","name":"","type":"uint256"}],"name":"filledSubtrees","outputs":[{"internalType":"bytes32","name":"","type":"bytes32"}],"stateMutability":"view","type":"function"},{"inputs":[],"name":"getCommitmentCount","outputs":[{"internalType":"uint256","name":"","type":"uint256"}],"stateMutability":"view","type":"function"},{"inputs":[],"name":"getMerkleRoot","outputs":[{"internalType":"bytes32","name":"","type":"bytes32"}],"stateMutability":"view","type":"function"},{"inputs":[{"internalType":"bytes32","name":"nullifier","type":"bytes32"}],"name":"isNullifierSpent","outputs":[{"internalType":"bool","name":"","type":"bool"}],"stateMutability":"view","type":"function"},{"inputs":[],"name":"nextLeafIndex","outputs":[{"internalType":"uint256","name":"","type":"uint256"}],"stateMutability":"view","type":"function"},{"inputs":[{"internalType":"bytes32","name":"","type":"bytes32"}],"name":"nullifiers","outputs":[{"internalType":"bool","name":"","type":"bool"}],"stateMutability":"view","type":"function"},{"inputs":[{"internalType":"bytes32","name":"nullifier","type":"bytes32"},{"internalType":"bytes32","name":"outputCommitment","type":"bytes32"},{"internalType":"bytes","name":"proof","type":"bytes"}],"name":"privateTransfer","outputs":[],"stateMutability":"nonpayable","type":"function"},{"inputs":[],"name":"root","outputs":[{"internalType":"bytes32","name":"","type":"bytes32"}],"stateMutability":"view","type":"function"},{"inputs":[{"internalType":"bytes32","name":"commitment","type":"bytes32"}],"name":"shield","outputs":[],"stateMutability":"payable","type":"function"},{"inputs":[{"internalType":"bytes32","name":"nullifier","type":"bytes32"},{"internalType":"address payable","name":"recipient","type":"address"},{"internalType":"uint256","name":"amount","type":"uint256"},{"internalType":"bytes","name":"proof","type":"bytes"}],"name":"unshield","outputs":[],"stateMutability":"nonpayable","type":"function"},{"inputs":[],"name":"verifier","outputs":[{"internalType":"contract IVerifier","name":"","type":"address"}],"stateMutability":"view","type":"function"},{"inputs":[{"internalType":"uint256","name":"","type":"uint256"}],"name":"zeroHashes","outputs":[{"internalType":"bytes32","name":"","type":"bytes32"}],"stateMutability":"view","type":"function"},{"stateMutability":"payable","type":"receive"}],"evm":{"bytecode":{"linkReferences":{},"object":"60a060405234801561000f575f5ffd5b50604051610f53380380610f5383398101604081905261002e91610133565b5f805560015b601481116100a6576100805f61004b600184610188565b6015811061005b5761005b610160565b01545f610069600185610188565b6015811061007957610079610160565b0154610104565b5f826015811061009257610092610160565b01558061009e8161019b565b915050610034565b505f5b601481116100ec575f81601581106100c3576100c3610160565b0154601582601581106100d8576100d8610160565b0155806100e48161019b565b9150506100a9565b50601454602b556001600160a01b03166080526101b3565b604080516020808201859052818301849052825180830384018152606090920190925280519101205b92915050565b5f60208284031215610143575f5ffd5b81516001600160a01b0381168114610159575f5ffd5b9392505050565b634e487b7160e01b5f52603260045260245ffd5b634e487b7160e01b5f52601160045260245ffd5b8181038181111561012d5761012d610174565b5f600182016101ac576101ac610174565b5060010190565b608051610d7a6101d95f395f81816101870152818161053701526107ca0152610d7a5ff3fe6080604052600436106100dc575f3560e01c80635688881f1161007c578063d5a4e32511610057578063d5a4e32514610246578063ebf0c71714610274578063f165053614610289578063f178e47c1461029d575f5ffd5b80635688881f146101f457806370be3e7d146102085780637ac5476714610227575f5ffd5b80632997e86b116100b75780632997e86b146101385780632b7ac3f3146101765780633495a3b4146101c157806349590657146101e0575f5ffd5b8063082febf0146100e75780630be4f4221461010e5780632612354814610123575f5ffd5b366100e357005b5f5ffd5b3480156100f2575f5ffd5b506100fb6102bc565b6040519081526020015b60405180910390f35b348015610119575f5ffd5b506100fb602a5481565b610136610131366004610a28565b6102cb565b005b348015610143575f5ffd5b50610166610152366004610a28565b602c6020525f908152604090205460ff1681565b6040519015158152602001610105565b348015610181575f5ffd5b506101a97f000000000000000000000000000000000000000000000000000000000000000081565b6040516001600160a01b039091168152602001610105565b3480156101cc575f5ffd5b506101366101db366004610a84565b6103aa565b3480156101eb575f5ffd5b50602b546100fb565b3480156101ff575f5ffd5b50602a546100fb565b348015610213575f5ffd5b50610136610222366004610af4565b6106de565b348015610232575f5ffd5b506100fb610241366004610a28565b6108d4565b348015610251575f5ffd5b50610166610260366004610a28565b5f908152602c602052604090205460ff1690565b34801561027f575f5ffd5b506100fb602b5481565b348015610294575f5ffd5b506100fb601481565b3480156102a8575f5ffd5b506100fb6102b7366004610a28565b6108e9565b6102c860146002610c3a565b81565b5f34116103145760405162461bcd60e51b81526020600482015260126024820152714d757374206465706f7369742076616c756560701b60448201526064015b60405180910390fd5b806103565760405162461bcd60e51b8152602060048201526012602482015271125b9d985b1a590818dbdb5b5a5d1b595b9d60721b604482015260640161030b565b5f610360826108f8565b905081336001600160a01b03167f2ea2f16cf99095512ab31fb564c28506d8b72758cc9a4175583f8d024a16c1523460405161039e91815260200190565b60405180910390a35050565b5f858152602c602052604090205460ff16156103fd5760405162461bcd60e51b8152602060048201526012602482015271139bdd1948185b1c9958591e481cdc195b9d60721b604482015260640161030b565b5f831161044c5760405162461bcd60e51b815260206004820152601760248201527f416d6f756e74206d75737420626520706f736974697665000000000000000000604482015260640161030b565b8247101561049c5760405162461bcd60e51b815260206004820152601960248201527f496e73756666696369656e7420706f6f6c2062616c616e636500000000000000604482015260640161030b565b604080516003808252608082019092525f916020820160608036833701905050905085815f815181106104d1576104d1610c4c565b602002602001018181525050835f1b816001815181106104f3576104f3610c4c565b602002602001018181525050602b548160028151811061051557610515610c4c565b6020908102919091010152604051633a94343960e21b81526001600160a01b037f0000000000000000000000000000000000000000000000000000000000000000169063ea50d0e49061057090869086908690600401610c60565b6020604051808303815f875af115801561058c573d5f5f3e3d5ffd5b505050506040513d601f19601f820116820180604052508101906105b09190610cd8565b6105ec5760405162461bcd60e51b815260206004820152600d60248201526c24b73b30b634b210383937b7b360991b604482015260640161030b565b5f868152602c6020526040808220805460ff19166001179055516001600160a01b0387169086908381818185875af1925050503d805f8114610649576040519150601f19603f3d011682016040523d82523d5f602084013e61064e565b606091505b50509050806106915760405162461bcd60e51b815260206004820152600f60248201526e151c985b9cd9995c8819985a5b1959608a1b604482015260640161030b565b856001600160a01b0316877f7a80f1d28cde7af437839071848972b2a0b0d87a198873c35f1e5c19272df944876040516106cd91815260200190565b60405180910390a350505050505050565b5f848152602c602052604090205460ff16156107315760405162461bcd60e51b8152602060048201526012602482015271139bdd1948185b1c9958591e481cdc195b9d60721b604482015260640161030b565b604080516003808252608082019092525f916020820160608036833701905050905084815f8151811061076657610766610c4c565b602002602001018181525050838160018151811061078657610786610c4c565b602002602001018181525050602b54816002815181106107a8576107a8610c4c565b6020908102919091010152604051633a94343960e21b81526001600160a01b037f0000000000000000000000000000000000000000000000000000000000000000169063ea50d0e49061080390869086908690600401610c60565b6020604051808303815f875af115801561081f573d5f5f3e3d5ffd5b505050506040513d601f19601f820116820180604052508101906108439190610cd8565b61087f5760405162461bcd60e51b815260206004820152600d60248201526c24b73b30b634b210383937b7b360991b604482015260640161030b565b5f858152602c60205260409020805460ff191660011790556108a0846108f8565b50604051849086907fd2be5e1af978a60ae9cef2f81d49f263e289dcc7026ebb9ddf427cdd00e6cac9905f90a35050505050565b5f81601581106108e2575f80fd5b0154905081565b601581601581106108e2575f80fd5b5f61090560146002610c3a565b602a541061094b5760405162461bcd60e51b815260206004820152601360248201527213595c9adb19481d1c9959481a5cc8199d5b1b606a1b604482015260640161030b565b50602a5480825f5b60148110156109dd57610967600284610d0b565b5f036109a757816015826015811061098157610981610c4c565b01556109a0825f836015811061099957610999610c4c565b01546109f9565b91506109c8565b6109c5601582601581106109bd576109bd610c4c565b0154836109f9565b91505b6109d3600284610d1e565b9250600101610953565b50602b8190556109ee836001610d31565b602a55509092915050565b604080516020808201859052818301849052825180830384018152606090920190925280519101205b92915050565b5f60208284031215610a38575f5ffd5b5035919050565b5f5f83601f840112610a4f575f5ffd5b50813567ffffffffffffffff811115610a66575f5ffd5b602083019150836020828501011115610a7d575f5ffd5b9250929050565b5f5f5f5f5f60808688031215610a98575f5ffd5b8535945060208601356001600160a01b0381168114610ab5575f5ffd5b935060408601359250606086013567ffffffffffffffff811115610ad7575f5ffd5b610ae388828901610a3f565b969995985093965092949392505050565b5f5f5f5f60608587031215610b07575f5ffd5b8435935060208501359250604085013567ffffffffffffffff811115610b2b575f5ffd5b610b3787828801610a3f565b95989497509550505050565b634e487b7160e01b5f52601160045260245ffd5b6001815b6001841115610b9257808504811115610b7657610b76610b43565b6001841615610b8457908102905b60019390931c928002610b5b565b935093915050565b5f82610ba857506001610a22565b81610bb457505f610a22565b8160018114610bca5760028114610bd457610bf0565b6001915050610a22565b60ff841115610be557610be5610b43565b50506001821b610a22565b5060208310610133831016604e8410600b8410161715610c13575081810a610a22565b610c1f5f198484610b57565b805f1904821115610c3257610c32610b43565b029392505050565b5f610c458383610b9a565b9392505050565b634e487b7160e01b5f52603260045260245ffd5b60408152826040820152828460608301375f606084830101525f601f19601f85011682016060810160608483030160208501528085518083526080840191506020870193505f92505b80831015610ccc5783518252602082019150602084019350600183019250610ca9565b50979650505050505050565b5f60208284031215610ce8575f5ffd5b81518015158114610c45575f5ffd5b634e487b7160e01b5f52601260045260245ffd5b5f82610d1957610d19610cf7565b500690565b5f82610d2c57610d2c610cf7565b500490565b80820180821115610a2257610a22610b4356fea2646970667358221220c7c0b5d1e7b8815d3efb57415cd78553e8ddf81d7c60a1c91abe06d914009ecf64736f6c634300081b0033","opcodes":"PUSH1 0xA0 PUSH1 0x40 MSTORE CALLVALUE DUP1 ISZERO PUSH2 0xF JUMPI PUSH0 PUSH0 REVERT JUMPDEST POP PUSH1 0x40 MLOAD PUSH2 0xF53 CODESIZE SUB DUP1 PUSH2 0xF53 DUP4 CODECOPY DUP2 ADD PUSH1 0x40 DUP2 SWAP1 MSTORE PUSH2 0x2E SWAP2 PUSH2 0x133 JUMP JUMPDEST PUSH0 DUP1 SSTORE PUSH1 0x1 JUMPDEST PUSH1 0x14 DUP2 GT PUSH2 0xA6 JUMPI PUSH2 0x80 PUSH0 PUSH2 0x4B PUSH1 0x1 DUP5 PUSH2 0x188 JUMP JUMPDEST PUSH1 0x15 DUP2 LT PUSH2 0x5B JUMPI PUSH2 0x5B PUSH2 0x160 JUMP JUMPDEST ADD SLOAD PUSH0 PUSH2 0x69 PUSH1 0x1 DUP6 PUSH2 0x188 JUMP JUMPDEST PUSH1 0x15 DUP2 LT PUSH2 0x79 JUMPI PUSH2 0x79 PUSH2 0x160 JUMP JUMPDEST ADD SLOAD PUSH2 0x104 JUMP JUMPDEST PUSH0 DUP3 PUSH1 0x15 DUP2 LT PUSH2 0x92 JUMPI PUSH2 0x92 PUSH2 0x160 JUMP JUMPDEST ADD SSTORE DUP1 PUSH2 0x9E DUP2 PUSH2 0x19B JUMP JUMPDEST SWAP2 POP POP PUSH2 0x34 JUMP JUMPDEST POP PUSH0 JUMPDEST PUSH1 0x14 DUP2 GT PUSH2 0xEC JUMPI PUSH0 DUP2 PUSH1 0x15 DUP2 LT PUSH2 0xC3 JUMPI PUSH2 0xC3 PUSH2 0x160 JUMP JUMPDEST ADD SLOAD PUSH1 0x15 DUP3 PUSH1 0x15 DUP2 LT PUSH2 0xD8 JUMPI PUSH2 0xD8 PUSH2 0x160 JUMP JUMPDEST ADD SSTORE DUP1 PUSH2 0xE4 DUP2 PUSH2 0x19B JUMP JUMPDEST SWAP2 POP POP PUSH2 0xA9 JUMP JUMPDEST POP PUSH1 0x14 SLOAD PUSH1 0x2B SSTORE PUSH1 0x1 PUSH1 0x1 PUSH1 0xA0 SHL SUB AND PUSH1 0x80 MSTORE PUSH2 0x1B3 JUMP JUMPDEST PUSH1 0x40 DUP1 MLOAD PUSH1 0x20 DUP1 DUP3 ADD DUP6 SWAP1 MSTORE DUP2 DUP4 ADD DUP5 SWAP1 MSTORE DUP3 MLOAD DUP1 DUP4 SUB DUP5 ADD DUP2 MSTORE PUSH1 0x60 SWAP1 SWAP3 ADD SWAP1 SWAP3 MSTORE DUP1 MLOAD SWAP2 ADD KECCAK256 JUMPDEST SWAP3 SWAP2 POP POP JUMP JUMPDEST PUSH0 PUSH1 0x20 DUP3 DUP5 SUB SLT ISZERO PUSH2 0x143 JUMPI PUSH0 PUSH0 REVERT JUMPDEST DUP2 MLOAD PUSH1 0x1 PUSH1 0x1 PUSH1 0xA0 SHL SUB DUP2 AND DUP2 EQ PUSH2 0x159 JUMPI PUSH0 PUSH0 REVERT JUMPDEST SWAP4 SWAP3 POP POP POP JUMP JUMPDEST PUSH4 0x4E487B71 PUSH1 0xE0 SHL PUSH0 MSTORE PUSH1 0x32 PUSH1 0x4 MSTORE PUSH1 0x24 PUSH0 REVERT JUMPDEST PUSH4 0x4E487B71 PUSH1 0xE0 SHL PUSH0 MSTORE PUSH1 0x11 PUSH1 0x4 MSTORE PUSH1 0x24 PUSH0 REVERT JUMPDEST DUP2 DUP2 SUB DUP2 DUP2 GT ISZERO PUSH2 0x12D JUMPI PUSH2 0x12D PUSH2 0x174 JUMP JUMPDEST PUSH0 PUSH1 0x1 DUP3 ADD PUSH2 0x1AC JUMPI PUSH2 0x1AC PUSH2 0x174 JUMP JUMPDEST POP PUSH1 0x1 ADD SWAP1 JUMP JUMPDEST PUSH1 0x80 MLOAD PUSH2 0xD7A PUSH2 0x1D9 PUSH0 CODECOPY PUSH0 DUP2 DUP2 PUSH2 0x187 ADD MSTORE DUP2 DUP2 PUSH2 0x537 ADD MSTORE PUSH2 0x7CA ADD MSTORE PUSH2 0xD7A PUSH0 RETURN INVALID PUSH1 0x80 PUSH1 0x40 MSTORE PUSH1 0x4 CALLDATASIZE LT PUSH2 0xDC JUMPI PUSH0 CALLDATALOAD PUSH1 0xE0 SHR DUP1 PUSH4 0x5688881F GT PUSH2 0x7C JUMPI DUP1 PUSH4 0xD5A4E325 GT PUSH2 0x57 JUMPI DUP1 PUSH4 0xD5A4E325 EQ PUSH2 0x246 JUMPI DUP1 PUSH4 0xEBF0C717 EQ PUSH2 0x274 JUMPI DUP1 PUSH4 0xF1650536 EQ PUSH2 0x289 JUMPI DUP1 PUSH4 0xF178E47C EQ PUSH2 0x29D JUMPI PUSH0 PUSH0 REVERT JUMPDEST DUP1 PUSH4 0x5688881F EQ PUSH2 0x1F4 JUMPI DUP1 PUSH4 0x70BE3E7D EQ PUSH2 0x208 JUMPI DUP1 PUSH4 0x7AC54767 EQ PUSH2 0x227 JUMPI PUSH0 PUSH0 REVERT JUMPDEST DUP1 PUSH4 0x2997E86B GT PUSH2 0xB7 JUMPI DUP1 PUSH4 0x2997E86B EQ PUSH2 0x138 JUMPI DUP1 PUSH4 0x2B7AC3F3 EQ PUSH2 0x176 JUMPI DUP1 PUSH4 0x3495A3B4 EQ PUSH2 0x1C1 JUMPI DUP1 PUSH4 0x49590657 EQ PUSH2 0x1E0 JUMPI PUSH0 PUSH0 REVERT JUMPDEST DUP1 PUSH4 0x82FEBF0 EQ PUSH2 0xE7 JUMPI DUP1 PUSH4 0xBE4F422 EQ PUSH2 0x10E JUMPI DUP1 PUSH4 0x26123548 EQ PUSH2 0x123 JUMPI PUSH0 PUSH0 REVERT JUMPDEST CALLDATASIZE PUSH2 0xE3 JUMPI STOP JUMPDEST PUSH0 PUSH0 REVERT JUMPDEST CALLVALUE DUP1 ISZERO PUSH2 0xF2 JUMPI PUSH0 PUSH0 REVERT JUMPDEST POP PUSH2 0xFB PUSH2 0x2BC JUMP JUMPDEST PUSH1 0x40 MLOAD SWAP1 DUP2 MSTORE PUSH1 0x20 ADD JUMPDEST PUSH1 0x40 MLOAD DUP1 SWAP2 SUB SWAP1 RETURN JUMPDEST CALLVALUE DUP1 ISZERO PUSH2 0x119 JUMPI PUSH0 PUSH0 REVERT JUMPDEST POP PUSH2 0xFB PUSH1 0x2A SLOAD DUP2 JUMP JUMPDEST PUSH2 0x136 PUSH2 0x131 CALLDATASIZE PUSH1 0x4 PUSH2 0xA28 JUMP JUMPDEST PUSH2 0x2CB JUMP JUMPDEST STOP JUMPDEST CALLVALUE DUP1 ISZERO PUSH2 0x143 JUMPI PUSH0 PUSH0 REVERT JUMPDEST POP PUSH2 0x166 PUSH2 0x152 CALLDATASIZE PUSH1 0x4 PUSH2 0xA28 JUMP JUMPDEST PUSH1 0x2C PUSH1 0x20 MSTORE PUSH0 SWAP1 DUP2 MSTORE PUSH1 0x40 SWAP1 KECCAK256 SLOAD PUSH1 0xFF AND DUP2 JUMP JUMPDEST PUSH1 0x40 MLOAD SWAP1 ISZERO ISZERO DUP2 MSTORE PUSH1 0x20 ADD PUSH2 0x105 JUMP JUMPDEST CALLVALUE DUP1 ISZERO PUSH2 0x181 JUMPI PUSH0 PUSH0 REVERT JUMPDEST POP PUSH2 0x1A9 PUSH32 0x0 DUP2 JUMP JUMPDEST PUSH1 0x40 MLOAD PUSH1 0x1 PUSH1 0x1 PUSH1 0xA0 SHL SUB SWAP1 SWAP2 AND DUP2 MSTORE PUSH1 0x20 ADD PUSH2 0x105 JUMP JUMPDEST CALLVALUE DUP1 ISZERO PUSH2 0x1CC JUMPI PUSH0 PUSH0 REVERT JUMPDEST POP PUSH2 0x136 PUSH2 0x1DB CALLDATASIZE PUSH1 0x4 PUSH2 0xA84 JUMP JUMPDEST PUSH2 0x3AA JUMP JUMPDEST CALLVALUE DUP1 ISZERO PUSH2 0x1EB JUMPI PUSH0 PUSH0 REVERT JUMPDEST POP PUSH1 0x2B SLOAD PUSH2 0xFB JUMP JUMPDEST CALLVALUE DUP1 ISZERO PUSH2 0x1FF JUMPI PUSH0 PUSH0 REVERT JUMPDEST POP PUSH1 0x2A SLOAD PUSH2 0xFB JUMP JUMPDEST CALLVALUE DUP1 ISZERO PUSH2 0x213 JUMPI PUSH0 PUSH0 REVERT JUMPDEST POP PUSH2 0x136 PUSH2 0x222 CALLDATASIZE PUSH1 0x4 PUSH2 0xAF4 JUMP JUMPDEST PUSH2 0x6DE JUMP JUMPDEST CALLVALUE DUP1 ISZERO PUSH2 0x232 JUMPI PUSH0 PUSH0 REVERT JUMPDEST POP PUSH2 0xFB PUSH2 0x241 CALLDATASIZE PUSH1 0x4 PUSH2 0xA28 JUMP JUMPDEST PUSH2 0x8D4 JUMP JUMPDEST CALLVALUE DUP1 ISZERO PUSH2 0x251 JUMPI PUSH0 PUSH0 REVERT JUMPDEST POP PUSH2 0x166 PUSH2 0x260 CALLDATASIZE PUSH1 0x4 PUSH2 0xA28 JUMP JUMPDEST PUSH0 SWAP1 DUP2 MSTORE PUSH1 0x2C PUSH1 0x20 MSTORE PUSH1 0x40 SWAP1 KECCAK256 SLOAD PUSH1 0xFF AND SWAP1 JUMP JUMPDEST CALLVALUE DUP1 ISZERO PUSH2 0x27F JUMPI PUSH0 PUSH0 REVERT JUMPDEST POP PUSH2 0xFB PUSH1 0x2B SLOAD DUP2 JUMP JUMPDEST CALLVALUE DUP1 ISZERO PUSH2 0x294 JUMPI PUSH0 PUSH0 REVERT JUMPDEST POP PUSH2 0xFB PUSH1 0x14 DUP2 JUMP JUMPDEST CALLVALUE DUP1 ISZERO PUSH2 0x2A8 JUMPI PUSH0 PUSH0 REVERT JUMPDEST POP PUSH2 0xFB PUSH2 0x2B7 CALLDATASIZE PUSH1 0x4 PUSH2 0xA28 JUMP JUMPDEST PUSH2 0x8E9 JUMP JUMPDEST PUSH2 0x2C8 PUSH1 0x14 PUSH1 0x2 PUSH2 0xC3A JUMP JUMPDEST DUP2 JUMP JUMPDEST PUSH0 CALLVALUE GT PUSH2 0x314 JUMPI PUSH1 0x40 MLOAD PUSH3 0x461BCD PUSH1 0xE5 SHL DUP2 MSTORE PUSH1 0x20 PUSH1 0x4 DUP3 ADD MSTORE PUSH1 0x12 PUSH1 0x24 DUP3 ADD MSTORE PUSH18 0x4D757374206465706F7369742076616C7565 PUSH1 0x70 SHL PUSH1 0x44 DUP3 ADD MSTORE PUSH1 0x64 ADD JUMPDEST PUSH1 0x40 MLOAD DUP1 SWAP2 SUB SWAP1 REVERT JUMPDEST DUP1 PUSH2 0x356 JUMPI PUSH1 0x40 MLOAD PUSH3 0x461BCD PUSH1 0xE5 SHL DUP2 MSTORE PUSH1 0x20 PUSH1 0x4 DUP3 ADD MSTORE PUSH1 0x12 PUSH1 0x24 DUP3 ADD MSTORE PUSH18 0x125B9D985B1A590818DBDB5B5A5D1B595B9D PUSH1 0x72 SHL PUSH1 0x44 DUP3 ADD MSTORE PUSH1 0x64 ADD PUSH2 0x30B JUMP JUMPDEST PUSH0 PUSH2 0x360 DUP3 PUSH2 0x8F8 JUMP JUMPDEST SWAP1 POP DUP2 CALLER PUSH1 0x1 PUSH1 0x1 PUSH1 0xA0 SHL SUB AND PUSH32 0x2EA2F16CF99095512AB31FB564C28506D8B72758CC9A4175583F8D024A16C152 CALLVALUE PUSH1 0x40 MLOAD PUSH2 0x39E SWAP2 DUP2 MSTORE PUSH1 0x20 ADD SWAP1 JUMP JUMPDEST PUSH1 0x40 MLOAD DUP1 SWAP2 SUB SWAP1 LOG3 POP POP JUMP JUMPDEST PUSH0 DUP6 DUP2 MSTORE PUSH1 0x2C PUSH1 0x20 MSTORE PUSH1 0x40 SWAP1 KECCAK256 SLOAD PUSH1 0xFF AND ISZERO PUSH2 0x3FD JUMPI PUSH1 0x40 MLOAD PUSH3 0x461BCD PUSH1 0xE5 SHL DUP2 MSTORE PUSH1 0x20 PUSH1 0x4 DUP3 ADD MSTORE PUSH1 0x12 PUSH1 0x24 DUP3 ADD MSTORE PUSH18 0x139BDD1948185B1C9958591E481CDC195B9D PUSH1 0x72 SHL PUSH1 0x44 DUP3 ADD MSTORE PUSH1 0x64 ADD PUSH2 0x30B JUMP JUMPDEST PUSH0 DUP4 GT PUSH2 0x44C JUMPI PUSH1 0x40 MLOAD PUSH3 0x461BCD PUSH1 0xE5 SHL DUP2 MSTORE PUSH1 0x20 PUSH1 0x4 DUP3 ADD MSTORE PUSH1 0x17 PUSH1 0x24 DUP3 ADD MSTORE PUSH32 0x416D6F756E74206D75737420626520706F736974697665000000000000000000 PUSH1 0x44 DUP3 ADD MSTORE PUSH1 0x64 ADD PUSH2 0x30B JUMP JUMPDEST DUP3 SELFBALANCE LT ISZERO PUSH2 0x49C JUMPI PUSH1 0x40 MLOAD PUSH3 0x461BCD PUSH1 0xE5 SHL DUP2 MSTORE PUSH1 0x20 PUSH1 0x4 DUP3 ADD MSTORE PUSH1 0x19 PUSH1 0x24 DUP3 ADD MSTORE PUSH32 0x496E73756666696369656E7420706F6F6C2062616C616E636500000000000000 PUSH1 0x44 DUP3 ADD MSTORE PUSH1 0x64 ADD PUSH2 0x30B JUMP JUMPDEST PUSH1 0x40 DUP1 MLOAD PUSH1 0x3 DUP1 DUP3 MSTORE PUSH1 0x80 DUP3 ADD SWAP1 SWAP3 MSTORE PUSH0 SWAP2 PUSH1 0x20 DUP3 ADD PUSH1 0x60 DUP1 CALLDATASIZE DUP4 CALLDATACOPY ADD SWAP1 POP POP SWAP1 POP DUP6 DUP2 PUSH0 DUP2 MLOAD DUP2 LT PUSH2 0x4D1 JUMPI PUSH2 0x4D1 PUSH2 0xC4C JUMP JUMPDEST PUSH1 0x20 MUL PUSH1 0x20 ADD ADD DUP2 DUP2 MSTORE POP POP DUP4 PUSH0 SHL DUP2 PUSH1 0x1 DUP2 MLOAD DUP2 LT PUSH2 0x4F3 JUMPI PUSH2 0x4F3 PUSH2 0xC4C JUMP JUMPDEST PUSH1 0x20 MUL PUSH1 0x20 ADD ADD DUP2 DUP2 MSTORE POP POP PUSH1 0x2B SLOAD DUP2 PUSH1 0x2 DUP2 MLOAD DUP2 LT PUSH2 0x515 JUMPI PUSH2 0x515 PUSH2 0xC4C JUMP JUMPDEST PUSH1 0x20 SWAP1 DUP2 MUL SWAP2 SWAP1 SWAP2 ADD ADD MSTORE PUSH1 0x40 MLOAD PUSH4 0x3A943439 PUSH1 0xE2 SHL DUP2 MSTORE PUSH1 0x1 PUSH1 0x1 PUSH1 0xA0 SHL SUB PUSH32 0x0 AND SWAP1 PUSH4 0xEA50D0E4 SWAP1 PUSH2 0x570 SWAP1 DUP7 SWAP1 DUP7 SWAP1 DUP7 SWAP1 PUSH1 0x4 ADD PUSH2 0xC60 JUMP JUMPDEST PUSH1 0x20 PUSH1 0x40 MLOAD DUP1 DUP4 SUB DUP2 PUSH0 DUP8 GAS CALL ISZERO DUP1 ISZERO PUSH2 0x58C JUMPI RETURNDATASIZE PUSH0 PUSH0 RETURNDATACOPY RETURNDATASIZE PUSH0 REVERT JUMPDEST POP POP POP POP PUSH1 0x40 MLOAD RETURNDATASIZE PUSH1 0x1F NOT PUSH1 0x1F DUP3 ADD AND DUP3 ADD DUP1 PUSH1 0x40 MSTORE POP DUP2 ADD SWAP1 PUSH2 0x5B0 SWAP2 SWAP1 PUSH2 0xCD8 JUMP JUMPDEST PUSH2 0x5EC JUMPI PUSH1 0x40 MLOAD PUSH3 0x461BCD PUSH1 0xE5 SHL DUP2 MSTORE PUSH1 0x20 PUSH1 0x4 DUP3 ADD MSTORE PUSH1 0xD PUSH1 0x24 DUP3 ADD MSTORE PUSH13 0x24B73B30B634B210383937B7B3 PUSH1 0x99 SHL PUSH1 0x44 DUP3 ADD MSTORE PUSH1 0x64 ADD PUSH2 0x30B JUMP JUMPDEST PUSH0 DUP7 DUP2 MSTORE PUSH1 0x2C PUSH1 0x20 MSTORE PUSH1 0x40 DUP1 DUP3 KECCAK256 DUP1 SLOAD PUSH1 0xFF NOT AND PUSH1 0x1 OR SWAP1 SSTORE MLOAD PUSH1 0x1 PUSH1 0x1 PUSH1 0xA0 SHL SUB DUP8 AND SWAP1 DUP7 SWAP1 DUP4 DUP2 DUP2 DUP2 DUP6 DUP8 GAS CALL SWAP3 POP POP POP RETURNDATASIZE DUP1 PUSH0 DUP2 EQ PUSH2 0x649 JUMPI PUSH1 0x40 MLOAD SWAP2 POP PUSH1 0x1F NOT PUSH1 0x3F RETURNDATASIZE ADD AND DUP3 ADD PUSH1 0x40 MSTORE RETURNDATASIZE DUP3 MSTORE RETURNDATASIZE PUSH0 PUSH1 0x20 DUP5 ADD RETURNDATACOPY PUSH2 0x64E JUMP JUMPDEST PUSH1 0x60 SWAP2 POP JUMPDEST POP POP SWAP1 POP DUP1 PUSH2 0x691 JUMPI PUSH1 0x40 MLOAD PUSH3 0x461BCD PUSH1 0xE5 SHL DUP2 MSTORE PUSH1 0x20 PUSH1 0x4 DUP3 ADD MSTORE PUSH1 0xF PUSH1 0x24 DUP3 ADD MSTORE PUSH15 0x151C985B9CD9995C8819985A5B1959 PUSH1 0x8A SHL PUSH1 0x44 DUP3 ADD MSTORE PUSH1 0x64 ADD PUSH2 0x30B JUMP JUMPDEST DUP6 PUSH1 0x1 PUSH1 0x1 PUSH1 0xA0 SHL SUB AND DUP8 PUSH32 0x7A80F1D28CDE7AF437839071848972B2A0B0D87A198873C35F1E5C19272DF944 DUP8 PUSH1 0x40 MLOAD PUSH2 0x6CD SWAP2 DUP2 MSTORE PUSH1 0x20 ADD SWAP1 JUMP JUMPDEST PUSH1 0x40 MLOAD DUP1 SWAP2 SUB SWAP1 LOG3 POP POP POP POP POP POP POP JUMP JUMPDEST PUSH0 DUP5 DUP2 MSTORE PUSH1 0x2C PUSH1 0x20 MSTORE PUSH1 0x40 SWAP1 KECCAK256 SLOAD PUSH1 0xFF AND ISZERO PUSH2 0x731 JUMPI PUSH1 0x40 MLOAD PUSH3 0x461BCD PUSH1 0xE5 SHL DUP2 MSTORE PUSH1 0x20 PUSH1 0x4 DUP3 ADD MSTORE PUSH1 0x12 PUSH1 0x24 DUP3 ADD MSTORE PUSH18 0x139BDD1948185B1C9958591E481CDC195B9D PUSH1 0x72 SHL PUSH1 0x44 DUP3 ADD MSTORE PUSH1 0x64 ADD PUSH2 0x30B JUMP JUMPDEST PUSH1 0x40 DUP1 MLOAD PUSH1 0x3 DUP1 DUP3 MSTORE PUSH1 0x80 DUP3 ADD SWAP1 SWAP3 MSTORE PUSH0 SWAP2 PUSH1 0x20 DUP3 ADD PUSH1 0x60 DUP1 CALLDATASIZE DUP4 CALLDATACOPY ADD SWAP1 POP POP SWAP1 POP DUP5 DUP2 PUSH0 DUP2 MLOAD DUP2 LT PUSH2 0x766 JUMPI PUSH2 0x766 PUSH2 0xC4C JUMP JUMPDEST PUSH1 0x20 MUL PUSH1 0x20 ADD ADD DUP2 DUP2 MSTORE POP POP DUP4 DUP2 PUSH1 0x1 DUP2 MLOAD DUP2 LT PUSH2 0x786 JUMPI PUSH2 0x786 PUSH2 0xC4C JUMP JUMPDEST PUSH1 0x20 MUL PUSH1 0x20 ADD ADD DUP2 DUP2 MSTORE POP POP PUSH1 0x2B SLOAD DUP2 PUSH1 0x2 DUP2 MLOAD DUP2 LT PUSH2 0x7A8 JUMPI PUSH2 0x7A8 PUSH2 0xC4C JUMP JUMPDEST PUSH1 0x20 SWAP1 DUP2 MUL SWAP2 SWAP1 SWAP2 ADD ADD MSTORE PUSH1 0x40 MLOAD PUSH4 0x3A943439 PUSH1 0xE2 SHL DUP2 MSTORE PUSH1 0x1 PUSH1 0x1 PUSH1 0xA0 SHL SUB PUSH32 0x0 AND SWAP1 PUSH4 0xEA50D0E4 SWAP1 PUSH2 0x803 SWAP1 DUP7 SWAP1 DUP7 SWAP1 DUP7 SWAP1 PUSH1 0x4 ADD PUSH2 0xC60 JUMP JUMPDEST PUSH1 0x20 PUSH1 0x40 MLOAD DUP1 DUP4 SUB DUP2 PUSH0 DUP8 GAS CALL ISZERO DUP1 ISZERO PUSH2 0x81F JUMPI RETURNDATASIZE PUSH0 PUSH0 RETURNDATACOPY RETURNDATASIZE PUSH0 REVERT JUMPDEST POP POP POP POP PUSH1 0x40 MLOAD RETURNDATASIZE PUSH1 0x1F NOT PUSH1 0x1F DUP3 ADD AND DUP3 ADD DUP1 PUSH1 0x40 MSTORE POP DUP2 ADD SWAP1 PUSH2 0x843 SWAP2 SWAP1 PUSH2 0xCD8 JUMP JUMPDEST PUSH2 0x87F JUMPI PUSH1 0x40 MLOAD PUSH3 0x461BCD PUSH1 0xE5 SHL DUP2 MSTORE PUSH1 0x20 PUSH1 0x4 DUP3 ADD MSTORE PUSH1 0xD PUSH1 0x24 DUP3 ADD MSTORE PUSH13 0x24B73B30B634B210383937B7B3 PUSH1 0x99 SHL PUSH1 0x44 DUP3 ADD MSTORE PUSH1 0x64 ADD PUSH2 0x30B JUMP JUMPDEST PUSH0 DUP6 DUP2 MSTORE PUSH1 0x2C PUSH1 0x20 MSTORE PUSH1 0x40 SWAP1 KECCAK256 DUP1 SLOAD PUSH1 0xFF NOT AND PUSH1 0x1 OR SWAP1 SSTORE PUSH2 0x8A0 DUP5 PUSH2 0x8F8 JUMP JUMPDEST POP PUSH1 0x40 MLOAD DUP5 SWAP1 DUP7 SWAP1 PUSH32 0xD2BE5E1AF978A60AE9CEF2F81D49F263E289DCC7026EBB9DDF427CDD00E6CAC9 SWAP1 PUSH0 SWAP1 LOG3 POP POP POP POP POP JUMP JUMPDEST PUSH0 DUP2 PUSH1 0x15 DUP2 LT PUSH2 0x8E2 JUMPI PUSH0 DUP1 REVERT JUMPDEST ADD SLOAD SWAP1 POP DUP2 JUMP JUMPDEST PUSH1 0x15 DUP2 PUSH1 0x15 DUP2 LT PUSH2 0x8E2 JUMPI PUSH0 DUP1 REVERT JUMPDEST PUSH0 PUSH2 0x905 PUSH1 0x14 PUSH1 0x2 PUSH2 0xC3A JUMP JUMPDEST PUSH1 0x2A SLOAD LT PUSH2 0x94B JUMPI PUSH1 0x40 MLOAD PUSH3 0x461BCD PUSH1 0xE5 SHL DUP2 MSTORE PUSH1 0x20 PUSH1 0x4 DUP3 ADD MSTORE PUSH1 0x13 PUSH1 0x24 DUP3 ADD MSTORE PUSH19 0x13595C9ADB19481D1C9959481A5CC8199D5B1B PUSH1 0x6A SHL PUSH1 0x44 DUP3 ADD MSTORE PUSH1 0x64 ADD PUSH2 0x30B JUMP JUMPDEST POP PUSH1 0x2A SLOAD DUP1 DUP3 PUSH0 JUMPDEST PUSH1 0x14 DUP2 LT ISZERO PUSH2 0x9DD JUMPI PUSH2 0x967 PUSH1 0x2 DUP5 PUSH2 0xD0B JUMP JUMPDEST PUSH0 SUB PUSH2 0x9A7 JUMPI DUP2 PUSH1 0x15 DUP3 PUSH1 0x15 DUP2 LT PUSH2 0x981 JUMPI PUSH2 0x981 PUSH2 0xC4C JUMP JUMPDEST ADD SSTORE PUSH2 0x9A0 DUP3 PUSH0 DUP4 PUSH1 0x15 DUP2 LT PUSH2 0x999 JUMPI PUSH2 0x999 PUSH2 0xC4C JUMP JUMPDEST ADD SLOAD PUSH2 0x9F9 JUMP JUMPDEST SWAP2 POP PUSH2 0x9C8 JUMP JUMPDEST PUSH2 0x9C5 PUSH1 0x15 DUP3 PUSH1 0x15 DUP2 LT PUSH2 0x9BD JUMPI PUSH2 0x9BD PUSH2 0xC4C JUMP JUMPDEST ADD SLOAD DUP4 PUSH2 0x9F9 JUMP JUMPDEST SWAP2 POP JUMPDEST PUSH2 0x9D3 PUSH1 0x2 DUP5 PUSH2 0xD1E JUMP JUMPDEST SWAP3 POP PUSH1 0x1 ADD PUSH2 0x953 JUMP JUMPDEST POP PUSH1 0x2B DUP2 SWAP1 SSTORE PUSH2 0x9EE DUP4 PUSH1 0x1 PUSH2 0xD31 JUMP JUMPDEST PUSH1 0x2A SSTORE POP SWAP1 SWAP3 SWAP2 POP POP JUMP JUMPDEST PUSH1 0x40 DUP1 MLOAD PUSH1 0x20 DUP1 DUP3 ADD DUP6 SWAP1 MSTORE DUP2 DUP4 ADD DUP5 SWAP1 MSTORE DUP3 MLOAD DUP1 DUP4 SUB DUP5 ADD DUP2 MSTORE PUSH1 0x60 SWAP1 SWAP3 ADD SWAP1 SWAP3 MSTORE DUP1 MLOAD SWAP2 ADD KECCAK256 JUMPDEST SWAP3 SWAP2 POP POP JUMP JUMPDEST PUSH0 PUSH1 0x20 DUP3 DUP5 SUB SLT ISZERO PUSH2 0xA38 JUMPI PUSH0 PUSH0 REVERT JUMPDEST POP CALLDATALOAD SWAP2 SWAP1 POP JUMP JUMPDEST PUSH0 PUSH0 DUP4 PUSH1 0x1F DUP5 ADD SLT PUSH2 0xA4F JUMPI PUSH0 PUSH0 REVERT JUMPDEST POP DUP2 CALLDATALOAD PUSH8 0xFFFFFFFFFFFFFFFF DUP2 GT ISZERO PUSH2 0xA66 JUMPI PUSH0 PUSH0 REVERT JUMPDEST PUSH1 0x20 DUP4 ADD SWAP2 POP DUP4 PUSH1 0x20 DUP3 DUP6 ADD ADD GT ISZERO PUSH2 0xA7D JUMPI PUSH0 PUSH0 REVERT JUMPDEST SWAP3 POP SWAP3 SWAP1 POP JUMP JUMPDEST PUSH0 PUSH0 PUSH0 PUSH0 PUSH0 PUSH1 0x80 DUP7 DUP9 SUB SLT ISZERO PUSH2 0xA98 JUMPI PUSH0 PUSH0 REVERT JUMPDEST DUP6 CALLDATALOAD SWAP5 POP PUSH1 0x20 DUP7 ADD CALLDATALOAD PUSH1 0x1 PUSH1 0x1 PUSH1 0xA0 SHL SUB DUP2 AND DUP2 EQ PUSH2 0xAB5 JUMPI PUSH0 PUSH0 REVERT JUMPDEST SWAP4 POP PUSH1 0x40 DUP7 ADD CALLDATALOAD SWAP3 POP PUSH1 0x60 DUP7 ADD CALLDATALOAD PUSH8 0xFFFFFFFFFFFFFFFF DUP2 GT ISZERO PUSH2 0xAD7 JUMPI PUSH0 PUSH0 REVERT JUMPDEST PUSH2 0xAE3 DUP9 DUP3 DUP10 ADD PUSH2 0xA3F JUMP JUMPDEST SWAP7 SWAP10 SWAP6 SWAP9 POP SWAP4 SWAP7 POP SWAP3 SWAP5 SWAP4 SWAP3 POP POP POP JUMP JUMPDEST PUSH0 PUSH0 PUSH0 PUSH0 PUSH1 0x60 DUP6 DUP8 SUB SLT ISZERO PUSH2 0xB07 JUMPI PUSH0 PUSH0 REVERT JUMPDEST DUP5 CALLDATALOAD SWAP4 POP PUSH1 0x20 DUP6 ADD CALLDATALOAD SWAP3 POP PUSH1 0x40 DUP6 ADD CALLDATALOAD PUSH8 0xFFFFFFFFFFFFFFFF DUP2 GT ISZERO PUSH2 0xB2B JUMPI PUSH0 PUSH0 REVERT JUMPDEST PUSH2 0xB37 DUP8 DUP3 DUP9 ADD PUSH2 0xA3F JUMP JUMPDEST SWAP6 SWAP9 SWAP5 SWAP8 POP SWAP6 POP POP POP POP JUMP JUMPDEST PUSH4 0x4E487B71 PUSH1 0xE0 SHL PUSH0 MSTORE PUSH1 0x11 PUSH1 0x4 MSTORE PUSH1 0x24 PUSH0 REVERT JUMPDEST PUSH1 0x1 DUP2 JUMPDEST PUSH1 0x1 DUP5 GT ISZERO PUSH2 0xB92 JUMPI DUP1 DUP6 DIV DUP2 GT ISZERO PUSH2 0xB76 JUMPI PUSH2 0xB76 PUSH2 0xB43 JUMP JUMPDEST PUSH1 0x1 DUP5 AND ISZERO PUSH2 0xB84 JUMPI SWAP1 DUP2 MUL SWAP1 JUMPDEST PUSH1 0x1 SWAP4 SWAP1 SWAP4 SHR SWAP3 DUP1 MUL PUSH2 0xB5B JUMP JUMPDEST SWAP4 POP SWAP4 SWAP2 POP POP JUMP JUMPDEST PUSH0 DUP3 PUSH2 0xBA8 JUMPI POP PUSH1 0x1 PUSH2 0xA22 JUMP JUMPDEST DUP2 PUSH2 0xBB4 JUMPI POP PUSH0 PUSH2 0xA22 JUMP JUMPDEST DUP2 PUSH1 0x1 DUP2 EQ PUSH2 0xBCA JUMPI PUSH1 0x2 DUP2 EQ PUSH2 0xBD4 JUMPI PUSH2 0xBF0 JUMP JUMPDEST PUSH1 0x1 SWAP2 POP POP PUSH2 0xA22 JUMP JUMPDEST PUSH1 0xFF DUP5 GT ISZERO PUSH2 0xBE5 JUMPI PUSH2 0xBE5 PUSH2 0xB43 JUMP JUMPDEST POP POP PUSH1 0x1 DUP3 SHL PUSH2 0xA22 JUMP JUMPDEST POP PUSH1 0x20 DUP4 LT PUSH2 0x133 DUP4 LT AND PUSH1 0x4E DUP5 LT PUSH1 0xB DUP5 LT AND OR ISZERO PUSH2 0xC13 JUMPI POP DUP2 DUP2 EXP PUSH2 0xA22 JUMP JUMPDEST PUSH2 0xC1F PUSH0 NOT DUP5 DUP5 PUSH2 0xB57 JUMP JUMPDEST DUP1 PUSH0 NOT DIV DUP3 GT ISZERO PUSH2 0xC32 JUMPI PUSH2 0xC32 PUSH2 0xB43 JUMP JUMPDEST MUL SWAP4 SWAP3 POP POP POP JUMP JUMPDEST PUSH0 PUSH2 0xC45 DUP4 DUP4 PUSH2 0xB9A JUMP JUMPDEST SWAP4 SWAP3 POP POP POP JUMP JUMPDEST PUSH4 0x4E487B71 PUSH1 0xE0 SHL PUSH0 MSTORE PUSH1 0x32 PUSH1 0x4 MSTORE PUSH1 0x24 PUSH0 REVERT JUMPDEST PUSH1 0x40 DUP2 MSTORE DUP3 PUSH1 0x40 DUP3 ADD MSTORE DUP3 DUP5 PUSH1 0x60 DUP4 ADD CALLDATACOPY PUSH0 PUSH1 0x60 DUP5 DUP4 ADD ADD MSTORE PUSH0 PUSH1 0x1F NOT PUSH1 0x1F DUP6 ADD AND DUP3 ADD PUSH1 0x60 DUP2 ADD PUSH1 0x60 DUP5 DUP4 SUB ADD PUSH1 0x20 DUP6 ADD MSTORE DUP1 DUP6 MLOAD DUP1 DUP4 MSTORE PUSH1 0x80 DUP5 ADD SWAP2 POP PUSH1 0x20 DUP8 ADD SWAP4 POP PUSH0 SWAP3 POP JUMPDEST DUP1 DUP4 LT ISZERO PUSH2 0xCCC JUMPI DUP4 MLOAD DUP3 MSTORE PUSH1 0x20 DUP3 ADD SWAP2 POP PUSH1 0x20 DUP5 ADD SWAP4 POP PUSH1 0x1 DUP4 ADD SWAP3 POP PUSH2 0xCA9 JUMP JUMPDEST POP SWAP8 SWAP7 POP POP POP POP POP POP POP JUMP JUMPDEST PUSH0 PUSH1 0x20 DUP3 DUP5 SUB SLT ISZERO PUSH2 0xCE8 JUMPI PUSH0 PUSH0 REVERT JUMPDEST DUP2 MLOAD DUP1 ISZERO ISZERO DUP2 EQ PUSH2 0xC45 JUMPI PUSH0 PUSH0 REVERT JUMPDEST PUSH4 0x4E487B71 PUSH1 0xE0 SHL PUSH0 MSTORE PUSH1 0x12 PUSH1 0x4 MSTORE PUSH1 0x24 PUSH0 REVERT JUMPDEST PUSH0 DUP3 PUSH2 0xD19 JUMPI PUSH2 0xD19 PUSH2 0xCF7 JUMP JUMPDEST POP MOD SWAP1 JUMP JUMPDEST PUSH0 DUP3 PUSH2 0xD2C JUMPI PUSH2 0xD2C PUSH2 0xCF7 JUMP JUMPDEST POP DIV SWAP1 JUMP JUMPDEST DUP1 DUP3 ADD DUP1 DUP3 GT ISZERO PUSH2 0xA22 JUMPI PUSH2 0xA22 PUSH2 0xB43 JUMP INVALID LOG2 PUSH5 0x6970667358 0x22 SLT KECCAK256 0xC7 0xC0 0xB5 0xD1 0xE7 0xB8 DUP2 TSTORE RETURNDATACOPY 0xFB JUMPI COINBASE TLOAD 0xD7 DUP6 MSTORE8 0xE8 0xDD 0xF8 SAR PUSH29 0x60A1C91ABE06D914009ECF64736F6C634300081B003300000000000000 "},"methodIdentifiers":{"MAX_LEAVES()":"082febf0","TREE_DEPTH()":"f1650536","filledSubtrees(uint256)":"f178e47c","getCommitmentCount()":"5688881f","getMerkleRoot()":"49590657","isNullifierSpent(bytes32)":"d5a4e325","nextLeafIndex()":"0be4f422","nullifiers(bytes32)":"2997e86b","privateTransfer(bytes32,bytes32,bytes)":"70be3e7d","root()":"ebf0c717","shield(bytes32)":"26123548","unshield(bytes32,address,uint256,bytes)":"3495a3b4","verifier()":"2b7ac3f3","zeroHashes(uint256)":"7ac54767"}}}}}