{
  "_format": "hh-sol-artifact-1",
  "contractName": "BLSGun",
  "sourceName": "contracts/BLSGun.sol",
  "abi": [
    {
      "inputs": [
        {
          "internalType": "address",
          "name": "_verifier",
          "type": "address"
        }
      ],
      "stateMutability": "nonpayable",
      "type": "constructor"
    },
    {
      "anonymous": false,
      "inputs": [
        {
          "indexed": true,
          "internalType": "bytes32",
          "name": "nullifier",
          "type": "bytes32"
        },
        {
          "indexed": true,
          "internalType": "bytes32",
          "name": "outputCommitment",
          "type": "bytes32"
        }
      ],
      "name": "PrivateTransfer",
      "type": "event"
    },
    {
      "anonymous": false,
      "inputs": [
        {
          "indexed": true,
          "internalType": "address",
          "name": "sender",
          "type": "address"
        },
        {
          "indexed": true,
          "internalType": "bytes32",
          "name": "commitment",
          "type": "bytes32"
        },
        {
          "indexed": false,
          "internalType": "uint256",
          "name": "amount",
          "type": "uint256"
        }
      ],
      "name": "Shield",
      "type": "event"
    },
    {
      "anonymous": false,
      "inputs": [
        {
          "indexed": true,
          "internalType": "bytes32",
          "name": "nullifier",
          "type": "bytes32"
        },
        {
          "indexed": true,
          "internalType": "address",
          "name": "recipient",
          "type": "address"
        },
        {
          "indexed": false,
          "internalType": "uint256",
          "name": "amount",
          "type": "uint256"
        }
      ],
      "name": "Unshield",
      "type": "event"
    },
    {
      "inputs": [],
      "name": "MAX_LEAVES",
      "outputs": [
        {
          "internalType": "uint256",
          "name": "",
          "type": "uint256"
        }
      ],
      "stateMutability": "view",
      "type": "function"
    },
    {
      "inputs": [],
      "name": "TREE_DEPTH",
      "outputs": [
        {
          "internalType": "uint256",
          "name": "",
          "type": "uint256"
        }
      ],
      "stateMutability": "view",
      "type": "function"
    },
    {
      "inputs": [
        {
          "internalType": "uint256",
          "name": "",
          "type": "uint256"
        }
      ],
      "name": "filledSubtrees",
      "outputs": [
        {
          "internalType": "bytes32",
          "name": "",
          "type": "bytes32"
        }
      ],
      "stateMutability": "view",
      "type": "function"
    },
    {
      "inputs": [],
      "name": "getCommitmentCount",
      "outputs": [
        {
          "internalType": "uint256",
          "name": "",
          "type": "uint256"
        }
      ],
      "stateMutability": "view",
      "type": "function"
    },
    {
      "inputs": [],
      "name": "getMerkleRoot",
      "outputs": [
        {
          "internalType": "bytes32",
          "name": "",
          "type": "bytes32"
        }
      ],
      "stateMutability": "view",
      "type": "function"
    },
    {
      "inputs": [
        {
          "internalType": "bytes32",
          "name": "nullifier",
          "type": "bytes32"
        }
      ],
      "name": "isNullifierSpent",
      "outputs": [
        {
          "internalType": "bool",
          "name": "",
          "type": "bool"
        }
      ],
      "stateMutability": "view",
      "type": "function"
    },
    {
      "inputs": [],
      "name": "nextLeafIndex",
      "outputs": [
        {
          "internalType": "uint256",
          "name": "",
          "type": "uint256"
        }
      ],
      "stateMutability": "view",
      "type": "function"
    },
    {
      "inputs": [
        {
          "internalType": "bytes32",
          "name": "",
          "type": "bytes32"
        }
      ],
      "name": "nullifiers",
      "outputs": [
        {
          "internalType": "bool",
          "name": "",
          "type": "bool"
        }
      ],
      "stateMutability": "view",
      "type": "function"
    },
    {
      "inputs": [
        {
          "internalType": "bytes32",
          "name": "nullifier",
          "type": "bytes32"
        },
        {
          "internalType": "bytes32",
          "name": "outputCommitment",
          "type": "bytes32"
        },
        {
          "internalType": "bytes",
          "name": "proof",
          "type": "bytes"
        }
      ],
      "name": "privateTransfer",
      "outputs": [],
      "stateMutability": "nonpayable",
      "type": "function"
    },
    {
      "inputs": [],
      "name": "root",
      "outputs": [
        {
          "internalType": "bytes32",
          "name": "",
          "type": "bytes32"
        }
      ],
      "stateMutability": "view",
      "type": "function"
    },
    {
      "inputs": [
        {
          "internalType": "bytes32",
          "name": "commitment",
          "type": "bytes32"
        }
      ],
      "name": "shield",
      "outputs": [],
      "stateMutability": "payable",
      "type": "function"
    },
    {
      "inputs": [
        {
          "internalType": "bytes32",
          "name": "nullifier",
          "type": "bytes32"
        },
        {
          "internalType": "address payable",
          "name": "recipient",
          "type": "address"
        },
        {
          "internalType": "uint256",
          "name": "amount",
          "type": "uint256"
        },
        {
          "internalType": "bytes",
          "name": "proof",
          "type": "bytes"
        }
      ],
      "name": "unshield",
      "outputs": [],
      "stateMutability": "nonpayable",
      "type": "function"
    },
    {
      "inputs": [],
      "name": "verifier",
      "outputs": [
        {
          "internalType": "contract IVerifier",
          "name": "",
          "type": "address"
        }
      ],
      "stateMutability": "view",
      "type": "function"
    },
    {
      "inputs": [
        {
          "internalType": "uint256",
          "name": "",
          "type": "uint256"
        }
      ],
      "name": "zeroHashes",
      "outputs": [
        {
          "internalType": "bytes32",
          "name": "",
          "type": "bytes32"
        }
      ],
      "stateMutability": "view",
      "type": "function"
    },
    {
      "stateMutability": "payable",
      "type": "receive"
    }
  ],
  "bytecode": "0x60a060405234801561000f575f5ffd5b50604051610f53380380610f5383398101604081905261002e91610133565b5f805560015b601481116100a6576100805f61004b600184610188565b6015811061005b5761005b610160565b01545f610069600185610188565b6015811061007957610079610160565b0154610104565b5f826015811061009257610092610160565b01558061009e8161019b565b915050610034565b505f5b601481116100ec575f81601581106100c3576100c3610160565b0154601582601581106100d8576100d8610160565b0155806100e48161019b565b9150506100a9565b50601454602b556001600160a01b03166080526101b3565b604080516020808201859052818301849052825180830384018152606090920190925280519101205b92915050565b5f60208284031215610143575f5ffd5b81516001600160a01b0381168114610159575f5ffd5b9392505050565b634e487b7160e01b5f52603260045260245ffd5b634e487b7160e01b5f52601160045260245ffd5b8181038181111561012d5761012d610174565b5f600182016101ac576101ac610174565b5060010190565b608051610d7a6101d95f395f81816101870152818161053701526107ca0152610d7a5ff3fe6080604052600436106100dc575f3560e01c80635688881f1161007c578063d5a4e32511610057578063d5a4e32514610246578063ebf0c71714610274578063f165053614610289578063f178e47c1461029d575f5ffd5b80635688881f146101f457806370be3e7d146102085780637ac5476714610227575f5ffd5b80632997e86b116100b75780632997e86b146101385780632b7ac3f3146101765780633495a3b4146101c157806349590657146101e0575f5ffd5b8063082febf0146100e75780630be4f4221461010e5780632612354814610123575f5ffd5b366100e357005b5f5ffd5b3480156100f2575f5ffd5b506100fb6102bc565b6040519081526020015b60405180910390f35b348015610119575f5ffd5b506100fb602a5481565b610136610131366004610a28565b6102cb565b005b348015610143575f5ffd5b50610166610152366004610a28565b602c6020525f908152604090205460ff1681565b6040519015158152602001610105565b348015610181575f5ffd5b506101a97f000000000000000000000000000000000000000000000000000000000000000081565b6040516001600160a01b039091168152602001610105565b3480156101cc575f5ffd5b506101366101db366004610a84565b6103aa565b3480156101eb575f5ffd5b50602b546100fb565b3480156101ff575f5ffd5b50602a546100fb565b348015610213575f5ffd5b50610136610222366004610af4565b6106de565b348015610232575f5ffd5b506100fb610241366004610a28565b6108d4565b348015610251575f5ffd5b50610166610260366004610a28565b5f908152602c602052604090205460ff1690565b34801561027f575f5ffd5b506100fb602b5481565b348015610294575f5ffd5b506100fb601481565b3480156102a8575f5ffd5b506100fb6102b7366004610a28565b6108e9565b6102c860146002610c3a565b81565b5f34116103145760405162461bcd60e51b81526020600482015260126024820152714d757374206465706f7369742076616c756560701b60448201526064015b60405180910390fd5b806103565760405162461bcd60e51b8152602060048201526012602482015271125b9d985b1a590818dbdb5b5a5d1b595b9d60721b604482015260640161030b565b5f610360826108f8565b905081336001600160a01b03167f2ea2f16cf99095512ab31fb564c28506d8b72758cc9a4175583f8d024a16c1523460405161039e91815260200190565b60405180910390a35050565b5f858152602c602052604090205460ff16156103fd5760405162461bcd60e51b8152602060048201526012602482015271139bdd1948185b1c9958591e481cdc195b9d60721b604482015260640161030b565b5f831161044c5760405162461bcd60e51b815260206004820152601760248201527f416d6f756e74206d75737420626520706f736974697665000000000000000000604482015260640161030b565b8247101561049c5760405162461bcd60e51b815260206004820152601960248201527f496e73756666696369656e7420706f6f6c2062616c616e636500000000000000604482015260640161030b565b604080516003808252608082019092525f916020820160608036833701905050905085815f815181106104d1576104d1610c4c565b602002602001018181525050835f1b816001815181106104f3576104f3610c4c565b602002602001018181525050602b548160028151811061051557610515610c4c565b6020908102919091010152604051633a94343960e21b81526001600160a01b037f0000000000000000000000000000000000000000000000000000000000000000169063ea50d0e49061057090869086908690600401610c60565b6020604051808303815f875af115801561058c573d5f5f3e3d5ffd5b505050506040513d601f19601f820116820180604052508101906105b09190610cd8565b6105ec5760405162461bcd60e51b815260206004820152600d60248201526c24b73b30b634b210383937b7b360991b604482015260640161030b565b5f868152602c6020526040808220805460ff19166001179055516001600160a01b0387169086908381818185875af1925050503d805f8114610649576040519150601f19603f3d011682016040523d82523d5f602084013e61064e565b606091505b50509050806106915760405162461bcd60e51b815260206004820152600f60248201526e151c985b9cd9995c8819985a5b1959608a1b604482015260640161030b565b856001600160a01b0316877f7a80f1d28cde7af437839071848972b2a0b0d87a198873c35f1e5c19272df944876040516106cd91815260200190565b60405180910390a350505050505050565b5f848152602c602052604090205460ff16156107315760405162461bcd60e51b8152602060048201526012602482015271139bdd1948185b1c9958591e481cdc195b9d60721b604482015260640161030b565b604080516003808252608082019092525f916020820160608036833701905050905084815f8151811061076657610766610c4c565b602002602001018181525050838160018151811061078657610786610c4c565b602002602001018181525050602b54816002815181106107a8576107a8610c4c565b6020908102919091010152604051633a94343960e21b81526001600160a01b037f0000000000000000000000000000000000000000000000000000000000000000169063ea50d0e49061080390869086908690600401610c60565b6020604051808303815f875af115801561081f573d5f5f3e3d5ffd5b505050506040513d601f19601f820116820180604052508101906108439190610cd8565b61087f5760405162461bcd60e51b815260206004820152600d60248201526c24b73b30b634b210383937b7b360991b604482015260640161030b565b5f858152602c60205260409020805460ff191660011790556108a0846108f8565b50604051849086907fd2be5e1af978a60ae9cef2f81d49f263e289dcc7026ebb9ddf427cdd00e6cac9905f90a35050505050565b5f81601581106108e2575f80fd5b0154905081565b601581601581106108e2575f80fd5b5f61090560146002610c3a565b602a541061094b5760405162461bcd60e51b815260206004820152601360248201527213595c9adb19481d1c9959481a5cc8199d5b1b606a1b604482015260640161030b565b50602a5480825f5b60148110156109dd57610967600284610d0b565b5f036109a757816015826015811061098157610981610c4c565b01556109a0825f836015811061099957610999610c4c565b01546109f9565b91506109c8565b6109c5601582601581106109bd576109bd610c4c565b0154836109f9565b91505b6109d3600284610d1e565b9250600101610953565b50602b8190556109ee836001610d31565b602a55509092915050565b604080516020808201859052818301849052825180830384018152606090920190925280519101205b92915050565b5f60208284031215610a38575f5ffd5b5035919050565b5f5f83601f840112610a4f575f5ffd5b50813567ffffffffffffffff811115610a66575f5ffd5b602083019150836020828501011115610a7d575f5ffd5b9250929050565b5f5f5f5f5f60808688031215610a98575f5ffd5b8535945060208601356001600160a01b0381168114610ab5575f5ffd5b935060408601359250606086013567ffffffffffffffff811115610ad7575f5ffd5b610ae388828901610a3f565b969995985093965092949392505050565b5f5f5f5f60608587031215610b07575f5ffd5b8435935060208501359250604085013567ffffffffffffffff811115610b2b575f5ffd5b610b3787828801610a3f565b95989497509550505050565b634e487b7160e01b5f52601160045260245ffd5b6001815b6001841115610b9257808504811115610b7657610b76610b43565b6001841615610b8457908102905b60019390931c928002610b5b565b935093915050565b5f82610ba857506001610a22565b81610bb457505f610a22565b8160018114610bca5760028114610bd457610bf0565b6001915050610a22565b60ff841115610be557610be5610b43565b50506001821b610a22565b5060208310610133831016604e8410600b8410161715610c13575081810a610a22565b610c1f5f198484610b57565b805f1904821115610c3257610c32610b43565b029392505050565b5f610c458383610b9a565b9392505050565b634e487b7160e01b5f52603260045260245ffd5b60408152826040820152828460608301375f606084830101525f601f19601f85011682016060810160608483030160208501528085518083526080840191506020870193505f92505b80831015610ccc5783518252602082019150602084019350600183019250610ca9565b50979650505050505050565b5f60208284031215610ce8575f5ffd5b81518015158114610c45575f5ffd5b634e487b7160e01b5f52601260045260245ffd5b5f82610d1957610d19610cf7565b500690565b5f82610d2c57610d2c610cf7565b500490565b80820180821115610a2257610a22610b4356fea2646970667358221220c7c0b5d1e7b8815d3efb57415cd78553e8ddf81d7c60a1c91abe06d914009ecf64736f6c634300081b0033",
  "linkReferences": {},
  "deployedLinkReferences": {}
}